{
  "_format": "hh-sol-artifact-1",
  "contractName": "IBL",
  "sourceName": "contracts/IBL.sol",
  "abi": [
    {
      "inputs": [
        {
          "internalType": "address",
          "name": "_devAddress",
          "type": "address"
        }
      ],
      "stateMutability": "nonpayable",
      "type": "constructor"
    },
    {
      "anonymous": false,
      "inputs": [
        {
          "indexed": true,
          "internalType": "uint256",
          "name": "cycle",
          "type": "uint256"
        },
        {
          "indexed": true,
          "internalType": "address",
          "name": "account",
          "type": "address"
        },
        {
          "indexed": false,
          "internalType": "uint256",
          "name": "fees",
          "type": "uint256"
        }
      ],
      "name": "FeesClaimed",
      "type": "event"
    },
    {
      "anonymous": false,
      "inputs": [
        {
          "indexed": true,
          "internalType": "address",
          "name": "previousOwner",
          "type": "address"
        },
        {
          "indexed": true,
          "internalType": "address",
          "name": "newOwner",
          "type": "address"
        }
      ],
      "name": "OwnershipTransferred",
      "type": "event"
    },
    {
      "inputs": [],
      "name": "IBL_TEAM_FEE",
      "outputs": [
        {
          "internalType": "uint256",
          "name": "",
          "type": "uint256"
        }
      ],
      "stateMutability": "view",
      "type": "function"
    },
    {
      "inputs": [],
      "name": "POOL_FEE",
      "outputs": [
        {
          "internalType": "uint256",
          "name": "",
          "type": "uint256"
        }
      ],
      "stateMutability": "view",
      "type": "function"
    },
    {
      "inputs": [],
      "name": "SCALING_FACTOR",
      "outputs": [
        {
          "internalType": "uint256",
          "name": "",
          "type": "uint256"
        }
      ],
      "stateMutability": "view",
      "type": "function"
    },
    {
      "inputs": [
        {
          "internalType": "address",
          "name": "",
          "type": "address"
        }
      ],
      "name": "accAccruedFees",
      "outputs": [
        {
          "internalType": "uint256",
          "name": "",
          "type": "uint256"
        }
      ],
      "stateMutability": "view",
      "type": "function"
    },
    {
      "inputs": [
        {
          "internalType": "address",
          "name": "",
          "type": "address"
        }
      ],
      "name": "accCycleBatchesBurned",
      "outputs": [
        {
          "internalType": "uint256",
          "name": "",
          "type": "uint256"
        }
      ],
      "stateMutability": "view",
      "type": "function"
    },
    {
      "inputs": [
        {
          "internalType": "address",
          "name": "",
          "type": "address"
        }
      ],
      "name": "accFirstStake",
      "outputs": [
        {
          "internalType": "uint256",
          "name": "",
          "type": "uint256"
        }
      ],
      "stateMutability": "view",
      "type": "function"
    },
    {
      "inputs": [
        {
          "internalType": "address",
          "name": "",
          "type": "address"
        }
      ],
      "name": "accRewards",
      "outputs": [
        {
          "internalType": "uint256",
          "name": "",
          "type": "uint256"
        }
      ],
      "stateMutability": "view",
      "type": "function"
    },
    {
      "inputs": [
        {
          "internalType": "address",
          "name": "",
          "type": "address"
        }
      ],
      "name": "accSecondStake",
      "outputs": [
        {
          "internalType": "uint256",
          "name": "",
          "type": "uint256"
        }
      ],
      "stateMutability": "view",
      "type": "function"
    },
    {
      "inputs": [
        {
          "internalType": "address",
          "name": "",
          "type": "address"
        },
        {
          "internalType": "uint256",
          "name": "",
          "type": "uint256"
        }
      ],
      "name": "accStakeCycle",
      "outputs": [
        {
          "internalType": "uint256",
          "name": "",
          "type": "uint256"
        }
      ],
      "stateMutability": "view",
      "type": "function"
    },
    {
      "inputs": [
        {
          "internalType": "address",
          "name": "",
          "type": "address"
        }
      ],
      "name": "accWithdrawableStake",
      "outputs": [
        {
          "internalType": "uint256",
          "name": "",
          "type": "uint256"
        }
      ],
      "stateMutability": "view",
      "type": "function"
    },
    {
      "inputs": [],
      "name": "accruedFees",
      "outputs": [
        {
          "internalType": "uint256",
          "name": "",
          "type": "uint256"
        }
      ],
      "stateMutability": "view",
      "type": "function"
    },
    {
      "inputs": [
        {
          "components": [
            {
              "internalType": "string",
              "name": "id",
              "type": "string"
            },
            {
              "internalType": "uint256",
              "name": "runPrice",
              "type": "uint256"
            },
            {
              "internalType": "uint256",
              "name": "downloadPrice",
              "type": "uint256"
            },
            {
              "internalType": "address[]",
              "name": "owners",
              "type": "address[]"
            },
            {
              "internalType": "uint256[]",
              "name": "procentages",
              "type": "uint256[]"
            }
          ],
          "internalType": "struct IBL.Component",
          "name": "component",
          "type": "tuple"
        }
      ],
      "name": "addComponent",
      "outputs": [],
      "stateMutability": "payable",
      "type": "function"
    },
    {
      "inputs": [
        {
          "internalType": "uint256",
          "name": "",
          "type": "uint256"
        }
      ],
      "name": "alreadyUpdateCycleData",
      "outputs": [
        {
          "internalType": "bool",
          "name": "",
          "type": "bool"
        }
      ],
      "stateMutability": "view",
      "type": "function"
    },
    {
      "inputs": [
        {
          "internalType": "address",
          "name": "",
          "type": "address"
        }
      ],
      "name": "builderReward",
      "outputs": [
        {
          "internalType": "uint256",
          "name": "",
          "type": "uint256"
        }
      ],
      "stateMutability": "view",
      "type": "function"
    },
    {
      "inputs": [
        {
          "internalType": "uint256",
          "name": "x",
          "type": "uint256"
        }
      ],
      "name": "calculateProportion",
      "outputs": [
        {
          "internalType": "uint256",
          "name": "",
          "type": "uint256"
        }
      ],
      "stateMutability": "pure",
      "type": "function"
    },
    {
      "inputs": [],
      "name": "claimComponentOwnerFees",
      "outputs": [],
      "stateMutability": "nonpayable",
      "type": "function"
    },
    {
      "inputs": [],
      "name": "claimFees",
      "outputs": [],
      "stateMutability": "nonpayable",
      "type": "function"
    },
    {
      "inputs": [],
      "name": "claimRewards",
      "outputs": [],
      "stateMutability": "nonpayable",
      "type": "function"
    },
    {
      "inputs": [
        {
          "internalType": "string",
          "name": "",
          "type": "string"
        }
      ],
      "name": "componentData",
      "outputs": [
        {
          "internalType": "string",
          "name": "id",
          "type": "string"
        },
        {
          "internalType": "uint256",
          "name": "runPrice",
          "type": "uint256"
        },
        {
          "internalType": "uint256",
          "name": "downloadPrice",
          "type": "uint256"
        }
      ],
      "stateMutability": "view",
      "type": "function"
    },
    {
      "inputs": [],
      "name": "currentCycle",
      "outputs": [
        {
          "internalType": "uint256",
          "name": "",
          "type": "uint256"
        }
      ],
      "stateMutability": "view",
      "type": "function"
    },
    {
      "inputs": [],
      "name": "currentStartedCycle",
      "outputs": [
        {
          "internalType": "uint256",
          "name": "",
          "type": "uint256"
        }
      ],
      "stateMutability": "view",
      "type": "function"
    },
    {
      "inputs": [
        {
          "internalType": "uint256",
          "name": "",
          "type": "uint256"
        }
      ],
      "name": "cycleAccruedFees",
      "outputs": [
        {
          "internalType": "uint256",
          "name": "",
          "type": "uint256"
        }
      ],
      "stateMutability": "view",
      "type": "function"
    },
    {
      "inputs": [
        {
          "internalType": "uint256",
          "name": "",
          "type": "uint256"
        }
      ],
      "name": "cycleFeesPerStakeSummed",
      "outputs": [
        {
          "internalType": "uint256",
          "name": "",
          "type": "uint256"
        }
      ],
      "stateMutability": "view",
      "type": "function"
    },
    {
      "inputs": [
        {
          "internalType": "uint256",
          "name": "",
          "type": "uint256"
        }
      ],
      "name": "cycleTotalBatchesBurned",
      "outputs": [
        {
          "internalType": "uint256",
          "name": "",
          "type": "uint256"
        }
      ],
      "stateMutability": "view",
      "type": "function"
    },
    {
      "inputs": [],
      "name": "devAddress",
      "outputs": [
        {
          "internalType": "address",
          "name": "",
          "type": "address"
        }
      ],
      "stateMutability": "view",
      "type": "function"
    },
    {
      "inputs": [
        {
          "internalType": "string[]",
          "name": "componentsIds",
          "type": "string[]"
        }
      ],
      "name": "downlodApplication",
      "outputs": [],
      "stateMutability": "payable",
      "type": "function"
    },
    {
      "inputs": [],
      "name": "getCurrentCycle",
      "outputs": [
        {
          "internalType": "uint256",
          "name": "",
          "type": "uint256"
        }
      ],
      "stateMutability": "view",
      "type": "function"
    },
    {
      "inputs": [
        {
          "internalType": "string",
          "name": "id",
          "type": "string"
        }
      ],
      "name": "getFees",
      "outputs": [
        {
          "internalType": "uint256",
          "name": "",
          "type": "uint256"
        },
        {
          "internalType": "uint256",
          "name": "",
          "type": "uint256"
        }
      ],
      "stateMutability": "view",
      "type": "function"
    },
    {
      "inputs": [
        {
          "internalType": "string",
          "name": "id",
          "type": "string"
        }
      ],
      "name": "getOwnersForComponent",
      "outputs": [
        {
          "internalType": "address[]",
          "name": "",
          "type": "address[]"
        }
      ],
      "stateMutability": "view",
      "type": "function"
    },
    {
      "inputs": [
        {
          "internalType": "string",
          "name": "id",
          "type": "string"
        }
      ],
      "name": "getProcentagesForComponent",
      "outputs": [
        {
          "internalType": "uint256[]",
          "name": "",
          "type": "uint256[]"
        }
      ],
      "stateMutability": "view",
      "type": "function"
    },
    {
      "inputs": [],
      "name": "i_initialTimestamp",
      "outputs": [
        {
          "internalType": "uint256",
          "name": "",
          "type": "uint256"
        }
      ],
      "stateMutability": "view",
      "type": "function"
    },
    {
      "inputs": [],
      "name": "i_periodDuration",
      "outputs": [
        {
          "internalType": "uint256",
          "name": "",
          "type": "uint256"
        }
      ],
      "stateMutability": "view",
      "type": "function"
    },
    {
      "inputs": [],
      "name": "ibl",
      "outputs": [
        {
          "internalType": "contract IBLERC20",
          "name": "",
          "type": "address"
        }
      ],
      "stateMutability": "view",
      "type": "function"
    },
    {
      "inputs": [
        {
          "internalType": "address",
          "name": "",
          "type": "address"
        }
      ],
      "name": "lastActiveCycle",
      "outputs": [
        {
          "internalType": "uint256",
          "name": "",
          "type": "uint256"
        }
      ],
      "stateMutability": "view",
      "type": "function"
    },
    {
      "inputs": [
        {
          "internalType": "address",
          "name": "",
          "type": "address"
        }
      ],
      "name": "lastActiveCycleAccReward",
      "outputs": [
        {
          "internalType": "uint256",
          "name": "",
          "type": "uint256"
        }
      ],
      "stateMutability": "view",
      "type": "function"
    },
    {
      "inputs": [],
      "name": "lastCycleReward",
      "outputs": [
        {
          "internalType": "uint256",
          "name": "",
          "type": "uint256"
        }
      ],
      "stateMutability": "view",
      "type": "function"
    },
    {
      "inputs": [
        {
          "internalType": "address",
          "name": "",
          "type": "address"
        }
      ],
      "name": "lastFeeUpdateCycle",
      "outputs": [
        {
          "internalType": "uint256",
          "name": "",
          "type": "uint256"
        }
      ],
      "stateMutability": "view",
      "type": "function"
    },
    {
      "inputs": [
        {
          "internalType": "string",
          "name": "",
          "type": "string"
        }
      ],
      "name": "lastHighestDownloadPrice",
      "outputs": [
        {
          "internalType": "uint256",
          "name": "",
          "type": "uint256"
        }
      ],
      "stateMutability": "view",
      "type": "function"
    },
    {
      "inputs": [],
      "name": "lastStartedCycle",
      "outputs": [
        {
          "internalType": "uint256",
          "name": "",
          "type": "uint256"
        }
      ],
      "stateMutability": "view",
      "type": "function"
    },
    {
      "inputs": [],
      "name": "owner",
      "outputs": [
        {
          "internalType": "address",
          "name": "",
          "type": "address"
        }
      ],
      "stateMutability": "view",
      "type": "function"
    },
    {
      "inputs": [
        {
          "internalType": "address",
          "name": "",
          "type": "address"
        }
      ],
      "name": "ownerNativeFeeAcc",
      "outputs": [
        {
          "internalType": "uint256",
          "name": "",
          "type": "uint256"
        }
      ],
      "stateMutability": "view",
      "type": "function"
    },
    {
      "inputs": [],
      "name": "pendingStake",
      "outputs": [
        {
          "internalType": "uint256",
          "name": "",
          "type": "uint256"
        }
      ],
      "stateMutability": "view",
      "type": "function"
    },
    {
      "inputs": [],
      "name": "pendingStakeWithdrawal",
      "outputs": [
        {
          "internalType": "uint256",
          "name": "",
          "type": "uint256"
        }
      ],
      "stateMutability": "view",
      "type": "function"
    },
    {
      "inputs": [],
      "name": "previousStartedCycle",
      "outputs": [
        {
          "internalType": "uint256",
          "name": "",
          "type": "uint256"
        }
      ],
      "stateMutability": "view",
      "type": "function"
    },
    {
      "inputs": [],
      "name": "renounceOwnership",
      "outputs": [],
      "stateMutability": "nonpayable",
      "type": "function"
    },
    {
      "inputs": [
        {
          "internalType": "uint256",
          "name": "",
          "type": "uint256"
        }
      ],
      "name": "rewardPerCycle",
      "outputs": [
        {
          "internalType": "uint256",
          "name": "",
          "type": "uint256"
        }
      ],
      "stateMutability": "view",
      "type": "function"
    },
    {
      "inputs": [
        {
          "internalType": "string[]",
          "name": "componentsIds",
          "type": "string[]"
        }
      ],
      "name": "runApplication",
      "outputs": [],
      "stateMutability": "payable",
      "type": "function"
    },
    {
      "inputs": [
        {
          "internalType": "address",
          "name": "_devAddress",
          "type": "address"
        }
      ],
      "name": "setDevAddress",
      "outputs": [],
      "stateMutability": "nonpayable",
      "type": "function"
    },
    {
      "inputs": [
        {
          "internalType": "string",
          "name": "id",
          "type": "string"
        },
        {
          "internalType": "uint256",
          "name": "newRunPrice",
          "type": "uint256"
        },
        {
          "internalType": "uint256",
          "name": "newDownloadPrice",
          "type": "uint256"
        }
      ],
      "name": "setNewPrice",
      "outputs": [],
      "stateMutability": "payable",
      "type": "function"
    },
    {
      "inputs": [
        {
          "internalType": "uint256",
          "name": "amount",
          "type": "uint256"
        }
      ],
      "name": "stake",
      "outputs": [],
      "stateMutability": "nonpayable",
      "type": "function"
    },
    {
      "inputs": [
        {
          "internalType": "uint256",
          "name": "",
          "type": "uint256"
        }
      ],
      "name": "summedCycleStakes",
      "outputs": [
        {
          "internalType": "uint256",
          "name": "",
          "type": "uint256"
        }
      ],
      "stateMutability": "view",
      "type": "function"
    },
    {
      "inputs": [],
      "name": "totalNumberOfBatchesBurned",
      "outputs": [
        {
          "internalType": "uint256",
          "name": "",
          "type": "uint256"
        }
      ],
      "stateMutability": "view",
      "type": "function"
    },
    {
      "inputs": [
        {
          "internalType": "address",
          "name": "newOwner",
          "type": "address"
        }
      ],
      "name": "transferOwnership",
      "outputs": [],
      "stateMutability": "nonpayable",
      "type": "function"
    },
    {
      "inputs": [
        {
          "internalType": "uint256",
          "name": "amount",
          "type": "uint256"
        }
      ],
      "name": "unstake",
      "outputs": [],
      "stateMutability": "nonpayable",
      "type": "function"
    }
  ],
  "bytecode": "0x60c06040526101f4600b5561251c600c553480156200001d57600080fd5b50604051620078aa380380620078aa833981810160405281019062000043919062000275565b62000063620000576200013160201b60201c565b6200013960201b60201c565b600180819055506040516200007890620001fd565b604051809103906000f08015801562000095573d6000803e3d6000fd5b50600260006101000a81548173ffffffffffffffffffffffffffffffffffffffff021916908373ffffffffffffffffffffffffffffffffffffffff16021790555080600d60006101000a81548173ffffffffffffffffffffffffffffffffffffffff021916908373ffffffffffffffffffffffffffffffffffffffff16021790555042608081815250506201518060a0818152505050620002a7565b600033905090565b60008060009054906101000a900473ffffffffffffffffffffffffffffffffffffffff169050816000806101000a81548173ffffffffffffffffffffffffffffffffffffffff021916908373ffffffffffffffffffffffffffffffffffffffff1602179055508173ffffffffffffffffffffffffffffffffffffffff168173ffffffffffffffffffffffffffffffffffffffff167f8be0079c531659141344cd1fd0a4f28419497f9722a3daafe3b4186f6b6457e060405160405180910390a35050565b611a098062005ea183390190565b600080fd5b600073ffffffffffffffffffffffffffffffffffffffff82169050919050565b60006200023d8262000210565b9050919050565b6200024f8162000230565b81146200025b57600080fd5b50565b6000815190506200026f8162000244565b92915050565b6000602082840312156200028e576200028d6200020b565b5b60006200029e848285016200025e565b91505092915050565b60805160a051615bc6620002db600039600081816110380152611d6f0152600081816118d60152611d900152615bc66000f3fe6080604052600436106103355760003560e01c8063aabbb1bd116101ab578063d4432e4e116100f7578063eb90b2bc11610095578063f1b371e21161006f578063f1b371e214610c9b578063f2fde38b14610cc6578063fa845ca914610cef578063fded701214610d2c57610335565b8063eb90b2bc14610bf5578063ed725e8314610c33578063ef4cadc514610c7057610335565b8063dd1b9c4a116100d1578063dd1b9c4a14610b5a578063e203d03014610b85578063e60c90c414610b9c578063e858e05c14610bd957610335565b8063d4432e4e14610ad6578063d8043d8f14610b01578063db80a28c14610b1d57610335565b8063be26ed7f11610164578063c40af1ee1161013e578063c40af1ee14610a2e578063c4235ae914610a59578063d0d41fe114610a96578063d294f09314610abf57610335565b8063be26ed7f14610989578063bebc9dfc146109b4578063bee7708e146109f157610335565b8063aabbb1bd1461082d578063adc0f6861461086a578063af2f850e146108a7578063b6f2a9ce146108e4578063bab2f55214610921578063bc7132901461094c57610335565b8063541c78861161028557806374ef836711610223578063a2727db3116101fd578063a2727db31461075f578063a694fc3a1461079c578063a707140b146107c5578063a95f1dac1461080257610335565b806374ef8367146106ed5780638bd95563146107095780638da5cb5b1461073457610335565b8063682c20581161025f578063682c20581461066457806368f057691461068f5780636adb0eb6146106ba578063715018a6146106d657610335565b8063541c7886146105bf5780635f5080b4146105fc578063650b18811461062757610335565b80632e17de78116102f25780633ad10ef6116102cc5780633ad10ef6146104ef5780633f78ccc51461051a578063436091c1146105575780635347a47d1461058257610335565b80632e17de78146104845780632f7cdab0146104ad578063372500ab146104d857610335565b80630ece21541461033a57806312cb22ac1461037757806312d47439146103b4578063168b0a5c146103df57806317d9c47a1461040a5780631ed6380f14610447575b600080fd5b34801561034657600080fd5b50610361600480360381019061035c91906143cb565b610d6b565b60405161036e9190614407565b60405180910390f35b34801561038357600080fd5b5061039e60048036038101906103999190614480565b610d83565b6040516103ab9190614407565b60405180910390f35b3480156103c057600080fd5b506103c9610d9b565b6040516103d69190614407565b60405180910390f35b3480156103eb57600080fd5b506103f4610da1565b604051610401919061450c565b60405180910390f35b34801561041657600080fd5b50610431600480360381019061042c91906143cb565b610dc7565b60405161043e9190614407565b60405180910390f35b34801561045357600080fd5b5061046e60048036038101906104699190614480565b610ddf565b60405161047b9190614407565b60405180910390f35b34801561049057600080fd5b506104ab60048036038101906104a691906143cb565b610df6565b005b3480156104b957600080fd5b506104c2611036565b6040516104cf9190614407565b60405180910390f35b3480156104e457600080fd5b506104ed61105a565b005b3480156104fb57600080fd5b506105046112a0565b6040516105119190614536565b60405180910390f35b34801561052657600080fd5b50610541600480360381019061053c9190614480565b6112c6565b60405161054e9190614407565b60405180910390f35b34801561056357600080fd5b5061056c6112de565b6040516105799190614407565b60405180910390f35b34801561058e57600080fd5b506105a960048036038101906105a49190614697565b6112e4565b6040516105b69190614407565b60405180910390f35b3480156105cb57600080fd5b506105e660048036038101906105e19190614697565b611312565b6040516105f3919061479e565b60405180910390f35b34801561060857600080fd5b506106116113c1565b60405161061e9190614407565b60405180910390f35b34801561063357600080fd5b5061064e600480360381019061064991906143cb565b6113c7565b60405161065b9190614407565b60405180910390f35b34801561067057600080fd5b506106796113ee565b6040516106869190614407565b60405180910390f35b34801561069b57600080fd5b506106a46113f4565b6040516106b19190614407565b60405180910390f35b6106d460048036038101906106cf91906148a6565b6113fa565b005b3480156106e257600080fd5b506106eb611733565b005b61070760048036038101906107029190614b5f565b611747565b005b34801561071557600080fd5b5061071e6118d4565b60405161072b9190614407565b60405180910390f35b34801561074057600080fd5b506107496118f8565b6040516107569190614536565b60405180910390f35b34801561076b57600080fd5b5061078660048036038101906107819190614480565b611921565b6040516107939190614407565b60405180910390f35b3480156107a857600080fd5b506107c360048036038101906107be91906143cb565b611939565b005b3480156107d157600080fd5b506107ec60048036038101906107e79190614480565b611c59565b6040516107f99190614407565b60405180910390f35b34801561080e57600080fd5b50610817611c71565b6040516108249190614407565b60405180910390f35b34801561083957600080fd5b50610854600480360381019061084f9190614ba8565b611c77565b6040516108619190614407565b60405180910390f35b34801561087657600080fd5b50610891600480360381019061088c91906143cb565b611c9c565b60405161089e9190614407565b60405180910390f35b3480156108b357600080fd5b506108ce60048036038101906108c991906143cb565b611cb4565b6040516108db9190614c03565b60405180910390f35b3480156108f057600080fd5b5061090b60048036038101906109069190614697565b611cd4565b6040516109189190614cdc565b60405180910390f35b34801561092d57600080fd5b50610936611d4d565b6040516109439190614407565b60405180910390f35b34801561095857600080fd5b50610973600480360381019061096e9190614480565b611d53565b6040516109809190614407565b60405180910390f35b34801561099557600080fd5b5061099e611d6b565b6040516109ab9190614407565b60405180910390f35b3480156109c057600080fd5b506109db60048036038101906109d691906143cb565b611dc9565b6040516109e89190614407565b60405180910390f35b3480156109fd57600080fd5b50610a186004803603810190610a139190614480565b611de1565b604051610a259190614407565b60405180910390f35b348015610a3a57600080fd5b50610a43611df9565b604051610a509190614407565b60405180910390f35b348015610a6557600080fd5b50610a806004803603810190610a7b91906143cb565b611dff565b604051610a8d9190614407565b60405180910390f35b348015610aa257600080fd5b50610abd6004803603810190610ab89190614480565b611e17565b005b348015610acb57600080fd5b50610ad4611e73565b005b348015610ae257600080fd5b50610aeb611f75565b604051610af89190614407565b60405180910390f35b610b1b6004803603810190610b1691906148a6565b611f7b565b005b348015610b2957600080fd5b50610b446004803603810190610b3f9190614480565b6122b4565b604051610b519190614407565b60405180910390f35b348015610b6657600080fd5b50610b6f6122cc565b604051610b7c9190614407565b60405180910390f35b348015610b9157600080fd5b50610b9a6122d2565b005b348015610ba857600080fd5b50610bc36004803603810190610bbe9190614480565b6123d4565b604051610bd09190614407565b60405180910390f35b610bf36004803603810190610bee9190614cfe565b6123ec565b005b348015610c0157600080fd5b50610c1c6004803603810190610c179190614697565b612836565b604051610c2a929190614d6d565b60405180910390f35b348015610c3f57600080fd5b50610c5a6004803603810190610c559190614480565b612886565b604051610c679190614407565b60405180910390f35b348015610c7c57600080fd5b50610c8561289e565b604051610c929190614407565b60405180910390f35b348015610ca757600080fd5b50610cb06128b3565b604051610cbd9190614407565b60405180910390f35b348015610cd257600080fd5b50610ced6004803603810190610ce89190614480565b6128b9565b005b348015610cfb57600080fd5b50610d166004803603810190610d119190614480565b61293c565b604051610d239190614407565b60405180910390f35b348015610d3857600080fd5b50610d536004803603810190610d4e9190614697565b612954565b604051610d6293929190614e15565b60405180910390f35b601e6020528060005260406000206000915090505481565b60166020528060005260406000206000915090505481565b600b5481565b600260009054906101000a900473ffffffffffffffffffffffffffffffffffffffff1681565b60176020528060005260406000206000915090505481565b602080528060005260406000206000915090505481565b610dfe612a1c565b610e06612a6b565b610e0e612a8c565b610e1733612bb5565b60008111610e5a576040517f08c379a0000000000000000000000000000000000000000000000000000000008152600401610e5190614e9f565b60405180910390fd5b602060003373ffffffffffffffffffffffffffffffffffffffff1673ffffffffffffffffffffffffffffffffffffffff16815260200190815260200160002054811115610edc576040517f08c379a0000000000000000000000000000000000000000000000000000000008152600401610ed390614f31565b60405180910390fd5b60135460115403610f05578060146000828254610ef99190614f80565b92505081905550610f32565b80601c6000600f5481526020019081526020016000206000828254610f2a9190614fb4565b925050819055505b80602060003373ffffffffffffffffffffffffffffffffffffffff1673ffffffffffffffffffffffffffffffffffffffff1681526020019081526020016000206000828254610f819190614fb4565b9250508190555080601960003373ffffffffffffffffffffffffffffffffffffffff1673ffffffffffffffffffffffffffffffffffffffff1681526020019081526020016000206000828254610fd79190614fb4565b9250508190555061102b3382600260009054906101000a900473ffffffffffffffffffffffffffffffffffffffff1673ffffffffffffffffffffffffffffffffffffffff166139ad9092919063ffffffff16565b611033613a33565b50565b7f000000000000000000000000000000000000000000000000000000000000000081565b611062612a1c565b61106a612a6b565b611072612a8c565b61107b33612bb5565b6000602060003373ffffffffffffffffffffffffffffffffffffffff1673ffffffffffffffffffffffffffffffffffffffff16815260200190815260200160002054601960003373ffffffffffffffffffffffffffffffffffffffff1673ffffffffffffffffffffffffffffffffffffffff168152602001908152602001600020546111079190614fb4565b90506000811161114c576040517f08c379a000000000000000000000000000000000000000000000000000000000815260040161114390615034565b60405180910390fd5b80601960003373ffffffffffffffffffffffffffffffffffffffff1673ffffffffffffffffffffffffffffffffffffffff168152602001908152602001600020600082825461119b9190614fb4565b92505081905550601354601154036111cb5780601460008282546111bf9190614f80565b92505081905550611206565b80601c6000600f548152602001908152602001600020546111ec9190614fb4565b601c6000600f548152602001908152602001600020819055505b600260009054906101000a900473ffffffffffffffffffffffffffffffffffffffff1673ffffffffffffffffffffffffffffffffffffffff16639a49090e33836040518363ffffffff1660e01b8152600401611263929190615054565b600060405180830381600087803b15801561127d57600080fd5b505af1158015611291573d6000803e3d6000fd5b505050505061129e613a33565b565b600d60009054906101000a900473ffffffffffffffffffffffffffffffffffffffff1681565b601a6020528060005260406000206000915090505481565b60115481565b6007818051602081018201805184825260208301602085012081835280955050505050506000915090505481565b606060038260405161132491906150b9565b90815260200160405180910390206003018054806020026020016040519081016040528092919081815260200182805480156113b557602002820191906000526020600020905b8160009054906101000a900473ffffffffffffffffffffffffffffffffffffffff1673ffffffffffffffffffffffffffffffffffffffff168152602001906001019080831161136b575b50505050509050919050565b60125481565b60008060016064846113d991906150d0565b6113e39190615141565b905080915050919050565b600a5481565b60145481565b611402612a1c565b61140a612a6b565b611412612a8c565b61141a613a3c565b61142333612bb5565b6000808251905061143261425e565b606080600080600090505b8581101561171857600388828151811061145a57611459615172565b5b602002602001015160405161146f91906150b9565b90815260200160405180910390206040518060a0016040529081600082018054611498906151d0565b80601f01602080910402602001604051908101604052809291908181526020018280546114c4906151d0565b80156115115780601f106114e657610100808354040283529160200191611511565b820191906000526020600020905b8154815290600101906020018083116114f457829003601f168201915b505050505081526020016001820154815260200160028201548152602001600382018054806020026020016040519081016040528092919081815260200182805480156115b357602002820191906000526020600020905b8160009054906101000a900473ffffffffffffffffffffffffffffffffffffffff1673ffffffffffffffffffffffffffffffffffffffff1681526020019060010190808311611569575b505050505081526020016004820180548060200260200160405190810160405280929190818152602001828054801561160b57602002820191906000526020600020905b8154815260200190600101908083116115f7575b505050505081525050945084606001519350846080015192508351915060005b828110156116f257670de0b6b3a764000084828151811061164f5761164e615172565b5b6020026020010151876020015161166691906150d0565b6116709190615141565b6005600087848151811061168757611686615172565b5b602002602001015173ffffffffffffffffffffffffffffffffffffffff1673ffffffffffffffffffffffffffffffffffffffff16815260200190815260200160002060008282546116d89190614f80565b9250508190555080806116ea90615201565b91505061162b565b508460200151876117039190614f80565b9650808061171090615201565b91505061143d565b5061172286613b67565b505050505050611730613a33565b50565b61173b613d46565b6117456000613dc4565b565b61174f612a1c565b611757612a6b565b61175f612a8c565b61176833612bb5565b806040015134146117ae576040517f08c379a00000000000000000000000000000000000000000000000000000000081526004016117a5906152bb565b60405180910390fd5b6040518060a00160405280826000015181526020018260200151815260200182604001518152602001826060015181526020018260800151815250600382600001516040516117fd91906150b9565b90815260200160405180910390206000820151816000019081611820919061547d565b506020820151816001015560408201518160020155606082015181600301908051906020019061185192919061428d565b50608082015181600401908051906020019061186e929190614317565b5090505080604001516007826000015160405161188b91906150b9565b9081526020016040518091039020819055506118c9600d60009054906101000a900473ffffffffffffffffffffffffffffffffffffffff1634613e88565b6118d1613a33565b50565b7f000000000000000000000000000000000000000000000000000000000000000081565b60008060009054906101000a900473ffffffffffffffffffffffffffffffffffffffff16905090565b60046020528060005260406000206000915090505481565b611941612a1c565b611949612a6b565b611951612a8c565b61195a33612bb5565b6000811161199d576040517f08c379a000000000000000000000000000000000000000000000000000000000815260040161199490614e9f565b60405180910390fd5b80600e60008282546119af9190614f80565b9250508190555060006001600f546119c79190614f80565b9050601354601154036119e65760016011546119e39190614f80565b90505b602160003373ffffffffffffffffffffffffffffffffffffffff1673ffffffffffffffffffffffffffffffffffffffff168152602001908152602001600020548114158015611a745750602260003373ffffffffffffffffffffffffffffffffffffffff1673ffffffffffffffffffffffffffffffffffffffff168152602001908152602001600020548114155b15611b97576000602160003373ffffffffffffffffffffffffffffffffffffffff1673ffffffffffffffffffffffffffffffffffffffff1681526020019081526020016000205403611b095780602160003373ffffffffffffffffffffffffffffffffffffffff1673ffffffffffffffffffffffffffffffffffffffff16815260200190815260200160002081905550611b96565b6000602260003373ffffffffffffffffffffffffffffffffffffffff1673ffffffffffffffffffffffffffffffffffffffff1681526020019081526020016000205403611b955780602260003373ffffffffffffffffffffffffffffffffffffffff1673ffffffffffffffffffffffffffffffffffffffff168152602001908152602001600020819055505b5b5b81601f60003373ffffffffffffffffffffffffffffffffffffffff1673ffffffffffffffffffffffffffffffffffffffff16815260200190815260200160002060008381526020019081526020016000206000828254611bf79190614f80565b92505081905550611c4d333084600260009054906101000a900473ffffffffffffffffffffffffffffffffffffffff1673ffffffffffffffffffffffffffffffffffffffff16613f39909392919063ffffffff16565b50611c56613a33565b50565b601d6020528060005260406000206000915090505481565b60105481565b601f602052816000526040600020602052806000526040600020600091509150505481565b601b6020528060005260406000206000915090505481565b60066020528060005260406000206000915054906101000a900460ff1681565b6060600382604051611ce691906150b9565b9081526020016040518091039020600401805480602002602001604051908101604052809291908181526020018280548015611d4157602002820191906000526020600020905b815481526020019060010190808311611d2d575b50505050509050919050565b600f5481565b60096020528060005260406000206000915090505481565b60007f00000000000000000000000000000000000000000000000000000000000000007f000000000000000000000000000000000000000000000000000000000000000042611dba9190614fb4565b611dc49190615141565b905090565b60086020528060005260406000206000915090505481565b60056020528060005260406000206000915090505481565b60155481565b601c6020528060005260406000206000915090505481565b611e1f613d46565b611e27612a1c565b80600d60006101000a81548173ffffffffffffffffffffffffffffffffffffffff021916908373ffffffffffffffffffffffffffffffffffffffff160217905550611e70613a33565b50565b611e7b612a1c565b611e83612a6b565b611e8b612a8c565b611e9433612bb5565b6000600960003373ffffffffffffffffffffffffffffffffffffffff1673ffffffffffffffffffffffffffffffffffffffff16815260200190815260200160002054905060008111611f1b576040517f08c379a0000000000000000000000000000000000000000000000000000000008152600401611f1290614e9f565b60405180910390fd5b6000600960003373ffffffffffffffffffffffffffffffffffffffff1673ffffffffffffffffffffffffffffffffffffffff16815260200190815260200160002081905550611f6a3382613e88565b50611f73613a33565b565b600e5481565b611f83612a1c565b611f8b612a6b565b611f93612a8c565b611f9b613a3c565b611fa433612bb5565b60008082519050611fb361425e565b606080600080600090505b85811015612299576003888281518110611fdb57611fda615172565b5b6020026020010151604051611ff091906150b9565b90815260200160405180910390206040518060a0016040529081600082018054612019906151d0565b80601f0160208091040260200160405190810160405280929190818152602001828054612045906151d0565b80156120925780601f1061206757610100808354040283529160200191612092565b820191906000526020600020905b81548152906001019060200180831161207557829003601f168201915b5050505050815260200160018201548152602001600282015481526020016003820180548060200260200160405190810160405280929190818152602001828054801561213457602002820191906000526020600020905b8160009054906101000a900473ffffffffffffffffffffffffffffffffffffffff1673ffffffffffffffffffffffffffffffffffffffff16815260200190600101908083116120ea575b505050505081526020016004820180548060200260200160405190810160405280929190818152602001828054801561218c57602002820191906000526020600020905b815481526020019060010190808311612178575b505050505081525050945084606001519350846080015192508351915060005b8281101561227357670de0b6b3a76400008482815181106121d0576121cf615172565b5b602002602001015187604001516121e791906150d0565b6121f19190615141565b6005600087848151811061220857612207615172565b5b602002602001015173ffffffffffffffffffffffffffffffffffffffff1673ffffffffffffffffffffffffffffffffffffffff16815260200190815260200160002060008282546122599190614f80565b92505081905550808061226b90615201565b9150506121ac565b508460400151876122849190614f80565b9650808061229190615201565b915050611fbe565b506122a386613b67565b5050505050506122b1613a33565b50565b60226020528060005260406000206000915090505481565b600c5481565b6122da612a1c565b6122e2612a6b565b6122ea612a8c565b6122f333612bb5565b6000600560003373ffffffffffffffffffffffffffffffffffffffff1673ffffffffffffffffffffffffffffffffffffffff1681526020019081526020016000205490506000811161237a576040517f08c379a000000000000000000000000000000000000000000000000000000000815260040161237190614e9f565b60405180910390fd5b6000600560003373ffffffffffffffffffffffffffffffffffffffff1673ffffffffffffffffffffffffffffffffffffffff168152602001908152602001600020819055506123c93382613e88565b506123d2613a33565b565b60216020528060005260406000206000915090505481565b6123f4612a1c565b6123fc612a6b565b612404612a8c565b61240d33612bb5565b600060038460405161241f91906150b9565b90815260200160405180910390206040518060a0016040529081600082018054612448906151d0565b80601f0160208091040260200160405190810160405280929190818152602001828054612474906151d0565b80156124c15780601f10612496576101008083540402835291602001916124c1565b820191906000526020600020905b8154815290600101906020018083116124a457829003601f168201915b5050505050815260200160018201548152602001600282015481526020016003820180548060200260200160405190810160405280929190818152602001828054801561256357602002820191906000526020600020905b8160009054906101000a900473ffffffffffffffffffffffffffffffffffffffff1673ffffffffffffffffffffffffffffffffffffffff1681526020019060010190808311612519575b50505050508152602001600482018054806020026020016040519081016040528092919081815260200182805480156125bb57602002820191906000526020600020905b8154815260200190600101908083116125a7575b5050505050815250509050600081606001519050600081519050600080600090505b8281101561264e573373ffffffffffffffffffffffffffffffffffffffff1684828151811061260f5761260e615172565b5b602002602001015173ffffffffffffffffffffffffffffffffffffffff160361263b576001915061264e565b808061264690615201565b9150506125dd565b508061268f576040517f08c379a0000000000000000000000000000000000000000000000000000000008152600401612686906155c1565b60405180910390fd5b846007886040516126a091906150b9565b9081526020016040518091039020541015612771576007876040516126c591906150b9565b908152602001604051809103902054856126df9190614fb4565b341015612721576040517f08c379a000000000000000000000000000000000000000000000000000000000815260040161271890615653565b60405180910390fd5b8460078860405161273291906150b9565b90815260200160405180910390208190555034601e6000600f54815260200190815260200160002060008282546127699190614f80565b925050819055505b6040518060a001604052808881526020018781526020018681526020018560600151815260200185608001518152506003886040516127b091906150b9565b908152602001604051809103902060008201518160000190816127d3919061547d565b506020820151816001015560408201518160020155606082015181600301908051906020019061280492919061428d565b506080820151816004019080519060200190612821929190614317565b5090505050505050612831613a33565b505050565b60008060038360405161284991906150b9565b90815260200160405180910390206001015460038460405161286b91906150b9565b90815260200160405180910390206002015491509150915091565b60196020528060005260406000206000915090505481565b701d6329f1c35ca4bfabb9f561000000000081565b60135481565b6128c1613d46565b600073ffffffffffffffffffffffffffffffffffffffff168173ffffffffffffffffffffffffffffffffffffffff1603612930576040517f08c379a0000000000000000000000000000000000000000000000000000000008152600401612927906156e5565b60405180910390fd5b61293981613dc4565b50565b60186020528060005260406000206000915090505481565b60038180516020810182018051848252602083016020850120818352809550505050505060009150905080600001805461298d906151d0565b80601f01602080910402602001604051908101604052809291908181526020018280546129b9906151d0565b8015612a065780601f106129db57610100808354040283529160200191612a06565b820191906000526020600020905b8154815290600101906020018083116129e957829003601f168201915b5050505050908060010154908060020154905083565b600260015403612a61576040517f08c379a0000000000000000000000000000000000000000000000000000000008152600401612a5890615751565b60405180910390fd5b6002600181905550565b6000612a75611d6b565b9050600f54811115612a895780600f819055505b50565b601354600f5414612ab6576001601154612aa69190614f80565b6012819055506013546011819055505b601154600f54118015612aea57506000600860006001601154612ad99190614f80565b815260200190815260200160002054145b15612bb357600080601c600060115481526020019081526020016000205414612b6657601c6000601154815260200190815260200160002054701d6329f1c35ca4bfabb9f5610000000000601e6000601154815260200190815260200160002054612b5591906150d0565b612b5f9190615141565b9050612b6b565b600090505b8060086000601254815260200190815260200160002054612b8c9190614f80565b600860006001601154612b9f9190614f80565b815260200190815260200160002081905550505b565b601860008273ffffffffffffffffffffffffffffffffffffffff1673ffffffffffffffffffffffffffffffffffffffff16815260200190815260200160002054600f54118015612c4557506000601a60008373ffffffffffffffffffffffffffffffffffffffff1673ffffffffffffffffffffffffffffffffffffffff1681526020019081526020016000205414155b15612d2557601a60008273ffffffffffffffffffffffffffffffffffffffff1673ffffffffffffffffffffffffffffffffffffffff16815260200190815260200160002054601960008373ffffffffffffffffffffffffffffffffffffffff1673ffffffffffffffffffffffffffffffffffffffff1681526020019081526020016000206000828254612cd89190614f80565b925050819055506000601a60008373ffffffffffffffffffffffffffffffffffffffff1673ffffffffffffffffffffffffffffffffffffffff168152602001908152602001600020819055505b601154600f54118015612d8557506001601154612d429190614f80565b601d60008373ffffffffffffffffffffffffffffffffffffffff1673ffffffffffffffffffffffffffffffffffffffff1681526020019081526020016000205414155b15612f4f57701d6329f1c35ca4bfabb9f561000000000060086000601d60008573ffffffffffffffffffffffffffffffffffffffff1673ffffffffffffffffffffffffffffffffffffffff16815260200190815260200160002054815260200190815260200160002054600860006001601154612e029190614f80565b815260200190815260200160002054612e1b9190614fb4565b601960008473ffffffffffffffffffffffffffffffffffffffff1673ffffffffffffffffffffffffffffffffffffffff16815260200190815260200160002054612e6591906150d0565b612e6f9190615141565b600960008373ffffffffffffffffffffffffffffffffffffffff1673ffffffffffffffffffffffffffffffffffffffff16815260200190815260200160002054612eb99190614f80565b600960008373ffffffffffffffffffffffffffffffffffffffff1673ffffffffffffffffffffffffffffffffffffffff168152602001908152602001600020819055506001601154612f0b9190614f80565b601d60008373ffffffffffffffffffffffffffffffffffffffff1673ffffffffffffffffffffffffffffffffffffffff168152602001908152602001600020819055505b6000602160008373ffffffffffffffffffffffffffffffffffffffff1673ffffffffffffffffffffffffffffffffffffffff1681526020019081526020016000205414158015612fdf5750602160008273ffffffffffffffffffffffffffffffffffffffff1673ffffffffffffffffffffffffffffffffffffffff16815260200190815260200160002054600f54115b156139aa576000601f60008373ffffffffffffffffffffffffffffffffffffffff1673ffffffffffffffffffffffffffffffffffffffff1681526020019081526020016000206000602160008573ffffffffffffffffffffffffffffffffffffffff1673ffffffffffffffffffffffffffffffffffffffff16815260200190815260200160002054815260200190815260200160002054905080601960008473ffffffffffffffffffffffffffffffffffffffff1673ffffffffffffffffffffffffffffffffffffffff16815260200190815260200160002060008282546130c79190614f80565b9250508190555080602060008473ffffffffffffffffffffffffffffffffffffffff1673ffffffffffffffffffffffffffffffffffffffff168152602001908152602001600020600082825461311d9190614f80565b92505081905550602160008373ffffffffffffffffffffffffffffffffffffffff1673ffffffffffffffffffffffffffffffffffffffff1681526020019081526020016000205460016011546131739190614f80565b111561333c57701d6329f1c35ca4bfabb9f561000000000060086000602160008673ffffffffffffffffffffffffffffffffffffffff1673ffffffffffffffffffffffffffffffffffffffff168152602001908152602001600020548152602001908152602001600020546008600060016011546131f19190614f80565b81526020019081526020016000205461320a9190614fb4565b601f60008573ffffffffffffffffffffffffffffffffffffffff1673ffffffffffffffffffffffffffffffffffffffff1681526020019081526020016000206000602160008773ffffffffffffffffffffffffffffffffffffffff1673ffffffffffffffffffffffffffffffffffffffff168152602001908152602001600020548152602001908152602001600020546132a491906150d0565b6132ae9190615141565b600960008473ffffffffffffffffffffffffffffffffffffffff1673ffffffffffffffffffffffffffffffffffffffff168152602001908152602001600020546132f89190614f80565b600960008473ffffffffffffffffffffffffffffffffffffffff1673ffffffffffffffffffffffffffffffffffffffff168152602001908152602001600020819055505b6000601f60008473ffffffffffffffffffffffffffffffffffffffff1673ffffffffffffffffffffffffffffffffffffffff1681526020019081526020016000206000602160008673ffffffffffffffffffffffffffffffffffffffff1673ffffffffffffffffffffffffffffffffffffffff168152602001908152602001600020548152602001908152602001600020819055506000602160008473ffffffffffffffffffffffffffffffffffffffff1673ffffffffffffffffffffffffffffffffffffffff168152602001908152602001600020819055506000602260008473ffffffffffffffffffffffffffffffffffffffff1673ffffffffffffffffffffffffffffffffffffffff16815260200190815260200160002054146139a857602260008373ffffffffffffffffffffffffffffffffffffffff1673ffffffffffffffffffffffffffffffffffffffff16815260200190815260200160002054600f5411156138de576000601f60008473ffffffffffffffffffffffffffffffffffffffff1673ffffffffffffffffffffffffffffffffffffffff1681526020019081526020016000206000602260008673ffffffffffffffffffffffffffffffffffffffff1673ffffffffffffffffffffffffffffffffffffffff16815260200190815260200160002054815260200190815260200160002054905080601960008573ffffffffffffffffffffffffffffffffffffffff1673ffffffffffffffffffffffffffffffffffffffff16815260200190815260200160002060008282546135899190614f80565b9250508190555080602060008573ffffffffffffffffffffffffffffffffffffffff1673ffffffffffffffffffffffffffffffffffffffff16815260200190815260200160002060008282546135df9190614f80565b92505081905550602260008473ffffffffffffffffffffffffffffffffffffffff1673ffffffffffffffffffffffffffffffffffffffff1681526020019081526020016000205460016011546136359190614f80565b11156137fe57701d6329f1c35ca4bfabb9f561000000000060086000602260008773ffffffffffffffffffffffffffffffffffffffff1673ffffffffffffffffffffffffffffffffffffffff168152602001908152602001600020548152602001908152602001600020546008600060016011546136b39190614f80565b8152602001908152602001600020546136cc9190614fb4565b601f60008673ffffffffffffffffffffffffffffffffffffffff1673ffffffffffffffffffffffffffffffffffffffff1681526020019081526020016000206000602260008873ffffffffffffffffffffffffffffffffffffffff1673ffffffffffffffffffffffffffffffffffffffff1681526020019081526020016000205481526020019081526020016000205461376691906150d0565b6137709190615141565b600960008573ffffffffffffffffffffffffffffffffffffffff1673ffffffffffffffffffffffffffffffffffffffff168152602001908152602001600020546137ba9190614f80565b600960008573ffffffffffffffffffffffffffffffffffffffff1673ffffffffffffffffffffffffffffffffffffffff168152602001908152602001600020819055505b6000601f60008573ffffffffffffffffffffffffffffffffffffffff1673ffffffffffffffffffffffffffffffffffffffff1681526020019081526020016000206000602260008773ffffffffffffffffffffffffffffffffffffffff1673ffffffffffffffffffffffffffffffffffffffff168152602001908152602001600020548152602001908152602001600020819055506000602260008573ffffffffffffffffffffffffffffffffffffffff1673ffffffffffffffffffffffffffffffffffffffff16815260200190815260200160002081905550506139a7565b602260008373ffffffffffffffffffffffffffffffffffffffff1673ffffffffffffffffffffffffffffffffffffffff16815260200190815260200160002054602160008473ffffffffffffffffffffffffffffffffffffffff1673ffffffffffffffffffffffffffffffffffffffff168152602001908152602001600020819055506000602260008473ffffffffffffffffffffffffffffffffffffffff1673ffffffffffffffffffffffffffffffffffffffff168152602001908152602001600020819055505b5b505b50565b613a2e8363a9059cbb60e01b84846040516024016139cc929190615054565b604051602081830303815290604052907bffffffffffffffffffffffffffffffffffffffffffffffffffffffff19166020820180517bffffffffffffffffffffffffffffffffffffffffffffffffffffffff8381831617835250505050613fc2565b505050565b60018081905550565b6000151560066000600f54815260200190815260200160002060009054906101000a900460ff16151503613b6557600160066000600f54815260200190815260200160002060006101000a81548160ff021916908315150217905550600f54601381905550601c6000601154815260200190815260200160002054601c600060135481526020019081526020016000206000828254613adb9190614f80565b925050819055506000600e5414613b2357600e54601c600060135481526020019081526020016000206000828254613b139190614f80565b925050819055506000600e819055505b600060145414613b6457601454601c600060135481526020019081526020016000206000828254613b549190614fb4565b9250508190555060006014819055505b5b565b600281613b7491906150d0565b3414613bb5576040517f08c379a0000000000000000000000000000000000000000000000000000000008152600401613bac906157bd565b60405180910390fd5b613bfb600d60009054906101000a900473ffffffffffffffffffffffffffffffffffffffff16612710600b5484613bec91906150d0565b613bf69190615141565b613e88565b612710600c5482613c0c91906150d0565b613c169190615141565b601e6000600f5481526020019081526020016000206000828254613c3a9190614f80565b925050819055506000613c4c346113c7565b905080601b6000600f5481526020019081526020016000206000828254613c739190614f80565b9250508190555080601a60003373ffffffffffffffffffffffffffffffffffffffff1673ffffffffffffffffffffffffffffffffffffffff1681526020019081526020016000206000828254613cc99190614f80565b92505081905550600f54601860003373ffffffffffffffffffffffffffffffffffffffff1673ffffffffffffffffffffffffffffffffffffffff1681526020019081526020016000208190555080601c6000600f5481526020019081526020016000206000828254613d3b9190614f80565b925050819055505050565b613d4e614089565b73ffffffffffffffffffffffffffffffffffffffff16613d6c6118f8565b73ffffffffffffffffffffffffffffffffffffffff1614613dc2576040517f08c379a0000000000000000000000000000000000000000000000000000000008152600401613db990615829565b60405180910390fd5b565b60008060009054906101000a900473ffffffffffffffffffffffffffffffffffffffff169050816000806101000a81548173ffffffffffffffffffffffffffffffffffffffff021916908373ffffffffffffffffffffffffffffffffffffffff1602179055508173ffffffffffffffffffffffffffffffffffffffff168173ffffffffffffffffffffffffffffffffffffffff167f8be0079c531659141344cd1fd0a4f28419497f9722a3daafe3b4186f6b6457e060405160405180910390a35050565b60008273ffffffffffffffffffffffffffffffffffffffff1682604051613eae9061587a565b60006040518083038185875af1925050503d8060008114613eeb576040519150601f19603f3d011682016040523d82523d6000602084013e613ef0565b606091505b5050905080613f34576040517f08c379a0000000000000000000000000000000000000000000000000000000008152600401613f2b906158db565b60405180910390fd5b505050565b613fbc846323b872dd60e01b858585604051602401613f5a939291906158fb565b604051602081830303815290604052907bffffffffffffffffffffffffffffffffffffffffffffffffffffffff19166020820180517bffffffffffffffffffffffffffffffffffffffffffffffffffffffff8381831617835250505050613fc2565b50505050565b6000614024826040518060400160405280602081526020017f5361666545524332303a206c6f772d6c6576656c2063616c6c206661696c65648152508573ffffffffffffffffffffffffffffffffffffffff166140919092919063ffffffff16565b90506000815111156140845780806020019051810190614044919061595e565b614083576040517f08c379a000000000000000000000000000000000000000000000000000000000815260040161407a906159fd565b60405180910390fd5b5b505050565b600033905090565b60606140a084846000856140a9565b90509392505050565b6060824710156140ee576040517f08c379a00000000000000000000000000000000000000000000000000000000081526004016140e590615a8f565b60405180910390fd5b6000808673ffffffffffffffffffffffffffffffffffffffff1685876040516141179190615aeb565b60006040518083038185875af1925050503d8060008114614154576040519150601f19603f3d011682016040523d82523d6000602084013e614159565b606091505b509150915061416a87838387614176565b92505050949350505050565b606083156141d85760008351036141d057614190856141eb565b6141cf576040517f08c379a00000000000000000000000000000000000000000000000000000000081526004016141c690615b4e565b60405180910390fd5b5b8290506141e3565b6141e2838361420e565b5b949350505050565b6000808273ffffffffffffffffffffffffffffffffffffffff163b119050919050565b6000825111156142215781518083602001fd5b806040517f08c379a00000000000000000000000000000000000000000000000000000000081526004016142559190615b6e565b60405180910390fd5b6040518060a0016040528060608152602001600081526020016000815260200160608152602001606081525090565b828054828255906000526020600020908101928215614306579160200282015b828111156143055782518260006101000a81548173ffffffffffffffffffffffffffffffffffffffff021916908373ffffffffffffffffffffffffffffffffffffffff160217905550916020019190600101906142ad565b5b5090506143139190614364565b5090565b828054828255906000526020600020908101928215614353579160200282015b82811115614352578251825591602001919060010190614337565b5b5090506143609190614364565b5090565b5b8082111561437d576000816000905550600101614365565b5090565b6000604051905090565b600080fd5b600080fd5b6000819050919050565b6143a881614395565b81146143b357600080fd5b50565b6000813590506143c58161439f565b92915050565b6000602082840312156143e1576143e061438b565b5b60006143ef848285016143b6565b91505092915050565b61440181614395565b82525050565b600060208201905061441c60008301846143f8565b92915050565b600073ffffffffffffffffffffffffffffffffffffffff82169050919050565b600061444d82614422565b9050919050565b61445d81614442565b811461446857600080fd5b50565b60008135905061447a81614454565b92915050565b6000602082840312156144965761449561438b565b5b60006144a48482850161446b565b91505092915050565b6000819050919050565b60006144d26144cd6144c884614422565b6144ad565b614422565b9050919050565b60006144e4826144b7565b9050919050565b60006144f6826144d9565b9050919050565b614506816144eb565b82525050565b600060208201905061452160008301846144fd565b92915050565b61453081614442565b82525050565b600060208201905061454b6000830184614527565b92915050565b600080fd5b600080fd5b6000601f19601f8301169050919050565b7f4e487b7100000000000000000000000000000000000000000000000000000000600052604160045260246000fd5b6145a48261455b565b810181811067ffffffffffffffff821117156145c3576145c261456c565b5b80604052505050565b60006145d6614381565b90506145e2828261459b565b919050565b600067ffffffffffffffff8211156146025761460161456c565b5b61460b8261455b565b9050602081019050919050565b82818337600083830152505050565b600061463a614635846145e7565b6145cc565b90508281526020810184848401111561465657614655614556565b5b614661848285614618565b509392505050565b600082601f83011261467e5761467d614551565b5b813561468e848260208601614627565b91505092915050565b6000602082840312156146ad576146ac61438b565b5b600082013567ffffffffffffffff8111156146cb576146ca614390565b5b6146d784828501614669565b91505092915050565b600081519050919050565b600082825260208201905092915050565b6000819050602082019050919050565b61471581614442565b82525050565b6000614727838361470c565b60208301905092915050565b6000602082019050919050565b600061474b826146e0565b61475581856146eb565b9350614760836146fc565b8060005b83811015614791578151614778888261471b565b975061478383614733565b925050600181019050614764565b5085935050505092915050565b600060208201905081810360008301526147b88184614740565b905092915050565b600067ffffffffffffffff8211156147db576147da61456c565b5b602082029050602081019050919050565b600080fd5b60006148046147ff846147c0565b6145cc565b90508083825260208201905060208402830185811115614827576148266147ec565b5b835b8181101561486e57803567ffffffffffffffff81111561484c5761484b614551565b5b8086016148598982614669565b85526020850194505050602081019050614829565b5050509392505050565b600082601f83011261488d5761488c614551565b5b813561489d8482602086016147f1565b91505092915050565b6000602082840312156148bc576148bb61438b565b5b600082013567ffffffffffffffff8111156148da576148d9614390565b5b6148e684828501614878565b91505092915050565b600080fd5b600080fd5b600067ffffffffffffffff8211156149145761491361456c565b5b602082029050602081019050919050565b6000614938614933846148f9565b6145cc565b9050808382526020820190506020840283018581111561495b5761495a6147ec565b5b835b818110156149845780614970888261446b565b84526020840193505060208101905061495d565b5050509392505050565b600082601f8301126149a3576149a2614551565b5b81356149b3848260208601614925565b91505092915050565b600067ffffffffffffffff8211156149d7576149d661456c565b5b602082029050602081019050919050565b60006149fb6149f6846149bc565b6145cc565b90508083825260208201905060208402830185811115614a1e57614a1d6147ec565b5b835b81811015614a475780614a3388826143b6565b845260208401935050602081019050614a20565b5050509392505050565b600082601f830112614a6657614a65614551565b5b8135614a768482602086016149e8565b91505092915050565b600060a08284031215614a9557614a946148ef565b5b614a9f60a06145cc565b9050600082013567ffffffffffffffff811115614abf57614abe6148f4565b5b614acb84828501614669565b6000830152506020614adf848285016143b6565b6020830152506040614af3848285016143b6565b604083015250606082013567ffffffffffffffff811115614b1757614b166148f4565b5b614b238482850161498e565b606083015250608082013567ffffffffffffffff811115614b4757614b466148f4565b5b614b5384828501614a51565b60808301525092915050565b600060208284031215614b7557614b7461438b565b5b600082013567ffffffffffffffff811115614b9357614b92614390565b5b614b9f84828501614a7f565b91505092915050565b60008060408385031215614bbf57614bbe61438b565b5b6000614bcd8582860161446b565b9250506020614bde858286016143b6565b9150509250929050565b60008115159050919050565b614bfd81614be8565b82525050565b6000602082019050614c186000830184614bf4565b92915050565b600081519050919050565b600082825260208201905092915050565b6000819050602082019050919050565b614c5381614395565b82525050565b6000614c658383614c4a565b60208301905092915050565b6000602082019050919050565b6000614c8982614c1e565b614c938185614c29565b9350614c9e83614c3a565b8060005b83811015614ccf578151614cb68882614c59565b9750614cc183614c71565b925050600181019050614ca2565b5085935050505092915050565b60006020820190508181036000830152614cf68184614c7e565b905092915050565b600080600060608486031215614d1757614d1661438b565b5b600084013567ffffffffffffffff811115614d3557614d34614390565b5b614d4186828701614669565b9350506020614d52868287016143b6565b9250506040614d63868287016143b6565b9150509250925092565b6000604082019050614d8260008301856143f8565b614d8f60208301846143f8565b9392505050565b600081519050919050565b600082825260208201905092915050565b60005b83811015614dd0578082015181840152602081019050614db5565b60008484015250505050565b6000614de782614d96565b614df18185614da1565b9350614e01818560208601614db2565b614e0a8161455b565b840191505092915050565b60006060820190508181036000830152614e2f8186614ddc565b9050614e3e60208301856143f8565b614e4b60408301846143f8565b949350505050565b7f49424c3a20616d6f756e74206973207a65726f00000000000000000000000000600082015250565b6000614e89601383614da1565b9150614e9482614e53565b602082019050919050565b60006020820190508181036000830152614eb881614e7c565b9050919050565b7f49424c3a20616d6f756e742067726561746572207468616e207769746864726160008201527f7761626c65207374616b65000000000000000000000000000000000000000000602082015250565b6000614f1b602b83614da1565b9150614f2682614ebf565b604082019050919050565b60006020820190508181036000830152614f4a81614f0e565b9050919050565b7f4e487b7100000000000000000000000000000000000000000000000000000000600052601160045260246000fd5b6000614f8b82614395565b9150614f9683614395565b9250828201905080821115614fae57614fad614f51565b5b92915050565b6000614fbf82614395565b9150614fca83614395565b9250828203905081811115614fe257614fe1614f51565b5b92915050565b7f49424c3a206163636f756e7420686173206e6f20726577617264730000000000600082015250565b600061501e601b83614da1565b915061502982614fe8565b602082019050919050565b6000602082019050818103600083015261504d81615011565b9050919050565b60006040820190506150696000830185614527565b61507660208301846143f8565b9392505050565b600081905092915050565b600061509382614d96565b61509d818561507d565b93506150ad818560208601614db2565b80840191505092915050565b60006150c58284615088565b915081905092915050565b60006150db82614395565b91506150e683614395565b92508282026150f481614395565b9150828204841483151761510b5761510a614f51565b5b5092915050565b7f4e487b7100000000000000000000000000000000000000000000000000000000600052601260045260246000fd5b600061514c82614395565b915061515783614395565b92508261516757615166615112565b5b828204905092915050565b7f4e487b7100000000000000000000000000000000000000000000000000000000600052603260045260246000fd5b7f4e487b7100000000000000000000000000000000000000000000000000000000600052602260045260246000fd5b600060028204905060018216806151e857607f821691505b6020821081036151fb576151fa6151a1565b5b50919050565b600061520c82614395565b91507fffffffffffffffffffffffffffffffffffffffffffffffffffffffffffffffff820361523e5761523d614f51565b5b600182019050919050565b7f49424c3a20596f75206d75737420706179207075626c69636174696f6e20666560008201527f6521000000000000000000000000000000000000000000000000000000000000602082015250565b60006152a5602283614da1565b91506152b082615249565b604082019050919050565b600060208201905081810360008301526152d481615298565b9050919050565b60008190508160005260206000209050919050565b60006020601f8301049050919050565b600082821b905092915050565b60006008830261533d7fffffffffffffffffffffffffffffffffffffffffffffffffffffffffffffffff82615300565b6153478683615300565b95508019841693508086168417925050509392505050565b600061537a61537561537084614395565b6144ad565b614395565b9050919050565b6000819050919050565b6153948361535f565b6153a86153a082615381565b84845461530d565b825550505050565b600090565b6153bd6153b0565b6153c881848461538b565b505050565b5b818110156153ec576153e16000826153b5565b6001810190506153ce565b5050565b601f82111561543157615402816152db565b61540b846152f0565b8101602085101561541a578190505b61542e615426856152f0565b8301826153cd565b50505b505050565b600082821c905092915050565b600061545460001984600802615436565b1980831691505092915050565b600061546d8383615443565b9150826002028217905092915050565b61548682614d96565b67ffffffffffffffff81111561549f5761549e61456c565b5b6154a982546151d0565b6154b48282856153f0565b600060209050601f8311600181146154e757600084156154d5578287015190505b6154df8582615461565b865550615547565b601f1984166154f5866152db565b60005b8281101561551d578489015182556001820191506020850194506020810190506154f8565b8683101561553a5784890151615536601f891682615443565b8355505b6001600288020188555050505b505050505050565b7f49424c3a20596f752063616e6e6f74207570646174652074686520707269636560008201527f206265636175736520796f7520617265206e6f7420746865206f776e65720000602082015250565b60006155ab603e83614da1565b91506155b68261554f565b604082019050919050565b600060208201905081810360008301526155da8161559e565b9050919050565b7f49424c3a20796f75206d7573742073656e64207468652066656520696e20636f60008201527f6e74726163742100000000000000000000000000000000000000000000000000602082015250565b600061563d602783614da1565b9150615648826155e1565b604082019050919050565b6000602082019050818103600083015261566c81615630565b9050919050565b7f4f776e61626c653a206e6577206f776e657220697320746865207a65726f206160008201527f6464726573730000000000000000000000000000000000000000000000000000602082015250565b60006156cf602683614da1565b91506156da82615673565b604082019050919050565b600060208201905081810360008301526156fe816156c2565b9050919050565b7f5265656e7472616e637947756172643a207265656e7472616e742063616c6c00600082015250565b600061573b601f83614da1565b915061574682615705565b602082019050919050565b6000602082019050818103600083015261576a8161572e565b9050919050565b7f49424c3a20596f75206d7573742073656e642065786163742076616c75652100600082015250565b60006157a7601f83614da1565b91506157b282615771565b602082019050919050565b600060208201905081810360008301526157d68161579a565b9050919050565b7f4f776e61626c653a2063616c6c6572206973206e6f7420746865206f776e6572600082015250565b6000615813602083614da1565b915061581e826157dd565b602082019050919050565b6000602082019050818103600083015261584281615806565b9050919050565b600081905092915050565b50565b6000615864600083615849565b915061586f82615854565b600082019050919050565b600061588582615857565b9150819050919050565b7f444258656e3a206661696c656420746f2073656e6420616d6f756e7400000000600082015250565b60006158c5601c83614da1565b91506158d08261588f565b602082019050919050565b600060208201905081810360008301526158f4816158b8565b9050919050565b60006060820190506159106000830186614527565b61591d6020830185614527565b61592a60408301846143f8565b949350505050565b61593b81614be8565b811461594657600080fd5b50565b60008151905061595881615932565b92915050565b6000602082840312156159745761597361438b565b5b600061598284828501615949565b91505092915050565b7f5361666545524332303a204552433230206f7065726174696f6e20646964206e60008201527f6f74207375636365656400000000000000000000000000000000000000000000602082015250565b60006159e7602a83614da1565b91506159f28261598b565b604082019050919050565b60006020820190508181036000830152615a16816159da565b9050919050565b7f416464726573733a20696e73756666696369656e742062616c616e636520666f60008201527f722063616c6c0000000000000000000000000000000000000000000000000000602082015250565b6000615a79602683614da1565b9150615a8482615a1d565b604082019050919050565b60006020820190508181036000830152615aa881615a6c565b9050919050565b600081519050919050565b6000615ac582615aaf565b615acf8185615849565b9350615adf818560208601614db2565b80840191505092915050565b6000615af78284615aba565b915081905092915050565b7f416464726573733a2063616c6c20746f206e6f6e2d636f6e7472616374000000600082015250565b6000615b38601d83614da1565b9150615b4382615b02565b602082019050919050565b60006020820190508181036000830152615b6781615b2b565b9050919050565b60006020820190508181036000830152615b888184614ddc565b90509291505056fea264697066735822122068669106a4641cf8b4b1c7a002d5a3a3f2c4a5e00d46767a6bbff496959ca16064736f6c6343000811003360a06040523480156200001157600080fd5b506040518060400160405280601081526020017f49424c2052657761726420746f6b656e000000000000000000000000000000008152506040518060400160405280600381526020017f49424c000000000000000000000000000000000000000000000000000000000081525081600390816200008f919062000358565b508060049081620000a1919062000358565b5050503373ffffffffffffffffffffffffffffffffffffffff1660808173ffffffffffffffffffffffffffffffffffffffff16815250506200043f565b600081519050919050565b7f4e487b7100000000000000000000000000000000000000000000000000000000600052604160045260246000fd5b7f4e487b7100000000000000000000000000000000000000000000000000000000600052602260045260246000fd5b600060028204905060018216806200016057607f821691505b60208210810362000176576200017562000118565b5b50919050565b60008190508160005260206000209050919050565b60006020601f8301049050919050565b600082821b905092915050565b600060088302620001e07fffffffffffffffffffffffffffffffffffffffffffffffffffffffffffffffff82620001a1565b620001ec8683620001a1565b95508019841693508086168417925050509392505050565b6000819050919050565b6000819050919050565b600062000239620002336200022d8462000204565b6200020e565b62000204565b9050919050565b6000819050919050565b620002558362000218565b6200026d620002648262000240565b848454620001ae565b825550505050565b600090565b6200028462000275565b620002918184846200024a565b505050565b5b81811015620002b957620002ad6000826200027a565b60018101905062000297565b5050565b601f8211156200030857620002d2816200017c565b620002dd8462000191565b81016020851015620002ed578190505b62000305620002fc8562000191565b83018262000296565b50505b505050565b600082821c905092915050565b60006200032d600019846008026200030d565b1980831691505092915050565b60006200034883836200031a565b9150826002028217905092915050565b6200036382620000de565b67ffffffffffffffff8111156200037f576200037e620000e9565b5b6200038b825462000147565b62000398828285620002bd565b600060209050601f831160018114620003d05760008415620003bb578287015190505b620003c785826200033a565b86555062000437565b601f198416620003e0866200017c565b60005b828110156200040a57848901518255600182019150602085019450602081019050620003e3565b868310156200042a578489015162000426601f8916826200031a565b8355505b6001600288020188555050505b505050505050565b6080516115a7620004626000396000818161044e015261050401526115a76000f3fe608060405234801561001057600080fd5b50600436106100cf5760003560e01c806370a082311161008c5780639a49090e116100665780639a49090e1461022a578063a457c2d714610246578063a9059cbb14610276578063dd62ed3e146102a6576100cf565b806370a08231146101be5780638da5cb5b146101ee57806395d89b411461020c576100cf565b806306fdde03146100d4578063095ea7b3146100f257806318160ddd1461012257806323b872dd14610140578063313ce56714610170578063395093511461018e575b600080fd5b6100dc6102d6565b6040516100e99190610d82565b60405180910390f35b61010c60048036038101906101079190610e3d565b610368565b6040516101199190610e98565b60405180910390f35b61012a61038b565b6040516101379190610ec2565b60405180910390f35b61015a60048036038101906101559190610edd565b610395565b6040516101679190610e98565b60405180910390f35b6101786103c4565b6040516101859190610f4c565b60405180910390f35b6101a860048036038101906101a39190610e3d565b6103cd565b6040516101b59190610e98565b60405180910390f35b6101d860048036038101906101d39190610f67565b610404565b6040516101e59190610ec2565b60405180910390f35b6101f661044c565b6040516102039190610fa3565b60405180910390f35b610214610470565b6040516102219190610d82565b60405180910390f35b610244600480360381019061023f9190610e3d565b610502565b005b610260600480360381019061025b9190610e3d565b61059e565b60405161026d9190610e98565b60405180910390f35b610290600480360381019061028b9190610e3d565b610615565b60405161029d9190610e98565b60405180910390f35b6102c060048036038101906102bb9190610fbe565b610638565b6040516102cd9190610ec2565b60405180910390f35b6060600380546102e59061102d565b80601f01602080910402602001604051908101604052809291908181526020018280546103119061102d565b801561035e5780601f106103335761010080835404028352916020019161035e565b820191906000526020600020905b81548152906001019060200180831161034157829003601f168201915b5050505050905090565b6000806103736106bf565b90506103808185856106c7565b600191505092915050565b6000600254905090565b6000806103a06106bf565b90506103ad858285610890565b6103b885858561091c565b60019150509392505050565b60006012905090565b6000806103d86106bf565b90506103f98185856103ea8589610638565b6103f4919061108d565b6106c7565b600191505092915050565b60008060008373ffffffffffffffffffffffffffffffffffffffff1673ffffffffffffffffffffffffffffffffffffffff168152602001908152602001600020549050919050565b7f000000000000000000000000000000000000000000000000000000000000000081565b60606004805461047f9061102d565b80601f01602080910402602001604051908101604052809291908181526020018280546104ab9061102d565b80156104f85780601f106104cd576101008083540402835291602001916104f8565b820191906000526020600020905b8154815290600101906020018083116104db57829003601f168201915b5050505050905090565b7f000000000000000000000000000000000000000000000000000000000000000073ffffffffffffffffffffffffffffffffffffffff163373ffffffffffffffffffffffffffffffffffffffff1614610590576040517f08c379a00000000000000000000000000000000000000000000000000000000081526004016105879061110d565b60405180910390fd5b61059a8282610b92565b5050565b6000806105a96106bf565b905060006105b78286610638565b9050838110156105fc576040517f08c379a00000000000000000000000000000000000000000000000000000000081526004016105f39061119f565b60405180910390fd5b61060982868684036106c7565b60019250505092915050565b6000806106206106bf565b905061062d81858561091c565b600191505092915050565b6000600160008473ffffffffffffffffffffffffffffffffffffffff1673ffffffffffffffffffffffffffffffffffffffff16815260200190815260200160002060008373ffffffffffffffffffffffffffffffffffffffff1673ffffffffffffffffffffffffffffffffffffffff16815260200190815260200160002054905092915050565b600033905090565b600073ffffffffffffffffffffffffffffffffffffffff168373ffffffffffffffffffffffffffffffffffffffff1603610736576040517f08c379a000000000000000000000000000000000000000000000000000000000815260040161072d90611231565b60405180910390fd5b600073ffffffffffffffffffffffffffffffffffffffff168273ffffffffffffffffffffffffffffffffffffffff16036107a5576040517f08c379a000000000000000000000000000000000000000000000000000000000815260040161079c906112c3565b60405180910390fd5b80600160008573ffffffffffffffffffffffffffffffffffffffff1673ffffffffffffffffffffffffffffffffffffffff16815260200190815260200160002060008473ffffffffffffffffffffffffffffffffffffffff1673ffffffffffffffffffffffffffffffffffffffff168152602001908152602001600020819055508173ffffffffffffffffffffffffffffffffffffffff168373ffffffffffffffffffffffffffffffffffffffff167f8c5be1e5ebec7d5bd14f71427d1e84f3dd0314c0f7b2291e5b200ac8c7c3b925836040516108839190610ec2565b60405180910390a3505050565b600061089c8484610638565b90507fffffffffffffffffffffffffffffffffffffffffffffffffffffffffffffffff81146109165781811015610908576040517f08c379a00000000000000000000000000000000000000000000000000000000081526004016108ff9061132f565b60405180910390fd5b61091584848484036106c7565b5b50505050565b600073ffffffffffffffffffffffffffffffffffffffff168373ffffffffffffffffffffffffffffffffffffffff160361098b576040517f08c379a0000000000000000000000000000000000000000000000000000000008152600401610982906113c1565b60405180910390fd5b600073ffffffffffffffffffffffffffffffffffffffff168273ffffffffffffffffffffffffffffffffffffffff16036109fa576040517f08c379a00000000000000000000000000000000000000000000000000000000081526004016109f190611453565b60405180910390fd5b610a05838383610ce8565b60008060008573ffffffffffffffffffffffffffffffffffffffff1673ffffffffffffffffffffffffffffffffffffffff16815260200190815260200160002054905081811015610a8b576040517f08c379a0000000000000000000000000000000000000000000000000000000008152600401610a82906114e5565b60405180910390fd5b8181036000808673ffffffffffffffffffffffffffffffffffffffff1673ffffffffffffffffffffffffffffffffffffffff16815260200190815260200160002081905550816000808573ffffffffffffffffffffffffffffffffffffffff1673ffffffffffffffffffffffffffffffffffffffff168152602001908152602001600020600082825401925050819055508273ffffffffffffffffffffffffffffffffffffffff168473ffffffffffffffffffffffffffffffffffffffff167fddf252ad1be2c89b69c2b068fc378daa952ba7f163c4a11628f55a4df523b3ef84604051610b799190610ec2565b60405180910390a3610b8c848484610ced565b50505050565b600073ffffffffffffffffffffffffffffffffffffffff168273ffffffffffffffffffffffffffffffffffffffff1603610c01576040517f08c379a0000000000000000000000000000000000000000000000000000000008152600401610bf890611551565b60405180910390fd5b610c0d60008383610ce8565b8060026000828254610c1f919061108d565b92505081905550806000808473ffffffffffffffffffffffffffffffffffffffff1673ffffffffffffffffffffffffffffffffffffffff168152602001908152602001600020600082825401925050819055508173ffffffffffffffffffffffffffffffffffffffff16600073ffffffffffffffffffffffffffffffffffffffff167fddf252ad1be2c89b69c2b068fc378daa952ba7f163c4a11628f55a4df523b3ef83604051610cd09190610ec2565b60405180910390a3610ce460008383610ced565b5050565b505050565b505050565b600081519050919050565b600082825260208201905092915050565b60005b83811015610d2c578082015181840152602081019050610d11565b60008484015250505050565b6000601f19601f8301169050919050565b6000610d5482610cf2565b610d5e8185610cfd565b9350610d6e818560208601610d0e565b610d7781610d38565b840191505092915050565b60006020820190508181036000830152610d9c8184610d49565b905092915050565b600080fd5b600073ffffffffffffffffffffffffffffffffffffffff82169050919050565b6000610dd482610da9565b9050919050565b610de481610dc9565b8114610def57600080fd5b50565b600081359050610e0181610ddb565b92915050565b6000819050919050565b610e1a81610e07565b8114610e2557600080fd5b50565b600081359050610e3781610e11565b92915050565b60008060408385031215610e5457610e53610da4565b5b6000610e6285828601610df2565b9250506020610e7385828601610e28565b9150509250929050565b60008115159050919050565b610e9281610e7d565b82525050565b6000602082019050610ead6000830184610e89565b92915050565b610ebc81610e07565b82525050565b6000602082019050610ed76000830184610eb3565b92915050565b600080600060608486031215610ef657610ef5610da4565b5b6000610f0486828701610df2565b9350506020610f1586828701610df2565b9250506040610f2686828701610e28565b9150509250925092565b600060ff82169050919050565b610f4681610f30565b82525050565b6000602082019050610f616000830184610f3d565b92915050565b600060208284031215610f7d57610f7c610da4565b5b6000610f8b84828501610df2565b91505092915050565b610f9d81610dc9565b82525050565b6000602082019050610fb86000830184610f94565b92915050565b60008060408385031215610fd557610fd4610da4565b5b6000610fe385828601610df2565b9250506020610ff485828601610df2565b9150509250929050565b7f4e487b7100000000000000000000000000000000000000000000000000000000600052602260045260246000fd5b6000600282049050600182168061104557607f821691505b60208210810361105857611057610ffe565b5b50919050565b7f4e487b7100000000000000000000000000000000000000000000000000000000600052601160045260246000fd5b600061109882610e07565b91506110a383610e07565b92508282019050808211156110bb576110ba61105e565b5b92915050565b7f49424c3a2063616c6c6572206973206e6f742049424c20636f6e74726163742e600082015250565b60006110f7602083610cfd565b9150611102826110c1565b602082019050919050565b60006020820190508181036000830152611126816110ea565b9050919050565b7f45524332303a2064656372656173656420616c6c6f77616e63652062656c6f7760008201527f207a65726f000000000000000000000000000000000000000000000000000000602082015250565b6000611189602583610cfd565b91506111948261112d565b604082019050919050565b600060208201905081810360008301526111b88161117c565b9050919050565b7f45524332303a20617070726f76652066726f6d20746865207a65726f2061646460008201527f7265737300000000000000000000000000000000000000000000000000000000602082015250565b600061121b602483610cfd565b9150611226826111bf565b604082019050919050565b6000602082019050818103600083015261124a8161120e565b9050919050565b7f45524332303a20617070726f766520746f20746865207a65726f20616464726560008201527f7373000000000000000000000000000000000000000000000000000000000000602082015250565b60006112ad602283610cfd565b91506112b882611251565b604082019050919050565b600060208201905081810360008301526112dc816112a0565b9050919050565b7f45524332303a20696e73756666696369656e7420616c6c6f77616e6365000000600082015250565b6000611319601d83610cfd565b9150611324826112e3565b602082019050919050565b600060208201905081810360008301526113488161130c565b9050919050565b7f45524332303a207472616e736665722066726f6d20746865207a65726f20616460008201527f6472657373000000000000000000000000000000000000000000000000000000602082015250565b60006113ab602583610cfd565b91506113b68261134f565b604082019050919050565b600060208201905081810360008301526113da8161139e565b9050919050565b7f45524332303a207472616e7366657220746f20746865207a65726f206164647260008201527f6573730000000000000000000000000000000000000000000000000000000000602082015250565b600061143d602383610cfd565b9150611448826113e1565b604082019050919050565b6000602082019050818103600083015261146c81611430565b9050919050565b7f45524332303a207472616e7366657220616d6f756e742065786365656473206260008201527f616c616e63650000000000000000000000000000000000000000000000000000602082015250565b60006114cf602683610cfd565b91506114da82611473565b604082019050919050565b600060208201905081810360008301526114fe816114c2565b9050919050565b7f45524332303a206d696e7420746f20746865207a65726f206164647265737300600082015250565b600061153b601f83610cfd565b915061154682611505565b602082019050919050565b6000602082019050818103600083015261156a8161152e565b905091905056fea26469706673582212201e94c56cc2caba728fc301f445919d0ed98ab83315ad6c1b5fb96de7949eee1464736f6c63430008110033",
  "linkReferences": {},
  "deployedLinkReferences": {}
}