{
  "_format": "hh-sol-artifact-1",
  "contractName": "IBL",
  "sourceName": "contracts/IBL.sol",
  "abi": [
    {
      "inputs": [
        {
          "internalType": "address",
          "name": "_devAddress",
          "type": "address"
        }
      ],
      "stateMutability": "nonpayable",
      "type": "constructor"
    },
    {
      "anonymous": false,
      "inputs": [
        {
          "indexed": true,
          "internalType": "uint256",
          "name": "cycle",
          "type": "uint256"
        },
        {
          "indexed": true,
          "internalType": "address",
          "name": "account",
          "type": "address"
        },
        {
          "indexed": false,
          "internalType": "uint256",
          "name": "fees",
          "type": "uint256"
        }
      ],
      "name": "FeesClaimed",
      "type": "event"
    },
    {
      "anonymous": false,
      "inputs": [
        {
          "indexed": true,
          "internalType": "address",
          "name": "previousOwner",
          "type": "address"
        },
        {
          "indexed": true,
          "internalType": "address",
          "name": "newOwner",
          "type": "address"
        }
      ],
      "name": "OwnershipTransferred",
      "type": "event"
    },
    {
      "inputs": [],
      "name": "IBL_TEAM_FEE",
      "outputs": [
        {
          "internalType": "uint256",
          "name": "",
          "type": "uint256"
        }
      ],
      "stateMutability": "view",
      "type": "function"
    },
    {
      "inputs": [],
      "name": "POOL_FEE",
      "outputs": [
        {
          "internalType": "uint256",
          "name": "",
          "type": "uint256"
        }
      ],
      "stateMutability": "view",
      "type": "function"
    },
    {
      "inputs": [],
      "name": "SCALING_FACTOR",
      "outputs": [
        {
          "internalType": "uint256",
          "name": "",
          "type": "uint256"
        }
      ],
      "stateMutability": "view",
      "type": "function"
    },
    {
      "inputs": [
        {
          "internalType": "address",
          "name": "",
          "type": "address"
        }
      ],
      "name": "accAccruedFees",
      "outputs": [
        {
          "internalType": "uint256",
          "name": "",
          "type": "uint256"
        }
      ],
      "stateMutability": "view",
      "type": "function"
    },
    {
      "inputs": [
        {
          "internalType": "address",
          "name": "",
          "type": "address"
        }
      ],
      "name": "accCycleBatchesBurned",
      "outputs": [
        {
          "internalType": "uint256",
          "name": "",
          "type": "uint256"
        }
      ],
      "stateMutability": "view",
      "type": "function"
    },
    {
      "inputs": [
        {
          "internalType": "address",
          "name": "",
          "type": "address"
        }
      ],
      "name": "accFirstStake",
      "outputs": [
        {
          "internalType": "uint256",
          "name": "",
          "type": "uint256"
        }
      ],
      "stateMutability": "view",
      "type": "function"
    },
    {
      "inputs": [
        {
          "internalType": "address",
          "name": "",
          "type": "address"
        }
      ],
      "name": "accRewards",
      "outputs": [
        {
          "internalType": "uint256",
          "name": "",
          "type": "uint256"
        }
      ],
      "stateMutability": "view",
      "type": "function"
    },
    {
      "inputs": [
        {
          "internalType": "address",
          "name": "",
          "type": "address"
        }
      ],
      "name": "accSecondStake",
      "outputs": [
        {
          "internalType": "uint256",
          "name": "",
          "type": "uint256"
        }
      ],
      "stateMutability": "view",
      "type": "function"
    },
    {
      "inputs": [
        {
          "internalType": "address",
          "name": "",
          "type": "address"
        },
        {
          "internalType": "uint256",
          "name": "",
          "type": "uint256"
        }
      ],
      "name": "accStakeCycle",
      "outputs": [
        {
          "internalType": "uint256",
          "name": "",
          "type": "uint256"
        }
      ],
      "stateMutability": "view",
      "type": "function"
    },
    {
      "inputs": [
        {
          "internalType": "address",
          "name": "",
          "type": "address"
        }
      ],
      "name": "accWithdrawableStake",
      "outputs": [
        {
          "internalType": "uint256",
          "name": "",
          "type": "uint256"
        }
      ],
      "stateMutability": "view",
      "type": "function"
    },
    {
      "inputs": [],
      "name": "accruedFees",
      "outputs": [
        {
          "internalType": "uint256",
          "name": "",
          "type": "uint256"
        }
      ],
      "stateMutability": "view",
      "type": "function"
    },
    {
      "inputs": [
        {
          "internalType": "string",
          "name": "id",
          "type": "string"
        },
        {
          "internalType": "uint256",
          "name": "fee",
          "type": "uint256"
        }
      ],
      "name": "addApplicationFee",
      "outputs": [],
      "stateMutability": "nonpayable",
      "type": "function"
    },
    {
      "inputs": [
        {
          "components": [
            {
              "internalType": "string",
              "name": "id",
              "type": "string"
            },
            {
              "internalType": "uint256",
              "name": "runPrice",
              "type": "uint256"
            },
            {
              "internalType": "uint256",
              "name": "downloadPrice",
              "type": "uint256"
            },
            {
              "internalType": "address[]",
              "name": "owners",
              "type": "address[]"
            },
            {
              "internalType": "uint256[]",
              "name": "percentages",
              "type": "uint256[]"
            }
          ],
          "internalType": "struct IBL.Component",
          "name": "component",
          "type": "tuple"
        }
      ],
      "name": "addComponent",
      "outputs": [],
      "stateMutability": "payable",
      "type": "function"
    },
    {
      "inputs": [
        {
          "internalType": "uint256",
          "name": "",
          "type": "uint256"
        }
      ],
      "name": "alreadyUpdateCycleData",
      "outputs": [
        {
          "internalType": "bool",
          "name": "",
          "type": "bool"
        }
      ],
      "stateMutability": "view",
      "type": "function"
    },
    {
      "inputs": [
        {
          "internalType": "string",
          "name": "",
          "type": "string"
        }
      ],
      "name": "applicationFee",
      "outputs": [
        {
          "internalType": "uint256",
          "name": "",
          "type": "uint256"
        }
      ],
      "stateMutability": "view",
      "type": "function"
    },
    {
      "inputs": [
        {
          "internalType": "address",
          "name": "",
          "type": "address"
        }
      ],
      "name": "applicationFeeReward",
      "outputs": [
        {
          "internalType": "uint256",
          "name": "",
          "type": "uint256"
        }
      ],
      "stateMutability": "view",
      "type": "function"
    },
    {
      "inputs": [
        {
          "internalType": "string",
          "name": "",
          "type": "string"
        }
      ],
      "name": "applicationOwner",
      "outputs": [
        {
          "internalType": "address",
          "name": "",
          "type": "address"
        }
      ],
      "stateMutability": "view",
      "type": "function"
    },
    {
      "inputs": [
        {
          "internalType": "string",
          "name": "",
          "type": "string"
        }
      ],
      "name": "applicationTotalFeeAccrued",
      "outputs": [
        {
          "internalType": "uint256",
          "name": "",
          "type": "uint256"
        }
      ],
      "stateMutability": "view",
      "type": "function"
    },
    {
      "inputs": [
        {
          "internalType": "string[]",
          "name": "componentsIds",
          "type": "string[]"
        },
        {
          "internalType": "string",
          "name": "applicationId",
          "type": "string"
        }
      ],
      "name": "calculateFeesFoRunningApplication",
      "outputs": [
        {
          "internalType": "uint256",
          "name": "",
          "type": "uint256"
        }
      ],
      "stateMutability": "view",
      "type": "function"
    },
    {
      "inputs": [
        {
          "internalType": "string[]",
          "name": "componentsIds",
          "type": "string[]"
        }
      ],
      "name": "calculatedownlodFeeApplication",
      "outputs": [
        {
          "internalType": "uint256",
          "name": "",
          "type": "uint256"
        }
      ],
      "stateMutability": "view",
      "type": "function"
    },
    {
      "inputs": [],
      "name": "claimApplicationFee",
      "outputs": [],
      "stateMutability": "nonpayable",
      "type": "function"
    },
    {
      "inputs": [],
      "name": "claimComponentOwnerFees",
      "outputs": [],
      "stateMutability": "nonpayable",
      "type": "function"
    },
    {
      "inputs": [],
      "name": "claimFees",
      "outputs": [],
      "stateMutability": "nonpayable",
      "type": "function"
    },
    {
      "inputs": [],
      "name": "claimRewards",
      "outputs": [],
      "stateMutability": "nonpayable",
      "type": "function"
    },
    {
      "inputs": [
        {
          "internalType": "string",
          "name": "",
          "type": "string"
        }
      ],
      "name": "componentData",
      "outputs": [
        {
          "internalType": "string",
          "name": "id",
          "type": "string"
        },
        {
          "internalType": "uint256",
          "name": "runPrice",
          "type": "uint256"
        },
        {
          "internalType": "uint256",
          "name": "downloadPrice",
          "type": "uint256"
        }
      ],
      "stateMutability": "view",
      "type": "function"
    },
    {
      "inputs": [],
      "name": "currentCycle",
      "outputs": [
        {
          "internalType": "uint256",
          "name": "",
          "type": "uint256"
        }
      ],
      "stateMutability": "view",
      "type": "function"
    },
    {
      "inputs": [],
      "name": "currentStartedCycle",
      "outputs": [
        {
          "internalType": "uint256",
          "name": "",
          "type": "uint256"
        }
      ],
      "stateMutability": "view",
      "type": "function"
    },
    {
      "inputs": [
        {
          "internalType": "uint256",
          "name": "",
          "type": "uint256"
        }
      ],
      "name": "cycleAccruedFees",
      "outputs": [
        {
          "internalType": "uint256",
          "name": "",
          "type": "uint256"
        }
      ],
      "stateMutability": "view",
      "type": "function"
    },
    {
      "inputs": [
        {
          "internalType": "uint256",
          "name": "",
          "type": "uint256"
        }
      ],
      "name": "cycleFeesPerStakeSummed",
      "outputs": [
        {
          "internalType": "uint256",
          "name": "",
          "type": "uint256"
        }
      ],
      "stateMutability": "view",
      "type": "function"
    },
    {
      "inputs": [
        {
          "internalType": "uint256",
          "name": "",
          "type": "uint256"
        }
      ],
      "name": "cycleTotalBatchesBurned",
      "outputs": [
        {
          "internalType": "uint256",
          "name": "",
          "type": "uint256"
        }
      ],
      "stateMutability": "view",
      "type": "function"
    },
    {
      "inputs": [],
      "name": "devAddress",
      "outputs": [
        {
          "internalType": "address",
          "name": "",
          "type": "address"
        }
      ],
      "stateMutability": "view",
      "type": "function"
    },
    {
      "inputs": [
        {
          "internalType": "string[]",
          "name": "componentsIds",
          "type": "string[]"
        },
        {
          "internalType": "string",
          "name": "applicationId",
          "type": "string"
        }
      ],
      "name": "distributeFeesFoRunningApplication",
      "outputs": [],
      "stateMutability": "payable",
      "type": "function"
    },
    {
      "inputs": [
        {
          "internalType": "string[]",
          "name": "componentsIds",
          "type": "string[]"
        }
      ],
      "name": "downlodApplication",
      "outputs": [],
      "stateMutability": "payable",
      "type": "function"
    },
    {
      "inputs": [],
      "name": "getCurrentCycle",
      "outputs": [
        {
          "internalType": "uint256",
          "name": "",
          "type": "uint256"
        }
      ],
      "stateMutability": "view",
      "type": "function"
    },
    {
      "inputs": [
        {
          "internalType": "string",
          "name": "id",
          "type": "string"
        }
      ],
      "name": "getFees",
      "outputs": [
        {
          "internalType": "uint256",
          "name": "",
          "type": "uint256"
        },
        {
          "internalType": "uint256",
          "name": "",
          "type": "uint256"
        }
      ],
      "stateMutability": "view",
      "type": "function"
    },
    {
      "inputs": [
        {
          "internalType": "string",
          "name": "id",
          "type": "string"
        }
      ],
      "name": "getOwnersForComponent",
      "outputs": [
        {
          "internalType": "address[]",
          "name": "",
          "type": "address[]"
        }
      ],
      "stateMutability": "view",
      "type": "function"
    },
    {
      "inputs": [
        {
          "internalType": "string",
          "name": "id",
          "type": "string"
        }
      ],
      "name": "getPercentagesForComponent",
      "outputs": [
        {
          "internalType": "uint256[]",
          "name": "",
          "type": "uint256[]"
        }
      ],
      "stateMutability": "view",
      "type": "function"
    },
    {
      "inputs": [],
      "name": "i_initialTimestamp",
      "outputs": [
        {
          "internalType": "uint256",
          "name": "",
          "type": "uint256"
        }
      ],
      "stateMutability": "view",
      "type": "function"
    },
    {
      "inputs": [],
      "name": "i_periodDuration",
      "outputs": [
        {
          "internalType": "uint256",
          "name": "",
          "type": "uint256"
        }
      ],
      "stateMutability": "view",
      "type": "function"
    },
    {
      "inputs": [],
      "name": "ibl",
      "outputs": [
        {
          "internalType": "contract IBLERC20",
          "name": "",
          "type": "address"
        }
      ],
      "stateMutability": "view",
      "type": "function"
    },
    {
      "inputs": [
        {
          "internalType": "address",
          "name": "",
          "type": "address"
        }
      ],
      "name": "lastActiveCycle",
      "outputs": [
        {
          "internalType": "uint256",
          "name": "",
          "type": "uint256"
        }
      ],
      "stateMutability": "view",
      "type": "function"
    },
    {
      "inputs": [
        {
          "internalType": "address",
          "name": "",
          "type": "address"
        }
      ],
      "name": "lastActiveCycleAccReward",
      "outputs": [
        {
          "internalType": "uint256",
          "name": "",
          "type": "uint256"
        }
      ],
      "stateMutability": "view",
      "type": "function"
    },
    {
      "inputs": [],
      "name": "lastCycleReward",
      "outputs": [
        {
          "internalType": "uint256",
          "name": "",
          "type": "uint256"
        }
      ],
      "stateMutability": "view",
      "type": "function"
    },
    {
      "inputs": [
        {
          "internalType": "address",
          "name": "",
          "type": "address"
        }
      ],
      "name": "lastFeeUpdateCycle",
      "outputs": [
        {
          "internalType": "uint256",
          "name": "",
          "type": "uint256"
        }
      ],
      "stateMutability": "view",
      "type": "function"
    },
    {
      "inputs": [
        {
          "internalType": "string",
          "name": "",
          "type": "string"
        }
      ],
      "name": "lastHighestDownloadPrice",
      "outputs": [
        {
          "internalType": "uint256",
          "name": "",
          "type": "uint256"
        }
      ],
      "stateMutability": "view",
      "type": "function"
    },
    {
      "inputs": [],
      "name": "lastStartedCycle",
      "outputs": [
        {
          "internalType": "uint256",
          "name": "",
          "type": "uint256"
        }
      ],
      "stateMutability": "view",
      "type": "function"
    },
    {
      "inputs": [],
      "name": "owner",
      "outputs": [
        {
          "internalType": "address",
          "name": "",
          "type": "address"
        }
      ],
      "stateMutability": "view",
      "type": "function"
    },
    {
      "inputs": [
        {
          "internalType": "address",
          "name": "",
          "type": "address"
        }
      ],
      "name": "ownerNativeFeeAcc",
      "outputs": [
        {
          "internalType": "uint256",
          "name": "",
          "type": "uint256"
        }
      ],
      "stateMutability": "view",
      "type": "function"
    },
    {
      "inputs": [],
      "name": "pendingStake",
      "outputs": [
        {
          "internalType": "uint256",
          "name": "",
          "type": "uint256"
        }
      ],
      "stateMutability": "view",
      "type": "function"
    },
    {
      "inputs": [],
      "name": "pendingStakeWithdrawal",
      "outputs": [
        {
          "internalType": "uint256",
          "name": "",
          "type": "uint256"
        }
      ],
      "stateMutability": "view",
      "type": "function"
    },
    {
      "inputs": [],
      "name": "previousStartedCycle",
      "outputs": [
        {
          "internalType": "uint256",
          "name": "",
          "type": "uint256"
        }
      ],
      "stateMutability": "view",
      "type": "function"
    },
    {
      "inputs": [],
      "name": "renounceOwnership",
      "outputs": [],
      "stateMutability": "nonpayable",
      "type": "function"
    },
    {
      "inputs": [
        {
          "internalType": "uint256",
          "name": "",
          "type": "uint256"
        }
      ],
      "name": "rewardPerCycle",
      "outputs": [
        {
          "internalType": "uint256",
          "name": "",
          "type": "uint256"
        }
      ],
      "stateMutability": "view",
      "type": "function"
    },
    {
      "inputs": [
        {
          "internalType": "address",
          "name": "_devAddress",
          "type": "address"
        }
      ],
      "name": "setDevAddress",
      "outputs": [],
      "stateMutability": "nonpayable",
      "type": "function"
    },
    {
      "inputs": [
        {
          "internalType": "string",
          "name": "id",
          "type": "string"
        },
        {
          "internalType": "uint256",
          "name": "newFee",
          "type": "uint256"
        }
      ],
      "name": "setNewApplicationFee",
      "outputs": [],
      "stateMutability": "nonpayable",
      "type": "function"
    },
    {
      "inputs": [
        {
          "internalType": "string",
          "name": "id",
          "type": "string"
        },
        {
          "internalType": "uint256",
          "name": "newRunPrice",
          "type": "uint256"
        },
        {
          "internalType": "uint256",
          "name": "newDownloadPrice",
          "type": "uint256"
        }
      ],
      "name": "setNewPrice",
      "outputs": [],
      "stateMutability": "payable",
      "type": "function"
    },
    {
      "inputs": [
        {
          "internalType": "uint256",
          "name": "amount",
          "type": "uint256"
        }
      ],
      "name": "stake",
      "outputs": [],
      "stateMutability": "nonpayable",
      "type": "function"
    },
    {
      "inputs": [
        {
          "internalType": "uint256",
          "name": "",
          "type": "uint256"
        }
      ],
      "name": "summedCycleStakes",
      "outputs": [
        {
          "internalType": "uint256",
          "name": "",
          "type": "uint256"
        }
      ],
      "stateMutability": "view",
      "type": "function"
    },
    {
      "inputs": [],
      "name": "totalNumberOfBatchesBurned",
      "outputs": [
        {
          "internalType": "uint256",
          "name": "",
          "type": "uint256"
        }
      ],
      "stateMutability": "view",
      "type": "function"
    },
    {
      "inputs": [
        {
          "internalType": "address",
          "name": "newOwner",
          "type": "address"
        }
      ],
      "name": "transferOwnership",
      "outputs": [],
      "stateMutability": "nonpayable",
      "type": "function"
    },
    {
      "inputs": [
        {
          "internalType": "uint256",
          "name": "amount",
          "type": "uint256"
        }
      ],
      "name": "unstake",
      "outputs": [],
      "stateMutability": "nonpayable",
      "type": "function"
    }
  ],
  "bytecode": "0x60c06040526101f4600e5561251c600f553480156200001d57600080fd5b506040516200864238038062008642833981810160405281019062000043919062000275565b62000063620000576200013160201b60201c565b6200013960201b60201c565b600180819055506040516200007890620001fd565b604051809103906000f08015801562000095573d6000803e3d6000fd5b50600260006101000a81548173ffffffffffffffffffffffffffffffffffffffff021916908373ffffffffffffffffffffffffffffffffffffffff16021790555080601060006101000a81548173ffffffffffffffffffffffffffffffffffffffff021916908373ffffffffffffffffffffffffffffffffffffffff16021790555042608081815250506201518060a0818152505050620002a7565b600033905090565b60008060009054906101000a900473ffffffffffffffffffffffffffffffffffffffff169050816000806101000a81548173ffffffffffffffffffffffffffffffffffffffff021916908373ffffffffffffffffffffffffffffffffffffffff1602179055508173ffffffffffffffffffffffffffffffffffffffff168173ffffffffffffffffffffffffffffffffffffffff167f8be0079c531659141344cd1fd0a4f28419497f9722a3daafe3b4186f6b6457e060405160405180910390a35050565b611a098062006c3983390190565b600080fd5b600073ffffffffffffffffffffffffffffffffffffffff82169050919050565b60006200023d8262000210565b9050919050565b6200024f8162000230565b81146200025b57600080fd5b50565b6000815190506200026f8162000244565b92915050565b6000602082840312156200028e576200028d6200020b565b5b60006200029e848285016200025e565b91505092915050565b60805160a05161695e620002db60003960008181611560015261293e01526000818161222d015261295f015261695e6000f3fe6080604052600436106103a15760003560e01c8063a694fc3a116101e7578063d294f0931161010d578063e858e05c116100a0578063f1b371e21161006f578063f1b371e214610e64578063f2fde38b14610e8f578063fa845ca914610eb8578063fded701214610ef5576103a1565b8063e858e05c14610da2578063eb90b2bc14610dbe578063ed725e8314610dfc578063ef4cadc514610e39576103a1565b8063dd1b9c4a116100dc578063dd1b9c4a14610ce6578063e203d03014610d11578063e57a4b3f14610d28578063e60c90c414610d65576103a1565b8063d294f09314610c4b578063d4432e4e14610c62578063d8043d8f14610c8d578063db80a28c14610ca9576103a1565b8063bab2f55211610185578063bee7708e11610154578063bee7708e14610b7d578063c40af1ee14610bba578063c4235ae914610be5578063d0d41fe114610c22576103a1565b8063bab2f55214610aad578063bc71329014610ad8578063be26ed7f14610b15578063bebc9dfc14610b40576103a1565b8063aabbb1bd116101c1578063aabbb1bd146109b9578063adc0f686146109f6578063af2f850e14610a33578063b04e0e2714610a70576103a1565b8063a694fc3a14610928578063a707140b14610951578063a95f1dac1461098e576103a1565b8063436091c1116102cc578063715018a61161026a5780638bd95563116102395780638bd955631461086c5780638c211793146108975780638da5cb5b146108c0578063908a7628146108eb576103a1565b8063715018a6146107d357806374ef8367146107ea5780637b0846f3146108065780637dde48e51461082f576103a1565b8063541c7886116102a6578063541c7886146107155780635f5080b414610752578063682c20581461077d57806368f05769146107a8576103a1565b8063436091c1146106705780634666a0c61461069b5780635347a47d146106d8576103a1565b80632132066b116103445780633097f955116103135780633097f955146105d5578063372500ab146105f15780633ad10ef6146106085780633f78ccc514610633576103a1565b80632132066b1461052d5780632b716ad6146105445780632e17de78146105815780632f7cdab0146105aa576103a1565b806312d474391161038057806312d474391461045d578063168b0a5c1461048857806317d9c47a146104b35780631ed6380f146104f0576103a1565b8062552dd0146103a65780630ece2154146103e357806312cb22ac14610420575b600080fd5b3480156103b257600080fd5b506103cd60048036038101906103c891906151f3565b610f34565b6040516103da9190615255565b60405180910390f35b3480156103ef57600080fd5b5061040a6004803603810190610405919061529c565b611162565b6040516104179190615255565b60405180910390f35b34801561042c57600080fd5b5061044760048036038101906104429190615327565b61117a565b6040516104549190615255565b60405180910390f35b34801561046957600080fd5b50610472611192565b60405161047f9190615255565b60405180910390f35b34801561049457600080fd5b5061049d611198565b6040516104aa91906153b3565b60405180910390f35b3480156104bf57600080fd5b506104da60048036038101906104d5919061529c565b6111be565b6040516104e79190615255565b60405180910390f35b3480156104fc57600080fd5b5061051760048036038101906105129190615327565b6111d6565b6040516105249190615255565b60405180910390f35b34801561053957600080fd5b506105426111ee565b005b34801561055057600080fd5b5061056b600480360381019061056691906153ce565b6112f0565b6040516105789190615255565b60405180910390f35b34801561058d57600080fd5b506105a860048036038101906105a3919061529c565b61131e565b005b3480156105b657600080fd5b506105bf61155e565b6040516105cc9190615255565b60405180910390f35b6105ef60048036038101906105ea9190615417565b611582565b005b3480156105fd57600080fd5b50610606611b87565b005b34801561061457600080fd5b5061061d611dcd565b60405161062a919061549e565b60405180910390f35b34801561063f57600080fd5b5061065a60048036038101906106559190615327565b611df3565b6040516106679190615255565b60405180910390f35b34801561067c57600080fd5b50610685611e0b565b6040516106929190615255565b60405180910390f35b3480156106a757600080fd5b506106c260048036038101906106bd91906153ce565b611e11565b6040516106cf9190615577565b60405180910390f35b3480156106e457600080fd5b506106ff60048036038101906106fa91906153ce565b611e8a565b60405161070c9190615255565b60405180910390f35b34801561072157600080fd5b5061073c600480360381019061073791906153ce565b611eb8565b6040516107499190615657565b60405180910390f35b34801561075e57600080fd5b50610767611f67565b6040516107749190615255565b60405180910390f35b34801561078957600080fd5b50610792611f6d565b60405161079f9190615255565b60405180910390f35b3480156107b457600080fd5b506107bd611f73565b6040516107ca9190615255565b60405180910390f35b3480156107df57600080fd5b506107e8611f79565b005b61080460048036038101906107ff91906158e9565b611f8d565b005b34801561081257600080fd5b5061082d60048036038101906108289190615932565b61211a565b005b34801561083b57600080fd5b50610856600480360381019061085191906153ce565b6121fd565b6040516108639190615255565b60405180910390f35b34801561087857600080fd5b5061088161222b565b60405161088e9190615255565b60405180910390f35b3480156108a357600080fd5b506108be60048036038101906108b99190615932565b61224f565b005b3480156108cc57600080fd5b506108d56122e3565b6040516108e2919061549e565b60405180910390f35b3480156108f757600080fd5b50610912600480360381019061090d9190615327565b61230c565b60405161091f9190615255565b60405180910390f35b34801561093457600080fd5b5061094f600480360381019061094a919061529c565b612324565b005b34801561095d57600080fd5b5061097860048036038101906109739190615327565b612644565b6040516109859190615255565b60405180910390f35b34801561099a57600080fd5b506109a361265b565b6040516109b09190615255565b60405180910390f35b3480156109c557600080fd5b506109e060048036038101906109db919061598e565b612661565b6040516109ed9190615255565b60405180910390f35b348015610a0257600080fd5b50610a1d6004803603810190610a18919061529c565b612686565b604051610a2a9190615255565b60405180910390f35b348015610a3f57600080fd5b50610a5a6004803603810190610a55919061529c565b61269e565b604051610a6791906159e9565b60405180910390f35b348015610a7c57600080fd5b50610a976004803603810190610a929190615417565b6126be565b604051610aa49190615255565b60405180910390f35b348015610ab957600080fd5b50610ac261291c565b604051610acf9190615255565b60405180910390f35b348015610ae457600080fd5b50610aff6004803603810190610afa9190615327565b612922565b604051610b0c9190615255565b60405180910390f35b348015610b2157600080fd5b50610b2a61293a565b604051610b379190615255565b60405180910390f35b348015610b4c57600080fd5b50610b676004803603810190610b62919061529c565b612998565b604051610b749190615255565b60405180910390f35b348015610b8957600080fd5b50610ba46004803603810190610b9f9190615327565b6129b0565b604051610bb19190615255565b60405180910390f35b348015610bc657600080fd5b50610bcf6129c8565b604051610bdc9190615255565b60405180910390f35b348015610bf157600080fd5b50610c0c6004803603810190610c07919061529c565b6129ce565b604051610c199190615255565b60405180910390f35b348015610c2e57600080fd5b50610c496004803603810190610c449190615327565b6129e6565b005b348015610c5757600080fd5b50610c60612a42565b005b348015610c6e57600080fd5b50610c77612b44565b604051610c849190615255565b60405180910390f35b610ca76004803603810190610ca291906151f3565b612b4a565b005b348015610cb557600080fd5b50610cd06004803603810190610ccb9190615327565b613055565b604051610cdd9190615255565b60405180910390f35b348015610cf257600080fd5b50610cfb61306d565b604051610d089190615255565b60405180910390f35b348015610d1d57600080fd5b50610d26613073565b005b348015610d3457600080fd5b50610d4f6004803603810190610d4a91906153ce565b613175565b604051610d5c919061549e565b60405180910390f35b348015610d7157600080fd5b50610d8c6004803603810190610d879190615327565b6131be565b604051610d999190615255565b60405180910390f35b610dbc6004803603810190610db79190615a04565b6131d6565b005b348015610dca57600080fd5b50610de56004803603810190610de091906153ce565b613620565b604051610df3929190615a73565b60405180910390f35b348015610e0857600080fd5b50610e236004803603810190610e1e9190615327565b613670565b604051610e309190615255565b60405180910390f35b348015610e4557600080fd5b50610e4e613688565b604051610e5b9190615255565b60405180910390f35b348015610e7057600080fd5b50610e7961369d565b604051610e869190615255565b60405180910390f35b348015610e9b57600080fd5b50610eb66004803603810190610eb19190615327565b6136a3565b005b348015610ec457600080fd5b50610edf6004803603810190610eda9190615327565b613726565b604051610eec9190615255565b60405180910390f35b348015610f0157600080fd5b50610f1c6004803603810190610f1791906153ce565b61373e565b604051610f2b93929190615b1b565b60405180910390f35b60008060009050600083519050610f49614e90565b60005b8281101561114a576003868281518110610f6957610f68615b59565b5b6020026020010151604051610f7e9190615bc4565b90815260200160405180910390206040518060a0016040529081600082018054610fa790615c0a565b80601f0160208091040260200160405190810160405280929190818152602001828054610fd390615c0a565b80156110205780601f10610ff557610100808354040283529160200191611020565b820191906000526020600020905b81548152906001019060200180831161100357829003601f168201915b505050505081526020016001820154815260200160028201548152602001600382018054806020026020016040519081016040528092919081815260200182805480156110c257602002820191906000526020600020905b8160009054906101000a900473ffffffffffffffffffffffffffffffffffffffff1673ffffffffffffffffffffffffffffffffffffffff1681526020019060010190808311611078575b505050505081526020016004820180548060200260200160405190810160405280929190818152602001828054801561111a57602002820191906000526020600020905b815481526020019060010190808311611106575b50505050508152505091508160400151846111359190615c6a565b9350808061114290615c9e565b915050610f4c565b506002836111589190615ce6565b9350505050919050565b60216020528060005260406000206000915090505481565b60196020528060005260406000206000915090505481565b600e5481565b600260009054906101000a900473ffffffffffffffffffffffffffffffffffffffff1681565b601a6020528060005260406000206000915090505481565b60236020528060005260406000206000915090505481565b6111f6613806565b6111fe613855565b611206613876565b61120f3361399f565b6000600960003373ffffffffffffffffffffffffffffffffffffffff1673ffffffffffffffffffffffffffffffffffffffff16815260200190815260200160002054905060008111611296576040517f08c379a000000000000000000000000000000000000000000000000000000000815260040161128d90615d74565b60405180910390fd5b6000600960003373ffffffffffffffffffffffffffffffffffffffff1673ffffffffffffffffffffffffffffffffffffffff168152602001908152602001600020819055506112e53382614797565b506112ee614848565b565b6007818051602081018201805184825260208301602085012081835280955050505050506000915090505481565b611326613806565b61132e613855565b611336613876565b61133f3361399f565b60008111611382576040517f08c379a000000000000000000000000000000000000000000000000000000000815260040161137990615d74565b60405180910390fd5b602360003373ffffffffffffffffffffffffffffffffffffffff1673ffffffffffffffffffffffffffffffffffffffff16815260200190815260200160002054811115611404576040517f08c379a00000000000000000000000000000000000000000000000000000000081526004016113fb90615e06565b60405180910390fd5b6016546014540361142d5780601760008282546114219190615c6a565b9250508190555061145a565b80601f6000601254815260200190815260200160002060008282546114529190615e26565b925050819055505b80602360003373ffffffffffffffffffffffffffffffffffffffff1673ffffffffffffffffffffffffffffffffffffffff16815260200190815260200160002060008282546114a99190615e26565b9250508190555080601c60003373ffffffffffffffffffffffffffffffffffffffff1673ffffffffffffffffffffffffffffffffffffffff16815260200190815260200160002060008282546114ff9190615e26565b925050819055506115533382600260009054906101000a900473ffffffffffffffffffffffffffffffffffffffff1673ffffffffffffffffffffffffffffffffffffffff166148519092919063ffffffff16565b61155b614848565b50565b7f000000000000000000000000000000000000000000000000000000000000000081565b61158a613806565b611592613855565b61159a613876565b6115a26148d7565b6115ab3361399f565b600080835190506115ba614e90565b606080600080600090505b8581101561188e5760038982815181106115e2576115e1615b59565b5b60200260200101516040516115f79190615bc4565b90815260200160405180910390206040518060a001604052908160008201805461162090615c0a565b80601f016020809104026020016040519081016040528092919081815260200182805461164c90615c0a565b80156116995780601f1061166e57610100808354040283529160200191611699565b820191906000526020600020905b81548152906001019060200180831161167c57829003601f168201915b5050505050815260200160018201548152602001600282015481526020016003820180548060200260200160405190810160405280929190818152602001828054801561173b57602002820191906000526020600020905b8160009054906101000a900473ffffffffffffffffffffffffffffffffffffffff1673ffffffffffffffffffffffffffffffffffffffff16815260200190600101908083116116f1575b505050505081526020016004820180548060200260200160405190810160405280929190818152602001828054801561179357602002820191906000526020600020905b81548152602001906001019080831161177f575b505050505081525050945084606001519350846080015192508351915060005b8281101561187a57670de0b6b3a76400008482815181106117d7576117d6615b59565b5b602002602001015187602001516117ee9190615ce6565b6117f89190615e89565b6004600087848151811061180f5761180e615b59565b5b602002602001015173ffffffffffffffffffffffffffffffffffffffff1673ffffffffffffffffffffffffffffffffffffffff16815260200190815260200160002060008282546118609190615c6a565b92505081905550808061187290615c9e565b9150506117b3565b50808061188690615c9e565b9150506115c5565b5060006007886040516118a19190615bc4565b9081526020016040518091039020549050806009600060088b6040516118c79190615bc4565b908152602001604051809103902060009054906101000a900473ffffffffffffffffffffffffffffffffffffffff1673ffffffffffffffffffffffffffffffffffffffff1673ffffffffffffffffffffffffffffffffffffffff168152602001908152602001600020600082825461193f9190615c6a565b9250508190555080600b896040516119579190615bc4565b908152602001604051809103902060008282546119749190615c6a565b9250508190555061198589896126be565b96508634146119c9576040517f08c379a00000000000000000000000000000000000000000000000000000000081526004016119c090615f06565b60405180910390fd5b6000600282896119d99190615e26565b6119e39190615e89565b9050611a2b601060009054906101000a900473ffffffffffffffffffffffffffffffffffffffff16612710600e5484611a1c9190615ce6565b611a269190615e89565b614797565b612710600f5482611a3c9190615ce6565b611a469190615e89565b6021600060125481526020019081526020016000206000828254611a6a9190615c6a565b925050819055506000611a7c34614a02565b905080601e600060125481526020019081526020016000206000828254611aa39190615c6a565b9250508190555080601d60003373ffffffffffffffffffffffffffffffffffffffff1673ffffffffffffffffffffffffffffffffffffffff1681526020019081526020016000206000828254611af99190615c6a565b92505081905550601254601b60003373ffffffffffffffffffffffffffffffffffffffff1673ffffffffffffffffffffffffffffffffffffffff1681526020019081526020016000208190555080601f600060125481526020019081526020016000206000828254611b6b9190615c6a565b92505081905550505050505050505050611b83614848565b5050565b611b8f613806565b611b97613855565b611b9f613876565b611ba83361399f565b6000602360003373ffffffffffffffffffffffffffffffffffffffff1673ffffffffffffffffffffffffffffffffffffffff16815260200190815260200160002054601c60003373ffffffffffffffffffffffffffffffffffffffff1673ffffffffffffffffffffffffffffffffffffffff16815260200190815260200160002054611c349190615e26565b905060008111611c79576040517f08c379a0000000000000000000000000000000000000000000000000000000008152600401611c7090615f72565b60405180910390fd5b80601c60003373ffffffffffffffffffffffffffffffffffffffff1673ffffffffffffffffffffffffffffffffffffffff1681526020019081526020016000206000828254611cc89190615e26565b9250508190555060165460145403611cf8578060176000828254611cec9190615c6a565b92505081905550611d33565b80601f6000601254815260200190815260200160002054611d199190615e26565b601f60006012548152602001908152602001600020819055505b600260009054906101000a900473ffffffffffffffffffffffffffffffffffffffff1673ffffffffffffffffffffffffffffffffffffffff16639a49090e33836040518363ffffffff1660e01b8152600401611d90929190615f92565b600060405180830381600087803b158015611daa57600080fd5b505af1158015611dbe573d6000803e3d6000fd5b5050505050611dcb614848565b565b601060009054906101000a900473ffffffffffffffffffffffffffffffffffffffff1681565b601d6020528060005260406000206000915090505481565b60145481565b6060600382604051611e239190615bc4565b9081526020016040518091039020600401805480602002602001604051908101604052809291908181526020018280548015611e7e57602002820191906000526020600020905b815481526020019060010190808311611e6a575b50505050509050919050565b6006818051602081018201805184825260208301602085012081835280955050505050506000915090505481565b6060600382604051611eca9190615bc4565b9081526020016040518091039020600301805480602002602001604051908101604052809291908181526020018280548015611f5b57602002820191906000526020600020905b8160009054906101000a900473ffffffffffffffffffffffffffffffffffffffff1673ffffffffffffffffffffffffffffffffffffffff1681526020019060010190808311611f11575b50505050509050919050565b60155481565b600d5481565b60175481565b611f81614a29565b611f8b6000614aa7565b565b611f95613806565b611f9d613855565b611fa5613876565b611fae3361399f565b80604001513414611ff4576040517f08c379a0000000000000000000000000000000000000000000000000000000008152600401611feb9061602d565b60405180910390fd5b6040518060a00160405280826000015181526020018260200151815260200182604001518152602001826060015181526020018260800151815250600382600001516040516120439190615bc4565b9081526020016040518091039020600082015181600001908161206691906161ef565b5060208201518160010155604082015181600201556060820151816003019080519060200190612097929190614ebf565b5060808201518160040190805190602001906120b4929190614f49565b509050508060400151600682600001516040516120d19190615bc4565b90815260200160405180910390208190555061210f601060009054906101000a900473ffffffffffffffffffffffffffffffffffffffff1634614797565b612117614848565b50565b612122613806565b3373ffffffffffffffffffffffffffffffffffffffff166008836040516121499190615bc4565b908152602001604051809103902060009054906101000a900473ffffffffffffffffffffffffffffffffffffffff1673ffffffffffffffffffffffffffffffffffffffff16146121ce576040517f08c379a00000000000000000000000000000000000000000000000000000000081526004016121c590616333565b60405180910390fd5b806007836040516121df9190615bc4565b9081526020016040518091039020819055506121f9614848565b5050565b600b818051602081018201805184825260208301602085012081835280955050505050506000915090505481565b7f000000000000000000000000000000000000000000000000000000000000000081565b612257613806565b806007836040516122689190615bc4565b9081526020016040518091039020819055503360088360405161228b9190615bc4565b908152602001604051809103902060006101000a81548173ffffffffffffffffffffffffffffffffffffffff021916908373ffffffffffffffffffffffffffffffffffffffff1602179055506122df614848565b5050565b60008060009054906101000a900473ffffffffffffffffffffffffffffffffffffffff16905090565b60096020528060005260406000206000915090505481565b61232c613806565b612334613855565b61233c613876565b6123453361399f565b60008111612388576040517f08c379a000000000000000000000000000000000000000000000000000000000815260040161237f90615d74565b60405180910390fd5b806011600082825461239a9190615c6a565b92505081905550600060016012546123b29190615c6a565b9050601654601454036123d15760016014546123ce9190615c6a565b90505b602460003373ffffffffffffffffffffffffffffffffffffffff1673ffffffffffffffffffffffffffffffffffffffff16815260200190815260200160002054811415801561245f5750602560003373ffffffffffffffffffffffffffffffffffffffff1673ffffffffffffffffffffffffffffffffffffffff168152602001908152602001600020548114155b15612582576000602460003373ffffffffffffffffffffffffffffffffffffffff1673ffffffffffffffffffffffffffffffffffffffff16815260200190815260200160002054036124f45780602460003373ffffffffffffffffffffffffffffffffffffffff1673ffffffffffffffffffffffffffffffffffffffff16815260200190815260200160002081905550612581565b6000602560003373ffffffffffffffffffffffffffffffffffffffff1673ffffffffffffffffffffffffffffffffffffffff16815260200190815260200160002054036125805780602560003373ffffffffffffffffffffffffffffffffffffffff1673ffffffffffffffffffffffffffffffffffffffff168152602001908152602001600020819055505b5b5b81602260003373ffffffffffffffffffffffffffffffffffffffff1673ffffffffffffffffffffffffffffffffffffffff168152602001908152602001600020600083815260200190815260200160002060008282546125e29190615c6a565b92505081905550612638333084600260009054906101000a900473ffffffffffffffffffffffffffffffffffffffff1673ffffffffffffffffffffffffffffffffffffffff16614b6b909392919063ffffffff16565b50612641614848565b50565b602080528060005260406000206000915090505481565b60135481565b6022602052816000526040600020602052806000526040600020600091509150505481565b601e6020528060005260406000206000915090505481565b60056020528060005260406000206000915054906101000a900460ff1681565b600080600090506000845190506126d3614e90565b60005b828110156128d45760038782815181106126f3576126f2615b59565b5b60200260200101516040516127089190615bc4565b90815260200160405180910390206040518060a001604052908160008201805461273190615c0a565b80601f016020809104026020016040519081016040528092919081815260200182805461275d90615c0a565b80156127aa5780601f1061277f576101008083540402835291602001916127aa565b820191906000526020600020905b81548152906001019060200180831161278d57829003601f168201915b5050505050815260200160018201548152602001600282015481526020016003820180548060200260200160405190810160405280929190818152602001828054801561284c57602002820191906000526020600020905b8160009054906101000a900473ffffffffffffffffffffffffffffffffffffffff1673ffffffffffffffffffffffffffffffffffffffff1681526020019060010190808311612802575b50505050508152602001600482018054806020026020016040519081016040528092919081815260200182805480156128a457602002820191906000526020600020905b815481526020019060010190808311612890575b50505050508152505091508160200151846128bf9190615c6a565b935080806128cc90615c9e565b9150506126d6565b5060006007866040516128e79190615bc4565b9081526020016040518091039020549050806002856129069190615ce6565b6129109190615c6a565b94505050505092915050565b60125481565b600c6020528060005260406000206000915090505481565b60007f00000000000000000000000000000000000000000000000000000000000000007f0000000000000000000000000000000000000000000000000000000000000000426129899190615e26565b6129939190615e89565b905090565b600a6020528060005260406000206000915090505481565b60046020528060005260406000206000915090505481565b60185481565b601f6020528060005260406000206000915090505481565b6129ee614a29565b6129f6613806565b80601060006101000a81548173ffffffffffffffffffffffffffffffffffffffff021916908373ffffffffffffffffffffffffffffffffffffffff160217905550612a3f614848565b50565b612a4a613806565b612a52613855565b612a5a613876565b612a633361399f565b6000600c60003373ffffffffffffffffffffffffffffffffffffffff1673ffffffffffffffffffffffffffffffffffffffff16815260200190815260200160002054905060008111612aea576040517f08c379a0000000000000000000000000000000000000000000000000000000008152600401612ae190615d74565b60405180910390fd5b6000600c60003373ffffffffffffffffffffffffffffffffffffffff1673ffffffffffffffffffffffffffffffffffffffff16815260200190815260200160002081905550612b393382614797565b50612b42614848565b565b60115481565b612b52613806565b612b5a613855565b612b62613876565b612b6a6148d7565b612b733361399f565b60008082519050612b82614e90565b606080600080600090505b85811015612e56576003888281518110612baa57612ba9615b59565b5b6020026020010151604051612bbf9190615bc4565b90815260200160405180910390206040518060a0016040529081600082018054612be890615c0a565b80601f0160208091040260200160405190810160405280929190818152602001828054612c1490615c0a565b8015612c615780601f10612c3657610100808354040283529160200191612c61565b820191906000526020600020905b815481529060010190602001808311612c4457829003601f168201915b50505050508152602001600182015481526020016002820154815260200160038201805480602002602001604051908101604052809291908181526020018280548015612d0357602002820191906000526020600020905b8160009054906101000a900473ffffffffffffffffffffffffffffffffffffffff1673ffffffffffffffffffffffffffffffffffffffff1681526020019060010190808311612cb9575b5050505050815260200160048201805480602002602001604051908101604052809291908181526020018280548015612d5b57602002820191906000526020600020905b815481526020019060010190808311612d47575b505050505081525050945084606001519350846080015192508351915060005b82811015612e4257670de0b6b3a7640000848281518110612d9f57612d9e615b59565b5b60200260200101518760400151612db69190615ce6565b612dc09190615e89565b60046000878481518110612dd757612dd6615b59565b5b602002602001015173ffffffffffffffffffffffffffffffffffffffff1673ffffffffffffffffffffffffffffffffffffffff1681526020019081526020016000206000828254612e289190615c6a565b925050819055508080612e3a90615c9e565b915050612d7b565b508080612e4e90615c9e565b915050612b8d565b50612e6087610f34565b9550853414612ea4576040517f08c379a0000000000000000000000000000000000000000000000000000000008152600401612e9b90615f06565b60405180910390fd5b6000600287612eb39190615e89565b9050612efb601060009054906101000a900473ffffffffffffffffffffffffffffffffffffffff16612710600e5484612eec9190615ce6565b612ef69190615e89565b614797565b612710600f5482612f0c9190615ce6565b612f169190615e89565b6021600060125481526020019081526020016000206000828254612f3a9190615c6a565b925050819055506000612f4c34614a02565b905080601e600060125481526020019081526020016000206000828254612f739190615c6a565b9250508190555080601d60003373ffffffffffffffffffffffffffffffffffffffff1673ffffffffffffffffffffffffffffffffffffffff1681526020019081526020016000206000828254612fc99190615c6a565b92505081905550601254601b60003373ffffffffffffffffffffffffffffffffffffffff1673ffffffffffffffffffffffffffffffffffffffff1681526020019081526020016000208190555080601f60006012548152602001908152602001600020600082825461303b9190615c6a565b925050819055505050505050505050613052614848565b50565b60256020528060005260406000206000915090505481565b600f5481565b61307b613806565b613083613855565b61308b613876565b6130943361399f565b6000600460003373ffffffffffffffffffffffffffffffffffffffff1673ffffffffffffffffffffffffffffffffffffffff1681526020019081526020016000205490506000811161311b576040517f08c379a000000000000000000000000000000000000000000000000000000000815260040161311290615d74565b60405180910390fd5b6000600460003373ffffffffffffffffffffffffffffffffffffffff1673ffffffffffffffffffffffffffffffffffffffff1681526020019081526020016000208190555061316a3382614797565b50613173614848565b565b6008818051602081018201805184825260208301602085012081835280955050505050506000915054906101000a900473ffffffffffffffffffffffffffffffffffffffff1681565b60246020528060005260406000206000915090505481565b6131de613806565b6131e6613855565b6131ee613876565b6131f73361399f565b60006003846040516132099190615bc4565b90815260200160405180910390206040518060a001604052908160008201805461323290615c0a565b80601f016020809104026020016040519081016040528092919081815260200182805461325e90615c0a565b80156132ab5780601f10613280576101008083540402835291602001916132ab565b820191906000526020600020905b81548152906001019060200180831161328e57829003601f168201915b5050505050815260200160018201548152602001600282015481526020016003820180548060200260200160405190810160405280929190818152602001828054801561334d57602002820191906000526020600020905b8160009054906101000a900473ffffffffffffffffffffffffffffffffffffffff1673ffffffffffffffffffffffffffffffffffffffff1681526020019060010190808311613303575b50505050508152602001600482018054806020026020016040519081016040528092919081815260200182805480156133a557602002820191906000526020600020905b815481526020019060010190808311613391575b5050505050815250509050600081606001519050600081519050600080600090505b82811015613438573373ffffffffffffffffffffffffffffffffffffffff168482815181106133f9576133f8615b59565b5b602002602001015173ffffffffffffffffffffffffffffffffffffffff16036134255760019150613438565b808061343090615c9e565b9150506133c7565b5080613479576040517f08c379a0000000000000000000000000000000000000000000000000000000008152600401613470906163c5565b60405180910390fd5b8460068860405161348a9190615bc4565b908152602001604051809103902054101561355b576006876040516134af9190615bc4565b908152602001604051809103902054856134c99190615e26565b34101561350b576040517f08c379a000000000000000000000000000000000000000000000000000000000815260040161350290616457565b60405180910390fd5b8460068860405161351c9190615bc4565b9081526020016040518091039020819055503460216000601254815260200190815260200160002060008282546135539190615c6a565b925050819055505b6040518060a0016040528088815260200187815260200186815260200185606001518152602001856080015181525060038860405161359a9190615bc4565b908152602001604051809103902060008201518160000190816135bd91906161ef565b50602082015181600101556040820151816002015560608201518160030190805190602001906135ee929190614ebf565b50608082015181600401908051906020019061360b929190614f49565b509050505050505061361b614848565b505050565b6000806003836040516136339190615bc4565b9081526020016040518091039020600101546003846040516136559190615bc4565b90815260200160405180910390206002015491509150915091565b601c6020528060005260406000206000915090505481565b701d6329f1c35ca4bfabb9f561000000000081565b60165481565b6136ab614a29565b600073ffffffffffffffffffffffffffffffffffffffff168173ffffffffffffffffffffffffffffffffffffffff160361371a576040517f08c379a0000000000000000000000000000000000000000000000000000000008152600401613711906164e9565b60405180910390fd5b61372381614aa7565b50565b601b6020528060005260406000206000915090505481565b60038180516020810182018051848252602083016020850120818352809550505050505060009150905080600001805461377790615c0a565b80601f01602080910402602001604051908101604052809291908181526020018280546137a390615c0a565b80156137f05780601f106137c5576101008083540402835291602001916137f0565b820191906000526020600020905b8154815290600101906020018083116137d357829003601f168201915b5050505050908060010154908060020154905083565b60026001540361384b576040517f08c379a000000000000000000000000000000000000000000000000000000000815260040161384290616555565b60405180910390fd5b6002600181905550565b600061385f61293a565b905060125481111561387357806012819055505b50565b601654601254146138a05760016014546138909190615c6a565b6015819055506016546014819055505b6014546012541180156138d457506000600a600060016014546138c39190615c6a565b815260200190815260200160002054145b1561399d57600080601f60006014548152602001908152602001600020541461395057601f6000601454815260200190815260200160002054701d6329f1c35ca4bfabb9f56100000000006021600060145481526020019081526020016000205461393f9190615ce6565b6139499190615e89565b9050613955565b600090505b80600a60006015548152602001908152602001600020546139769190615c6a565b600a600060016014546139899190615c6a565b815260200190815260200160002081905550505b565b601b60008273ffffffffffffffffffffffffffffffffffffffff1673ffffffffffffffffffffffffffffffffffffffff16815260200190815260200160002054601254118015613a2f57506000601d60008373ffffffffffffffffffffffffffffffffffffffff1673ffffffffffffffffffffffffffffffffffffffff1681526020019081526020016000205414155b15613b0f57601d60008273ffffffffffffffffffffffffffffffffffffffff1673ffffffffffffffffffffffffffffffffffffffff16815260200190815260200160002054601c60008373ffffffffffffffffffffffffffffffffffffffff1673ffffffffffffffffffffffffffffffffffffffff1681526020019081526020016000206000828254613ac29190615c6a565b925050819055506000601d60008373ffffffffffffffffffffffffffffffffffffffff1673ffffffffffffffffffffffffffffffffffffffff168152602001908152602001600020819055505b601454601254118015613b6f57506001601454613b2c9190615c6a565b602060008373ffffffffffffffffffffffffffffffffffffffff1673ffffffffffffffffffffffffffffffffffffffff1681526020019081526020016000205414155b15613d3957701d6329f1c35ca4bfabb9f5610000000000600a6000602060008573ffffffffffffffffffffffffffffffffffffffff1673ffffffffffffffffffffffffffffffffffffffff16815260200190815260200160002054815260200190815260200160002054600a60006001601454613bec9190615c6a565b815260200190815260200160002054613c059190615e26565b601c60008473ffffffffffffffffffffffffffffffffffffffff1673ffffffffffffffffffffffffffffffffffffffff16815260200190815260200160002054613c4f9190615ce6565b613c599190615e89565b600c60008373ffffffffffffffffffffffffffffffffffffffff1673ffffffffffffffffffffffffffffffffffffffff16815260200190815260200160002054613ca39190615c6a565b600c60008373ffffffffffffffffffffffffffffffffffffffff1673ffffffffffffffffffffffffffffffffffffffff168152602001908152602001600020819055506001601454613cf59190615c6a565b602060008373ffffffffffffffffffffffffffffffffffffffff1673ffffffffffffffffffffffffffffffffffffffff168152602001908152602001600020819055505b6000602460008373ffffffffffffffffffffffffffffffffffffffff1673ffffffffffffffffffffffffffffffffffffffff1681526020019081526020016000205414158015613dc95750602460008273ffffffffffffffffffffffffffffffffffffffff1673ffffffffffffffffffffffffffffffffffffffff16815260200190815260200160002054601254115b15614794576000602260008373ffffffffffffffffffffffffffffffffffffffff1673ffffffffffffffffffffffffffffffffffffffff1681526020019081526020016000206000602460008573ffffffffffffffffffffffffffffffffffffffff1673ffffffffffffffffffffffffffffffffffffffff16815260200190815260200160002054815260200190815260200160002054905080601c60008473ffffffffffffffffffffffffffffffffffffffff1673ffffffffffffffffffffffffffffffffffffffff1681526020019081526020016000206000828254613eb19190615c6a565b9250508190555080602360008473ffffffffffffffffffffffffffffffffffffffff1673ffffffffffffffffffffffffffffffffffffffff1681526020019081526020016000206000828254613f079190615c6a565b92505081905550602460008373ffffffffffffffffffffffffffffffffffffffff1673ffffffffffffffffffffffffffffffffffffffff168152602001908152602001600020546001601454613f5d9190615c6a565b111561412657701d6329f1c35ca4bfabb9f5610000000000600a6000602460008673ffffffffffffffffffffffffffffffffffffffff1673ffffffffffffffffffffffffffffffffffffffff16815260200190815260200160002054815260200190815260200160002054600a60006001601454613fdb9190615c6a565b815260200190815260200160002054613ff49190615e26565b602260008573ffffffffffffffffffffffffffffffffffffffff1673ffffffffffffffffffffffffffffffffffffffff1681526020019081526020016000206000602460008773ffffffffffffffffffffffffffffffffffffffff1673ffffffffffffffffffffffffffffffffffffffff1681526020019081526020016000205481526020019081526020016000205461408e9190615ce6565b6140989190615e89565b600c60008473ffffffffffffffffffffffffffffffffffffffff1673ffffffffffffffffffffffffffffffffffffffff168152602001908152602001600020546140e29190615c6a565b600c60008473ffffffffffffffffffffffffffffffffffffffff1673ffffffffffffffffffffffffffffffffffffffff168152602001908152602001600020819055505b6000602260008473ffffffffffffffffffffffffffffffffffffffff1673ffffffffffffffffffffffffffffffffffffffff1681526020019081526020016000206000602460008673ffffffffffffffffffffffffffffffffffffffff1673ffffffffffffffffffffffffffffffffffffffff168152602001908152602001600020548152602001908152602001600020819055506000602460008473ffffffffffffffffffffffffffffffffffffffff1673ffffffffffffffffffffffffffffffffffffffff168152602001908152602001600020819055506000602560008473ffffffffffffffffffffffffffffffffffffffff1673ffffffffffffffffffffffffffffffffffffffff168152602001908152602001600020541461479257602560008373ffffffffffffffffffffffffffffffffffffffff1673ffffffffffffffffffffffffffffffffffffffff1681526020019081526020016000205460125411156146c8576000602260008473ffffffffffffffffffffffffffffffffffffffff1673ffffffffffffffffffffffffffffffffffffffff1681526020019081526020016000206000602560008673ffffffffffffffffffffffffffffffffffffffff1673ffffffffffffffffffffffffffffffffffffffff16815260200190815260200160002054815260200190815260200160002054905080601c60008573ffffffffffffffffffffffffffffffffffffffff1673ffffffffffffffffffffffffffffffffffffffff16815260200190815260200160002060008282546143739190615c6a565b9250508190555080602360008573ffffffffffffffffffffffffffffffffffffffff1673ffffffffffffffffffffffffffffffffffffffff16815260200190815260200160002060008282546143c99190615c6a565b92505081905550602560008473ffffffffffffffffffffffffffffffffffffffff1673ffffffffffffffffffffffffffffffffffffffff16815260200190815260200160002054600160145461441f9190615c6a565b11156145e857701d6329f1c35ca4bfabb9f5610000000000600a6000602560008773ffffffffffffffffffffffffffffffffffffffff1673ffffffffffffffffffffffffffffffffffffffff16815260200190815260200160002054815260200190815260200160002054600a6000600160145461449d9190615c6a565b8152602001908152602001600020546144b69190615e26565b602260008673ffffffffffffffffffffffffffffffffffffffff1673ffffffffffffffffffffffffffffffffffffffff1681526020019081526020016000206000602560008873ffffffffffffffffffffffffffffffffffffffff1673ffffffffffffffffffffffffffffffffffffffff168152602001908152602001600020548152602001908152602001600020546145509190615ce6565b61455a9190615e89565b600c60008573ffffffffffffffffffffffffffffffffffffffff1673ffffffffffffffffffffffffffffffffffffffff168152602001908152602001600020546145a49190615c6a565b600c60008573ffffffffffffffffffffffffffffffffffffffff1673ffffffffffffffffffffffffffffffffffffffff168152602001908152602001600020819055505b6000602260008573ffffffffffffffffffffffffffffffffffffffff1673ffffffffffffffffffffffffffffffffffffffff1681526020019081526020016000206000602560008773ffffffffffffffffffffffffffffffffffffffff1673ffffffffffffffffffffffffffffffffffffffff168152602001908152602001600020548152602001908152602001600020819055506000602560008573ffffffffffffffffffffffffffffffffffffffff1673ffffffffffffffffffffffffffffffffffffffff1681526020019081526020016000208190555050614791565b602560008373ffffffffffffffffffffffffffffffffffffffff1673ffffffffffffffffffffffffffffffffffffffff16815260200190815260200160002054602460008473ffffffffffffffffffffffffffffffffffffffff1673ffffffffffffffffffffffffffffffffffffffff168152602001908152602001600020819055506000602560008473ffffffffffffffffffffffffffffffffffffffff1673ffffffffffffffffffffffffffffffffffffffff168152602001908152602001600020819055505b5b505b50565b60008273ffffffffffffffffffffffffffffffffffffffff16826040516147bd906165a6565b60006040518083038185875af1925050503d80600081146147fa576040519150601f19603f3d011682016040523d82523d6000602084013e6147ff565b606091505b5050905080614843576040517f08c379a000000000000000000000000000000000000000000000000000000000815260040161483a90616607565b60405180910390fd5b505050565b60018081905550565b6148d28363a9059cbb60e01b8484604051602401614870929190615f92565b604051602081830303815290604052907bffffffffffffffffffffffffffffffffffffffffffffffffffffffff19166020820180517bffffffffffffffffffffffffffffffffffffffffffffffffffffffff8381831617835250505050614bf4565b505050565b6000151560056000601254815260200190815260200160002060009054906101000a900460ff16151503614a0057600160056000601254815260200190815260200160002060006101000a81548160ff021916908315150217905550601254601681905550601f6000601454815260200190815260200160002054601f6000601654815260200190815260200160002060008282546149769190615c6a565b925050819055506000601154146149be57601154601f6000601654815260200190815260200160002060008282546149ae9190615c6a565b9250508190555060006011819055505b6000601754146149ff57601754601f6000601654815260200190815260200160002060008282546149ef9190615e26565b9250508190555060006017819055505b5b565b6000806001606484614a149190615ce6565b614a1e9190615e89565b905080915050919050565b614a31614cbb565b73ffffffffffffffffffffffffffffffffffffffff16614a4f6122e3565b73ffffffffffffffffffffffffffffffffffffffff1614614aa5576040517f08c379a0000000000000000000000000000000000000000000000000000000008152600401614a9c90616673565b60405180910390fd5b565b60008060009054906101000a900473ffffffffffffffffffffffffffffffffffffffff169050816000806101000a81548173ffffffffffffffffffffffffffffffffffffffff021916908373ffffffffffffffffffffffffffffffffffffffff1602179055508173ffffffffffffffffffffffffffffffffffffffff168173ffffffffffffffffffffffffffffffffffffffff167f8be0079c531659141344cd1fd0a4f28419497f9722a3daafe3b4186f6b6457e060405160405180910390a35050565b614bee846323b872dd60e01b858585604051602401614b8c93929190616693565b604051602081830303815290604052907bffffffffffffffffffffffffffffffffffffffffffffffffffffffff19166020820180517bffffffffffffffffffffffffffffffffffffffffffffffffffffffff8381831617835250505050614bf4565b50505050565b6000614c56826040518060400160405280602081526020017f5361666545524332303a206c6f772d6c6576656c2063616c6c206661696c65648152508573ffffffffffffffffffffffffffffffffffffffff16614cc39092919063ffffffff16565b9050600081511115614cb65780806020019051810190614c7691906166f6565b614cb5576040517f08c379a0000000000000000000000000000000000000000000000000000000008152600401614cac90616795565b60405180910390fd5b5b505050565b600033905090565b6060614cd28484600085614cdb565b90509392505050565b606082471015614d20576040517f08c379a0000000000000000000000000000000000000000000000000000000008152600401614d1790616827565b60405180910390fd5b6000808673ffffffffffffffffffffffffffffffffffffffff168587604051614d499190616883565b60006040518083038185875af1925050503d8060008114614d86576040519150601f19603f3d011682016040523d82523d6000602084013e614d8b565b606091505b5091509150614d9c87838387614da8565b92505050949350505050565b60608315614e0a576000835103614e0257614dc285614e1d565b614e01576040517f08c379a0000000000000000000000000000000000000000000000000000000008152600401614df8906168e6565b60405180910390fd5b5b829050614e15565b614e148383614e40565b5b949350505050565b6000808273ffffffffffffffffffffffffffffffffffffffff163b119050919050565b600082511115614e535781518083602001fd5b806040517f08c379a0000000000000000000000000000000000000000000000000000000008152600401614e879190616906565b60405180910390fd5b6040518060a0016040528060608152602001600081526020016000815260200160608152602001606081525090565b828054828255906000526020600020908101928215614f38579160200282015b82811115614f375782518260006101000a81548173ffffffffffffffffffffffffffffffffffffffff021916908373ffffffffffffffffffffffffffffffffffffffff16021790555091602001919060010190614edf565b5b509050614f459190614f96565b5090565b828054828255906000526020600020908101928215614f85579160200282015b82811115614f84578251825591602001919060010190614f69565b5b509050614f929190614f96565b5090565b5b80821115614faf576000816000905550600101614f97565b5090565b6000604051905090565b600080fd5b600080fd5b600080fd5b6000601f19601f8301169050919050565b7f4e487b7100000000000000000000000000000000000000000000000000000000600052604160045260246000fd5b61501582614fcc565b810181811067ffffffffffffffff8211171561503457615033614fdd565b5b80604052505050565b6000615047614fb3565b9050615053828261500c565b919050565b600067ffffffffffffffff82111561507357615072614fdd565b5b602082029050602081019050919050565b600080fd5b600080fd5b600067ffffffffffffffff8211156150a9576150a8614fdd565b5b6150b282614fcc565b9050602081019050919050565b82818337600083830152505050565b60006150e16150dc8461508e565b61503d565b9050828152602081018484840111156150fd576150fc615089565b5b6151088482856150bf565b509392505050565b600082601f83011261512557615124614fc7565b5b81356151358482602086016150ce565b91505092915050565b600061515161514c84615058565b61503d565b9050808382526020820190506020840283018581111561517457615173615084565b5b835b818110156151bb57803567ffffffffffffffff81111561519957615198614fc7565b5b8086016151a68982615110565b85526020850194505050602081019050615176565b5050509392505050565b600082601f8301126151da576151d9614fc7565b5b81356151ea84826020860161513e565b91505092915050565b60006020828403121561520957615208614fbd565b5b600082013567ffffffffffffffff81111561522757615226614fc2565b5b615233848285016151c5565b91505092915050565b6000819050919050565b61524f8161523c565b82525050565b600060208201905061526a6000830184615246565b92915050565b6152798161523c565b811461528457600080fd5b50565b60008135905061529681615270565b92915050565b6000602082840312156152b2576152b1614fbd565b5b60006152c084828501615287565b91505092915050565b600073ffffffffffffffffffffffffffffffffffffffff82169050919050565b60006152f4826152c9565b9050919050565b615304816152e9565b811461530f57600080fd5b50565b600081359050615321816152fb565b92915050565b60006020828403121561533d5761533c614fbd565b5b600061534b84828501615312565b91505092915050565b6000819050919050565b600061537961537461536f846152c9565b615354565b6152c9565b9050919050565b600061538b8261535e565b9050919050565b600061539d82615380565b9050919050565b6153ad81615392565b82525050565b60006020820190506153c860008301846153a4565b92915050565b6000602082840312156153e4576153e3614fbd565b5b600082013567ffffffffffffffff81111561540257615401614fc2565b5b61540e84828501615110565b91505092915050565b6000806040838503121561542e5761542d614fbd565b5b600083013567ffffffffffffffff81111561544c5761544b614fc2565b5b615458858286016151c5565b925050602083013567ffffffffffffffff81111561547957615478614fc2565b5b61548585828601615110565b9150509250929050565b615498816152e9565b82525050565b60006020820190506154b3600083018461548f565b92915050565b600081519050919050565b600082825260208201905092915050565b6000819050602082019050919050565b6154ee8161523c565b82525050565b600061550083836154e5565b60208301905092915050565b6000602082019050919050565b6000615524826154b9565b61552e81856154c4565b9350615539836154d5565b8060005b8381101561556a57815161555188826154f4565b975061555c8361550c565b92505060018101905061553d565b5085935050505092915050565b600060208201905081810360008301526155918184615519565b905092915050565b600081519050919050565b600082825260208201905092915050565b6000819050602082019050919050565b6155ce816152e9565b82525050565b60006155e083836155c5565b60208301905092915050565b6000602082019050919050565b600061560482615599565b61560e81856155a4565b9350615619836155b5565b8060005b8381101561564a57815161563188826155d4565b975061563c836155ec565b92505060018101905061561d565b5085935050505092915050565b6000602082019050818103600083015261567181846155f9565b905092915050565b600080fd5b600080fd5b600067ffffffffffffffff82111561569e5761569d614fdd565b5b602082029050602081019050919050565b60006156c26156bd84615683565b61503d565b905080838252602082019050602084028301858111156156e5576156e4615084565b5b835b8181101561570e57806156fa8882615312565b8452602084019350506020810190506156e7565b5050509392505050565b600082601f83011261572d5761572c614fc7565b5b813561573d8482602086016156af565b91505092915050565b600067ffffffffffffffff82111561576157615760614fdd565b5b602082029050602081019050919050565b600061578561578084615746565b61503d565b905080838252602082019050602084028301858111156157a8576157a7615084565b5b835b818110156157d157806157bd8882615287565b8452602084019350506020810190506157aa565b5050509392505050565b600082601f8301126157f0576157ef614fc7565b5b8135615800848260208601615772565b91505092915050565b600060a0828403121561581f5761581e615679565b5b61582960a061503d565b9050600082013567ffffffffffffffff8111156158495761584861567e565b5b61585584828501615110565b600083015250602061586984828501615287565b602083015250604061587d84828501615287565b604083015250606082013567ffffffffffffffff8111156158a1576158a061567e565b5b6158ad84828501615718565b606083015250608082013567ffffffffffffffff8111156158d1576158d061567e565b5b6158dd848285016157db565b60808301525092915050565b6000602082840312156158ff576158fe614fbd565b5b600082013567ffffffffffffffff81111561591d5761591c614fc2565b5b61592984828501615809565b91505092915050565b6000806040838503121561594957615948614fbd565b5b600083013567ffffffffffffffff81111561596757615966614fc2565b5b61597385828601615110565b925050602061598485828601615287565b9150509250929050565b600080604083850312156159a5576159a4614fbd565b5b60006159b385828601615312565b92505060206159c485828601615287565b9150509250929050565b60008115159050919050565b6159e3816159ce565b82525050565b60006020820190506159fe60008301846159da565b92915050565b600080600060608486031215615a1d57615a1c614fbd565b5b600084013567ffffffffffffffff811115615a3b57615a3a614fc2565b5b615a4786828701615110565b9350506020615a5886828701615287565b9250506040615a6986828701615287565b9150509250925092565b6000604082019050615a886000830185615246565b615a956020830184615246565b9392505050565b600081519050919050565b600082825260208201905092915050565b60005b83811015615ad6578082015181840152602081019050615abb565b60008484015250505050565b6000615aed82615a9c565b615af78185615aa7565b9350615b07818560208601615ab8565b615b1081614fcc565b840191505092915050565b60006060820190508181036000830152615b358186615ae2565b9050615b446020830185615246565b615b516040830184615246565b949350505050565b7f4e487b7100000000000000000000000000000000000000000000000000000000600052603260045260246000fd5b600081905092915050565b6000615b9e82615a9c565b615ba88185615b88565b9350615bb8818560208601615ab8565b80840191505092915050565b6000615bd08284615b93565b915081905092915050565b7f4e487b7100000000000000000000000000000000000000000000000000000000600052602260045260246000fd5b60006002820490506001821680615c2257607f821691505b602082108103615c3557615c34615bdb565b5b50919050565b7f4e487b7100000000000000000000000000000000000000000000000000000000600052601160045260246000fd5b6000615c758261523c565b9150615c808361523c565b9250828201905080821115615c9857615c97615c3b565b5b92915050565b6000615ca98261523c565b91507fffffffffffffffffffffffffffffffffffffffffffffffffffffffffffffffff8203615cdb57615cda615c3b565b5b600182019050919050565b6000615cf18261523c565b9150615cfc8361523c565b9250828202615d0a8161523c565b91508282048414831517615d2157615d20615c3b565b5b5092915050565b7f49424c3a20616d6f756e74206973207a65726f00000000000000000000000000600082015250565b6000615d5e601383615aa7565b9150615d6982615d28565b602082019050919050565b60006020820190508181036000830152615d8d81615d51565b9050919050565b7f49424c3a20616d6f756e742067726561746572207468616e207769746864726160008201527f7761626c65207374616b65000000000000000000000000000000000000000000602082015250565b6000615df0602b83615aa7565b9150615dfb82615d94565b604082019050919050565b60006020820190508181036000830152615e1f81615de3565b9050919050565b6000615e318261523c565b9150615e3c8361523c565b9250828203905081811115615e5457615e53615c3b565b5b92915050565b7f4e487b7100000000000000000000000000000000000000000000000000000000600052601260045260246000fd5b6000615e948261523c565b9150615e9f8361523c565b925082615eaf57615eae615e5a565b5b828204905092915050565b7f49424c3a20596f75206d7573742073656e642065786163742076616c75652100600082015250565b6000615ef0601f83615aa7565b9150615efb82615eba565b602082019050919050565b60006020820190508181036000830152615f1f81615ee3565b9050919050565b7f49424c3a206163636f756e7420686173206e6f20726577617264730000000000600082015250565b6000615f5c601b83615aa7565b9150615f6782615f26565b602082019050919050565b60006020820190508181036000830152615f8b81615f4f565b9050919050565b6000604082019050615fa7600083018561548f565b615fb46020830184615246565b9392505050565b7f49424c3a20596f75206d75737420706179207075626c69636174696f6e20666560008201527f6521000000000000000000000000000000000000000000000000000000000000602082015250565b6000616017602283615aa7565b915061602282615fbb565b604082019050919050565b600060208201905081810360008301526160468161600a565b9050919050565b60008190508160005260206000209050919050565b60006020601f8301049050919050565b600082821b905092915050565b6000600883026160af7fffffffffffffffffffffffffffffffffffffffffffffffffffffffffffffffff82616072565b6160b98683616072565b95508019841693508086168417925050509392505050565b60006160ec6160e76160e28461523c565b615354565b61523c565b9050919050565b6000819050919050565b616106836160d1565b61611a616112826160f3565b84845461607f565b825550505050565b600090565b61612f616122565b61613a8184846160fd565b505050565b5b8181101561615e57616153600082616127565b600181019050616140565b5050565b601f8211156161a3576161748161604d565b61617d84616062565b8101602085101561618c578190505b6161a061619885616062565b83018261613f565b50505b505050565b600082821c905092915050565b60006161c6600019846008026161a8565b1980831691505092915050565b60006161df83836161b5565b9150826002028217905092915050565b6161f882615a9c565b67ffffffffffffffff81111561621157616210614fdd565b5b61621b8254615c0a565b616226828285616162565b600060209050601f8311600181146162595760008415616247578287015190505b61625185826161d3565b8655506162b9565b601f1984166162678661604d565b60005b8281101561628f5784890151825560018201915060208501945060208101905061626a565b868310156162ac57848901516162a8601f8916826161b5565b8355505b6001600288020188555050505b505050505050565b7f49424c3a20596f7520617265206e6f7420746865206f776e6572206f6620746860008201527f6973206170706c69636174696f6e210000000000000000000000000000000000602082015250565b600061631d602f83615aa7565b9150616328826162c1565b604082019050919050565b6000602082019050818103600083015261634c81616310565b9050919050565b7f49424c3a20596f752063616e6e6f74207570646174652074686520707269636560008201527f206265636175736520796f7520617265206e6f7420746865206f776e65720000602082015250565b60006163af603e83615aa7565b91506163ba82616353565b604082019050919050565b600060208201905081810360008301526163de816163a2565b9050919050565b7f49424c3a20796f75206d7573742073656e64207468652066656520696e20636f60008201527f6e74726163742100000000000000000000000000000000000000000000000000602082015250565b6000616441602783615aa7565b915061644c826163e5565b604082019050919050565b6000602082019050818103600083015261647081616434565b9050919050565b7f4f776e61626c653a206e6577206f776e657220697320746865207a65726f206160008201527f6464726573730000000000000000000000000000000000000000000000000000602082015250565b60006164d3602683615aa7565b91506164de82616477565b604082019050919050565b60006020820190508181036000830152616502816164c6565b9050919050565b7f5265656e7472616e637947756172643a207265656e7472616e742063616c6c00600082015250565b600061653f601f83615aa7565b915061654a82616509565b602082019050919050565b6000602082019050818103600083015261656e81616532565b9050919050565b600081905092915050565b50565b6000616590600083616575565b915061659b82616580565b600082019050919050565b60006165b182616583565b9150819050919050565b7f444258656e3a206661696c656420746f2073656e6420616d6f756e7400000000600082015250565b60006165f1601c83615aa7565b91506165fc826165bb565b602082019050919050565b60006020820190508181036000830152616620816165e4565b9050919050565b7f4f776e61626c653a2063616c6c6572206973206e6f7420746865206f776e6572600082015250565b600061665d602083615aa7565b915061666882616627565b602082019050919050565b6000602082019050818103600083015261668c81616650565b9050919050565b60006060820190506166a8600083018661548f565b6166b5602083018561548f565b6166c26040830184615246565b949350505050565b6166d3816159ce565b81146166de57600080fd5b50565b6000815190506166f0816166ca565b92915050565b60006020828403121561670c5761670b614fbd565b5b600061671a848285016166e1565b91505092915050565b7f5361666545524332303a204552433230206f7065726174696f6e20646964206e60008201527f6f74207375636365656400000000000000000000000000000000000000000000602082015250565b600061677f602a83615aa7565b915061678a82616723565b604082019050919050565b600060208201905081810360008301526167ae81616772565b9050919050565b7f416464726573733a20696e73756666696369656e742062616c616e636520666f60008201527f722063616c6c0000000000000000000000000000000000000000000000000000602082015250565b6000616811602683615aa7565b915061681c826167b5565b604082019050919050565b6000602082019050818103600083015261684081616804565b9050919050565b600081519050919050565b600061685d82616847565b6168678185616575565b9350616877818560208601615ab8565b80840191505092915050565b600061688f8284616852565b915081905092915050565b7f416464726573733a2063616c6c20746f206e6f6e2d636f6e7472616374000000600082015250565b60006168d0601d83615aa7565b91506168db8261689a565b602082019050919050565b600060208201905081810360008301526168ff816168c3565b9050919050565b600060208201905081810360008301526169208184615ae2565b90509291505056fea26469706673582212201d5555c5a3f9b40ce26fdd746bba1d680565f2a2848951584bb1cd21fcf460ca64736f6c6343000811003360a06040523480156200001157600080fd5b506040518060400160405280601081526020017f49424c2052657761726420746f6b656e000000000000000000000000000000008152506040518060400160405280600381526020017f49424c000000000000000000000000000000000000000000000000000000000081525081600390816200008f919062000358565b508060049081620000a1919062000358565b5050503373ffffffffffffffffffffffffffffffffffffffff1660808173ffffffffffffffffffffffffffffffffffffffff16815250506200043f565b600081519050919050565b7f4e487b7100000000000000000000000000000000000000000000000000000000600052604160045260246000fd5b7f4e487b7100000000000000000000000000000000000000000000000000000000600052602260045260246000fd5b600060028204905060018216806200016057607f821691505b60208210810362000176576200017562000118565b5b50919050565b60008190508160005260206000209050919050565b60006020601f8301049050919050565b600082821b905092915050565b600060088302620001e07fffffffffffffffffffffffffffffffffffffffffffffffffffffffffffffffff82620001a1565b620001ec8683620001a1565b95508019841693508086168417925050509392505050565b6000819050919050565b6000819050919050565b600062000239620002336200022d8462000204565b6200020e565b62000204565b9050919050565b6000819050919050565b620002558362000218565b6200026d620002648262000240565b848454620001ae565b825550505050565b600090565b6200028462000275565b620002918184846200024a565b505050565b5b81811015620002b957620002ad6000826200027a565b60018101905062000297565b5050565b601f8211156200030857620002d2816200017c565b620002dd8462000191565b81016020851015620002ed578190505b62000305620002fc8562000191565b83018262000296565b50505b505050565b600082821c905092915050565b60006200032d600019846008026200030d565b1980831691505092915050565b60006200034883836200031a565b9150826002028217905092915050565b6200036382620000de565b67ffffffffffffffff8111156200037f576200037e620000e9565b5b6200038b825462000147565b62000398828285620002bd565b600060209050601f831160018114620003d05760008415620003bb578287015190505b620003c785826200033a565b86555062000437565b601f198416620003e0866200017c565b60005b828110156200040a57848901518255600182019150602085019450602081019050620003e3565b868310156200042a578489015162000426601f8916826200031a565b8355505b6001600288020188555050505b505050505050565b6080516115a7620004626000396000818161044e015261050401526115a76000f3fe608060405234801561001057600080fd5b50600436106100cf5760003560e01c806370a082311161008c5780639a49090e116100665780639a49090e1461022a578063a457c2d714610246578063a9059cbb14610276578063dd62ed3e146102a6576100cf565b806370a08231146101be5780638da5cb5b146101ee57806395d89b411461020c576100cf565b806306fdde03146100d4578063095ea7b3146100f257806318160ddd1461012257806323b872dd14610140578063313ce56714610170578063395093511461018e575b600080fd5b6100dc6102d6565b6040516100e99190610d82565b60405180910390f35b61010c60048036038101906101079190610e3d565b610368565b6040516101199190610e98565b60405180910390f35b61012a61038b565b6040516101379190610ec2565b60405180910390f35b61015a60048036038101906101559190610edd565b610395565b6040516101679190610e98565b60405180910390f35b6101786103c4565b6040516101859190610f4c565b60405180910390f35b6101a860048036038101906101a39190610e3d565b6103cd565b6040516101b59190610e98565b60405180910390f35b6101d860048036038101906101d39190610f67565b610404565b6040516101e59190610ec2565b60405180910390f35b6101f661044c565b6040516102039190610fa3565b60405180910390f35b610214610470565b6040516102219190610d82565b60405180910390f35b610244600480360381019061023f9190610e3d565b610502565b005b610260600480360381019061025b9190610e3d565b61059e565b60405161026d9190610e98565b60405180910390f35b610290600480360381019061028b9190610e3d565b610615565b60405161029d9190610e98565b60405180910390f35b6102c060048036038101906102bb9190610fbe565b610638565b6040516102cd9190610ec2565b60405180910390f35b6060600380546102e59061102d565b80601f01602080910402602001604051908101604052809291908181526020018280546103119061102d565b801561035e5780601f106103335761010080835404028352916020019161035e565b820191906000526020600020905b81548152906001019060200180831161034157829003601f168201915b5050505050905090565b6000806103736106bf565b90506103808185856106c7565b600191505092915050565b6000600254905090565b6000806103a06106bf565b90506103ad858285610890565b6103b885858561091c565b60019150509392505050565b60006012905090565b6000806103d86106bf565b90506103f98185856103ea8589610638565b6103f4919061108d565b6106c7565b600191505092915050565b60008060008373ffffffffffffffffffffffffffffffffffffffff1673ffffffffffffffffffffffffffffffffffffffff168152602001908152602001600020549050919050565b7f000000000000000000000000000000000000000000000000000000000000000081565b60606004805461047f9061102d565b80601f01602080910402602001604051908101604052809291908181526020018280546104ab9061102d565b80156104f85780601f106104cd576101008083540402835291602001916104f8565b820191906000526020600020905b8154815290600101906020018083116104db57829003601f168201915b5050505050905090565b7f000000000000000000000000000000000000000000000000000000000000000073ffffffffffffffffffffffffffffffffffffffff163373ffffffffffffffffffffffffffffffffffffffff1614610590576040517f08c379a00000000000000000000000000000000000000000000000000000000081526004016105879061110d565b60405180910390fd5b61059a8282610b92565b5050565b6000806105a96106bf565b905060006105b78286610638565b9050838110156105fc576040517f08c379a00000000000000000000000000000000000000000000000000000000081526004016105f39061119f565b60405180910390fd5b61060982868684036106c7565b60019250505092915050565b6000806106206106bf565b905061062d81858561091c565b600191505092915050565b6000600160008473ffffffffffffffffffffffffffffffffffffffff1673ffffffffffffffffffffffffffffffffffffffff16815260200190815260200160002060008373ffffffffffffffffffffffffffffffffffffffff1673ffffffffffffffffffffffffffffffffffffffff16815260200190815260200160002054905092915050565b600033905090565b600073ffffffffffffffffffffffffffffffffffffffff168373ffffffffffffffffffffffffffffffffffffffff1603610736576040517f08c379a000000000000000000000000000000000000000000000000000000000815260040161072d90611231565b60405180910390fd5b600073ffffffffffffffffffffffffffffffffffffffff168273ffffffffffffffffffffffffffffffffffffffff16036107a5576040517f08c379a000000000000000000000000000000000000000000000000000000000815260040161079c906112c3565b60405180910390fd5b80600160008573ffffffffffffffffffffffffffffffffffffffff1673ffffffffffffffffffffffffffffffffffffffff16815260200190815260200160002060008473ffffffffffffffffffffffffffffffffffffffff1673ffffffffffffffffffffffffffffffffffffffff168152602001908152602001600020819055508173ffffffffffffffffffffffffffffffffffffffff168373ffffffffffffffffffffffffffffffffffffffff167f8c5be1e5ebec7d5bd14f71427d1e84f3dd0314c0f7b2291e5b200ac8c7c3b925836040516108839190610ec2565b60405180910390a3505050565b600061089c8484610638565b90507fffffffffffffffffffffffffffffffffffffffffffffffffffffffffffffffff81146109165781811015610908576040517f08c379a00000000000000000000000000000000000000000000000000000000081526004016108ff9061132f565b60405180910390fd5b61091584848484036106c7565b5b50505050565b600073ffffffffffffffffffffffffffffffffffffffff168373ffffffffffffffffffffffffffffffffffffffff160361098b576040517f08c379a0000000000000000000000000000000000000000000000000000000008152600401610982906113c1565b60405180910390fd5b600073ffffffffffffffffffffffffffffffffffffffff168273ffffffffffffffffffffffffffffffffffffffff16036109fa576040517f08c379a00000000000000000000000000000000000000000000000000000000081526004016109f190611453565b60405180910390fd5b610a05838383610ce8565b60008060008573ffffffffffffffffffffffffffffffffffffffff1673ffffffffffffffffffffffffffffffffffffffff16815260200190815260200160002054905081811015610a8b576040517f08c379a0000000000000000000000000000000000000000000000000000000008152600401610a82906114e5565b60405180910390fd5b8181036000808673ffffffffffffffffffffffffffffffffffffffff1673ffffffffffffffffffffffffffffffffffffffff16815260200190815260200160002081905550816000808573ffffffffffffffffffffffffffffffffffffffff1673ffffffffffffffffffffffffffffffffffffffff168152602001908152602001600020600082825401925050819055508273ffffffffffffffffffffffffffffffffffffffff168473ffffffffffffffffffffffffffffffffffffffff167fddf252ad1be2c89b69c2b068fc378daa952ba7f163c4a11628f55a4df523b3ef84604051610b799190610ec2565b60405180910390a3610b8c848484610ced565b50505050565b600073ffffffffffffffffffffffffffffffffffffffff168273ffffffffffffffffffffffffffffffffffffffff1603610c01576040517f08c379a0000000000000000000000000000000000000000000000000000000008152600401610bf890611551565b60405180910390fd5b610c0d60008383610ce8565b8060026000828254610c1f919061108d565b92505081905550806000808473ffffffffffffffffffffffffffffffffffffffff1673ffffffffffffffffffffffffffffffffffffffff168152602001908152602001600020600082825401925050819055508173ffffffffffffffffffffffffffffffffffffffff16600073ffffffffffffffffffffffffffffffffffffffff167fddf252ad1be2c89b69c2b068fc378daa952ba7f163c4a11628f55a4df523b3ef83604051610cd09190610ec2565b60405180910390a3610ce460008383610ced565b5050565b505050565b505050565b600081519050919050565b600082825260208201905092915050565b60005b83811015610d2c578082015181840152602081019050610d11565b60008484015250505050565b6000601f19601f8301169050919050565b6000610d5482610cf2565b610d5e8185610cfd565b9350610d6e818560208601610d0e565b610d7781610d38565b840191505092915050565b60006020820190508181036000830152610d9c8184610d49565b905092915050565b600080fd5b600073ffffffffffffffffffffffffffffffffffffffff82169050919050565b6000610dd482610da9565b9050919050565b610de481610dc9565b8114610def57600080fd5b50565b600081359050610e0181610ddb565b92915050565b6000819050919050565b610e1a81610e07565b8114610e2557600080fd5b50565b600081359050610e3781610e11565b92915050565b60008060408385031215610e5457610e53610da4565b5b6000610e6285828601610df2565b9250506020610e7385828601610e28565b9150509250929050565b60008115159050919050565b610e9281610e7d565b82525050565b6000602082019050610ead6000830184610e89565b92915050565b610ebc81610e07565b82525050565b6000602082019050610ed76000830184610eb3565b92915050565b600080600060608486031215610ef657610ef5610da4565b5b6000610f0486828701610df2565b9350506020610f1586828701610df2565b9250506040610f2686828701610e28565b9150509250925092565b600060ff82169050919050565b610f4681610f30565b82525050565b6000602082019050610f616000830184610f3d565b92915050565b600060208284031215610f7d57610f7c610da4565b5b6000610f8b84828501610df2565b91505092915050565b610f9d81610dc9565b82525050565b6000602082019050610fb86000830184610f94565b92915050565b60008060408385031215610fd557610fd4610da4565b5b6000610fe385828601610df2565b9250506020610ff485828601610df2565b9150509250929050565b7f4e487b7100000000000000000000000000000000000000000000000000000000600052602260045260246000fd5b6000600282049050600182168061104557607f821691505b60208210810361105857611057610ffe565b5b50919050565b7f4e487b7100000000000000000000000000000000000000000000000000000000600052601160045260246000fd5b600061109882610e07565b91506110a383610e07565b92508282019050808211156110bb576110ba61105e565b5b92915050565b7f49424c3a2063616c6c6572206973206e6f742049424c20636f6e74726163742e600082015250565b60006110f7602083610cfd565b9150611102826110c1565b602082019050919050565b60006020820190508181036000830152611126816110ea565b9050919050565b7f45524332303a2064656372656173656420616c6c6f77616e63652062656c6f7760008201527f207a65726f000000000000000000000000000000000000000000000000000000602082015250565b6000611189602583610cfd565b91506111948261112d565b604082019050919050565b600060208201905081810360008301526111b88161117c565b9050919050565b7f45524332303a20617070726f76652066726f6d20746865207a65726f2061646460008201527f7265737300000000000000000000000000000000000000000000000000000000602082015250565b600061121b602483610cfd565b9150611226826111bf565b604082019050919050565b6000602082019050818103600083015261124a8161120e565b9050919050565b7f45524332303a20617070726f766520746f20746865207a65726f20616464726560008201527f7373000000000000000000000000000000000000000000000000000000000000602082015250565b60006112ad602283610cfd565b91506112b882611251565b604082019050919050565b600060208201905081810360008301526112dc816112a0565b9050919050565b7f45524332303a20696e73756666696369656e7420616c6c6f77616e6365000000600082015250565b6000611319601d83610cfd565b9150611324826112e3565b602082019050919050565b600060208201905081810360008301526113488161130c565b9050919050565b7f45524332303a207472616e736665722066726f6d20746865207a65726f20616460008201527f6472657373000000000000000000000000000000000000000000000000000000602082015250565b60006113ab602583610cfd565b91506113b68261134f565b604082019050919050565b600060208201905081810360008301526113da8161139e565b9050919050565b7f45524332303a207472616e7366657220746f20746865207a65726f206164647260008201527f6573730000000000000000000000000000000000000000000000000000000000602082015250565b600061143d602383610cfd565b9150611448826113e1565b604082019050919050565b6000602082019050818103600083015261146c81611430565b9050919050565b7f45524332303a207472616e7366657220616d6f756e742065786365656473206260008201527f616c616e63650000000000000000000000000000000000000000000000000000602082015250565b60006114cf602683610cfd565b91506114da82611473565b604082019050919050565b600060208201905081810360008301526114fe816114c2565b9050919050565b7f45524332303a206d696e7420746f20746865207a65726f206164647265737300600082015250565b600061153b601f83610cfd565b915061154682611505565b602082019050919050565b6000602082019050818103600083015261156a8161152e565b905091905056fea264697066735822122026e36077de0bd21a39cbdff9c43990e1afbaf170c11a166ed3eb681588ea515664736f6c63430008110033",
  "linkReferences": {},
  "deployedLinkReferences": {}
}