{
  "_format": "hh-sol-artifact-1",
  "contractName": "IBL",
  "sourceName": "contracts/IBL.sol",
  "abi": [
    {
      "inputs": [
        {
          "internalType": "address",
          "name": "_devAddress",
          "type": "address"
        }
      ],
      "stateMutability": "nonpayable",
      "type": "constructor"
    },
    {
      "anonymous": false,
      "inputs": [
        {
          "indexed": true,
          "internalType": "uint256",
          "name": "cycle",
          "type": "uint256"
        },
        {
          "indexed": true,
          "internalType": "address",
          "name": "account",
          "type": "address"
        },
        {
          "indexed": false,
          "internalType": "uint256",
          "name": "fees",
          "type": "uint256"
        }
      ],
      "name": "FeesClaimed",
      "type": "event"
    },
    {
      "anonymous": false,
      "inputs": [
        {
          "indexed": true,
          "internalType": "address",
          "name": "previousOwner",
          "type": "address"
        },
        {
          "indexed": true,
          "internalType": "address",
          "name": "newOwner",
          "type": "address"
        }
      ],
      "name": "OwnershipTransferred",
      "type": "event"
    },
    {
      "inputs": [],
      "name": "IBL_TEAM_FEE",
      "outputs": [
        {
          "internalType": "uint256",
          "name": "",
          "type": "uint256"
        }
      ],
      "stateMutability": "view",
      "type": "function"
    },
    {
      "inputs": [],
      "name": "POOL_FEE",
      "outputs": [
        {
          "internalType": "uint256",
          "name": "",
          "type": "uint256"
        }
      ],
      "stateMutability": "view",
      "type": "function"
    },
    {
      "inputs": [],
      "name": "SCALING_FACTOR",
      "outputs": [
        {
          "internalType": "uint256",
          "name": "",
          "type": "uint256"
        }
      ],
      "stateMutability": "view",
      "type": "function"
    },
    {
      "inputs": [
        {
          "internalType": "address",
          "name": "",
          "type": "address"
        }
      ],
      "name": "accAccruedFees",
      "outputs": [
        {
          "internalType": "uint256",
          "name": "",
          "type": "uint256"
        }
      ],
      "stateMutability": "view",
      "type": "function"
    },
    {
      "inputs": [
        {
          "internalType": "address",
          "name": "",
          "type": "address"
        }
      ],
      "name": "accCycleBatchesBurned",
      "outputs": [
        {
          "internalType": "uint256",
          "name": "",
          "type": "uint256"
        }
      ],
      "stateMutability": "view",
      "type": "function"
    },
    {
      "inputs": [
        {
          "internalType": "address",
          "name": "",
          "type": "address"
        }
      ],
      "name": "accFirstStake",
      "outputs": [
        {
          "internalType": "uint256",
          "name": "",
          "type": "uint256"
        }
      ],
      "stateMutability": "view",
      "type": "function"
    },
    {
      "inputs": [
        {
          "internalType": "address",
          "name": "",
          "type": "address"
        }
      ],
      "name": "accRewards",
      "outputs": [
        {
          "internalType": "uint256",
          "name": "",
          "type": "uint256"
        }
      ],
      "stateMutability": "view",
      "type": "function"
    },
    {
      "inputs": [
        {
          "internalType": "address",
          "name": "",
          "type": "address"
        }
      ],
      "name": "accSecondStake",
      "outputs": [
        {
          "internalType": "uint256",
          "name": "",
          "type": "uint256"
        }
      ],
      "stateMutability": "view",
      "type": "function"
    },
    {
      "inputs": [
        {
          "internalType": "address",
          "name": "",
          "type": "address"
        },
        {
          "internalType": "uint256",
          "name": "",
          "type": "uint256"
        }
      ],
      "name": "accStakeCycle",
      "outputs": [
        {
          "internalType": "uint256",
          "name": "",
          "type": "uint256"
        }
      ],
      "stateMutability": "view",
      "type": "function"
    },
    {
      "inputs": [
        {
          "internalType": "address",
          "name": "",
          "type": "address"
        }
      ],
      "name": "accWithdrawableStake",
      "outputs": [
        {
          "internalType": "uint256",
          "name": "",
          "type": "uint256"
        }
      ],
      "stateMutability": "view",
      "type": "function"
    },
    {
      "inputs": [],
      "name": "accruedFees",
      "outputs": [
        {
          "internalType": "uint256",
          "name": "",
          "type": "uint256"
        }
      ],
      "stateMutability": "view",
      "type": "function"
    },
    {
      "inputs": [
        {
          "components": [
            {
              "internalType": "string",
              "name": "id",
              "type": "string"
            },
            {
              "internalType": "uint256",
              "name": "runPrice",
              "type": "uint256"
            },
            {
              "internalType": "uint256",
              "name": "downloadPrice",
              "type": "uint256"
            },
            {
              "internalType": "address[]",
              "name": "owners",
              "type": "address[]"
            },
            {
              "internalType": "uint256[]",
              "name": "procentages",
              "type": "uint256[]"
            }
          ],
          "internalType": "struct IBL.Component",
          "name": "component",
          "type": "tuple"
        }
      ],
      "name": "addComponent",
      "outputs": [],
      "stateMutability": "payable",
      "type": "function"
    },
    {
      "inputs": [
        {
          "internalType": "uint256",
          "name": "",
          "type": "uint256"
        }
      ],
      "name": "alreadyUpdateCycleData",
      "outputs": [
        {
          "internalType": "bool",
          "name": "",
          "type": "bool"
        }
      ],
      "stateMutability": "view",
      "type": "function"
    },
    {
      "inputs": [
        {
          "internalType": "address",
          "name": "",
          "type": "address"
        }
      ],
      "name": "builderReward",
      "outputs": [
        {
          "internalType": "uint256",
          "name": "",
          "type": "uint256"
        }
      ],
      "stateMutability": "view",
      "type": "function"
    },
    {
      "inputs": [
        {
          "internalType": "uint256",
          "name": "x",
          "type": "uint256"
        }
      ],
      "name": "calculateProportion",
      "outputs": [
        {
          "internalType": "uint256",
          "name": "",
          "type": "uint256"
        }
      ],
      "stateMutability": "pure",
      "type": "function"
    },
    {
      "inputs": [],
      "name": "claimComponentOwnerFees",
      "outputs": [],
      "stateMutability": "nonpayable",
      "type": "function"
    },
    {
      "inputs": [],
      "name": "claimFees",
      "outputs": [],
      "stateMutability": "nonpayable",
      "type": "function"
    },
    {
      "inputs": [],
      "name": "claimRewards",
      "outputs": [],
      "stateMutability": "nonpayable",
      "type": "function"
    },
    {
      "inputs": [
        {
          "internalType": "string",
          "name": "",
          "type": "string"
        }
      ],
      "name": "componentData",
      "outputs": [
        {
          "internalType": "string",
          "name": "id",
          "type": "string"
        },
        {
          "internalType": "uint256",
          "name": "runPrice",
          "type": "uint256"
        },
        {
          "internalType": "uint256",
          "name": "downloadPrice",
          "type": "uint256"
        }
      ],
      "stateMutability": "view",
      "type": "function"
    },
    {
      "inputs": [],
      "name": "currentCycle",
      "outputs": [
        {
          "internalType": "uint256",
          "name": "",
          "type": "uint256"
        }
      ],
      "stateMutability": "view",
      "type": "function"
    },
    {
      "inputs": [],
      "name": "currentStartedCycle",
      "outputs": [
        {
          "internalType": "uint256",
          "name": "",
          "type": "uint256"
        }
      ],
      "stateMutability": "view",
      "type": "function"
    },
    {
      "inputs": [
        {
          "internalType": "uint256",
          "name": "",
          "type": "uint256"
        }
      ],
      "name": "cycleAccruedFees",
      "outputs": [
        {
          "internalType": "uint256",
          "name": "",
          "type": "uint256"
        }
      ],
      "stateMutability": "view",
      "type": "function"
    },
    {
      "inputs": [
        {
          "internalType": "uint256",
          "name": "",
          "type": "uint256"
        }
      ],
      "name": "cycleFeesPerStakeSummed",
      "outputs": [
        {
          "internalType": "uint256",
          "name": "",
          "type": "uint256"
        }
      ],
      "stateMutability": "view",
      "type": "function"
    },
    {
      "inputs": [
        {
          "internalType": "uint256",
          "name": "",
          "type": "uint256"
        }
      ],
      "name": "cycleTotalBatchesBurned",
      "outputs": [
        {
          "internalType": "uint256",
          "name": "",
          "type": "uint256"
        }
      ],
      "stateMutability": "view",
      "type": "function"
    },
    {
      "inputs": [],
      "name": "devAddress",
      "outputs": [
        {
          "internalType": "address",
          "name": "",
          "type": "address"
        }
      ],
      "stateMutability": "view",
      "type": "function"
    },
    {
      "inputs": [
        {
          "internalType": "string[]",
          "name": "componentsIds",
          "type": "string[]"
        }
      ],
      "name": "downlodApplication",
      "outputs": [],
      "stateMutability": "payable",
      "type": "function"
    },
    {
      "inputs": [],
      "name": "getCurrentCycle",
      "outputs": [
        {
          "internalType": "uint256",
          "name": "",
          "type": "uint256"
        }
      ],
      "stateMutability": "view",
      "type": "function"
    },
    {
      "inputs": [
        {
          "internalType": "string",
          "name": "id",
          "type": "string"
        }
      ],
      "name": "getFees",
      "outputs": [
        {
          "internalType": "uint256",
          "name": "",
          "type": "uint256"
        },
        {
          "internalType": "uint256",
          "name": "",
          "type": "uint256"
        }
      ],
      "stateMutability": "view",
      "type": "function"
    },
    {
      "inputs": [
        {
          "internalType": "string",
          "name": "id",
          "type": "string"
        }
      ],
      "name": "getOwnersForComponent",
      "outputs": [
        {
          "internalType": "address[]",
          "name": "",
          "type": "address[]"
        }
      ],
      "stateMutability": "view",
      "type": "function"
    },
    {
      "inputs": [
        {
          "internalType": "string",
          "name": "id",
          "type": "string"
        }
      ],
      "name": "getProcentagesForComponent",
      "outputs": [
        {
          "internalType": "uint256[]",
          "name": "",
          "type": "uint256[]"
        }
      ],
      "stateMutability": "view",
      "type": "function"
    },
    {
      "inputs": [],
      "name": "i_initialTimestamp",
      "outputs": [
        {
          "internalType": "uint256",
          "name": "",
          "type": "uint256"
        }
      ],
      "stateMutability": "view",
      "type": "function"
    },
    {
      "inputs": [],
      "name": "i_periodDuration",
      "outputs": [
        {
          "internalType": "uint256",
          "name": "",
          "type": "uint256"
        }
      ],
      "stateMutability": "view",
      "type": "function"
    },
    {
      "inputs": [],
      "name": "ibl",
      "outputs": [
        {
          "internalType": "contract IBLERC20",
          "name": "",
          "type": "address"
        }
      ],
      "stateMutability": "view",
      "type": "function"
    },
    {
      "inputs": [
        {
          "internalType": "address",
          "name": "",
          "type": "address"
        }
      ],
      "name": "lastActiveCycle",
      "outputs": [
        {
          "internalType": "uint256",
          "name": "",
          "type": "uint256"
        }
      ],
      "stateMutability": "view",
      "type": "function"
    },
    {
      "inputs": [],
      "name": "lastCycleReward",
      "outputs": [
        {
          "internalType": "uint256",
          "name": "",
          "type": "uint256"
        }
      ],
      "stateMutability": "view",
      "type": "function"
    },
    {
      "inputs": [
        {
          "internalType": "address",
          "name": "",
          "type": "address"
        }
      ],
      "name": "lastFeeUpdateCycle",
      "outputs": [
        {
          "internalType": "uint256",
          "name": "",
          "type": "uint256"
        }
      ],
      "stateMutability": "view",
      "type": "function"
    },
    {
      "inputs": [
        {
          "internalType": "string",
          "name": "",
          "type": "string"
        }
      ],
      "name": "lastHighestDownloadPrice",
      "outputs": [
        {
          "internalType": "uint256",
          "name": "",
          "type": "uint256"
        }
      ],
      "stateMutability": "view",
      "type": "function"
    },
    {
      "inputs": [],
      "name": "lastStartedCycle",
      "outputs": [
        {
          "internalType": "uint256",
          "name": "",
          "type": "uint256"
        }
      ],
      "stateMutability": "view",
      "type": "function"
    },
    {
      "inputs": [],
      "name": "owner",
      "outputs": [
        {
          "internalType": "address",
          "name": "",
          "type": "address"
        }
      ],
      "stateMutability": "view",
      "type": "function"
    },
    {
      "inputs": [
        {
          "internalType": "address",
          "name": "",
          "type": "address"
        }
      ],
      "name": "ownerNativeFeeAcc",
      "outputs": [
        {
          "internalType": "uint256",
          "name": "",
          "type": "uint256"
        }
      ],
      "stateMutability": "view",
      "type": "function"
    },
    {
      "inputs": [],
      "name": "pendingStake",
      "outputs": [
        {
          "internalType": "uint256",
          "name": "",
          "type": "uint256"
        }
      ],
      "stateMutability": "view",
      "type": "function"
    },
    {
      "inputs": [],
      "name": "pendingStakeWithdrawal",
      "outputs": [
        {
          "internalType": "uint256",
          "name": "",
          "type": "uint256"
        }
      ],
      "stateMutability": "view",
      "type": "function"
    },
    {
      "inputs": [],
      "name": "previousStartedCycle",
      "outputs": [
        {
          "internalType": "uint256",
          "name": "",
          "type": "uint256"
        }
      ],
      "stateMutability": "view",
      "type": "function"
    },
    {
      "inputs": [],
      "name": "renounceOwnership",
      "outputs": [],
      "stateMutability": "nonpayable",
      "type": "function"
    },
    {
      "inputs": [
        {
          "internalType": "uint256",
          "name": "",
          "type": "uint256"
        }
      ],
      "name": "rewardPerCycle",
      "outputs": [
        {
          "internalType": "uint256",
          "name": "",
          "type": "uint256"
        }
      ],
      "stateMutability": "view",
      "type": "function"
    },
    {
      "inputs": [
        {
          "internalType": "string[]",
          "name": "componentsIds",
          "type": "string[]"
        }
      ],
      "name": "runApplication",
      "outputs": [],
      "stateMutability": "payable",
      "type": "function"
    },
    {
      "inputs": [
        {
          "internalType": "address",
          "name": "_devAddress",
          "type": "address"
        }
      ],
      "name": "setDevAddress",
      "outputs": [],
      "stateMutability": "nonpayable",
      "type": "function"
    },
    {
      "inputs": [
        {
          "internalType": "string",
          "name": "id",
          "type": "string"
        },
        {
          "internalType": "uint256",
          "name": "newRunPrice",
          "type": "uint256"
        },
        {
          "internalType": "uint256",
          "name": "newDownloadPrice",
          "type": "uint256"
        }
      ],
      "name": "setNewPrice",
      "outputs": [],
      "stateMutability": "payable",
      "type": "function"
    },
    {
      "inputs": [
        {
          "internalType": "uint256",
          "name": "amount",
          "type": "uint256"
        }
      ],
      "name": "stake",
      "outputs": [],
      "stateMutability": "nonpayable",
      "type": "function"
    },
    {
      "inputs": [
        {
          "internalType": "uint256",
          "name": "",
          "type": "uint256"
        }
      ],
      "name": "summedCycleStakes",
      "outputs": [
        {
          "internalType": "uint256",
          "name": "",
          "type": "uint256"
        }
      ],
      "stateMutability": "view",
      "type": "function"
    },
    {
      "inputs": [],
      "name": "totalNumberOfBatchesBurned",
      "outputs": [
        {
          "internalType": "uint256",
          "name": "",
          "type": "uint256"
        }
      ],
      "stateMutability": "view",
      "type": "function"
    },
    {
      "inputs": [
        {
          "internalType": "address",
          "name": "newOwner",
          "type": "address"
        }
      ],
      "name": "transferOwnership",
      "outputs": [],
      "stateMutability": "nonpayable",
      "type": "function"
    },
    {
      "inputs": [
        {
          "internalType": "uint256",
          "name": "amount",
          "type": "uint256"
        }
      ],
      "name": "unstake",
      "outputs": [],
      "stateMutability": "nonpayable",
      "type": "function"
    }
  ],
  "bytecode": "0x60c06040526101f4600b5561251c600c553480156200001d57600080fd5b50604051620076ca380380620076ca833981810160405281019062000043919062000275565b62000063620000576200013160201b60201c565b6200013960201b60201c565b600180819055506040516200007890620001fd565b604051809103906000f08015801562000095573d6000803e3d6000fd5b50600260006101000a81548173ffffffffffffffffffffffffffffffffffffffff021916908373ffffffffffffffffffffffffffffffffffffffff16021790555080600d60006101000a81548173ffffffffffffffffffffffffffffffffffffffff021916908373ffffffffffffffffffffffffffffffffffffffff16021790555042608081815250506201518060a0818152505050620002a7565b600033905090565b60008060009054906101000a900473ffffffffffffffffffffffffffffffffffffffff169050816000806101000a81548173ffffffffffffffffffffffffffffffffffffffff021916908373ffffffffffffffffffffffffffffffffffffffff1602179055508173ffffffffffffffffffffffffffffffffffffffff168173ffffffffffffffffffffffffffffffffffffffff167f8be0079c531659141344cd1fd0a4f28419497f9722a3daafe3b4186f6b6457e060405160405180910390a35050565b611a098062005cc183390190565b600080fd5b600073ffffffffffffffffffffffffffffffffffffffff82169050919050565b60006200023d8262000210565b9050919050565b6200024f8162000230565b81146200025b57600080fd5b50565b6000815190506200026f8162000244565b92915050565b6000602082840312156200028e576200028d6200020b565b5b60006200029e848285016200025e565b91505092915050565b60805160a0516159e6620002db60003960008181610fe10152611d000152600081816118670152611d2101526159e66000f3fe60806040526004361061031a5760003560e01c8063aabbb1bd116101ab578063d4432e4e116100f7578063eb90b2bc11610095578063f1b371e21161006f578063f1b371e214610c43578063f2fde38b14610c6e578063fa845ca914610c97578063fded701214610cd45761031a565b8063eb90b2bc14610b9d578063ed725e8314610bdb578063ef4cadc514610c185761031a565b8063dd1b9c4a116100d1578063dd1b9c4a14610b02578063e203d03014610b2d578063e60c90c414610b44578063e858e05c14610b815761031a565b8063d4432e4e14610a7e578063d8043d8f14610aa9578063db80a28c14610ac55761031a565b8063be26ed7f11610164578063c40af1ee1161013e578063c40af1ee146109d6578063c4235ae914610a01578063d0d41fe114610a3e578063d294f09314610a675761031a565b8063be26ed7f14610931578063bebc9dfc1461095c578063bee7708e146109995761031a565b8063aabbb1bd146107d5578063adc0f68614610812578063af2f850e1461084f578063b6f2a9ce1461088c578063bab2f552146108c9578063bc713290146108f45761031a565b80635f5080b41161026a57806374ef836711610223578063a2727db3116101fd578063a2727db314610707578063a694fc3a14610744578063a707140b1461076d578063a95f1dac146107aa5761031a565b806374ef8367146106955780638bd95563146106b15780638da5cb5b146106dc5761031a565b80635f5080b4146105a4578063650b1881146105cf578063682c20581461060c57806368f05769146106375780636adb0eb614610662578063715018a61461067e5761031a565b80632e17de78116102d75780633ad10ef6116102b15780633ad10ef6146104d4578063436091c1146104ff5780635347a47d1461052a578063541c7886146105675761031a565b80632e17de78146104695780632f7cdab014610492578063372500ab146104bd5761031a565b80630ece21541461031f57806312cb22ac1461035c57806312d4743914610399578063168b0a5c146103c457806317d9c47a146103ef5780631ed6380f1461042c575b600080fd5b34801561032b57600080fd5b50610346600480360381019061034191906141eb565b610d13565b6040516103539190614227565b60405180910390f35b34801561036857600080fd5b50610383600480360381019061037e91906142a0565b610d2b565b6040516103909190614227565b60405180910390f35b3480156103a557600080fd5b506103ae610d43565b6040516103bb9190614227565b60405180910390f35b3480156103d057600080fd5b506103d9610d49565b6040516103e6919061432c565b60405180910390f35b3480156103fb57600080fd5b50610416600480360381019061041191906141eb565b610d6f565b6040516104239190614227565b60405180910390f35b34801561043857600080fd5b50610453600480360381019061044e91906142a0565b610d87565b6040516104609190614227565b60405180910390f35b34801561047557600080fd5b50610490600480360381019061048b91906141eb565b610d9f565b005b34801561049e57600080fd5b506104a7610fdf565b6040516104b49190614227565b60405180910390f35b3480156104c957600080fd5b506104d2611003565b005b3480156104e057600080fd5b506104e9611249565b6040516104f69190614356565b60405180910390f35b34801561050b57600080fd5b5061051461126f565b6040516105219190614227565b60405180910390f35b34801561053657600080fd5b50610551600480360381019061054c91906144b7565b611275565b60405161055e9190614227565b60405180910390f35b34801561057357600080fd5b5061058e600480360381019061058991906144b7565b6112a3565b60405161059b91906145be565b60405180910390f35b3480156105b057600080fd5b506105b9611352565b6040516105c69190614227565b60405180910390f35b3480156105db57600080fd5b506105f660048036038101906105f191906141eb565b611358565b6040516106039190614227565b60405180910390f35b34801561061857600080fd5b5061062161137f565b60405161062e9190614227565b60405180910390f35b34801561064357600080fd5b5061064c611385565b6040516106599190614227565b60405180910390f35b61067c600480360381019061067791906146c6565b61138b565b005b34801561068a57600080fd5b506106936116c4565b005b6106af60048036038101906106aa919061497f565b6116d8565b005b3480156106bd57600080fd5b506106c6611865565b6040516106d39190614227565b60405180910390f35b3480156106e857600080fd5b506106f1611889565b6040516106fe9190614356565b60405180910390f35b34801561071357600080fd5b5061072e600480360381019061072991906142a0565b6118b2565b60405161073b9190614227565b60405180910390f35b34801561075057600080fd5b5061076b600480360381019061076691906141eb565b6118ca565b005b34801561077957600080fd5b50610794600480360381019061078f91906142a0565b611bea565b6040516107a19190614227565b60405180910390f35b3480156107b657600080fd5b506107bf611c02565b6040516107cc9190614227565b60405180910390f35b3480156107e157600080fd5b506107fc60048036038101906107f791906149c8565b611c08565b6040516108099190614227565b60405180910390f35b34801561081e57600080fd5b50610839600480360381019061083491906141eb565b611c2d565b6040516108469190614227565b60405180910390f35b34801561085b57600080fd5b50610876600480360381019061087191906141eb565b611c45565b6040516108839190614a23565b60405180910390f35b34801561089857600080fd5b506108b360048036038101906108ae91906144b7565b611c65565b6040516108c09190614afc565b60405180910390f35b3480156108d557600080fd5b506108de611cde565b6040516108eb9190614227565b60405180910390f35b34801561090057600080fd5b5061091b600480360381019061091691906142a0565b611ce4565b6040516109289190614227565b60405180910390f35b34801561093d57600080fd5b50610946611cfc565b6040516109539190614227565b60405180910390f35b34801561096857600080fd5b50610983600480360381019061097e91906141eb565b611d5a565b6040516109909190614227565b60405180910390f35b3480156109a557600080fd5b506109c060048036038101906109bb91906142a0565b611d72565b6040516109cd9190614227565b60405180910390f35b3480156109e257600080fd5b506109eb611d8a565b6040516109f89190614227565b60405180910390f35b348015610a0d57600080fd5b50610a286004803603810190610a2391906141eb565b611d90565b604051610a359190614227565b60405180910390f35b348015610a4a57600080fd5b50610a656004803603810190610a6091906142a0565b611da8565b005b348015610a7357600080fd5b50610a7c611e04565b005b348015610a8a57600080fd5b50610a93611f06565b604051610aa09190614227565b60405180910390f35b610ac36004803603810190610abe91906146c6565b611f0c565b005b348015610ad157600080fd5b50610aec6004803603810190610ae791906142a0565b612245565b604051610af99190614227565b60405180910390f35b348015610b0e57600080fd5b50610b1761225d565b604051610b249190614227565b60405180910390f35b348015610b3957600080fd5b50610b42612263565b005b348015610b5057600080fd5b50610b6b6004803603810190610b6691906142a0565b612365565b604051610b789190614227565b60405180910390f35b610b9b6004803603810190610b969190614b1e565b61237c565b005b348015610ba957600080fd5b50610bc46004803603810190610bbf91906144b7565b6127c6565b604051610bd2929190614b8d565b60405180910390f35b348015610be757600080fd5b50610c026004803603810190610bfd91906142a0565b612816565b604051610c0f9190614227565b60405180910390f35b348015610c2457600080fd5b50610c2d61282e565b604051610c3a9190614227565b60405180910390f35b348015610c4f57600080fd5b50610c58612843565b604051610c659190614227565b60405180910390f35b348015610c7a57600080fd5b50610c956004803603810190610c9091906142a0565b612849565b005b348015610ca357600080fd5b50610cbe6004803603810190610cb991906142a0565b6128cc565b604051610ccb9190614227565b60405180910390f35b348015610ce057600080fd5b50610cfb6004803603810190610cf691906144b7565b6128e4565b604051610d0a93929190614c35565b60405180910390f35b601d6020528060005260406000206000915090505481565b60166020528060005260406000206000915090505481565b600b5481565b600260009054906101000a900473ffffffffffffffffffffffffffffffffffffffff1681565b60176020528060005260406000206000915090505481565b601f6020528060005260406000206000915090505481565b610da76129ac565b610daf6129fb565b610db7612a1c565b610dc033612b45565b60008111610e03576040517f08c379a0000000000000000000000000000000000000000000000000000000008152600401610dfa90614cbf565b60405180910390fd5b601f60003373ffffffffffffffffffffffffffffffffffffffff1673ffffffffffffffffffffffffffffffffffffffff16815260200190815260200160002054811115610e85576040517f08c379a0000000000000000000000000000000000000000000000000000000008152600401610e7c90614d51565b60405180910390fd5b60135460115403610eae578060146000828254610ea29190614da0565b92505081905550610edb565b80601b6000600f5481526020019081526020016000206000828254610ed39190614dd4565b925050819055505b80601f60003373ffffffffffffffffffffffffffffffffffffffff1673ffffffffffffffffffffffffffffffffffffffff1681526020019081526020016000206000828254610f2a9190614dd4565b9250508190555080601960003373ffffffffffffffffffffffffffffffffffffffff1673ffffffffffffffffffffffffffffffffffffffff1681526020019081526020016000206000828254610f809190614dd4565b92505081905550610fd43382600260009054906101000a900473ffffffffffffffffffffffffffffffffffffffff1673ffffffffffffffffffffffffffffffffffffffff166137cd9092919063ffffffff16565b610fdc613853565b50565b7f000000000000000000000000000000000000000000000000000000000000000081565b61100b6129ac565b6110136129fb565b61101b612a1c565b61102433612b45565b6000601f60003373ffffffffffffffffffffffffffffffffffffffff1673ffffffffffffffffffffffffffffffffffffffff16815260200190815260200160002054601960003373ffffffffffffffffffffffffffffffffffffffff1673ffffffffffffffffffffffffffffffffffffffff168152602001908152602001600020546110b09190614dd4565b9050600081116110f5576040517f08c379a00000000000000000000000000000000000000000000000000000000081526004016110ec90614e54565b60405180910390fd5b80601960003373ffffffffffffffffffffffffffffffffffffffff1673ffffffffffffffffffffffffffffffffffffffff16815260200190815260200160002060008282546111449190614dd4565b92505081905550601354601154036111745780601460008282546111689190614da0565b925050819055506111af565b80601b6000600f548152602001908152602001600020546111959190614dd4565b601b6000600f548152602001908152602001600020819055505b600260009054906101000a900473ffffffffffffffffffffffffffffffffffffffff1673ffffffffffffffffffffffffffffffffffffffff16639a49090e33836040518363ffffffff1660e01b815260040161120c929190614e74565b600060405180830381600087803b15801561122657600080fd5b505af115801561123a573d6000803e3d6000fd5b5050505050611247613853565b565b600d60009054906101000a900473ffffffffffffffffffffffffffffffffffffffff1681565b60115481565b6007818051602081018201805184825260208301602085012081835280955050505050506000915090505481565b60606003826040516112b59190614ed9565b908152602001604051809103902060030180548060200260200160405190810160405280929190818152602001828054801561134657602002820191906000526020600020905b8160009054906101000a900473ffffffffffffffffffffffffffffffffffffffff1673ffffffffffffffffffffffffffffffffffffffff16815260200190600101908083116112fc575b50505050509050919050565b60125481565b600080600160648461136a9190614ef0565b6113749190614f61565b905080915050919050565b600a5481565b60145481565b6113936129ac565b61139b6129fb565b6113a3612a1c565b6113ab61385c565b6113b433612b45565b600080825190506113c361407e565b606080600080600090505b858110156116a95760038882815181106113eb576113ea614f92565b5b60200260200101516040516114009190614ed9565b90815260200160405180910390206040518060a001604052908160008201805461142990614ff0565b80601f016020809104026020016040519081016040528092919081815260200182805461145590614ff0565b80156114a25780601f10611477576101008083540402835291602001916114a2565b820191906000526020600020905b81548152906001019060200180831161148557829003601f168201915b5050505050815260200160018201548152602001600282015481526020016003820180548060200260200160405190810160405280929190818152602001828054801561154457602002820191906000526020600020905b8160009054906101000a900473ffffffffffffffffffffffffffffffffffffffff1673ffffffffffffffffffffffffffffffffffffffff16815260200190600101908083116114fa575b505050505081526020016004820180548060200260200160405190810160405280929190818152602001828054801561159c57602002820191906000526020600020905b815481526020019060010190808311611588575b505050505081525050945084606001519350846080015192508351915060005b8281101561168357670de0b6b3a76400008482815181106115e0576115df614f92565b5b602002602001015187602001516115f79190614ef0565b6116019190614f61565b6005600087848151811061161857611617614f92565b5b602002602001015173ffffffffffffffffffffffffffffffffffffffff1673ffffffffffffffffffffffffffffffffffffffff16815260200190815260200160002060008282546116699190614da0565b92505081905550808061167b90615021565b9150506115bc565b508460200151876116949190614da0565b965080806116a190615021565b9150506113ce565b506116b386613987565b5050505050506116c1613853565b50565b6116cc613b66565b6116d66000613be4565b565b6116e06129ac565b6116e86129fb565b6116f0612a1c565b6116f933612b45565b8060400151341461173f576040517f08c379a0000000000000000000000000000000000000000000000000000000008152600401611736906150db565b60405180910390fd5b6040518060a001604052808260000151815260200182602001518152602001826040015181526020018260600151815260200182608001518152506003826000015160405161178e9190614ed9565b908152602001604051809103902060008201518160000190816117b1919061529d565b50602082015181600101556040820151816002015560608201518160030190805190602001906117e29291906140ad565b5060808201518160040190805190602001906117ff929190614137565b5090505080604001516007826000015160405161181c9190614ed9565b90815260200160405180910390208190555061185a600d60009054906101000a900473ffffffffffffffffffffffffffffffffffffffff1634613ca8565b611862613853565b50565b7f000000000000000000000000000000000000000000000000000000000000000081565b60008060009054906101000a900473ffffffffffffffffffffffffffffffffffffffff16905090565b60046020528060005260406000206000915090505481565b6118d26129ac565b6118da6129fb565b6118e2612a1c565b6118eb33612b45565b6000811161192e576040517f08c379a000000000000000000000000000000000000000000000000000000000815260040161192590614cbf565b60405180910390fd5b80600e60008282546119409190614da0565b9250508190555060006001600f546119589190614da0565b9050601354601154036119775760016011546119749190614da0565b90505b602060003373ffffffffffffffffffffffffffffffffffffffff1673ffffffffffffffffffffffffffffffffffffffff168152602001908152602001600020548114158015611a055750602160003373ffffffffffffffffffffffffffffffffffffffff1673ffffffffffffffffffffffffffffffffffffffff168152602001908152602001600020548114155b15611b28576000602060003373ffffffffffffffffffffffffffffffffffffffff1673ffffffffffffffffffffffffffffffffffffffff1681526020019081526020016000205403611a9a5780602060003373ffffffffffffffffffffffffffffffffffffffff1673ffffffffffffffffffffffffffffffffffffffff16815260200190815260200160002081905550611b27565b6000602160003373ffffffffffffffffffffffffffffffffffffffff1673ffffffffffffffffffffffffffffffffffffffff1681526020019081526020016000205403611b265780602160003373ffffffffffffffffffffffffffffffffffffffff1673ffffffffffffffffffffffffffffffffffffffff168152602001908152602001600020819055505b5b5b81601e60003373ffffffffffffffffffffffffffffffffffffffff1673ffffffffffffffffffffffffffffffffffffffff16815260200190815260200160002060008381526020019081526020016000206000828254611b889190614da0565b92505081905550611bde333084600260009054906101000a900473ffffffffffffffffffffffffffffffffffffffff1673ffffffffffffffffffffffffffffffffffffffff16613d59909392919063ffffffff16565b50611be7613853565b50565b601c6020528060005260406000206000915090505481565b60105481565b601e602052816000526040600020602052806000526040600020600091509150505481565b601a6020528060005260406000206000915090505481565b60066020528060005260406000206000915054906101000a900460ff1681565b6060600382604051611c779190614ed9565b9081526020016040518091039020600401805480602002602001604051908101604052809291908181526020018280548015611cd257602002820191906000526020600020905b815481526020019060010190808311611cbe575b50505050509050919050565b600f5481565b60096020528060005260406000206000915090505481565b60007f00000000000000000000000000000000000000000000000000000000000000007f000000000000000000000000000000000000000000000000000000000000000042611d4b9190614dd4565b611d559190614f61565b905090565b60086020528060005260406000206000915090505481565b60056020528060005260406000206000915090505481565b60155481565b601b6020528060005260406000206000915090505481565b611db0613b66565b611db86129ac565b80600d60006101000a81548173ffffffffffffffffffffffffffffffffffffffff021916908373ffffffffffffffffffffffffffffffffffffffff160217905550611e01613853565b50565b611e0c6129ac565b611e146129fb565b611e1c612a1c565b611e2533612b45565b6000600960003373ffffffffffffffffffffffffffffffffffffffff1673ffffffffffffffffffffffffffffffffffffffff16815260200190815260200160002054905060008111611eac576040517f08c379a0000000000000000000000000000000000000000000000000000000008152600401611ea390614cbf565b60405180910390fd5b6000600960003373ffffffffffffffffffffffffffffffffffffffff1673ffffffffffffffffffffffffffffffffffffffff16815260200190815260200160002081905550611efb3382613ca8565b50611f04613853565b565b600e5481565b611f146129ac565b611f1c6129fb565b611f24612a1c565b611f2c61385c565b611f3533612b45565b60008082519050611f4461407e565b606080600080600090505b8581101561222a576003888281518110611f6c57611f6b614f92565b5b6020026020010151604051611f819190614ed9565b90815260200160405180910390206040518060a0016040529081600082018054611faa90614ff0565b80601f0160208091040260200160405190810160405280929190818152602001828054611fd690614ff0565b80156120235780601f10611ff857610100808354040283529160200191612023565b820191906000526020600020905b81548152906001019060200180831161200657829003601f168201915b505050505081526020016001820154815260200160028201548152602001600382018054806020026020016040519081016040528092919081815260200182805480156120c557602002820191906000526020600020905b8160009054906101000a900473ffffffffffffffffffffffffffffffffffffffff1673ffffffffffffffffffffffffffffffffffffffff168152602001906001019080831161207b575b505050505081526020016004820180548060200260200160405190810160405280929190818152602001828054801561211d57602002820191906000526020600020905b815481526020019060010190808311612109575b505050505081525050945084606001519350846080015192508351915060005b8281101561220457670de0b6b3a764000084828151811061216157612160614f92565b5b602002602001015187604001516121789190614ef0565b6121829190614f61565b6005600087848151811061219957612198614f92565b5b602002602001015173ffffffffffffffffffffffffffffffffffffffff1673ffffffffffffffffffffffffffffffffffffffff16815260200190815260200160002060008282546121ea9190614da0565b9250508190555080806121fc90615021565b91505061213d565b508460400151876122159190614da0565b9650808061222290615021565b915050611f4f565b5061223486613987565b505050505050612242613853565b50565b60216020528060005260406000206000915090505481565b600c5481565b61226b6129ac565b6122736129fb565b61227b612a1c565b61228433612b45565b6000600560003373ffffffffffffffffffffffffffffffffffffffff1673ffffffffffffffffffffffffffffffffffffffff1681526020019081526020016000205490506000811161230b576040517f08c379a000000000000000000000000000000000000000000000000000000000815260040161230290614cbf565b60405180910390fd5b6000600560003373ffffffffffffffffffffffffffffffffffffffff1673ffffffffffffffffffffffffffffffffffffffff1681526020019081526020016000208190555061235a3382613ca8565b50612363613853565b565b602080528060005260406000206000915090505481565b6123846129ac565b61238c6129fb565b612394612a1c565b61239d33612b45565b60006003846040516123af9190614ed9565b90815260200160405180910390206040518060a00160405290816000820180546123d890614ff0565b80601f016020809104026020016040519081016040528092919081815260200182805461240490614ff0565b80156124515780601f1061242657610100808354040283529160200191612451565b820191906000526020600020905b81548152906001019060200180831161243457829003601f168201915b505050505081526020016001820154815260200160028201548152602001600382018054806020026020016040519081016040528092919081815260200182805480156124f357602002820191906000526020600020905b8160009054906101000a900473ffffffffffffffffffffffffffffffffffffffff1673ffffffffffffffffffffffffffffffffffffffff16815260200190600101908083116124a9575b505050505081526020016004820180548060200260200160405190810160405280929190818152602001828054801561254b57602002820191906000526020600020905b815481526020019060010190808311612537575b5050505050815250509050600081606001519050600081519050600080600090505b828110156125de573373ffffffffffffffffffffffffffffffffffffffff1684828151811061259f5761259e614f92565b5b602002602001015173ffffffffffffffffffffffffffffffffffffffff16036125cb57600191506125de565b80806125d690615021565b91505061256d565b508061261f576040517f08c379a0000000000000000000000000000000000000000000000000000000008152600401612616906153e1565b60405180910390fd5b846007886040516126309190614ed9565b9081526020016040518091039020541015612701576007876040516126559190614ed9565b9081526020016040518091039020548561266f9190614dd4565b3410156126b1576040517f08c379a00000000000000000000000000000000000000000000000000000000081526004016126a890615473565b60405180910390fd5b846007886040516126c29190614ed9565b90815260200160405180910390208190555034601d6000600f54815260200190815260200160002060008282546126f99190614da0565b925050819055505b6040518060a001604052808881526020018781526020018681526020018560600151815260200185608001518152506003886040516127409190614ed9565b90815260200160405180910390206000820151816000019081612763919061529d565b50602082015181600101556040820151816002015560608201518160030190805190602001906127949291906140ad565b5060808201518160040190805190602001906127b1929190614137565b50905050505050506127c1613853565b505050565b6000806003836040516127d99190614ed9565b9081526020016040518091039020600101546003846040516127fb9190614ed9565b90815260200160405180910390206002015491509150915091565b60196020528060005260406000206000915090505481565b701d6329f1c35ca4bfabb9f561000000000081565b60135481565b612851613b66565b600073ffffffffffffffffffffffffffffffffffffffff168173ffffffffffffffffffffffffffffffffffffffff16036128c0576040517f08c379a00000000000000000000000000000000000000000000000000000000081526004016128b790615505565b60405180910390fd5b6128c981613be4565b50565b60186020528060005260406000206000915090505481565b60038180516020810182018051848252602083016020850120818352809550505050505060009150905080600001805461291d90614ff0565b80601f016020809104026020016040519081016040528092919081815260200182805461294990614ff0565b80156129965780601f1061296b57610100808354040283529160200191612996565b820191906000526020600020905b81548152906001019060200180831161297957829003601f168201915b5050505050908060010154908060020154905083565b6002600154036129f1576040517f08c379a00000000000000000000000000000000000000000000000000000000081526004016129e890615571565b60405180910390fd5b6002600181905550565b6000612a05611cfc565b9050600f54811115612a195780600f819055505b50565b601354600f5414612a46576001601154612a369190614da0565b6012819055506013546011819055505b601154600f54118015612a7a57506000600860006001601154612a699190614da0565b815260200190815260200160002054145b15612b4357600080601b600060115481526020019081526020016000205414612af657601b6000601154815260200190815260200160002054701d6329f1c35ca4bfabb9f5610000000000601d6000601154815260200190815260200160002054612ae59190614ef0565b612aef9190614f61565b9050612afb565b600090505b8060086000601254815260200190815260200160002054612b1c9190614da0565b600860006001601154612b2f9190614da0565b815260200190815260200160002081905550505b565b601154600f54118015612ba557506001601154612b629190614da0565b601c60008373ffffffffffffffffffffffffffffffffffffffff1673ffffffffffffffffffffffffffffffffffffffff1681526020019081526020016000205414155b15612d6f57701d6329f1c35ca4bfabb9f561000000000060086000601c60008573ffffffffffffffffffffffffffffffffffffffff1673ffffffffffffffffffffffffffffffffffffffff16815260200190815260200160002054815260200190815260200160002054600860006001601154612c229190614da0565b815260200190815260200160002054612c3b9190614dd4565b601960008473ffffffffffffffffffffffffffffffffffffffff1673ffffffffffffffffffffffffffffffffffffffff16815260200190815260200160002054612c859190614ef0565b612c8f9190614f61565b600960008373ffffffffffffffffffffffffffffffffffffffff1673ffffffffffffffffffffffffffffffffffffffff16815260200190815260200160002054612cd99190614da0565b600960008373ffffffffffffffffffffffffffffffffffffffff1673ffffffffffffffffffffffffffffffffffffffff168152602001908152602001600020819055506001601154612d2b9190614da0565b601c60008373ffffffffffffffffffffffffffffffffffffffff1673ffffffffffffffffffffffffffffffffffffffff168152602001908152602001600020819055505b6000602060008373ffffffffffffffffffffffffffffffffffffffff1673ffffffffffffffffffffffffffffffffffffffff1681526020019081526020016000205414158015612dff5750602060008273ffffffffffffffffffffffffffffffffffffffff1673ffffffffffffffffffffffffffffffffffffffff16815260200190815260200160002054600f54115b156137ca576000601e60008373ffffffffffffffffffffffffffffffffffffffff1673ffffffffffffffffffffffffffffffffffffffff1681526020019081526020016000206000602060008573ffffffffffffffffffffffffffffffffffffffff1673ffffffffffffffffffffffffffffffffffffffff16815260200190815260200160002054815260200190815260200160002054905080601960008473ffffffffffffffffffffffffffffffffffffffff1673ffffffffffffffffffffffffffffffffffffffff1681526020019081526020016000206000828254612ee79190614da0565b9250508190555080601f60008473ffffffffffffffffffffffffffffffffffffffff1673ffffffffffffffffffffffffffffffffffffffff1681526020019081526020016000206000828254612f3d9190614da0565b92505081905550602060008373ffffffffffffffffffffffffffffffffffffffff1673ffffffffffffffffffffffffffffffffffffffff168152602001908152602001600020546001601154612f939190614da0565b111561315c57701d6329f1c35ca4bfabb9f561000000000060086000602060008673ffffffffffffffffffffffffffffffffffffffff1673ffffffffffffffffffffffffffffffffffffffff168152602001908152602001600020548152602001908152602001600020546008600060016011546130119190614da0565b81526020019081526020016000205461302a9190614dd4565b601e60008573ffffffffffffffffffffffffffffffffffffffff1673ffffffffffffffffffffffffffffffffffffffff1681526020019081526020016000206000602060008773ffffffffffffffffffffffffffffffffffffffff1673ffffffffffffffffffffffffffffffffffffffff168152602001908152602001600020548152602001908152602001600020546130c49190614ef0565b6130ce9190614f61565b600960008473ffffffffffffffffffffffffffffffffffffffff1673ffffffffffffffffffffffffffffffffffffffff168152602001908152602001600020546131189190614da0565b600960008473ffffffffffffffffffffffffffffffffffffffff1673ffffffffffffffffffffffffffffffffffffffff168152602001908152602001600020819055505b6000601e60008473ffffffffffffffffffffffffffffffffffffffff1673ffffffffffffffffffffffffffffffffffffffff1681526020019081526020016000206000602060008673ffffffffffffffffffffffffffffffffffffffff1673ffffffffffffffffffffffffffffffffffffffff168152602001908152602001600020548152602001908152602001600020819055506000602060008473ffffffffffffffffffffffffffffffffffffffff1673ffffffffffffffffffffffffffffffffffffffff168152602001908152602001600020819055506000602160008473ffffffffffffffffffffffffffffffffffffffff1673ffffffffffffffffffffffffffffffffffffffff16815260200190815260200160002054146137c857602160008373ffffffffffffffffffffffffffffffffffffffff1673ffffffffffffffffffffffffffffffffffffffff16815260200190815260200160002054600f5411156136fe576000601e60008473ffffffffffffffffffffffffffffffffffffffff1673ffffffffffffffffffffffffffffffffffffffff1681526020019081526020016000206000602160008673ffffffffffffffffffffffffffffffffffffffff1673ffffffffffffffffffffffffffffffffffffffff16815260200190815260200160002054815260200190815260200160002054905080601960008573ffffffffffffffffffffffffffffffffffffffff1673ffffffffffffffffffffffffffffffffffffffff16815260200190815260200160002060008282546133a99190614da0565b9250508190555080601f60008573ffffffffffffffffffffffffffffffffffffffff1673ffffffffffffffffffffffffffffffffffffffff16815260200190815260200160002060008282546133ff9190614da0565b92505081905550602160008473ffffffffffffffffffffffffffffffffffffffff1673ffffffffffffffffffffffffffffffffffffffff1681526020019081526020016000205460016011546134559190614da0565b111561361e57701d6329f1c35ca4bfabb9f561000000000060086000602160008773ffffffffffffffffffffffffffffffffffffffff1673ffffffffffffffffffffffffffffffffffffffff168152602001908152602001600020548152602001908152602001600020546008600060016011546134d39190614da0565b8152602001908152602001600020546134ec9190614dd4565b601e60008673ffffffffffffffffffffffffffffffffffffffff1673ffffffffffffffffffffffffffffffffffffffff1681526020019081526020016000206000602160008873ffffffffffffffffffffffffffffffffffffffff1673ffffffffffffffffffffffffffffffffffffffff168152602001908152602001600020548152602001908152602001600020546135869190614ef0565b6135909190614f61565b600960008573ffffffffffffffffffffffffffffffffffffffff1673ffffffffffffffffffffffffffffffffffffffff168152602001908152602001600020546135da9190614da0565b600960008573ffffffffffffffffffffffffffffffffffffffff1673ffffffffffffffffffffffffffffffffffffffff168152602001908152602001600020819055505b6000601e60008573ffffffffffffffffffffffffffffffffffffffff1673ffffffffffffffffffffffffffffffffffffffff1681526020019081526020016000206000602160008773ffffffffffffffffffffffffffffffffffffffff1673ffffffffffffffffffffffffffffffffffffffff168152602001908152602001600020548152602001908152602001600020819055506000602160008573ffffffffffffffffffffffffffffffffffffffff1673ffffffffffffffffffffffffffffffffffffffff16815260200190815260200160002081905550506137c7565b602160008373ffffffffffffffffffffffffffffffffffffffff1673ffffffffffffffffffffffffffffffffffffffff16815260200190815260200160002054602060008473ffffffffffffffffffffffffffffffffffffffff1673ffffffffffffffffffffffffffffffffffffffff168152602001908152602001600020819055506000602160008473ffffffffffffffffffffffffffffffffffffffff1673ffffffffffffffffffffffffffffffffffffffff168152602001908152602001600020819055505b5b505b50565b61384e8363a9059cbb60e01b84846040516024016137ec929190614e74565b604051602081830303815290604052907bffffffffffffffffffffffffffffffffffffffffffffffffffffffff19166020820180517bffffffffffffffffffffffffffffffffffffffffffffffffffffffff8381831617835250505050613de2565b505050565b60018081905550565b6000151560066000600f54815260200190815260200160002060009054906101000a900460ff1615150361398557600160066000600f54815260200190815260200160002060006101000a81548160ff021916908315150217905550600f54601381905550601b6000601154815260200190815260200160002054601b6000601354815260200190815260200160002060008282546138fb9190614da0565b925050819055506000600e541461394357600e54601b6000601354815260200190815260200160002060008282546139339190614da0565b925050819055506000600e819055505b60006014541461398457601454601b6000601354815260200190815260200160002060008282546139749190614dd4565b9250508190555060006014819055505b5b565b6002816139949190614ef0565b34146139d5576040517f08c379a00000000000000000000000000000000000000000000000000000000081526004016139cc906155dd565b60405180910390fd5b613a1b600d60009054906101000a900473ffffffffffffffffffffffffffffffffffffffff16612710600b5484613a0c9190614ef0565b613a169190614f61565b613ca8565b612710600c5482613a2c9190614ef0565b613a369190614f61565b601d6000600f5481526020019081526020016000206000828254613a5a9190614da0565b925050819055506000613a6c34611358565b905080601a6000600f5481526020019081526020016000206000828254613a939190614da0565b9250508190555080601960003373ffffffffffffffffffffffffffffffffffffffff1673ffffffffffffffffffffffffffffffffffffffff1681526020019081526020016000206000828254613ae99190614da0565b92505081905550600f54601860003373ffffffffffffffffffffffffffffffffffffffff1673ffffffffffffffffffffffffffffffffffffffff1681526020019081526020016000208190555080601b6000600f5481526020019081526020016000206000828254613b5b9190614da0565b925050819055505050565b613b6e613ea9565b73ffffffffffffffffffffffffffffffffffffffff16613b8c611889565b73ffffffffffffffffffffffffffffffffffffffff1614613be2576040517f08c379a0000000000000000000000000000000000000000000000000000000008152600401613bd990615649565b60405180910390fd5b565b60008060009054906101000a900473ffffffffffffffffffffffffffffffffffffffff169050816000806101000a81548173ffffffffffffffffffffffffffffffffffffffff021916908373ffffffffffffffffffffffffffffffffffffffff1602179055508173ffffffffffffffffffffffffffffffffffffffff168173ffffffffffffffffffffffffffffffffffffffff167f8be0079c531659141344cd1fd0a4f28419497f9722a3daafe3b4186f6b6457e060405160405180910390a35050565b60008273ffffffffffffffffffffffffffffffffffffffff1682604051613cce9061569a565b60006040518083038185875af1925050503d8060008114613d0b576040519150601f19603f3d011682016040523d82523d6000602084013e613d10565b606091505b5050905080613d54576040517f08c379a0000000000000000000000000000000000000000000000000000000008152600401613d4b906156fb565b60405180910390fd5b505050565b613ddc846323b872dd60e01b858585604051602401613d7a9392919061571b565b604051602081830303815290604052907bffffffffffffffffffffffffffffffffffffffffffffffffffffffff19166020820180517bffffffffffffffffffffffffffffffffffffffffffffffffffffffff8381831617835250505050613de2565b50505050565b6000613e44826040518060400160405280602081526020017f5361666545524332303a206c6f772d6c6576656c2063616c6c206661696c65648152508573ffffffffffffffffffffffffffffffffffffffff16613eb19092919063ffffffff16565b9050600081511115613ea45780806020019051810190613e64919061577e565b613ea3576040517f08c379a0000000000000000000000000000000000000000000000000000000008152600401613e9a9061581d565b60405180910390fd5b5b505050565b600033905090565b6060613ec08484600085613ec9565b90509392505050565b606082471015613f0e576040517f08c379a0000000000000000000000000000000000000000000000000000000008152600401613f05906158af565b60405180910390fd5b6000808673ffffffffffffffffffffffffffffffffffffffff168587604051613f37919061590b565b60006040518083038185875af1925050503d8060008114613f74576040519150601f19603f3d011682016040523d82523d6000602084013e613f79565b606091505b5091509150613f8a87838387613f96565b92505050949350505050565b60608315613ff8576000835103613ff057613fb08561400b565b613fef576040517f08c379a0000000000000000000000000000000000000000000000000000000008152600401613fe69061596e565b60405180910390fd5b5b829050614003565b614002838361402e565b5b949350505050565b6000808273ffffffffffffffffffffffffffffffffffffffff163b119050919050565b6000825111156140415781518083602001fd5b806040517f08c379a0000000000000000000000000000000000000000000000000000000008152600401614075919061598e565b60405180910390fd5b6040518060a0016040528060608152602001600081526020016000815260200160608152602001606081525090565b828054828255906000526020600020908101928215614126579160200282015b828111156141255782518260006101000a81548173ffffffffffffffffffffffffffffffffffffffff021916908373ffffffffffffffffffffffffffffffffffffffff160217905550916020019190600101906140cd565b5b5090506141339190614184565b5090565b828054828255906000526020600020908101928215614173579160200282015b82811115614172578251825591602001919060010190614157565b5b5090506141809190614184565b5090565b5b8082111561419d576000816000905550600101614185565b5090565b6000604051905090565b600080fd5b600080fd5b6000819050919050565b6141c8816141b5565b81146141d357600080fd5b50565b6000813590506141e5816141bf565b92915050565b600060208284031215614201576142006141ab565b5b600061420f848285016141d6565b91505092915050565b614221816141b5565b82525050565b600060208201905061423c6000830184614218565b92915050565b600073ffffffffffffffffffffffffffffffffffffffff82169050919050565b600061426d82614242565b9050919050565b61427d81614262565b811461428857600080fd5b50565b60008135905061429a81614274565b92915050565b6000602082840312156142b6576142b56141ab565b5b60006142c48482850161428b565b91505092915050565b6000819050919050565b60006142f26142ed6142e884614242565b6142cd565b614242565b9050919050565b6000614304826142d7565b9050919050565b6000614316826142f9565b9050919050565b6143268161430b565b82525050565b6000602082019050614341600083018461431d565b92915050565b61435081614262565b82525050565b600060208201905061436b6000830184614347565b92915050565b600080fd5b600080fd5b6000601f19601f8301169050919050565b7f4e487b7100000000000000000000000000000000000000000000000000000000600052604160045260246000fd5b6143c48261437b565b810181811067ffffffffffffffff821117156143e3576143e261438c565b5b80604052505050565b60006143f66141a1565b905061440282826143bb565b919050565b600067ffffffffffffffff8211156144225761442161438c565b5b61442b8261437b565b9050602081019050919050565b82818337600083830152505050565b600061445a61445584614407565b6143ec565b90508281526020810184848401111561447657614475614376565b5b614481848285614438565b509392505050565b600082601f83011261449e5761449d614371565b5b81356144ae848260208601614447565b91505092915050565b6000602082840312156144cd576144cc6141ab565b5b600082013567ffffffffffffffff8111156144eb576144ea6141b0565b5b6144f784828501614489565b91505092915050565b600081519050919050565b600082825260208201905092915050565b6000819050602082019050919050565b61453581614262565b82525050565b6000614547838361452c565b60208301905092915050565b6000602082019050919050565b600061456b82614500565b614575818561450b565b93506145808361451c565b8060005b838110156145b1578151614598888261453b565b97506145a383614553565b925050600181019050614584565b5085935050505092915050565b600060208201905081810360008301526145d88184614560565b905092915050565b600067ffffffffffffffff8211156145fb576145fa61438c565b5b602082029050602081019050919050565b600080fd5b600061462461461f846145e0565b6143ec565b905080838252602082019050602084028301858111156146475761464661460c565b5b835b8181101561468e57803567ffffffffffffffff81111561466c5761466b614371565b5b8086016146798982614489565b85526020850194505050602081019050614649565b5050509392505050565b600082601f8301126146ad576146ac614371565b5b81356146bd848260208601614611565b91505092915050565b6000602082840312156146dc576146db6141ab565b5b600082013567ffffffffffffffff8111156146fa576146f96141b0565b5b61470684828501614698565b91505092915050565b600080fd5b600080fd5b600067ffffffffffffffff8211156147345761473361438c565b5b602082029050602081019050919050565b600061475861475384614719565b6143ec565b9050808382526020820190506020840283018581111561477b5761477a61460c565b5b835b818110156147a45780614790888261428b565b84526020840193505060208101905061477d565b5050509392505050565b600082601f8301126147c3576147c2614371565b5b81356147d3848260208601614745565b91505092915050565b600067ffffffffffffffff8211156147f7576147f661438c565b5b602082029050602081019050919050565b600061481b614816846147dc565b6143ec565b9050808382526020820190506020840283018581111561483e5761483d61460c565b5b835b81811015614867578061485388826141d6565b845260208401935050602081019050614840565b5050509392505050565b600082601f83011261488657614885614371565b5b8135614896848260208601614808565b91505092915050565b600060a082840312156148b5576148b461470f565b5b6148bf60a06143ec565b9050600082013567ffffffffffffffff8111156148df576148de614714565b5b6148eb84828501614489565b60008301525060206148ff848285016141d6565b6020830152506040614913848285016141d6565b604083015250606082013567ffffffffffffffff81111561493757614936614714565b5b614943848285016147ae565b606083015250608082013567ffffffffffffffff81111561496757614966614714565b5b61497384828501614871565b60808301525092915050565b600060208284031215614995576149946141ab565b5b600082013567ffffffffffffffff8111156149b3576149b26141b0565b5b6149bf8482850161489f565b91505092915050565b600080604083850312156149df576149de6141ab565b5b60006149ed8582860161428b565b92505060206149fe858286016141d6565b9150509250929050565b60008115159050919050565b614a1d81614a08565b82525050565b6000602082019050614a386000830184614a14565b92915050565b600081519050919050565b600082825260208201905092915050565b6000819050602082019050919050565b614a73816141b5565b82525050565b6000614a858383614a6a565b60208301905092915050565b6000602082019050919050565b6000614aa982614a3e565b614ab38185614a49565b9350614abe83614a5a565b8060005b83811015614aef578151614ad68882614a79565b9750614ae183614a91565b925050600181019050614ac2565b5085935050505092915050565b60006020820190508181036000830152614b168184614a9e565b905092915050565b600080600060608486031215614b3757614b366141ab565b5b600084013567ffffffffffffffff811115614b5557614b546141b0565b5b614b6186828701614489565b9350506020614b72868287016141d6565b9250506040614b83868287016141d6565b9150509250925092565b6000604082019050614ba26000830185614218565b614baf6020830184614218565b9392505050565b600081519050919050565b600082825260208201905092915050565b60005b83811015614bf0578082015181840152602081019050614bd5565b60008484015250505050565b6000614c0782614bb6565b614c118185614bc1565b9350614c21818560208601614bd2565b614c2a8161437b565b840191505092915050565b60006060820190508181036000830152614c4f8186614bfc565b9050614c5e6020830185614218565b614c6b6040830184614218565b949350505050565b7f49424c3a20616d6f756e74206973207a65726f00000000000000000000000000600082015250565b6000614ca9601383614bc1565b9150614cb482614c73565b602082019050919050565b60006020820190508181036000830152614cd881614c9c565b9050919050565b7f49424c3a20616d6f756e742067726561746572207468616e207769746864726160008201527f7761626c65207374616b65000000000000000000000000000000000000000000602082015250565b6000614d3b602b83614bc1565b9150614d4682614cdf565b604082019050919050565b60006020820190508181036000830152614d6a81614d2e565b9050919050565b7f4e487b7100000000000000000000000000000000000000000000000000000000600052601160045260246000fd5b6000614dab826141b5565b9150614db6836141b5565b9250828201905080821115614dce57614dcd614d71565b5b92915050565b6000614ddf826141b5565b9150614dea836141b5565b9250828203905081811115614e0257614e01614d71565b5b92915050565b7f49424c3a206163636f756e7420686173206e6f20726577617264730000000000600082015250565b6000614e3e601b83614bc1565b9150614e4982614e08565b602082019050919050565b60006020820190508181036000830152614e6d81614e31565b9050919050565b6000604082019050614e896000830185614347565b614e966020830184614218565b9392505050565b600081905092915050565b6000614eb382614bb6565b614ebd8185614e9d565b9350614ecd818560208601614bd2565b80840191505092915050565b6000614ee58284614ea8565b915081905092915050565b6000614efb826141b5565b9150614f06836141b5565b9250828202614f14816141b5565b91508282048414831517614f2b57614f2a614d71565b5b5092915050565b7f4e487b7100000000000000000000000000000000000000000000000000000000600052601260045260246000fd5b6000614f6c826141b5565b9150614f77836141b5565b925082614f8757614f86614f32565b5b828204905092915050565b7f4e487b7100000000000000000000000000000000000000000000000000000000600052603260045260246000fd5b7f4e487b7100000000000000000000000000000000000000000000000000000000600052602260045260246000fd5b6000600282049050600182168061500857607f821691505b60208210810361501b5761501a614fc1565b5b50919050565b600061502c826141b5565b91507fffffffffffffffffffffffffffffffffffffffffffffffffffffffffffffffff820361505e5761505d614d71565b5b600182019050919050565b7f49424c3a20596f75206d75737420706179207075626c69636174696f6e20666560008201527f6521000000000000000000000000000000000000000000000000000000000000602082015250565b60006150c5602283614bc1565b91506150d082615069565b604082019050919050565b600060208201905081810360008301526150f4816150b8565b9050919050565b60008190508160005260206000209050919050565b60006020601f8301049050919050565b600082821b905092915050565b60006008830261515d7fffffffffffffffffffffffffffffffffffffffffffffffffffffffffffffffff82615120565b6151678683615120565b95508019841693508086168417925050509392505050565b600061519a615195615190846141b5565b6142cd565b6141b5565b9050919050565b6000819050919050565b6151b48361517f565b6151c86151c0826151a1565b84845461512d565b825550505050565b600090565b6151dd6151d0565b6151e88184846151ab565b505050565b5b8181101561520c576152016000826151d5565b6001810190506151ee565b5050565b601f82111561525157615222816150fb565b61522b84615110565b8101602085101561523a578190505b61524e61524685615110565b8301826151ed565b50505b505050565b600082821c905092915050565b600061527460001984600802615256565b1980831691505092915050565b600061528d8383615263565b9150826002028217905092915050565b6152a682614bb6565b67ffffffffffffffff8111156152bf576152be61438c565b5b6152c98254614ff0565b6152d4828285615210565b600060209050601f83116001811461530757600084156152f5578287015190505b6152ff8582615281565b865550615367565b601f198416615315866150fb565b60005b8281101561533d57848901518255600182019150602085019450602081019050615318565b8683101561535a5784890151615356601f891682615263565b8355505b6001600288020188555050505b505050505050565b7f49424c3a20596f752063616e6e6f74207570646174652074686520707269636560008201527f206265636175736520796f7520617265206e6f7420746865206f776e65720000602082015250565b60006153cb603e83614bc1565b91506153d68261536f565b604082019050919050565b600060208201905081810360008301526153fa816153be565b9050919050565b7f49424c3a20796f75206d7573742073656e64207468652066656520696e20636f60008201527f6e74726163742100000000000000000000000000000000000000000000000000602082015250565b600061545d602783614bc1565b915061546882615401565b604082019050919050565b6000602082019050818103600083015261548c81615450565b9050919050565b7f4f776e61626c653a206e6577206f776e657220697320746865207a65726f206160008201527f6464726573730000000000000000000000000000000000000000000000000000602082015250565b60006154ef602683614bc1565b91506154fa82615493565b604082019050919050565b6000602082019050818103600083015261551e816154e2565b9050919050565b7f5265656e7472616e637947756172643a207265656e7472616e742063616c6c00600082015250565b600061555b601f83614bc1565b915061556682615525565b602082019050919050565b6000602082019050818103600083015261558a8161554e565b9050919050565b7f49424c3a20596f75206d7573742073656e642065786163742076616c75652100600082015250565b60006155c7601f83614bc1565b91506155d282615591565b602082019050919050565b600060208201905081810360008301526155f6816155ba565b9050919050565b7f4f776e61626c653a2063616c6c6572206973206e6f7420746865206f776e6572600082015250565b6000615633602083614bc1565b915061563e826155fd565b602082019050919050565b6000602082019050818103600083015261566281615626565b9050919050565b600081905092915050565b50565b6000615684600083615669565b915061568f82615674565b600082019050919050565b60006156a582615677565b9150819050919050565b7f444258656e3a206661696c656420746f2073656e6420616d6f756e7400000000600082015250565b60006156e5601c83614bc1565b91506156f0826156af565b602082019050919050565b60006020820190508181036000830152615714816156d8565b9050919050565b60006060820190506157306000830186614347565b61573d6020830185614347565b61574a6040830184614218565b949350505050565b61575b81614a08565b811461576657600080fd5b50565b60008151905061577881615752565b92915050565b600060208284031215615794576157936141ab565b5b60006157a284828501615769565b91505092915050565b7f5361666545524332303a204552433230206f7065726174696f6e20646964206e60008201527f6f74207375636365656400000000000000000000000000000000000000000000602082015250565b6000615807602a83614bc1565b9150615812826157ab565b604082019050919050565b60006020820190508181036000830152615836816157fa565b9050919050565b7f416464726573733a20696e73756666696369656e742062616c616e636520666f60008201527f722063616c6c0000000000000000000000000000000000000000000000000000602082015250565b6000615899602683614bc1565b91506158a48261583d565b604082019050919050565b600060208201905081810360008301526158c88161588c565b9050919050565b600081519050919050565b60006158e5826158cf565b6158ef8185615669565b93506158ff818560208601614bd2565b80840191505092915050565b600061591782846158da565b915081905092915050565b7f416464726573733a2063616c6c20746f206e6f6e2d636f6e7472616374000000600082015250565b6000615958601d83614bc1565b915061596382615922565b602082019050919050565b600060208201905081810360008301526159878161594b565b9050919050565b600060208201905081810360008301526159a88184614bfc565b90509291505056fea2646970667358221220516b5d0a1086e64b5ac108e6647beaed5a509a1f1e76543f2d8038f15bff47ef64736f6c6343000811003360a06040523480156200001157600080fd5b506040518060400160405280601081526020017f49424c2052657761726420746f6b656e000000000000000000000000000000008152506040518060400160405280600381526020017f49424c000000000000000000000000000000000000000000000000000000000081525081600390816200008f919062000358565b508060049081620000a1919062000358565b5050503373ffffffffffffffffffffffffffffffffffffffff1660808173ffffffffffffffffffffffffffffffffffffffff16815250506200043f565b600081519050919050565b7f4e487b7100000000000000000000000000000000000000000000000000000000600052604160045260246000fd5b7f4e487b7100000000000000000000000000000000000000000000000000000000600052602260045260246000fd5b600060028204905060018216806200016057607f821691505b60208210810362000176576200017562000118565b5b50919050565b60008190508160005260206000209050919050565b60006020601f8301049050919050565b600082821b905092915050565b600060088302620001e07fffffffffffffffffffffffffffffffffffffffffffffffffffffffffffffffff82620001a1565b620001ec8683620001a1565b95508019841693508086168417925050509392505050565b6000819050919050565b6000819050919050565b600062000239620002336200022d8462000204565b6200020e565b62000204565b9050919050565b6000819050919050565b620002558362000218565b6200026d620002648262000240565b848454620001ae565b825550505050565b600090565b6200028462000275565b620002918184846200024a565b505050565b5b81811015620002b957620002ad6000826200027a565b60018101905062000297565b5050565b601f8211156200030857620002d2816200017c565b620002dd8462000191565b81016020851015620002ed578190505b62000305620002fc8562000191565b83018262000296565b50505b505050565b600082821c905092915050565b60006200032d600019846008026200030d565b1980831691505092915050565b60006200034883836200031a565b9150826002028217905092915050565b6200036382620000de565b67ffffffffffffffff8111156200037f576200037e620000e9565b5b6200038b825462000147565b62000398828285620002bd565b600060209050601f831160018114620003d05760008415620003bb578287015190505b620003c785826200033a565b86555062000437565b601f198416620003e0866200017c565b60005b828110156200040a57848901518255600182019150602085019450602081019050620003e3565b868310156200042a578489015162000426601f8916826200031a565b8355505b6001600288020188555050505b505050505050565b6080516115a7620004626000396000818161044e015261050401526115a76000f3fe608060405234801561001057600080fd5b50600436106100cf5760003560e01c806370a082311161008c5780639a49090e116100665780639a49090e1461022a578063a457c2d714610246578063a9059cbb14610276578063dd62ed3e146102a6576100cf565b806370a08231146101be5780638da5cb5b146101ee57806395d89b411461020c576100cf565b806306fdde03146100d4578063095ea7b3146100f257806318160ddd1461012257806323b872dd14610140578063313ce56714610170578063395093511461018e575b600080fd5b6100dc6102d6565b6040516100e99190610d82565b60405180910390f35b61010c60048036038101906101079190610e3d565b610368565b6040516101199190610e98565b60405180910390f35b61012a61038b565b6040516101379190610ec2565b60405180910390f35b61015a60048036038101906101559190610edd565b610395565b6040516101679190610e98565b60405180910390f35b6101786103c4565b6040516101859190610f4c565b60405180910390f35b6101a860048036038101906101a39190610e3d565b6103cd565b6040516101b59190610e98565b60405180910390f35b6101d860048036038101906101d39190610f67565b610404565b6040516101e59190610ec2565b60405180910390f35b6101f661044c565b6040516102039190610fa3565b60405180910390f35b610214610470565b6040516102219190610d82565b60405180910390f35b610244600480360381019061023f9190610e3d565b610502565b005b610260600480360381019061025b9190610e3d565b61059e565b60405161026d9190610e98565b60405180910390f35b610290600480360381019061028b9190610e3d565b610615565b60405161029d9190610e98565b60405180910390f35b6102c060048036038101906102bb9190610fbe565b610638565b6040516102cd9190610ec2565b60405180910390f35b6060600380546102e59061102d565b80601f01602080910402602001604051908101604052809291908181526020018280546103119061102d565b801561035e5780601f106103335761010080835404028352916020019161035e565b820191906000526020600020905b81548152906001019060200180831161034157829003601f168201915b5050505050905090565b6000806103736106bf565b90506103808185856106c7565b600191505092915050565b6000600254905090565b6000806103a06106bf565b90506103ad858285610890565b6103b885858561091c565b60019150509392505050565b60006012905090565b6000806103d86106bf565b90506103f98185856103ea8589610638565b6103f4919061108d565b6106c7565b600191505092915050565b60008060008373ffffffffffffffffffffffffffffffffffffffff1673ffffffffffffffffffffffffffffffffffffffff168152602001908152602001600020549050919050565b7f000000000000000000000000000000000000000000000000000000000000000081565b60606004805461047f9061102d565b80601f01602080910402602001604051908101604052809291908181526020018280546104ab9061102d565b80156104f85780601f106104cd576101008083540402835291602001916104f8565b820191906000526020600020905b8154815290600101906020018083116104db57829003601f168201915b5050505050905090565b7f000000000000000000000000000000000000000000000000000000000000000073ffffffffffffffffffffffffffffffffffffffff163373ffffffffffffffffffffffffffffffffffffffff1614610590576040517f08c379a00000000000000000000000000000000000000000000000000000000081526004016105879061110d565b60405180910390fd5b61059a8282610b92565b5050565b6000806105a96106bf565b905060006105b78286610638565b9050838110156105fc576040517f08c379a00000000000000000000000000000000000000000000000000000000081526004016105f39061119f565b60405180910390fd5b61060982868684036106c7565b60019250505092915050565b6000806106206106bf565b905061062d81858561091c565b600191505092915050565b6000600160008473ffffffffffffffffffffffffffffffffffffffff1673ffffffffffffffffffffffffffffffffffffffff16815260200190815260200160002060008373ffffffffffffffffffffffffffffffffffffffff1673ffffffffffffffffffffffffffffffffffffffff16815260200190815260200160002054905092915050565b600033905090565b600073ffffffffffffffffffffffffffffffffffffffff168373ffffffffffffffffffffffffffffffffffffffff1603610736576040517f08c379a000000000000000000000000000000000000000000000000000000000815260040161072d90611231565b60405180910390fd5b600073ffffffffffffffffffffffffffffffffffffffff168273ffffffffffffffffffffffffffffffffffffffff16036107a5576040517f08c379a000000000000000000000000000000000000000000000000000000000815260040161079c906112c3565b60405180910390fd5b80600160008573ffffffffffffffffffffffffffffffffffffffff1673ffffffffffffffffffffffffffffffffffffffff16815260200190815260200160002060008473ffffffffffffffffffffffffffffffffffffffff1673ffffffffffffffffffffffffffffffffffffffff168152602001908152602001600020819055508173ffffffffffffffffffffffffffffffffffffffff168373ffffffffffffffffffffffffffffffffffffffff167f8c5be1e5ebec7d5bd14f71427d1e84f3dd0314c0f7b2291e5b200ac8c7c3b925836040516108839190610ec2565b60405180910390a3505050565b600061089c8484610638565b90507fffffffffffffffffffffffffffffffffffffffffffffffffffffffffffffffff81146109165781811015610908576040517f08c379a00000000000000000000000000000000000000000000000000000000081526004016108ff9061132f565b60405180910390fd5b61091584848484036106c7565b5b50505050565b600073ffffffffffffffffffffffffffffffffffffffff168373ffffffffffffffffffffffffffffffffffffffff160361098b576040517f08c379a0000000000000000000000000000000000000000000000000000000008152600401610982906113c1565b60405180910390fd5b600073ffffffffffffffffffffffffffffffffffffffff168273ffffffffffffffffffffffffffffffffffffffff16036109fa576040517f08c379a00000000000000000000000000000000000000000000000000000000081526004016109f190611453565b60405180910390fd5b610a05838383610ce8565b60008060008573ffffffffffffffffffffffffffffffffffffffff1673ffffffffffffffffffffffffffffffffffffffff16815260200190815260200160002054905081811015610a8b576040517f08c379a0000000000000000000000000000000000000000000000000000000008152600401610a82906114e5565b60405180910390fd5b8181036000808673ffffffffffffffffffffffffffffffffffffffff1673ffffffffffffffffffffffffffffffffffffffff16815260200190815260200160002081905550816000808573ffffffffffffffffffffffffffffffffffffffff1673ffffffffffffffffffffffffffffffffffffffff168152602001908152602001600020600082825401925050819055508273ffffffffffffffffffffffffffffffffffffffff168473ffffffffffffffffffffffffffffffffffffffff167fddf252ad1be2c89b69c2b068fc378daa952ba7f163c4a11628f55a4df523b3ef84604051610b799190610ec2565b60405180910390a3610b8c848484610ced565b50505050565b600073ffffffffffffffffffffffffffffffffffffffff168273ffffffffffffffffffffffffffffffffffffffff1603610c01576040517f08c379a0000000000000000000000000000000000000000000000000000000008152600401610bf890611551565b60405180910390fd5b610c0d60008383610ce8565b8060026000828254610c1f919061108d565b92505081905550806000808473ffffffffffffffffffffffffffffffffffffffff1673ffffffffffffffffffffffffffffffffffffffff168152602001908152602001600020600082825401925050819055508173ffffffffffffffffffffffffffffffffffffffff16600073ffffffffffffffffffffffffffffffffffffffff167fddf252ad1be2c89b69c2b068fc378daa952ba7f163c4a11628f55a4df523b3ef83604051610cd09190610ec2565b60405180910390a3610ce460008383610ced565b5050565b505050565b505050565b600081519050919050565b600082825260208201905092915050565b60005b83811015610d2c578082015181840152602081019050610d11565b60008484015250505050565b6000601f19601f8301169050919050565b6000610d5482610cf2565b610d5e8185610cfd565b9350610d6e818560208601610d0e565b610d7781610d38565b840191505092915050565b60006020820190508181036000830152610d9c8184610d49565b905092915050565b600080fd5b600073ffffffffffffffffffffffffffffffffffffffff82169050919050565b6000610dd482610da9565b9050919050565b610de481610dc9565b8114610def57600080fd5b50565b600081359050610e0181610ddb565b92915050565b6000819050919050565b610e1a81610e07565b8114610e2557600080fd5b50565b600081359050610e3781610e11565b92915050565b60008060408385031215610e5457610e53610da4565b5b6000610e6285828601610df2565b9250506020610e7385828601610e28565b9150509250929050565b60008115159050919050565b610e9281610e7d565b82525050565b6000602082019050610ead6000830184610e89565b92915050565b610ebc81610e07565b82525050565b6000602082019050610ed76000830184610eb3565b92915050565b600080600060608486031215610ef657610ef5610da4565b5b6000610f0486828701610df2565b9350506020610f1586828701610df2565b9250506040610f2686828701610e28565b9150509250925092565b600060ff82169050919050565b610f4681610f30565b82525050565b6000602082019050610f616000830184610f3d565b92915050565b600060208284031215610f7d57610f7c610da4565b5b6000610f8b84828501610df2565b91505092915050565b610f9d81610dc9565b82525050565b6000602082019050610fb86000830184610f94565b92915050565b60008060408385031215610fd557610fd4610da4565b5b6000610fe385828601610df2565b9250506020610ff485828601610df2565b9150509250929050565b7f4e487b7100000000000000000000000000000000000000000000000000000000600052602260045260246000fd5b6000600282049050600182168061104557607f821691505b60208210810361105857611057610ffe565b5b50919050565b7f4e487b7100000000000000000000000000000000000000000000000000000000600052601160045260246000fd5b600061109882610e07565b91506110a383610e07565b92508282019050808211156110bb576110ba61105e565b5b92915050565b7f49424c3a2063616c6c6572206973206e6f742049424c20636f6e74726163742e600082015250565b60006110f7602083610cfd565b9150611102826110c1565b602082019050919050565b60006020820190508181036000830152611126816110ea565b9050919050565b7f45524332303a2064656372656173656420616c6c6f77616e63652062656c6f7760008201527f207a65726f000000000000000000000000000000000000000000000000000000602082015250565b6000611189602583610cfd565b91506111948261112d565b604082019050919050565b600060208201905081810360008301526111b88161117c565b9050919050565b7f45524332303a20617070726f76652066726f6d20746865207a65726f2061646460008201527f7265737300000000000000000000000000000000000000000000000000000000602082015250565b600061121b602483610cfd565b9150611226826111bf565b604082019050919050565b6000602082019050818103600083015261124a8161120e565b9050919050565b7f45524332303a20617070726f766520746f20746865207a65726f20616464726560008201527f7373000000000000000000000000000000000000000000000000000000000000602082015250565b60006112ad602283610cfd565b91506112b882611251565b604082019050919050565b600060208201905081810360008301526112dc816112a0565b9050919050565b7f45524332303a20696e73756666696369656e7420616c6c6f77616e6365000000600082015250565b6000611319601d83610cfd565b9150611324826112e3565b602082019050919050565b600060208201905081810360008301526113488161130c565b9050919050565b7f45524332303a207472616e736665722066726f6d20746865207a65726f20616460008201527f6472657373000000000000000000000000000000000000000000000000000000602082015250565b60006113ab602583610cfd565b91506113b68261134f565b604082019050919050565b600060208201905081810360008301526113da8161139e565b9050919050565b7f45524332303a207472616e7366657220746f20746865207a65726f206164647260008201527f6573730000000000000000000000000000000000000000000000000000000000602082015250565b600061143d602383610cfd565b9150611448826113e1565b604082019050919050565b6000602082019050818103600083015261146c81611430565b9050919050565b7f45524332303a207472616e7366657220616d6f756e742065786365656473206260008201527f616c616e63650000000000000000000000000000000000000000000000000000602082015250565b60006114cf602683610cfd565b91506114da82611473565b604082019050919050565b600060208201905081810360008301526114fe816114c2565b9050919050565b7f45524332303a206d696e7420746f20746865207a65726f206164647265737300600082015250565b600061153b601f83610cfd565b915061154682611505565b602082019050919050565b6000602082019050818103600083015261156a8161152e565b905091905056fea26469706673582212201e94c56cc2caba728fc301f445919d0ed98ab83315ad6c1b5fb96de7949eee1464736f6c63430008110033",
  "linkReferences": {},
  "deployedLinkReferences": {}
}