{
  "_format": "hh-sol-artifact-1",
  "contractName": "IBL",
  "sourceName": "contracts/IBL.sol",
  "abi": [
    {
      "inputs": [
        {
          "internalType": "address",
          "name": "_devAddress",
          "type": "address"
        }
      ],
      "stateMutability": "nonpayable",
      "type": "constructor"
    },
    {
      "anonymous": false,
      "inputs": [
        {
          "indexed": true,
          "internalType": "uint256",
          "name": "cycle",
          "type": "uint256"
        },
        {
          "indexed": true,
          "internalType": "address",
          "name": "account",
          "type": "address"
        },
        {
          "indexed": false,
          "internalType": "uint256",
          "name": "fees",
          "type": "uint256"
        }
      ],
      "name": "FeesClaimed",
      "type": "event"
    },
    {
      "anonymous": false,
      "inputs": [
        {
          "indexed": true,
          "internalType": "address",
          "name": "previousOwner",
          "type": "address"
        },
        {
          "indexed": true,
          "internalType": "address",
          "name": "newOwner",
          "type": "address"
        }
      ],
      "name": "OwnershipTransferred",
      "type": "event"
    },
    {
      "inputs": [],
      "name": "IBL_TEAM_FEE",
      "outputs": [
        {
          "internalType": "uint256",
          "name": "",
          "type": "uint256"
        }
      ],
      "stateMutability": "view",
      "type": "function"
    },
    {
      "inputs": [],
      "name": "POOL_FEE",
      "outputs": [
        {
          "internalType": "uint256",
          "name": "",
          "type": "uint256"
        }
      ],
      "stateMutability": "view",
      "type": "function"
    },
    {
      "inputs": [],
      "name": "SCALING_FACTOR",
      "outputs": [
        {
          "internalType": "uint256",
          "name": "",
          "type": "uint256"
        }
      ],
      "stateMutability": "view",
      "type": "function"
    },
    {
      "inputs": [
        {
          "internalType": "address",
          "name": "",
          "type": "address"
        }
      ],
      "name": "accAccruedFees",
      "outputs": [
        {
          "internalType": "uint256",
          "name": "",
          "type": "uint256"
        }
      ],
      "stateMutability": "view",
      "type": "function"
    },
    {
      "inputs": [
        {
          "internalType": "address",
          "name": "",
          "type": "address"
        }
      ],
      "name": "accCycleBatchesBurned",
      "outputs": [
        {
          "internalType": "uint256",
          "name": "",
          "type": "uint256"
        }
      ],
      "stateMutability": "view",
      "type": "function"
    },
    {
      "inputs": [
        {
          "internalType": "address",
          "name": "",
          "type": "address"
        }
      ],
      "name": "accFirstStake",
      "outputs": [
        {
          "internalType": "uint256",
          "name": "",
          "type": "uint256"
        }
      ],
      "stateMutability": "view",
      "type": "function"
    },
    {
      "inputs": [
        {
          "internalType": "address",
          "name": "",
          "type": "address"
        }
      ],
      "name": "accRewards",
      "outputs": [
        {
          "internalType": "uint256",
          "name": "",
          "type": "uint256"
        }
      ],
      "stateMutability": "view",
      "type": "function"
    },
    {
      "inputs": [
        {
          "internalType": "address",
          "name": "",
          "type": "address"
        }
      ],
      "name": "accSecondStake",
      "outputs": [
        {
          "internalType": "uint256",
          "name": "",
          "type": "uint256"
        }
      ],
      "stateMutability": "view",
      "type": "function"
    },
    {
      "inputs": [
        {
          "internalType": "address",
          "name": "",
          "type": "address"
        },
        {
          "internalType": "uint256",
          "name": "",
          "type": "uint256"
        }
      ],
      "name": "accStakeCycle",
      "outputs": [
        {
          "internalType": "uint256",
          "name": "",
          "type": "uint256"
        }
      ],
      "stateMutability": "view",
      "type": "function"
    },
    {
      "inputs": [
        {
          "internalType": "address",
          "name": "",
          "type": "address"
        }
      ],
      "name": "accWithdrawableStake",
      "outputs": [
        {
          "internalType": "uint256",
          "name": "",
          "type": "uint256"
        }
      ],
      "stateMutability": "view",
      "type": "function"
    },
    {
      "inputs": [],
      "name": "accruedFees",
      "outputs": [
        {
          "internalType": "uint256",
          "name": "",
          "type": "uint256"
        }
      ],
      "stateMutability": "view",
      "type": "function"
    },
    {
      "inputs": [
        {
          "components": [
            {
              "internalType": "string",
              "name": "id",
              "type": "string"
            },
            {
              "internalType": "uint256",
              "name": "runPrice",
              "type": "uint256"
            },
            {
              "internalType": "uint256",
              "name": "downloadPrice",
              "type": "uint256"
            },
            {
              "internalType": "address[]",
              "name": "owners",
              "type": "address[]"
            },
            {
              "internalType": "uint256[]",
              "name": "procentages",
              "type": "uint256[]"
            }
          ],
          "internalType": "struct IBL.Component",
          "name": "component",
          "type": "tuple"
        }
      ],
      "name": "addComponent",
      "outputs": [],
      "stateMutability": "payable",
      "type": "function"
    },
    {
      "inputs": [
        {
          "internalType": "uint256",
          "name": "",
          "type": "uint256"
        }
      ],
      "name": "alreadyUpdateCycleData",
      "outputs": [
        {
          "internalType": "bool",
          "name": "",
          "type": "bool"
        }
      ],
      "stateMutability": "view",
      "type": "function"
    },
    {
      "inputs": [
        {
          "internalType": "address",
          "name": "",
          "type": "address"
        }
      ],
      "name": "builderReward",
      "outputs": [
        {
          "internalType": "uint256",
          "name": "",
          "type": "uint256"
        }
      ],
      "stateMutability": "view",
      "type": "function"
    },
    {
      "inputs": [],
      "name": "claimFees",
      "outputs": [],
      "stateMutability": "nonpayable",
      "type": "function"
    },
    {
      "inputs": [],
      "name": "claimNativeFeeAcc",
      "outputs": [],
      "stateMutability": "nonpayable",
      "type": "function"
    },
    {
      "inputs": [
        {
          "internalType": "string",
          "name": "",
          "type": "string"
        }
      ],
      "name": "componentData",
      "outputs": [
        {
          "internalType": "string",
          "name": "id",
          "type": "string"
        },
        {
          "internalType": "uint256",
          "name": "runPrice",
          "type": "uint256"
        },
        {
          "internalType": "uint256",
          "name": "downloadPrice",
          "type": "uint256"
        }
      ],
      "stateMutability": "view",
      "type": "function"
    },
    {
      "inputs": [],
      "name": "currentCycle",
      "outputs": [
        {
          "internalType": "uint256",
          "name": "",
          "type": "uint256"
        }
      ],
      "stateMutability": "view",
      "type": "function"
    },
    {
      "inputs": [],
      "name": "currentStartedCycle",
      "outputs": [
        {
          "internalType": "uint256",
          "name": "",
          "type": "uint256"
        }
      ],
      "stateMutability": "view",
      "type": "function"
    },
    {
      "inputs": [
        {
          "internalType": "uint256",
          "name": "",
          "type": "uint256"
        }
      ],
      "name": "cycleAccruedFees",
      "outputs": [
        {
          "internalType": "uint256",
          "name": "",
          "type": "uint256"
        }
      ],
      "stateMutability": "view",
      "type": "function"
    },
    {
      "inputs": [
        {
          "internalType": "uint256",
          "name": "",
          "type": "uint256"
        }
      ],
      "name": "cycleFeesPerStakeSummed",
      "outputs": [
        {
          "internalType": "uint256",
          "name": "",
          "type": "uint256"
        }
      ],
      "stateMutability": "view",
      "type": "function"
    },
    {
      "inputs": [
        {
          "internalType": "uint256",
          "name": "",
          "type": "uint256"
        }
      ],
      "name": "cycleTotalBatchesBurned",
      "outputs": [
        {
          "internalType": "uint256",
          "name": "",
          "type": "uint256"
        }
      ],
      "stateMutability": "view",
      "type": "function"
    },
    {
      "inputs": [],
      "name": "devAddress",
      "outputs": [
        {
          "internalType": "address",
          "name": "",
          "type": "address"
        }
      ],
      "stateMutability": "view",
      "type": "function"
    },
    {
      "inputs": [
        {
          "internalType": "string[]",
          "name": "componentsIds",
          "type": "string[]"
        }
      ],
      "name": "downlodApplication",
      "outputs": [],
      "stateMutability": "payable",
      "type": "function"
    },
    {
      "inputs": [],
      "name": "getCurrentCycle",
      "outputs": [
        {
          "internalType": "uint256",
          "name": "",
          "type": "uint256"
        }
      ],
      "stateMutability": "view",
      "type": "function"
    },
    {
      "inputs": [
        {
          "internalType": "string",
          "name": "id",
          "type": "string"
        }
      ],
      "name": "getFees",
      "outputs": [
        {
          "internalType": "uint256",
          "name": "",
          "type": "uint256"
        },
        {
          "internalType": "uint256",
          "name": "",
          "type": "uint256"
        }
      ],
      "stateMutability": "view",
      "type": "function"
    },
    {
      "inputs": [
        {
          "internalType": "string",
          "name": "id",
          "type": "string"
        }
      ],
      "name": "getOwnersForComponent",
      "outputs": [
        {
          "internalType": "address[]",
          "name": "",
          "type": "address[]"
        }
      ],
      "stateMutability": "view",
      "type": "function"
    },
    {
      "inputs": [
        {
          "internalType": "string",
          "name": "id",
          "type": "string"
        }
      ],
      "name": "getProcentagesForComponent",
      "outputs": [
        {
          "internalType": "uint256[]",
          "name": "",
          "type": "uint256[]"
        }
      ],
      "stateMutability": "view",
      "type": "function"
    },
    {
      "inputs": [],
      "name": "i_initialTimestamp",
      "outputs": [
        {
          "internalType": "uint256",
          "name": "",
          "type": "uint256"
        }
      ],
      "stateMutability": "view",
      "type": "function"
    },
    {
      "inputs": [],
      "name": "i_periodDuration",
      "outputs": [
        {
          "internalType": "uint256",
          "name": "",
          "type": "uint256"
        }
      ],
      "stateMutability": "view",
      "type": "function"
    },
    {
      "inputs": [],
      "name": "ibl",
      "outputs": [
        {
          "internalType": "contract IBLERC20",
          "name": "",
          "type": "address"
        }
      ],
      "stateMutability": "view",
      "type": "function"
    },
    {
      "inputs": [
        {
          "internalType": "address",
          "name": "",
          "type": "address"
        }
      ],
      "name": "lastActiveCycle",
      "outputs": [
        {
          "internalType": "uint256",
          "name": "",
          "type": "uint256"
        }
      ],
      "stateMutability": "view",
      "type": "function"
    },
    {
      "inputs": [],
      "name": "lastCycleReward",
      "outputs": [
        {
          "internalType": "uint256",
          "name": "",
          "type": "uint256"
        }
      ],
      "stateMutability": "view",
      "type": "function"
    },
    {
      "inputs": [
        {
          "internalType": "address",
          "name": "",
          "type": "address"
        }
      ],
      "name": "lastFeeUpdateCycle",
      "outputs": [
        {
          "internalType": "uint256",
          "name": "",
          "type": "uint256"
        }
      ],
      "stateMutability": "view",
      "type": "function"
    },
    {
      "inputs": [
        {
          "internalType": "string",
          "name": "",
          "type": "string"
        }
      ],
      "name": "lastHighestDownloadPrice",
      "outputs": [
        {
          "internalType": "uint256",
          "name": "",
          "type": "uint256"
        }
      ],
      "stateMutability": "view",
      "type": "function"
    },
    {
      "inputs": [
        {
          "internalType": "string",
          "name": "",
          "type": "string"
        }
      ],
      "name": "lastHighestRunPrice",
      "outputs": [
        {
          "internalType": "uint256",
          "name": "",
          "type": "uint256"
        }
      ],
      "stateMutability": "view",
      "type": "function"
    },
    {
      "inputs": [],
      "name": "lastStartedCycle",
      "outputs": [
        {
          "internalType": "uint256",
          "name": "",
          "type": "uint256"
        }
      ],
      "stateMutability": "view",
      "type": "function"
    },
    {
      "inputs": [],
      "name": "owner",
      "outputs": [
        {
          "internalType": "address",
          "name": "",
          "type": "address"
        }
      ],
      "stateMutability": "view",
      "type": "function"
    },
    {
      "inputs": [
        {
          "internalType": "address",
          "name": "",
          "type": "address"
        }
      ],
      "name": "ownerNativeFeeAcc",
      "outputs": [
        {
          "internalType": "uint256",
          "name": "",
          "type": "uint256"
        }
      ],
      "stateMutability": "view",
      "type": "function"
    },
    {
      "inputs": [],
      "name": "pendingFees",
      "outputs": [
        {
          "internalType": "uint256",
          "name": "",
          "type": "uint256"
        }
      ],
      "stateMutability": "view",
      "type": "function"
    },
    {
      "inputs": [],
      "name": "pendingStake",
      "outputs": [
        {
          "internalType": "uint256",
          "name": "",
          "type": "uint256"
        }
      ],
      "stateMutability": "view",
      "type": "function"
    },
    {
      "inputs": [],
      "name": "pendingStakeWithdrawal",
      "outputs": [
        {
          "internalType": "uint256",
          "name": "",
          "type": "uint256"
        }
      ],
      "stateMutability": "view",
      "type": "function"
    },
    {
      "inputs": [],
      "name": "previousStartedCycle",
      "outputs": [
        {
          "internalType": "uint256",
          "name": "",
          "type": "uint256"
        }
      ],
      "stateMutability": "view",
      "type": "function"
    },
    {
      "inputs": [],
      "name": "renounceOwnership",
      "outputs": [],
      "stateMutability": "nonpayable",
      "type": "function"
    },
    {
      "inputs": [
        {
          "internalType": "uint256",
          "name": "",
          "type": "uint256"
        }
      ],
      "name": "rewardPerCycle",
      "outputs": [
        {
          "internalType": "uint256",
          "name": "",
          "type": "uint256"
        }
      ],
      "stateMutability": "view",
      "type": "function"
    },
    {
      "inputs": [
        {
          "internalType": "string[]",
          "name": "componentsIds",
          "type": "string[]"
        }
      ],
      "name": "runApplication",
      "outputs": [],
      "stateMutability": "payable",
      "type": "function"
    },
    {
      "inputs": [
        {
          "internalType": "address",
          "name": "_devAddress",
          "type": "address"
        }
      ],
      "name": "setDevAddress",
      "outputs": [],
      "stateMutability": "nonpayable",
      "type": "function"
    },
    {
      "inputs": [
        {
          "internalType": "string",
          "name": "id",
          "type": "string"
        },
        {
          "internalType": "uint256",
          "name": "newRunPrice",
          "type": "uint256"
        },
        {
          "internalType": "uint256",
          "name": "newDownloadPrice",
          "type": "uint256"
        }
      ],
      "name": "setNewPrice",
      "outputs": [],
      "stateMutability": "payable",
      "type": "function"
    },
    {
      "inputs": [
        {
          "internalType": "uint256",
          "name": "",
          "type": "uint256"
        }
      ],
      "name": "summedCycleStakes",
      "outputs": [
        {
          "internalType": "uint256",
          "name": "",
          "type": "uint256"
        }
      ],
      "stateMutability": "view",
      "type": "function"
    },
    {
      "inputs": [],
      "name": "totalNumberOfBatchesBurned",
      "outputs": [
        {
          "internalType": "uint256",
          "name": "",
          "type": "uint256"
        }
      ],
      "stateMutability": "view",
      "type": "function"
    },
    {
      "inputs": [
        {
          "internalType": "address",
          "name": "newOwner",
          "type": "address"
        }
      ],
      "name": "transferOwnership",
      "outputs": [],
      "stateMutability": "nonpayable",
      "type": "function"
    }
  ],
  "bytecode": "0x60c06040526101f4600c5561251c600d553480156200001d57600080fd5b5060405162005c6638038062005c66833981810160405281019062000043919062000275565b62000063620000576200013160201b60201c565b6200013960201b60201c565b600180819055506040516200007890620001fd565b604051809103906000f08015801562000095573d6000803e3d6000fd5b50600260006101000a81548173ffffffffffffffffffffffffffffffffffffffff021916908373ffffffffffffffffffffffffffffffffffffffff16021790555080600e60006101000a81548173ffffffffffffffffffffffffffffffffffffffff021916908373ffffffffffffffffffffffffffffffffffffffff16021790555042608081815250506201518060a0818152505050620002a7565b600033905090565b60008060009054906101000a900473ffffffffffffffffffffffffffffffffffffffff169050816000806101000a81548173ffffffffffffffffffffffffffffffffffffffff021916908373ffffffffffffffffffffffffffffffffffffffff1602179055508173ffffffffffffffffffffffffffffffffffffffff168173ffffffffffffffffffffffffffffffffffffffff167f8be0079c531659141344cd1fd0a4f28419497f9722a3daafe3b4186f6b6457e060405160405180910390a35050565b611a09806200425d83390190565b600080fd5b600073ffffffffffffffffffffffffffffffffffffffff82169050919050565b60006200023d8262000210565b9050919050565b6200024f8162000230565b81146200025b57600080fd5b50565b6000815190506200026f8162000244565b92915050565b6000602082840312156200028e576200028d6200020b565b5b60006200029e848285016200025e565b91505092915050565b60805160a051613f82620002db60003960008181610d33015261160001526000818161148801526116210152613f826000f3fe6080604052600436106102e45760003560e01c8063adc0f68611610190578063d4432e4e116100dc578063eb90b2bc11610095578063f1b371e21161006f578063f1b371e214610bcf578063f2fde38b14610bfa578063fa845ca914610c23578063fded701214610c60576102e4565b8063eb90b2bc14610b29578063ed725e8314610b67578063ef4cadc514610ba4576102e4565b8063d4432e4e14610a21578063d8043d8f14610a4c578063db80a28c14610a68578063dd1b9c4a14610aa5578063e60c90c414610ad0578063e858e05c14610b0d576102e4565b8063bebc9dfc11610149578063c4235ae911610123578063c4235ae91461098d578063c499d829146109ca578063d0d41fe1146109e1578063d294f09314610a0a576102e4565b8063bebc9dfc146108e8578063bee7708e14610925578063c40af1ee14610962576102e4565b8063adc0f6861461079e578063af2f850e146107db578063b6f2a9ce14610818578063bab2f55214610855578063bc71329014610880578063be26ed7f146108bd576102e4565b8063541c78861161024f57806374ef836711610208578063a2727db3116101e2578063a2727db3146106bc578063a707140b146106f9578063a95f1dac14610736578063aabbb1bd14610761576102e4565b806374ef83671461064a5780638bd95563146106665780638da5cb5b14610691576102e4565b8063541c7886146105595780635f5080b414610596578063682c2058146105c157806368f05769146105ec5780636adb0eb614610617578063715018a614610633576102e4565b8063224438d1116102a1578063224438d1146104335780632f7cdab01461045e5780633ad10ef614610489578063436091c1146104b45780635257d894146104df5780635347a47d1461051c576102e4565b80630ece2154146102e957806312cb22ac1461032657806312d4743914610363578063168b0a5c1461038e57806317d9c47a146103b95780631ed6380f146103f6575b600080fd5b3480156102f557600080fd5b50610310600480360381019061030b9190612ad7565b610c9f565b60405161031d9190612b13565b60405180910390f35b34801561033257600080fd5b5061034d60048036038101906103489190612b8c565b610cb7565b60405161035a9190612b13565b60405180910390f35b34801561036f57600080fd5b50610378610ccf565b6040516103859190612b13565b60405180910390f35b34801561039a57600080fd5b506103a3610cd5565b6040516103b09190612c18565b60405180910390f35b3480156103c557600080fd5b506103e060048036038101906103db9190612ad7565b610cfb565b6040516103ed9190612b13565b60405180910390f35b34801561040257600080fd5b5061041d60048036038101906104189190612b8c565b610d13565b60405161042a9190612b13565b60405180910390f35b34801561043f57600080fd5b50610448610d2b565b6040516104559190612b13565b60405180910390f35b34801561046a57600080fd5b50610473610d31565b6040516104809190612b13565b60405180910390f35b34801561049557600080fd5b5061049e610d55565b6040516104ab9190612c42565b60405180910390f35b3480156104c057600080fd5b506104c9610d7b565b6040516104d69190612b13565b60405180910390f35b3480156104eb57600080fd5b5061050660048036038101906105019190612da3565b610d81565b6040516105139190612b13565b60405180910390f35b34801561052857600080fd5b50610543600480360381019061053e9190612da3565b610daf565b6040516105509190612b13565b60405180910390f35b34801561056557600080fd5b50610580600480360381019061057b9190612da3565b610ddd565b60405161058d9190612eaa565b60405180910390f35b3480156105a257600080fd5b506105ab610e8c565b6040516105b89190612b13565b60405180910390f35b3480156105cd57600080fd5b506105d6610e92565b6040516105e39190612b13565b60405180910390f35b3480156105f857600080fd5b50610601610e98565b60405161060e9190612b13565b60405180910390f35b610631600480360381019061062c9190612fb2565b610e9e565b005b34801561063f57600080fd5b506106486112ff565b005b610664600480360381019061065f919061326b565b611313565b005b34801561067257600080fd5b5061067b611486565b6040516106889190612b13565b60405180910390f35b34801561069d57600080fd5b506106a66114aa565b6040516106b39190612c42565b60405180910390f35b3480156106c857600080fd5b506106e360048036038101906106de9190612b8c565b6114d3565b6040516106f09190612b13565b60405180910390f35b34801561070557600080fd5b50610720600480360381019061071b9190612b8c565b6114eb565b60405161072d9190612b13565b60405180910390f35b34801561074257600080fd5b5061074b611503565b6040516107589190612b13565b60405180910390f35b34801561076d57600080fd5b50610788600480360381019061078391906132b4565b611509565b6040516107959190612b13565b60405180910390f35b3480156107aa57600080fd5b506107c560048036038101906107c09190612ad7565b61152d565b6040516107d29190612b13565b60405180910390f35b3480156107e757600080fd5b5061080260048036038101906107fd9190612ad7565b611545565b60405161080f919061330f565b60405180910390f35b34801561082457600080fd5b5061083f600480360381019061083a9190612da3565b611565565b60405161084c91906133e8565b60405180910390f35b34801561086157600080fd5b5061086a6115de565b6040516108779190612b13565b60405180910390f35b34801561088c57600080fd5b506108a760048036038101906108a29190612b8c565b6115e4565b6040516108b49190612b13565b60405180910390f35b3480156108c957600080fd5b506108d26115fc565b6040516108df9190612b13565b60405180910390f35b3480156108f457600080fd5b5061090f600480360381019061090a9190612ad7565b61165a565b60405161091c9190612b13565b60405180910390f35b34801561093157600080fd5b5061094c60048036038101906109479190612b8c565b611672565b6040516109599190612b13565b60405180910390f35b34801561096e57600080fd5b5061097761168a565b6040516109849190612b13565b60405180910390f35b34801561099957600080fd5b506109b460048036038101906109af9190612ad7565b611690565b6040516109c19190612b13565b60405180910390f35b3480156109d657600080fd5b506109df6116a8565b005b3480156109ed57600080fd5b50610a086004803603810190610a039190612b8c565b611791565b005b348015610a1657600080fd5b50610a1f6117ed565b005b348015610a2d57600080fd5b50610a36611934565b604051610a439190612b13565b60405180910390f35b610a666004803603810190610a619190612fb2565b61193a565b005b348015610a7457600080fd5b50610a8f6004803603810190610a8a9190612b8c565b611dad565b604051610a9c9190612b13565b60405180910390f35b348015610ab157600080fd5b50610aba611dc5565b604051610ac79190612b13565b60405180910390f35b348015610adc57600080fd5b50610af76004803603810190610af29190612b8c565b611dcb565b604051610b049190612b13565b60405180910390f35b610b276004803603810190610b22919061340a565b611de3565b005b348015610b3557600080fd5b50610b506004803603810190610b4b9190612da3565b612510565b604051610b5e929190613479565b60405180910390f35b348015610b7357600080fd5b50610b8e6004803603810190610b899190612b8c565b612560565b604051610b9b9190612b13565b60405180910390f35b348015610bb057600080fd5b50610bb9612578565b604051610bc69190612b13565b60405180910390f35b348015610bdb57600080fd5b50610be461258d565b604051610bf19190612b13565b60405180910390f35b348015610c0657600080fd5b50610c216004803603810190610c1c9190612b8c565b612593565b005b348015610c2f57600080fd5b50610c4a6004803603810190610c459190612b8c565b612616565b604051610c579190612b13565b60405180910390f35b348015610c6c57600080fd5b50610c876004803603810190610c829190612da3565b61262e565b604051610c9693929190613521565b60405180910390f35b601f6020528060005260406000206000915090505481565b60186020528060005260406000206000915090505481565b600c5481565b600260009054906101000a900473ffffffffffffffffffffffffffffffffffffffff1681565b60196020528060005260406000206000915090505481565b60216020528060005260406000206000915090505481565b60165481565b7f000000000000000000000000000000000000000000000000000000000000000081565b600e60009054906101000a900473ffffffffffffffffffffffffffffffffffffffff1681565b60125481565b6007818051602081018201805184825260208301602085012081835280955050505050506000915090505481565b6008818051602081018201805184825260208301602085012081835280955050505050506000915090505481565b6060600382604051610def919061359b565b9081526020016040518091039020600301805480602002602001604051908101604052809291908181526020018280548015610e8057602002820191906000526020600020905b8160009054906101000a900473ffffffffffffffffffffffffffffffffffffffff1673ffffffffffffffffffffffffffffffffffffffff1681526020019060010190808311610e36575b50505050509050919050565b60135481565b600b5481565b60155481565b610ea66126f6565b610eae612745565b60008082519050610ebd61296a565b606080600080600090505b85811015611190576003888281518110610ee557610ee46135b2565b5b6020026020010151604051610efa919061359b565b90815260200160405180910390206040518060a0016040529081600082018054610f2390613610565b80601f0160208091040260200160405190810160405280929190818152602001828054610f4f90613610565b8015610f9c5780601f10610f7157610100808354040283529160200191610f9c565b820191906000526020600020905b815481529060010190602001808311610f7f57829003601f168201915b5050505050815260200160018201548152602001600282015481526020016003820180548060200260200160405190810160405280929190818152602001828054801561103e57602002820191906000526020600020905b8160009054906101000a900473ffffffffffffffffffffffffffffffffffffffff1673ffffffffffffffffffffffffffffffffffffffff1681526020019060010190808311610ff4575b505050505081526020016004820180548060200260200160405190810160405280929190818152602001828054801561109657602002820191906000526020600020905b815481526020019060010190808311611082575b505050505081525050945084606001519350846080015192508351915060005b8281101561116a578381815181106110d1576110d06135b2565b5b602002602001015186604001516110e89190613670565b600560008784815181106110ff576110fe6135b2565b5b602002602001015173ffffffffffffffffffffffffffffffffffffffff1673ffffffffffffffffffffffffffffffffffffffff168152602001908152602001600020600082825461115091906136b2565b925050819055508080611162906136e6565b9150506110b6565b5084604001518761117b91906136b2565b96508080611188906136e6565b915050610ec8565b5060028661119e9190613670565b34146111df576040517f08c379a00000000000000000000000000000000000000000000000000000000081526004016111d69061377a565b60405180910390fd5b611225600e60009054906101000a900473ffffffffffffffffffffffffffffffffffffffff16612710600c54896112169190613670565b61122091906137c9565b612766565b612710600d54876112369190613670565b61124091906137c9565b601f60006010548152602001908152602001600020600082825461126491906136b2565b9250508190555069021e19e0c9bab2400000601c60006010548152602001908152602001600020600082825461129a91906136b2565b92505081905550683635c9adc5dea00000601b60003373ffffffffffffffffffffffffffffffffffffffff1673ffffffffffffffffffffffffffffffffffffffff168152602001908152602001600020819055505050505050506112fc612817565b50565b611307612820565b611311600061289e565b565b61131b6126f6565b80604001513414611361576040517f08c379a00000000000000000000000000000000000000000000000000000000081526004016113589061386c565b60405180910390fd5b6040518060a00160405280826000015181526020018260200151815260200182604001518152602001826060015181526020018260800151815250600382600001516040516113b0919061359b565b908152602001604051809103902060008201518160000190816113d39190613a2e565b5060208201518160010155604082015181600201556060820151816003019080519060200190611404929190612999565b506080820151816004019080519060200190611421929190612a23565b5090505080602001516007826000015160405161143e919061359b565b908152602001604051809103902081905550806040015160088260000151604051611469919061359b565b908152602001604051809103902081905550611483612817565b50565b7f000000000000000000000000000000000000000000000000000000000000000081565b60008060009054906101000a900473ffffffffffffffffffffffffffffffffffffffff16905090565b60046020528060005260406000206000915090505481565b601e6020528060005260406000206000915090505481565b60115481565b60208052816000526040600020602052806000526040600020600091509150505481565b601c6020528060005260406000206000915090505481565b60066020528060005260406000206000915054906101000a900460ff1681565b6060600382604051611577919061359b565b90815260200160405180910390206004018054806020026020016040519081016040528092919081815260200182805480156115d257602002820191906000526020600020905b8154815260200190600101908083116115be575b50505050509050919050565b60105481565b600a6020528060005260406000206000915090505481565b60007f00000000000000000000000000000000000000000000000000000000000000007f00000000000000000000000000000000000000000000000000000000000000004261164b9190613b00565b61165591906137c9565b905090565b60096020528060005260406000206000915090505481565b60056020528060005260406000206000915090505481565b60175481565b601d6020528060005260406000206000915090505481565b6116b06126f6565b6000600560003373ffffffffffffffffffffffffffffffffffffffff1673ffffffffffffffffffffffffffffffffffffffff16815260200190815260200160002054905060008111611737576040517f08c379a000000000000000000000000000000000000000000000000000000000815260040161172e90613b80565b60405180910390fd5b6000600560003373ffffffffffffffffffffffffffffffffffffffff1673ffffffffffffffffffffffffffffffffffffffff168152602001908152602001600020819055506117863382612766565b5061178f612817565b565b611799612820565b6117a16126f6565b80600e60006101000a81548173ffffffffffffffffffffffffffffffffffffffff021916908373ffffffffffffffffffffffffffffffffffffffff1602179055506117ea612817565b50565b6117f56126f6565b6117fd612745565b6000600a60003373ffffffffffffffffffffffffffffffffffffffff1673ffffffffffffffffffffffffffffffffffffffff16815260200190815260200160002054905060008111611884576040517f08c379a000000000000000000000000000000000000000000000000000000000815260040161187b90613bec565b60405180910390fd5b6000600a60003373ffffffffffffffffffffffffffffffffffffffff1673ffffffffffffffffffffffffffffffffffffffff168152602001908152602001600020819055506118d33382612766565b3373ffffffffffffffffffffffffffffffffffffffff166118f26115fc565b7f2227733fc4c8a9034cb58087dcf6995128b9c0233b038b03366aaf30c92b92d6836040516119219190612b13565b60405180910390a350611932612817565b565b600f5481565b6119426126f6565b61194a612745565b6000808251905061195961296a565b606080600080600090505b85811015611c3f576003888281518110611981576119806135b2565b5b6020026020010151604051611996919061359b565b90815260200160405180910390206040518060a00160405290816000820180546119bf90613610565b80601f01602080910402602001604051908101604052809291908181526020018280546119eb90613610565b8015611a385780601f10611a0d57610100808354040283529160200191611a38565b820191906000526020600020905b815481529060010190602001808311611a1b57829003601f168201915b50505050508152602001600182015481526020016002820154815260200160038201805480602002602001604051908101604052809291908181526020018280548015611ada57602002820191906000526020600020905b8160009054906101000a900473ffffffffffffffffffffffffffffffffffffffff1673ffffffffffffffffffffffffffffffffffffffff1681526020019060010190808311611a90575b5050505050815260200160048201805480602002602001604051908101604052809291908181526020018280548015611b3257602002820191906000526020600020905b815481526020019060010190808311611b1e575b505050505081525050945084606001519350846080015192508351915060005b82811015611c1957670de0b6b3a7640000848281518110611b7657611b756135b2565b5b60200260200101518760400151611b8d9190613670565b611b9791906137c9565b60056000878481518110611bae57611bad6135b2565b5b602002602001015173ffffffffffffffffffffffffffffffffffffffff1673ffffffffffffffffffffffffffffffffffffffff1681526020019081526020016000206000828254611bff91906136b2565b925050819055508080611c11906136e6565b915050611b52565b50846040015187611c2a91906136b2565b96508080611c37906136e6565b915050611964565b50600286611c4d9190613670565b3414611c8e576040517f08c379a0000000000000000000000000000000000000000000000000000000008152600401611c859061377a565b60405180910390fd5b611cd4600e60009054906101000a900473ffffffffffffffffffffffffffffffffffffffff16612710600c5489611cc59190613670565b611ccf91906137c9565b612766565b612710600d5487611ce59190613670565b611cef91906137c9565b601f600060105481526020019081526020016000206000828254611d1391906136b2565b92505081905550683635c9adc5dea00000601c600060105481526020019081526020016000206000828254611d4891906136b2565b92505081905550683635c9adc5dea00000601b60003373ffffffffffffffffffffffffffffffffffffffff1673ffffffffffffffffffffffffffffffffffffffff16815260200190815260200160002081905550505050505050611daa612817565b50565b60236020528060005260406000206000915090505481565b600d5481565b60226020528060005260406000206000915090505481565b611deb6126f6565b6000600384604051611dfd919061359b565b90815260200160405180910390206040518060a0016040529081600082018054611e2690613610565b80601f0160208091040260200160405190810160405280929190818152602001828054611e5290613610565b8015611e9f5780601f10611e7457610100808354040283529160200191611e9f565b820191906000526020600020905b815481529060010190602001808311611e8257829003601f168201915b50505050508152602001600182015481526020016002820154815260200160038201805480602002602001604051908101604052809291908181526020018280548015611f4157602002820191906000526020600020905b8160009054906101000a900473ffffffffffffffffffffffffffffffffffffffff1673ffffffffffffffffffffffffffffffffffffffff1681526020019060010190808311611ef7575b5050505050815260200160048201805480602002602001604051908101604052809291908181526020018280548015611f9957602002820191906000526020600020905b815481526020019060010190808311611f85575b5050505050815250509050600081606001519050600081519050600080600090505b8281101561202c573373ffffffffffffffffffffffffffffffffffffffff16848281518110611fed57611fec6135b2565b5b602002602001015173ffffffffffffffffffffffffffffffffffffffff1603612019576001915061202c565b8080612024906136e6565b915050611fbb565b508061206d576040517f08c379a000000000000000000000000000000000000000000000000000000000815260040161206490613c7e565b60405180910390fd5b8560078860405161207e919061359b565b908152602001604051809103902054146122b657856007886040516120a3919061359b565b9081526020016040518091039020541015612200576007876040516120c8919061359b565b908152602001604051809103902054866120e29190613b00565b341015612124576040517f08c379a000000000000000000000000000000000000000000000000000000000815260040161211b90613d10565b60405180910390fd5b6040518060a00160405280888152602001878152602001868152602001856060015181526020018560800151815250600388604051612163919061359b565b908152602001604051809103902060008201518160000190816121869190613a2e565b50602082015181600101556040820151816002015560608201518160030190805190602001906121b7929190612999565b5060808201518160040190805190602001906121d4929190612a23565b50905050856007886040516121e9919061359b565b9081526020016040518091039020819055506122b5565b6040518060a0016040528088815260200187815260200186815260200185606001518152602001856080015181525060038860405161223f919061359b565b908152602001604051809103902060008201518160000190816122629190613a2e565b5060208201518160010155604082015181600201556060820151816003019080519060200190612293929190612999565b5060808201518160040190805190602001906122b0929190612a23565b509050505b5b846008886040516122c7919061359b565b908152602001604051809103902054146124ff57846008886040516122ec919061359b565b908152602001604051809103902054101561244957600887604051612311919061359b565b9081526020016040518091039020548561232b9190613b00565b34101561236d576040517f08c379a000000000000000000000000000000000000000000000000000000000815260040161236490613d10565b60405180910390fd5b6040518060a001604052808881526020018781526020018681526020018560600151815260200185608001518152506003886040516123ac919061359b565b908152602001604051809103902060008201518160000190816123cf9190613a2e565b5060208201518160010155604082015181600201556060820151816003019080519060200190612400929190612999565b50608082015181600401908051906020019061241d929190612a23565b5090505084600888604051612432919061359b565b9081526020016040518091039020819055506124fe565b6040518060a00160405280888152602001878152602001868152602001856060015181526020018560800151815250600388604051612488919061359b565b908152602001604051809103902060008201518160000190816124ab9190613a2e565b50602082015181600101556040820151816002015560608201518160030190805190602001906124dc929190612999565b5060808201518160040190805190602001906124f9929190612a23565b509050505b5b5050505061250b612817565b505050565b600080600383604051612523919061359b565b908152602001604051809103902060010154600384604051612545919061359b565b90815260200160405180910390206002015491509150915091565b601b6020528060005260406000206000915090505481565b701d6329f1c35ca4bfabb9f561000000000081565b60145481565b61259b612820565b600073ffffffffffffffffffffffffffffffffffffffff168173ffffffffffffffffffffffffffffffffffffffff160361260a576040517f08c379a000000000000000000000000000000000000000000000000000000000815260040161260190613da2565b60405180910390fd5b6126138161289e565b50565b601a6020528060005260406000206000915090505481565b60038180516020810182018051848252602083016020850120818352809550505050505060009150905080600001805461266790613610565b80601f016020809104026020016040519081016040528092919081815260200182805461269390613610565b80156126e05780601f106126b5576101008083540402835291602001916126e0565b820191906000526020600020905b8154815290600101906020018083116126c357829003601f168201915b5050505050908060010154908060020154905083565b60026001540361273b576040517f08c379a000000000000000000000000000000000000000000000000000000000815260040161273290613e0e565b60405180910390fd5b6002600181905550565b600061274f6115fc565b905060105481111561276357806010819055505b50565b60008273ffffffffffffffffffffffffffffffffffffffff168260405161278c90613e5f565b60006040518083038185875af1925050503d80600081146127c9576040519150601f19603f3d011682016040523d82523d6000602084013e6127ce565b606091505b5050905080612812576040517f08c379a000000000000000000000000000000000000000000000000000000000815260040161280990613ec0565b60405180910390fd5b505050565b60018081905550565b612828612962565b73ffffffffffffffffffffffffffffffffffffffff166128466114aa565b73ffffffffffffffffffffffffffffffffffffffff161461289c576040517f08c379a000000000000000000000000000000000000000000000000000000000815260040161289390613f2c565b60405180910390fd5b565b60008060009054906101000a900473ffffffffffffffffffffffffffffffffffffffff169050816000806101000a81548173ffffffffffffffffffffffffffffffffffffffff021916908373ffffffffffffffffffffffffffffffffffffffff1602179055508173ffffffffffffffffffffffffffffffffffffffff168173ffffffffffffffffffffffffffffffffffffffff167f8be0079c531659141344cd1fd0a4f28419497f9722a3daafe3b4186f6b6457e060405160405180910390a35050565b600033905090565b6040518060a0016040528060608152602001600081526020016000815260200160608152602001606081525090565b828054828255906000526020600020908101928215612a12579160200282015b82811115612a115782518260006101000a81548173ffffffffffffffffffffffffffffffffffffffff021916908373ffffffffffffffffffffffffffffffffffffffff160217905550916020019190600101906129b9565b5b509050612a1f9190612a70565b5090565b828054828255906000526020600020908101928215612a5f579160200282015b82811115612a5e578251825591602001919060010190612a43565b5b509050612a6c9190612a70565b5090565b5b80821115612a89576000816000905550600101612a71565b5090565b6000604051905090565b600080fd5b600080fd5b6000819050919050565b612ab481612aa1565b8114612abf57600080fd5b50565b600081359050612ad181612aab565b92915050565b600060208284031215612aed57612aec612a97565b5b6000612afb84828501612ac2565b91505092915050565b612b0d81612aa1565b82525050565b6000602082019050612b286000830184612b04565b92915050565b600073ffffffffffffffffffffffffffffffffffffffff82169050919050565b6000612b5982612b2e565b9050919050565b612b6981612b4e565b8114612b7457600080fd5b50565b600081359050612b8681612b60565b92915050565b600060208284031215612ba257612ba1612a97565b5b6000612bb084828501612b77565b91505092915050565b6000819050919050565b6000612bde612bd9612bd484612b2e565b612bb9565b612b2e565b9050919050565b6000612bf082612bc3565b9050919050565b6000612c0282612be5565b9050919050565b612c1281612bf7565b82525050565b6000602082019050612c2d6000830184612c09565b92915050565b612c3c81612b4e565b82525050565b6000602082019050612c576000830184612c33565b92915050565b600080fd5b600080fd5b6000601f19601f8301169050919050565b7f4e487b7100000000000000000000000000000000000000000000000000000000600052604160045260246000fd5b612cb082612c67565b810181811067ffffffffffffffff82111715612ccf57612cce612c78565b5b80604052505050565b6000612ce2612a8d565b9050612cee8282612ca7565b919050565b600067ffffffffffffffff821115612d0e57612d0d612c78565b5b612d1782612c67565b9050602081019050919050565b82818337600083830152505050565b6000612d46612d4184612cf3565b612cd8565b905082815260208101848484011115612d6257612d61612c62565b5b612d6d848285612d24565b509392505050565b600082601f830112612d8a57612d89612c5d565b5b8135612d9a848260208601612d33565b91505092915050565b600060208284031215612db957612db8612a97565b5b600082013567ffffffffffffffff811115612dd757612dd6612a9c565b5b612de384828501612d75565b91505092915050565b600081519050919050565b600082825260208201905092915050565b6000819050602082019050919050565b612e2181612b4e565b82525050565b6000612e338383612e18565b60208301905092915050565b6000602082019050919050565b6000612e5782612dec565b612e618185612df7565b9350612e6c83612e08565b8060005b83811015612e9d578151612e848882612e27565b9750612e8f83612e3f565b925050600181019050612e70565b5085935050505092915050565b60006020820190508181036000830152612ec48184612e4c565b905092915050565b600067ffffffffffffffff821115612ee757612ee6612c78565b5b602082029050602081019050919050565b600080fd5b6000612f10612f0b84612ecc565b612cd8565b90508083825260208201905060208402830185811115612f3357612f32612ef8565b5b835b81811015612f7a57803567ffffffffffffffff811115612f5857612f57612c5d565b5b808601612f658982612d75565b85526020850194505050602081019050612f35565b5050509392505050565b600082601f830112612f9957612f98612c5d565b5b8135612fa9848260208601612efd565b91505092915050565b600060208284031215612fc857612fc7612a97565b5b600082013567ffffffffffffffff811115612fe657612fe5612a9c565b5b612ff284828501612f84565b91505092915050565b600080fd5b600080fd5b600067ffffffffffffffff8211156130205761301f612c78565b5b602082029050602081019050919050565b600061304461303f84613005565b612cd8565b9050808382526020820190506020840283018581111561306757613066612ef8565b5b835b81811015613090578061307c8882612b77565b845260208401935050602081019050613069565b5050509392505050565b600082601f8301126130af576130ae612c5d565b5b81356130bf848260208601613031565b91505092915050565b600067ffffffffffffffff8211156130e3576130e2612c78565b5b602082029050602081019050919050565b6000613107613102846130c8565b612cd8565b9050808382526020820190506020840283018581111561312a57613129612ef8565b5b835b81811015613153578061313f8882612ac2565b84526020840193505060208101905061312c565b5050509392505050565b600082601f83011261317257613171612c5d565b5b81356131828482602086016130f4565b91505092915050565b600060a082840312156131a1576131a0612ffb565b5b6131ab60a0612cd8565b9050600082013567ffffffffffffffff8111156131cb576131ca613000565b5b6131d784828501612d75565b60008301525060206131eb84828501612ac2565b60208301525060406131ff84828501612ac2565b604083015250606082013567ffffffffffffffff81111561322357613222613000565b5b61322f8482850161309a565b606083015250608082013567ffffffffffffffff81111561325357613252613000565b5b61325f8482850161315d565b60808301525092915050565b60006020828403121561328157613280612a97565b5b600082013567ffffffffffffffff81111561329f5761329e612a9c565b5b6132ab8482850161318b565b91505092915050565b600080604083850312156132cb576132ca612a97565b5b60006132d985828601612b77565b92505060206132ea85828601612ac2565b9150509250929050565b60008115159050919050565b613309816132f4565b82525050565b60006020820190506133246000830184613300565b92915050565b600081519050919050565b600082825260208201905092915050565b6000819050602082019050919050565b61335f81612aa1565b82525050565b60006133718383613356565b60208301905092915050565b6000602082019050919050565b60006133958261332a565b61339f8185613335565b93506133aa83613346565b8060005b838110156133db5781516133c28882613365565b97506133cd8361337d565b9250506001810190506133ae565b5085935050505092915050565b60006020820190508181036000830152613402818461338a565b905092915050565b60008060006060848603121561342357613422612a97565b5b600084013567ffffffffffffffff81111561344157613440612a9c565b5b61344d86828701612d75565b935050602061345e86828701612ac2565b925050604061346f86828701612ac2565b9150509250925092565b600060408201905061348e6000830185612b04565b61349b6020830184612b04565b9392505050565b600081519050919050565b600082825260208201905092915050565b60005b838110156134dc5780820151818401526020810190506134c1565b60008484015250505050565b60006134f3826134a2565b6134fd81856134ad565b935061350d8185602086016134be565b61351681612c67565b840191505092915050565b6000606082019050818103600083015261353b81866134e8565b905061354a6020830185612b04565b6135576040830184612b04565b949350505050565b600081905092915050565b6000613575826134a2565b61357f818561355f565b935061358f8185602086016134be565b80840191505092915050565b60006135a7828461356a565b915081905092915050565b7f4e487b7100000000000000000000000000000000000000000000000000000000600052603260045260246000fd5b7f4e487b7100000000000000000000000000000000000000000000000000000000600052602260045260246000fd5b6000600282049050600182168061362857607f821691505b60208210810361363b5761363a6135e1565b5b50919050565b7f4e487b7100000000000000000000000000000000000000000000000000000000600052601160045260246000fd5b600061367b82612aa1565b915061368683612aa1565b925082820261369481612aa1565b915082820484148315176136ab576136aa613641565b5b5092915050565b60006136bd82612aa1565b91506136c883612aa1565b92508282019050808211156136e0576136df613641565b5b92915050565b60006136f182612aa1565b91507fffffffffffffffffffffffffffffffffffffffffffffffffffffffffffffffff820361372357613722613641565b5b600182019050919050565b7f49424c3a20596f75206d7573742073656e642065786163742076616c75652100600082015250565b6000613764601f836134ad565b915061376f8261372e565b602082019050919050565b6000602082019050818103600083015261379381613757565b9050919050565b7f4e487b7100000000000000000000000000000000000000000000000000000000600052601260045260246000fd5b60006137d482612aa1565b91506137df83612aa1565b9250826137ef576137ee61379a565b5b828204905092915050565b7f49424c3a20596f75206d75737420706179207075626c69636174696f6e20666560008201527f6521000000000000000000000000000000000000000000000000000000000000602082015250565b60006138566022836134ad565b9150613861826137fa565b604082019050919050565b6000602082019050818103600083015261388581613849565b9050919050565b60008190508160005260206000209050919050565b60006020601f8301049050919050565b600082821b905092915050565b6000600883026138ee7fffffffffffffffffffffffffffffffffffffffffffffffffffffffffffffffff826138b1565b6138f886836138b1565b95508019841693508086168417925050509392505050565b600061392b61392661392184612aa1565b612bb9565b612aa1565b9050919050565b6000819050919050565b61394583613910565b61395961395182613932565b8484546138be565b825550505050565b600090565b61396e613961565b61397981848461393c565b505050565b5b8181101561399d57613992600082613966565b60018101905061397f565b5050565b601f8211156139e2576139b38161388c565b6139bc846138a1565b810160208510156139cb578190505b6139df6139d7856138a1565b83018261397e565b50505b505050565b600082821c905092915050565b6000613a05600019846008026139e7565b1980831691505092915050565b6000613a1e83836139f4565b9150826002028217905092915050565b613a37826134a2565b67ffffffffffffffff811115613a5057613a4f612c78565b5b613a5a8254613610565b613a658282856139a1565b600060209050601f831160018114613a985760008415613a86578287015190505b613a908582613a12565b865550613af8565b601f198416613aa68661388c565b60005b82811015613ace57848901518255600182019150602085019450602081019050613aa9565b86831015613aeb5784890151613ae7601f8916826139f4565b8355505b6001600288020188555050505b505050505050565b6000613b0b82612aa1565b9150613b1683612aa1565b9250828203905081811115613b2e57613b2d613641565b5b92915050565b7f49424c3a20596f7520646f206e6f742068617665206665657300000000000000600082015250565b6000613b6a6019836134ad565b9150613b7582613b34565b602082019050919050565b60006020820190508181036000830152613b9981613b5d565b9050919050565b7f444258656e3a20616d6f756e74206973207a65726f0000000000000000000000600082015250565b6000613bd66015836134ad565b9150613be182613ba0565b602082019050919050565b60006020820190508181036000830152613c0581613bc9565b9050919050565b7f49424c3a20596f752063616e6e6f74207570646174652074686520707269636560008201527f206265636175736520796f7520617265206e6f7420746865206f776e65720000602082015250565b6000613c68603e836134ad565b9150613c7382613c0c565b604082019050919050565b60006020820190508181036000830152613c9781613c5b565b9050919050565b7f49424c3a20796f75206d7573742073656e64207468652066656520696e20636f60008201527f6e74726163742100000000000000000000000000000000000000000000000000602082015250565b6000613cfa6027836134ad565b9150613d0582613c9e565b604082019050919050565b60006020820190508181036000830152613d2981613ced565b9050919050565b7f4f776e61626c653a206e6577206f776e657220697320746865207a65726f206160008201527f6464726573730000000000000000000000000000000000000000000000000000602082015250565b6000613d8c6026836134ad565b9150613d9782613d30565b604082019050919050565b60006020820190508181036000830152613dbb81613d7f565b9050919050565b7f5265656e7472616e637947756172643a207265656e7472616e742063616c6c00600082015250565b6000613df8601f836134ad565b9150613e0382613dc2565b602082019050919050565b60006020820190508181036000830152613e2781613deb565b9050919050565b600081905092915050565b50565b6000613e49600083613e2e565b9150613e5482613e39565b600082019050919050565b6000613e6a82613e3c565b9150819050919050565b7f444258656e3a206661696c656420746f2073656e6420616d6f756e7400000000600082015250565b6000613eaa601c836134ad565b9150613eb582613e74565b602082019050919050565b60006020820190508181036000830152613ed981613e9d565b9050919050565b7f4f776e61626c653a2063616c6c6572206973206e6f7420746865206f776e6572600082015250565b6000613f166020836134ad565b9150613f2182613ee0565b602082019050919050565b60006020820190508181036000830152613f4581613f09565b905091905056fea2646970667358221220b1410c312375f3812fa3b4ff70ed5038b3297cd200de786931a9ea2c7eda25a764736f6c6343000812003360a06040523480156200001157600080fd5b506040518060400160405280601081526020017f49424c2052657761726420746f6b656e000000000000000000000000000000008152506040518060400160405280600381526020017f49424c000000000000000000000000000000000000000000000000000000000081525081600390816200008f919062000358565b508060049081620000a1919062000358565b5050503373ffffffffffffffffffffffffffffffffffffffff1660808173ffffffffffffffffffffffffffffffffffffffff16815250506200043f565b600081519050919050565b7f4e487b7100000000000000000000000000000000000000000000000000000000600052604160045260246000fd5b7f4e487b7100000000000000000000000000000000000000000000000000000000600052602260045260246000fd5b600060028204905060018216806200016057607f821691505b60208210810362000176576200017562000118565b5b50919050565b60008190508160005260206000209050919050565b60006020601f8301049050919050565b600082821b905092915050565b600060088302620001e07fffffffffffffffffffffffffffffffffffffffffffffffffffffffffffffffff82620001a1565b620001ec8683620001a1565b95508019841693508086168417925050509392505050565b6000819050919050565b6000819050919050565b600062000239620002336200022d8462000204565b6200020e565b62000204565b9050919050565b6000819050919050565b620002558362000218565b6200026d620002648262000240565b848454620001ae565b825550505050565b600090565b6200028462000275565b620002918184846200024a565b505050565b5b81811015620002b957620002ad6000826200027a565b60018101905062000297565b5050565b601f8211156200030857620002d2816200017c565b620002dd8462000191565b81016020851015620002ed578190505b62000305620002fc8562000191565b83018262000296565b50505b505050565b600082821c905092915050565b60006200032d600019846008026200030d565b1980831691505092915050565b60006200034883836200031a565b9150826002028217905092915050565b6200036382620000de565b67ffffffffffffffff8111156200037f576200037e620000e9565b5b6200038b825462000147565b62000398828285620002bd565b600060209050601f831160018114620003d05760008415620003bb578287015190505b620003c785826200033a565b86555062000437565b601f198416620003e0866200017c565b60005b828110156200040a57848901518255600182019150602085019450602081019050620003e3565b868310156200042a578489015162000426601f8916826200031a565b8355505b6001600288020188555050505b505050505050565b6080516115a7620004626000396000818161044e015261050401526115a76000f3fe608060405234801561001057600080fd5b50600436106100cf5760003560e01c806370a082311161008c5780639a49090e116100665780639a49090e1461022a578063a457c2d714610246578063a9059cbb14610276578063dd62ed3e146102a6576100cf565b806370a08231146101be5780638da5cb5b146101ee57806395d89b411461020c576100cf565b806306fdde03146100d4578063095ea7b3146100f257806318160ddd1461012257806323b872dd14610140578063313ce56714610170578063395093511461018e575b600080fd5b6100dc6102d6565b6040516100e99190610d82565b60405180910390f35b61010c60048036038101906101079190610e3d565b610368565b6040516101199190610e98565b60405180910390f35b61012a61038b565b6040516101379190610ec2565b60405180910390f35b61015a60048036038101906101559190610edd565b610395565b6040516101679190610e98565b60405180910390f35b6101786103c4565b6040516101859190610f4c565b60405180910390f35b6101a860048036038101906101a39190610e3d565b6103cd565b6040516101b59190610e98565b60405180910390f35b6101d860048036038101906101d39190610f67565b610404565b6040516101e59190610ec2565b60405180910390f35b6101f661044c565b6040516102039190610fa3565b60405180910390f35b610214610470565b6040516102219190610d82565b60405180910390f35b610244600480360381019061023f9190610e3d565b610502565b005b610260600480360381019061025b9190610e3d565b61059e565b60405161026d9190610e98565b60405180910390f35b610290600480360381019061028b9190610e3d565b610615565b60405161029d9190610e98565b60405180910390f35b6102c060048036038101906102bb9190610fbe565b610638565b6040516102cd9190610ec2565b60405180910390f35b6060600380546102e59061102d565b80601f01602080910402602001604051908101604052809291908181526020018280546103119061102d565b801561035e5780601f106103335761010080835404028352916020019161035e565b820191906000526020600020905b81548152906001019060200180831161034157829003601f168201915b5050505050905090565b6000806103736106bf565b90506103808185856106c7565b600191505092915050565b6000600254905090565b6000806103a06106bf565b90506103ad858285610890565b6103b885858561091c565b60019150509392505050565b60006012905090565b6000806103d86106bf565b90506103f98185856103ea8589610638565b6103f4919061108d565b6106c7565b600191505092915050565b60008060008373ffffffffffffffffffffffffffffffffffffffff1673ffffffffffffffffffffffffffffffffffffffff168152602001908152602001600020549050919050565b7f000000000000000000000000000000000000000000000000000000000000000081565b60606004805461047f9061102d565b80601f01602080910402602001604051908101604052809291908181526020018280546104ab9061102d565b80156104f85780601f106104cd576101008083540402835291602001916104f8565b820191906000526020600020905b8154815290600101906020018083116104db57829003601f168201915b5050505050905090565b7f000000000000000000000000000000000000000000000000000000000000000073ffffffffffffffffffffffffffffffffffffffff163373ffffffffffffffffffffffffffffffffffffffff1614610590576040517f08c379a00000000000000000000000000000000000000000000000000000000081526004016105879061110d565b60405180910390fd5b61059a8282610b92565b5050565b6000806105a96106bf565b905060006105b78286610638565b9050838110156105fc576040517f08c379a00000000000000000000000000000000000000000000000000000000081526004016105f39061119f565b60405180910390fd5b61060982868684036106c7565b60019250505092915050565b6000806106206106bf565b905061062d81858561091c565b600191505092915050565b6000600160008473ffffffffffffffffffffffffffffffffffffffff1673ffffffffffffffffffffffffffffffffffffffff16815260200190815260200160002060008373ffffffffffffffffffffffffffffffffffffffff1673ffffffffffffffffffffffffffffffffffffffff16815260200190815260200160002054905092915050565b600033905090565b600073ffffffffffffffffffffffffffffffffffffffff168373ffffffffffffffffffffffffffffffffffffffff1603610736576040517f08c379a000000000000000000000000000000000000000000000000000000000815260040161072d90611231565b60405180910390fd5b600073ffffffffffffffffffffffffffffffffffffffff168273ffffffffffffffffffffffffffffffffffffffff16036107a5576040517f08c379a000000000000000000000000000000000000000000000000000000000815260040161079c906112c3565b60405180910390fd5b80600160008573ffffffffffffffffffffffffffffffffffffffff1673ffffffffffffffffffffffffffffffffffffffff16815260200190815260200160002060008473ffffffffffffffffffffffffffffffffffffffff1673ffffffffffffffffffffffffffffffffffffffff168152602001908152602001600020819055508173ffffffffffffffffffffffffffffffffffffffff168373ffffffffffffffffffffffffffffffffffffffff167f8c5be1e5ebec7d5bd14f71427d1e84f3dd0314c0f7b2291e5b200ac8c7c3b925836040516108839190610ec2565b60405180910390a3505050565b600061089c8484610638565b90507fffffffffffffffffffffffffffffffffffffffffffffffffffffffffffffffff81146109165781811015610908576040517f08c379a00000000000000000000000000000000000000000000000000000000081526004016108ff9061132f565b60405180910390fd5b61091584848484036106c7565b5b50505050565b600073ffffffffffffffffffffffffffffffffffffffff168373ffffffffffffffffffffffffffffffffffffffff160361098b576040517f08c379a0000000000000000000000000000000000000000000000000000000008152600401610982906113c1565b60405180910390fd5b600073ffffffffffffffffffffffffffffffffffffffff168273ffffffffffffffffffffffffffffffffffffffff16036109fa576040517f08c379a00000000000000000000000000000000000000000000000000000000081526004016109f190611453565b60405180910390fd5b610a05838383610ce8565b60008060008573ffffffffffffffffffffffffffffffffffffffff1673ffffffffffffffffffffffffffffffffffffffff16815260200190815260200160002054905081811015610a8b576040517f08c379a0000000000000000000000000000000000000000000000000000000008152600401610a82906114e5565b60405180910390fd5b8181036000808673ffffffffffffffffffffffffffffffffffffffff1673ffffffffffffffffffffffffffffffffffffffff16815260200190815260200160002081905550816000808573ffffffffffffffffffffffffffffffffffffffff1673ffffffffffffffffffffffffffffffffffffffff168152602001908152602001600020600082825401925050819055508273ffffffffffffffffffffffffffffffffffffffff168473ffffffffffffffffffffffffffffffffffffffff167fddf252ad1be2c89b69c2b068fc378daa952ba7f163c4a11628f55a4df523b3ef84604051610b799190610ec2565b60405180910390a3610b8c848484610ced565b50505050565b600073ffffffffffffffffffffffffffffffffffffffff168273ffffffffffffffffffffffffffffffffffffffff1603610c01576040517f08c379a0000000000000000000000000000000000000000000000000000000008152600401610bf890611551565b60405180910390fd5b610c0d60008383610ce8565b8060026000828254610c1f919061108d565b92505081905550806000808473ffffffffffffffffffffffffffffffffffffffff1673ffffffffffffffffffffffffffffffffffffffff168152602001908152602001600020600082825401925050819055508173ffffffffffffffffffffffffffffffffffffffff16600073ffffffffffffffffffffffffffffffffffffffff167fddf252ad1be2c89b69c2b068fc378daa952ba7f163c4a11628f55a4df523b3ef83604051610cd09190610ec2565b60405180910390a3610ce460008383610ced565b5050565b505050565b505050565b600081519050919050565b600082825260208201905092915050565b60005b83811015610d2c578082015181840152602081019050610d11565b60008484015250505050565b6000601f19601f8301169050919050565b6000610d5482610cf2565b610d5e8185610cfd565b9350610d6e818560208601610d0e565b610d7781610d38565b840191505092915050565b60006020820190508181036000830152610d9c8184610d49565b905092915050565b600080fd5b600073ffffffffffffffffffffffffffffffffffffffff82169050919050565b6000610dd482610da9565b9050919050565b610de481610dc9565b8114610def57600080fd5b50565b600081359050610e0181610ddb565b92915050565b6000819050919050565b610e1a81610e07565b8114610e2557600080fd5b50565b600081359050610e3781610e11565b92915050565b60008060408385031215610e5457610e53610da4565b5b6000610e6285828601610df2565b9250506020610e7385828601610e28565b9150509250929050565b60008115159050919050565b610e9281610e7d565b82525050565b6000602082019050610ead6000830184610e89565b92915050565b610ebc81610e07565b82525050565b6000602082019050610ed76000830184610eb3565b92915050565b600080600060608486031215610ef657610ef5610da4565b5b6000610f0486828701610df2565b9350506020610f1586828701610df2565b9250506040610f2686828701610e28565b9150509250925092565b600060ff82169050919050565b610f4681610f30565b82525050565b6000602082019050610f616000830184610f3d565b92915050565b600060208284031215610f7d57610f7c610da4565b5b6000610f8b84828501610df2565b91505092915050565b610f9d81610dc9565b82525050565b6000602082019050610fb86000830184610f94565b92915050565b60008060408385031215610fd557610fd4610da4565b5b6000610fe385828601610df2565b9250506020610ff485828601610df2565b9150509250929050565b7f4e487b7100000000000000000000000000000000000000000000000000000000600052602260045260246000fd5b6000600282049050600182168061104557607f821691505b60208210810361105857611057610ffe565b5b50919050565b7f4e487b7100000000000000000000000000000000000000000000000000000000600052601160045260246000fd5b600061109882610e07565b91506110a383610e07565b92508282019050808211156110bb576110ba61105e565b5b92915050565b7f49424c3a2063616c6c6572206973206e6f742049424c20636f6e74726163742e600082015250565b60006110f7602083610cfd565b9150611102826110c1565b602082019050919050565b60006020820190508181036000830152611126816110ea565b9050919050565b7f45524332303a2064656372656173656420616c6c6f77616e63652062656c6f7760008201527f207a65726f000000000000000000000000000000000000000000000000000000602082015250565b6000611189602583610cfd565b91506111948261112d565b604082019050919050565b600060208201905081810360008301526111b88161117c565b9050919050565b7f45524332303a20617070726f76652066726f6d20746865207a65726f2061646460008201527f7265737300000000000000000000000000000000000000000000000000000000602082015250565b600061121b602483610cfd565b9150611226826111bf565b604082019050919050565b6000602082019050818103600083015261124a8161120e565b9050919050565b7f45524332303a20617070726f766520746f20746865207a65726f20616464726560008201527f7373000000000000000000000000000000000000000000000000000000000000602082015250565b60006112ad602283610cfd565b91506112b882611251565b604082019050919050565b600060208201905081810360008301526112dc816112a0565b9050919050565b7f45524332303a20696e73756666696369656e7420616c6c6f77616e6365000000600082015250565b6000611319601d83610cfd565b9150611324826112e3565b602082019050919050565b600060208201905081810360008301526113488161130c565b9050919050565b7f45524332303a207472616e736665722066726f6d20746865207a65726f20616460008201527f6472657373000000000000000000000000000000000000000000000000000000602082015250565b60006113ab602583610cfd565b91506113b68261134f565b604082019050919050565b600060208201905081810360008301526113da8161139e565b9050919050565b7f45524332303a207472616e7366657220746f20746865207a65726f206164647260008201527f6573730000000000000000000000000000000000000000000000000000000000602082015250565b600061143d602383610cfd565b9150611448826113e1565b604082019050919050565b6000602082019050818103600083015261146c81611430565b9050919050565b7f45524332303a207472616e7366657220616d6f756e742065786365656473206260008201527f616c616e63650000000000000000000000000000000000000000000000000000602082015250565b60006114cf602683610cfd565b91506114da82611473565b604082019050919050565b600060208201905081810360008301526114fe816114c2565b9050919050565b7f45524332303a206d696e7420746f20746865207a65726f206164647265737300600082015250565b600061153b601f83610cfd565b915061154682611505565b602082019050919050565b6000602082019050818103600083015261156a8161152e565b905091905056fea26469706673582212205a3067c46e09df399be094e80c9fb25d65ba159c1ca86528e25bb038e649aaaa64736f6c63430008120033",
  "linkReferences": {},
  "deployedLinkReferences": {}
}