{
  "_format": "hh-sol-artifact-1",
  "contractName": "IBL",
  "sourceName": "contracts/IBL.sol",
  "abi": [
    {
      "inputs": [
        {
          "internalType": "address",
          "name": "forwarder",
          "type": "address"
        },
        {
          "internalType": "address",
          "name": "_devAddress",
          "type": "address"
        }
      ],
      "stateMutability": "nonpayable",
      "type": "constructor"
    },
    {
      "anonymous": false,
      "inputs": [
        {
          "indexed": true,
          "internalType": "address",
          "name": "previousOwner",
          "type": "address"
        },
        {
          "indexed": true,
          "internalType": "address",
          "name": "newOwner",
          "type": "address"
        }
      ],
      "name": "OwnershipTransferred",
      "type": "event"
    },
    {
      "inputs": [],
      "name": "IBL_TEAM_FEE",
      "outputs": [
        {
          "internalType": "uint256",
          "name": "",
          "type": "uint256"
        }
      ],
      "stateMutability": "view",
      "type": "function"
    },
    {
      "inputs": [],
      "name": "POOL_FEE",
      "outputs": [
        {
          "internalType": "uint256",
          "name": "",
          "type": "uint256"
        }
      ],
      "stateMutability": "view",
      "type": "function"
    },
    {
      "inputs": [],
      "name": "accruedFees",
      "outputs": [
        {
          "internalType": "uint256",
          "name": "",
          "type": "uint256"
        }
      ],
      "stateMutability": "view",
      "type": "function"
    },
    {
      "inputs": [
        {
          "internalType": "address",
          "name": "",
          "type": "address"
        }
      ],
      "name": "builderReward",
      "outputs": [
        {
          "internalType": "uint256",
          "name": "",
          "type": "uint256"
        }
      ],
      "stateMutability": "view",
      "type": "function"
    },
    {
      "inputs": [
        {
          "internalType": "string",
          "name": "",
          "type": "string"
        }
      ],
      "name": "componentPrice",
      "outputs": [
        {
          "internalType": "uint256",
          "name": "",
          "type": "uint256"
        }
      ],
      "stateMutability": "view",
      "type": "function"
    },
    {
      "inputs": [],
      "name": "devAddress",
      "outputs": [
        {
          "internalType": "address",
          "name": "",
          "type": "address"
        }
      ],
      "stateMutability": "view",
      "type": "function"
    },
    {
      "inputs": [
        {
          "internalType": "string[]",
          "name": "componentsIds",
          "type": "string[]"
        }
      ],
      "name": "downlodApplication",
      "outputs": [],
      "stateMutability": "payable",
      "type": "function"
    },
    {
      "inputs": [],
      "name": "ibl",
      "outputs": [
        {
          "internalType": "contract IBLERC20",
          "name": "",
          "type": "address"
        }
      ],
      "stateMutability": "view",
      "type": "function"
    },
    {
      "inputs": [],
      "name": "owner",
      "outputs": [
        {
          "internalType": "address",
          "name": "",
          "type": "address"
        }
      ],
      "stateMutability": "view",
      "type": "function"
    },
    {
      "inputs": [
        {
          "internalType": "string",
          "name": "",
          "type": "string"
        }
      ],
      "name": "ownerComponent",
      "outputs": [
        {
          "internalType": "address",
          "name": "",
          "type": "address"
        }
      ],
      "stateMutability": "view",
      "type": "function"
    },
    {
      "inputs": [],
      "name": "renounceOwnership",
      "outputs": [],
      "stateMutability": "nonpayable",
      "type": "function"
    },
    {
      "inputs": [
        {
          "internalType": "address",
          "name": "_devAddress",
          "type": "address"
        }
      ],
      "name": "setDevAddress",
      "outputs": [],
      "stateMutability": "nonpayable",
      "type": "function"
    },
    {
      "inputs": [
        {
          "internalType": "address",
          "name": "newOwner",
          "type": "address"
        }
      ],
      "name": "transferOwnership",
      "outputs": [],
      "stateMutability": "nonpayable",
      "type": "function"
    },
    {
      "inputs": [
        {
          "internalType": "address",
          "name": "",
          "type": "address"
        },
        {
          "internalType": "uint256",
          "name": "",
          "type": "uint256"
        }
      ],
      "name": "userComponents",
      "outputs": [
        {
          "internalType": "string",
          "name": "id",
          "type": "string"
        },
        {
          "internalType": "uint256",
          "name": "price",
          "type": "uint256"
        }
      ],
      "stateMutability": "view",
      "type": "function"
    }
  ],
  "bytecode": "0x60806040526101f460085561251c6009553480156200001d57600080fd5b50604051620031c1380380620031c1833981810160405281019062000043919062000263565b62000063620000576200011f60201b60201c565b6200012760201b60201c565b600180819055506040516200007890620001eb565b604051809103906000f08015801562000095573d6000803e3d6000fd5b50600260006101000a81548173ffffffffffffffffffffffffffffffffffffffff021916908373ffffffffffffffffffffffffffffffffffffffff16021790555080600a60006101000a81548173ffffffffffffffffffffffffffffffffffffffff021916908373ffffffffffffffffffffffffffffffffffffffff1602179055505050620002aa565b600033905090565b60008060009054906101000a900473ffffffffffffffffffffffffffffffffffffffff169050816000806101000a81548173ffffffffffffffffffffffffffffffffffffffff021916908373ffffffffffffffffffffffffffffffffffffffff1602179055508173ffffffffffffffffffffffffffffffffffffffff168173ffffffffffffffffffffffffffffffffffffffff167f8be0079c531659141344cd1fd0a4f28419497f9722a3daafe3b4186f6b6457e060405160405180910390a35050565b611a1b80620017a683390190565b600080fd5b600073ffffffffffffffffffffffffffffffffffffffff82169050919050565b60006200022b82620001fe565b9050919050565b6200023d816200021e565b81146200024957600080fd5b50565b6000815190506200025d8162000232565b92915050565b600080604083850312156200027d576200027c620001f9565b5b60006200028d858286016200024c565b9250506020620002a0858286016200024c565b9150509250929050565b6114ec80620002ba6000396000f3fe6080604052600436106100dd5760003560e01c8063a0f495561161007f578063d0d41fe111610059578063d0d41fe1146102c5578063d8043d8f146102ee578063dd1b9c4a1461030a578063f2fde38b14610335576100dd565b8063a0f495561461020d578063a2727db31461024b578063af501bd414610288576100dd565b8063682c2058116100bb578063682c205814610163578063715018a61461018e578063801e4a86146101a55780638da5cb5b146101e2576100dd565b806312d47439146100e2578063168b0a5c1461010d5780633ad10ef614610138575b600080fd5b3480156100ee57600080fd5b506100f761035e565b6040516101049190610ac8565b60405180910390f35b34801561011957600080fd5b50610122610364565b60405161012f9190610b62565b60405180910390f35b34801561014457600080fd5b5061014d61038a565b60405161015a9190610b9e565b60405180910390f35b34801561016f57600080fd5b506101786103b0565b6040516101859190610ac8565b60405180910390f35b34801561019a57600080fd5b506101a36103b6565b005b3480156101b157600080fd5b506101cc60048036038101906101c79190610d13565b6103ca565b6040516101d99190610ac8565b60405180910390f35b3480156101ee57600080fd5b506101f76103f8565b6040516102049190610b9e565b60405180910390f35b34801561021957600080fd5b50610234600480360381019061022f9190610db4565b610421565b604051610242929190610e73565b60405180910390f35b34801561025757600080fd5b50610272600480360381019061026d9190610ea3565b6104ea565b60405161027f9190610ac8565b60405180910390f35b34801561029457600080fd5b506102af60048036038101906102aa9190610d13565b610502565b6040516102bc9190610b9e565b60405180910390f35b3480156102d157600080fd5b506102ec60048036038101906102e79190610ea3565b61054b565b005b61030860048036038101906103039190610fb6565b6105eb565b005b34801561031657600080fd5b5061031f61082b565b60405161032c9190610ac8565b60405180910390f35b34801561034157600080fd5b5061035c60048036038101906103579190610ea3565b610831565b005b60085481565b600260009054906101000a900473ffffffffffffffffffffffffffffffffffffffff1681565b600a60009054906101000a900473ffffffffffffffffffffffffffffffffffffffff1681565b60075481565b6103be6108b4565b6103c86000610932565b565b6004818051602081018201805184825260208301602085012081835280955050505050506000915090505481565b60008060009054906101000a900473ffffffffffffffffffffffffffffffffffffffff16905090565b6003602052816000526040600020818154811061043d57600080fd5b9060005260206000209060020201600091509150508060000180546104619061102e565b80601f016020809104026020016040519081016040528092919081815260200182805461048d9061102e565b80156104da5780601f106104af576101008083540402835291602001916104da565b820191906000526020600020905b8154815290600101906020018083116104bd57829003601f168201915b5050505050908060010154905082565b60066020528060005260406000206000915090505481565b6005818051602081018201805184825260208301602085012081835280955050505050506000915054906101000a900473ffffffffffffffffffffffffffffffffffffffff1681565b6105536108b4565b600260015403610598576040517f08c379a000000000000000000000000000000000000000000000000000000000815260040161058f906110ab565b60405180910390fd5b600260018190555080600a60006101000a81548173ffffffffffffffffffffffffffffffffffffffff021916908373ffffffffffffffffffffffffffffffffffffffff1602179055506001808190555050565b600260015403610630576040517f08c379a0000000000000000000000000000000000000000000000000000000008152600401610627906110ab565b60405180910390fd5b60026001819055506000805b825181101561069e57600483828151811061065a576106596110cb565b5b602002602001015160405161066f9190611136565b90815260200160405180910390205482610689919061117c565b91508080610696906111b0565b91505061063c565b506002816106ac91906111f8565b34146106ed576040517f08c379a00000000000000000000000000000000000000000000000000000000081526004016106e490611286565b60405180910390fd5b610733600a60009054906101000a900473ffffffffffffffffffffffffffffffffffffffff166127106008548461072491906111f8565b61072e91906112d5565b6109f6565b6127106009548261074491906111f8565b61074e91906112d5565b6007600082825461075f919061117c565b9250508190555060005b825181101561081f5761080c600584838151811061078a576107896110cb565b5b602002602001015160405161079f9190611136565b908152602001604051809103902060009054906101000a900473ffffffffffffffffffffffffffffffffffffffff1660048584815181106107e3576107e26110cb565b5b60200260200101516040516107f89190611136565b9081526020016040518091039020546109f6565b8080610817906111b0565b915050610769565b50506001808190555050565b60095481565b6108396108b4565b600073ffffffffffffffffffffffffffffffffffffffff168173ffffffffffffffffffffffffffffffffffffffff16036108a8576040517f08c379a000000000000000000000000000000000000000000000000000000000815260040161089f90611378565b60405180910390fd5b6108b181610932565b50565b6108bc610aa7565b73ffffffffffffffffffffffffffffffffffffffff166108da6103f8565b73ffffffffffffffffffffffffffffffffffffffff1614610930576040517f08c379a0000000000000000000000000000000000000000000000000000000008152600401610927906113e4565b60405180910390fd5b565b60008060009054906101000a900473ffffffffffffffffffffffffffffffffffffffff169050816000806101000a81548173ffffffffffffffffffffffffffffffffffffffff021916908373ffffffffffffffffffffffffffffffffffffffff1602179055508173ffffffffffffffffffffffffffffffffffffffff168173ffffffffffffffffffffffffffffffffffffffff167f8be0079c531659141344cd1fd0a4f28419497f9722a3daafe3b4186f6b6457e060405160405180910390a35050565b60008273ffffffffffffffffffffffffffffffffffffffff1682604051610a1c90611435565b60006040518083038185875af1925050503d8060008114610a59576040519150601f19603f3d011682016040523d82523d6000602084013e610a5e565b606091505b5050905080610aa2576040517f08c379a0000000000000000000000000000000000000000000000000000000008152600401610a9990611496565b60405180910390fd5b505050565b600033905090565b6000819050919050565b610ac281610aaf565b82525050565b6000602082019050610add6000830184610ab9565b92915050565b600073ffffffffffffffffffffffffffffffffffffffff82169050919050565b6000819050919050565b6000610b28610b23610b1e84610ae3565b610b03565b610ae3565b9050919050565b6000610b3a82610b0d565b9050919050565b6000610b4c82610b2f565b9050919050565b610b5c81610b41565b82525050565b6000602082019050610b776000830184610b53565b92915050565b6000610b8882610ae3565b9050919050565b610b9881610b7d565b82525050565b6000602082019050610bb36000830184610b8f565b92915050565b6000604051905090565b600080fd5b600080fd5b600080fd5b600080fd5b6000601f19601f8301169050919050565b7f4e487b7100000000000000000000000000000000000000000000000000000000600052604160045260246000fd5b610c2082610bd7565b810181811067ffffffffffffffff82111715610c3f57610c3e610be8565b5b80604052505050565b6000610c52610bb9565b9050610c5e8282610c17565b919050565b600067ffffffffffffffff821115610c7e57610c7d610be8565b5b610c8782610bd7565b9050602081019050919050565b82818337600083830152505050565b6000610cb6610cb184610c63565b610c48565b905082815260208101848484011115610cd257610cd1610bd2565b5b610cdd848285610c94565b509392505050565b600082601f830112610cfa57610cf9610bcd565b5b8135610d0a848260208601610ca3565b91505092915050565b600060208284031215610d2957610d28610bc3565b5b600082013567ffffffffffffffff811115610d4757610d46610bc8565b5b610d5384828501610ce5565b91505092915050565b610d6581610b7d565b8114610d7057600080fd5b50565b600081359050610d8281610d5c565b92915050565b610d9181610aaf565b8114610d9c57600080fd5b50565b600081359050610dae81610d88565b92915050565b60008060408385031215610dcb57610dca610bc3565b5b6000610dd985828601610d73565b9250506020610dea85828601610d9f565b9150509250929050565b600081519050919050565b600082825260208201905092915050565b60005b83811015610e2e578082015181840152602081019050610e13565b60008484015250505050565b6000610e4582610df4565b610e4f8185610dff565b9350610e5f818560208601610e10565b610e6881610bd7565b840191505092915050565b60006040820190508181036000830152610e8d8185610e3a565b9050610e9c6020830184610ab9565b9392505050565b600060208284031215610eb957610eb8610bc3565b5b6000610ec784828501610d73565b91505092915050565b600067ffffffffffffffff821115610eeb57610eea610be8565b5b602082029050602081019050919050565b600080fd5b6000610f14610f0f84610ed0565b610c48565b90508083825260208201905060208402830185811115610f3757610f36610efc565b5b835b81811015610f7e57803567ffffffffffffffff811115610f5c57610f5b610bcd565b5b808601610f698982610ce5565b85526020850194505050602081019050610f39565b5050509392505050565b600082601f830112610f9d57610f9c610bcd565b5b8135610fad848260208601610f01565b91505092915050565b600060208284031215610fcc57610fcb610bc3565b5b600082013567ffffffffffffffff811115610fea57610fe9610bc8565b5b610ff684828501610f88565b91505092915050565b7f4e487b7100000000000000000000000000000000000000000000000000000000600052602260045260246000fd5b6000600282049050600182168061104657607f821691505b60208210810361105957611058610fff565b5b50919050565b7f5265656e7472616e637947756172643a207265656e7472616e742063616c6c00600082015250565b6000611095601f83610dff565b91506110a08261105f565b602082019050919050565b600060208201905081810360008301526110c481611088565b9050919050565b7f4e487b7100000000000000000000000000000000000000000000000000000000600052603260045260246000fd5b600081905092915050565b600061111082610df4565b61111a81856110fa565b935061112a818560208601610e10565b80840191505092915050565b60006111428284611105565b915081905092915050565b7f4e487b7100000000000000000000000000000000000000000000000000000000600052601160045260246000fd5b600061118782610aaf565b915061119283610aaf565b92508282019050808211156111aa576111a961114d565b5b92915050565b60006111bb82610aaf565b91507fffffffffffffffffffffffffffffffffffffffffffffffffffffffffffffffff82036111ed576111ec61114d565b5b600182019050919050565b600061120382610aaf565b915061120e83610aaf565b925082820261121c81610aaf565b915082820484148315176112335761123261114d565b5b5092915050565b7f49424c3a20596f75206d7573742073656e642065786163742076616c75652100600082015250565b6000611270601f83610dff565b915061127b8261123a565b602082019050919050565b6000602082019050818103600083015261129f81611263565b9050919050565b7f4e487b7100000000000000000000000000000000000000000000000000000000600052601260045260246000fd5b60006112e082610aaf565b91506112eb83610aaf565b9250826112fb576112fa6112a6565b5b828204905092915050565b7f4f776e61626c653a206e6577206f776e657220697320746865207a65726f206160008201527f6464726573730000000000000000000000000000000000000000000000000000602082015250565b6000611362602683610dff565b915061136d82611306565b604082019050919050565b6000602082019050818103600083015261139181611355565b9050919050565b7f4f776e61626c653a2063616c6c6572206973206e6f7420746865206f776e6572600082015250565b60006113ce602083610dff565b91506113d982611398565b602082019050919050565b600060208201905081810360008301526113fd816113c1565b9050919050565b600081905092915050565b50565b600061141f600083611404565b915061142a8261140f565b600082019050919050565b600061144082611412565b9150819050919050565b7f444258656e3a206661696c656420746f2073656e6420616d6f756e7400000000600082015250565b6000611480601c83610dff565b915061148b8261144a565b602082019050919050565b600060208201905081810360008301526114af81611473565b905091905056fea2646970667358221220c2c740084ca483e259824c308448a88550a26ef81ccbdff1c013343fda3e609764736f6c6343000812003360a06040523480156200001157600080fd5b506040518060400160405280601081526020017f49424c2052657761726420746f6b656e000000000000000000000000000000008152506040518060400160405280600381526020017f49424c000000000000000000000000000000000000000000000000000000000081525081600390816200008f919062000358565b508060049081620000a1919062000358565b5050503373ffffffffffffffffffffffffffffffffffffffff1660808173ffffffffffffffffffffffffffffffffffffffff16815250506200043f565b600081519050919050565b7f4e487b7100000000000000000000000000000000000000000000000000000000600052604160045260246000fd5b7f4e487b7100000000000000000000000000000000000000000000000000000000600052602260045260246000fd5b600060028204905060018216806200016057607f821691505b60208210810362000176576200017562000118565b5b50919050565b60008190508160005260206000209050919050565b60006020601f8301049050919050565b600082821b905092915050565b600060088302620001e07fffffffffffffffffffffffffffffffffffffffffffffffffffffffffffffffff82620001a1565b620001ec8683620001a1565b95508019841693508086168417925050509392505050565b6000819050919050565b6000819050919050565b600062000239620002336200022d8462000204565b6200020e565b62000204565b9050919050565b6000819050919050565b620002558362000218565b6200026d620002648262000240565b848454620001ae565b825550505050565b600090565b6200028462000275565b620002918184846200024a565b505050565b5b81811015620002b957620002ad6000826200027a565b60018101905062000297565b5050565b601f8211156200030857620002d2816200017c565b620002dd8462000191565b81016020851015620002ed578190505b62000305620002fc8562000191565b83018262000296565b50505b505050565b600082821c905092915050565b60006200032d600019846008026200030d565b1980831691505092915050565b60006200034883836200031a565b9150826002028217905092915050565b6200036382620000de565b67ffffffffffffffff8111156200037f576200037e620000e9565b5b6200038b825462000147565b62000398828285620002bd565b600060209050601f831160018114620003d05760008415620003bb578287015190505b620003c785826200033a565b86555062000437565b601f198416620003e0866200017c565b60005b828110156200040a57848901518255600182019150602085019450602081019050620003e3565b868310156200042a578489015162000426601f8916826200031a565b8355505b6001600288020188555050505b505050505050565b6080516115b9620004626000396000818161044e015261050401526115b96000f3fe608060405234801561001057600080fd5b50600436106100cf5760003560e01c806370a082311161008c5780639a49090e116100665780639a49090e1461022a578063a457c2d714610246578063a9059cbb14610276578063dd62ed3e146102a6576100cf565b806370a08231146101be5780638da5cb5b146101ee57806395d89b411461020c576100cf565b806306fdde03146100d4578063095ea7b3146100f257806318160ddd1461012257806323b872dd14610140578063313ce56714610170578063395093511461018e575b600080fd5b6100dc6102d6565b6040516100e99190610d94565b60405180910390f35b61010c60048036038101906101079190610e4f565b610368565b6040516101199190610eaa565b60405180910390f35b61012a61038b565b6040516101379190610ed4565b60405180910390f35b61015a60048036038101906101559190610eef565b610395565b6040516101679190610eaa565b60405180910390f35b6101786103c4565b6040516101859190610f5e565b60405180910390f35b6101a860048036038101906101a39190610e4f565b6103cd565b6040516101b59190610eaa565b60405180910390f35b6101d860048036038101906101d39190610f79565b610404565b6040516101e59190610ed4565b60405180910390f35b6101f661044c565b6040516102039190610fb5565b60405180910390f35b610214610470565b6040516102219190610d94565b60405180910390f35b610244600480360381019061023f9190610e4f565b610502565b005b610260600480360381019061025b9190610e4f565b61059e565b60405161026d9190610eaa565b60405180910390f35b610290600480360381019061028b9190610e4f565b610615565b60405161029d9190610eaa565b60405180910390f35b6102c060048036038101906102bb9190610fd0565b610638565b6040516102cd9190610ed4565b60405180910390f35b6060600380546102e59061103f565b80601f01602080910402602001604051908101604052809291908181526020018280546103119061103f565b801561035e5780601f106103335761010080835404028352916020019161035e565b820191906000526020600020905b81548152906001019060200180831161034157829003601f168201915b5050505050905090565b6000806103736106bf565b90506103808185856106c7565b600191505092915050565b6000600254905090565b6000806103a06106bf565b90506103ad858285610890565b6103b885858561091c565b60019150509392505050565b60006012905090565b6000806103d86106bf565b90506103f98185856103ea8589610638565b6103f4919061109f565b6106c7565b600191505092915050565b60008060008373ffffffffffffffffffffffffffffffffffffffff1673ffffffffffffffffffffffffffffffffffffffff168152602001908152602001600020549050919050565b7f000000000000000000000000000000000000000000000000000000000000000081565b60606004805461047f9061103f565b80601f01602080910402602001604051908101604052809291908181526020018280546104ab9061103f565b80156104f85780601f106104cd576101008083540402835291602001916104f8565b820191906000526020600020905b8154815290600101906020018083116104db57829003601f168201915b5050505050905090565b7f000000000000000000000000000000000000000000000000000000000000000073ffffffffffffffffffffffffffffffffffffffff163373ffffffffffffffffffffffffffffffffffffffff1614610590576040517f08c379a00000000000000000000000000000000000000000000000000000000081526004016105879061111f565b60405180910390fd5b61059a8282610b9b565b5050565b6000806105a96106bf565b905060006105b78286610638565b9050838110156105fc576040517f08c379a00000000000000000000000000000000000000000000000000000000081526004016105f3906111b1565b60405180910390fd5b61060982868684036106c7565b60019250505092915050565b6000806106206106bf565b905061062d81858561091c565b600191505092915050565b6000600160008473ffffffffffffffffffffffffffffffffffffffff1673ffffffffffffffffffffffffffffffffffffffff16815260200190815260200160002060008373ffffffffffffffffffffffffffffffffffffffff1673ffffffffffffffffffffffffffffffffffffffff16815260200190815260200160002054905092915050565b600033905090565b600073ffffffffffffffffffffffffffffffffffffffff168373ffffffffffffffffffffffffffffffffffffffff1603610736576040517f08c379a000000000000000000000000000000000000000000000000000000000815260040161072d90611243565b60405180910390fd5b600073ffffffffffffffffffffffffffffffffffffffff168273ffffffffffffffffffffffffffffffffffffffff16036107a5576040517f08c379a000000000000000000000000000000000000000000000000000000000815260040161079c906112d5565b60405180910390fd5b80600160008573ffffffffffffffffffffffffffffffffffffffff1673ffffffffffffffffffffffffffffffffffffffff16815260200190815260200160002060008473ffffffffffffffffffffffffffffffffffffffff1673ffffffffffffffffffffffffffffffffffffffff168152602001908152602001600020819055508173ffffffffffffffffffffffffffffffffffffffff168373ffffffffffffffffffffffffffffffffffffffff167f8c5be1e5ebec7d5bd14f71427d1e84f3dd0314c0f7b2291e5b200ac8c7c3b925836040516108839190610ed4565b60405180910390a3505050565b600061089c8484610638565b90507fffffffffffffffffffffffffffffffffffffffffffffffffffffffffffffffff81146109165781811015610908576040517f08c379a00000000000000000000000000000000000000000000000000000000081526004016108ff90611341565b60405180910390fd5b61091584848484036106c7565b5b50505050565b600073ffffffffffffffffffffffffffffffffffffffff168373ffffffffffffffffffffffffffffffffffffffff160361098b576040517f08c379a0000000000000000000000000000000000000000000000000000000008152600401610982906113d3565b60405180910390fd5b600073ffffffffffffffffffffffffffffffffffffffff168273ffffffffffffffffffffffffffffffffffffffff16036109fa576040517f08c379a00000000000000000000000000000000000000000000000000000000081526004016109f190611465565b60405180910390fd5b610a05838383610cfa565b60008060008573ffffffffffffffffffffffffffffffffffffffff1673ffffffffffffffffffffffffffffffffffffffff16815260200190815260200160002054905081811015610a8b576040517f08c379a0000000000000000000000000000000000000000000000000000000008152600401610a82906114f7565b60405180910390fd5b8181036000808673ffffffffffffffffffffffffffffffffffffffff1673ffffffffffffffffffffffffffffffffffffffff16815260200190815260200160002081905550816000808573ffffffffffffffffffffffffffffffffffffffff1673ffffffffffffffffffffffffffffffffffffffff1681526020019081526020016000206000828254610b1e919061109f565b925050819055508273ffffffffffffffffffffffffffffffffffffffff168473ffffffffffffffffffffffffffffffffffffffff167fddf252ad1be2c89b69c2b068fc378daa952ba7f163c4a11628f55a4df523b3ef84604051610b829190610ed4565b60405180910390a3610b95848484610cff565b50505050565b600073ffffffffffffffffffffffffffffffffffffffff168273ffffffffffffffffffffffffffffffffffffffff1603610c0a576040517f08c379a0000000000000000000000000000000000000000000000000000000008152600401610c0190611563565b60405180910390fd5b610c1660008383610cfa565b8060026000828254610c28919061109f565b92505081905550806000808473ffffffffffffffffffffffffffffffffffffffff1673ffffffffffffffffffffffffffffffffffffffff1681526020019081526020016000206000828254610c7d919061109f565b925050819055508173ffffffffffffffffffffffffffffffffffffffff16600073ffffffffffffffffffffffffffffffffffffffff167fddf252ad1be2c89b69c2b068fc378daa952ba7f163c4a11628f55a4df523b3ef83604051610ce29190610ed4565b60405180910390a3610cf660008383610cff565b5050565b505050565b505050565b600081519050919050565b600082825260208201905092915050565b60005b83811015610d3e578082015181840152602081019050610d23565b60008484015250505050565b6000601f19601f8301169050919050565b6000610d6682610d04565b610d708185610d0f565b9350610d80818560208601610d20565b610d8981610d4a565b840191505092915050565b60006020820190508181036000830152610dae8184610d5b565b905092915050565b600080fd5b600073ffffffffffffffffffffffffffffffffffffffff82169050919050565b6000610de682610dbb565b9050919050565b610df681610ddb565b8114610e0157600080fd5b50565b600081359050610e1381610ded565b92915050565b6000819050919050565b610e2c81610e19565b8114610e3757600080fd5b50565b600081359050610e4981610e23565b92915050565b60008060408385031215610e6657610e65610db6565b5b6000610e7485828601610e04565b9250506020610e8585828601610e3a565b9150509250929050565b60008115159050919050565b610ea481610e8f565b82525050565b6000602082019050610ebf6000830184610e9b565b92915050565b610ece81610e19565b82525050565b6000602082019050610ee96000830184610ec5565b92915050565b600080600060608486031215610f0857610f07610db6565b5b6000610f1686828701610e04565b9350506020610f2786828701610e04565b9250506040610f3886828701610e3a565b9150509250925092565b600060ff82169050919050565b610f5881610f42565b82525050565b6000602082019050610f736000830184610f4f565b92915050565b600060208284031215610f8f57610f8e610db6565b5b6000610f9d84828501610e04565b91505092915050565b610faf81610ddb565b82525050565b6000602082019050610fca6000830184610fa6565b92915050565b60008060408385031215610fe757610fe6610db6565b5b6000610ff585828601610e04565b925050602061100685828601610e04565b9150509250929050565b7f4e487b7100000000000000000000000000000000000000000000000000000000600052602260045260246000fd5b6000600282049050600182168061105757607f821691505b60208210810361106a57611069611010565b5b50919050565b7f4e487b7100000000000000000000000000000000000000000000000000000000600052601160045260246000fd5b60006110aa82610e19565b91506110b583610e19565b92508282019050808211156110cd576110cc611070565b5b92915050565b7f49424c3a2063616c6c6572206973206e6f742049424c20636f6e74726163742e600082015250565b6000611109602083610d0f565b9150611114826110d3565b602082019050919050565b60006020820190508181036000830152611138816110fc565b9050919050565b7f45524332303a2064656372656173656420616c6c6f77616e63652062656c6f7760008201527f207a65726f000000000000000000000000000000000000000000000000000000602082015250565b600061119b602583610d0f565b91506111a68261113f565b604082019050919050565b600060208201905081810360008301526111ca8161118e565b9050919050565b7f45524332303a20617070726f76652066726f6d20746865207a65726f2061646460008201527f7265737300000000000000000000000000000000000000000000000000000000602082015250565b600061122d602483610d0f565b9150611238826111d1565b604082019050919050565b6000602082019050818103600083015261125c81611220565b9050919050565b7f45524332303a20617070726f766520746f20746865207a65726f20616464726560008201527f7373000000000000000000000000000000000000000000000000000000000000602082015250565b60006112bf602283610d0f565b91506112ca82611263565b604082019050919050565b600060208201905081810360008301526112ee816112b2565b9050919050565b7f45524332303a20696e73756666696369656e7420616c6c6f77616e6365000000600082015250565b600061132b601d83610d0f565b9150611336826112f5565b602082019050919050565b6000602082019050818103600083015261135a8161131e565b9050919050565b7f45524332303a207472616e736665722066726f6d20746865207a65726f20616460008201527f6472657373000000000000000000000000000000000000000000000000000000602082015250565b60006113bd602583610d0f565b91506113c882611361565b604082019050919050565b600060208201905081810360008301526113ec816113b0565b9050919050565b7f45524332303a207472616e7366657220746f20746865207a65726f206164647260008201527f6573730000000000000000000000000000000000000000000000000000000000602082015250565b600061144f602383610d0f565b915061145a826113f3565b604082019050919050565b6000602082019050818103600083015261147e81611442565b9050919050565b7f45524332303a207472616e7366657220616d6f756e742065786365656473206260008201527f616c616e63650000000000000000000000000000000000000000000000000000602082015250565b60006114e1602683610d0f565b91506114ec82611485565b604082019050919050565b60006020820190508181036000830152611510816114d4565b9050919050565b7f45524332303a206d696e7420746f20746865207a65726f206164647265737300600082015250565b600061154d601f83610d0f565b915061155882611517565b602082019050919050565b6000602082019050818103600083015261157c81611540565b905091905056fea26469706673582212200ed117aac33bdd2e8be5c75a08bf02d12c29b3fc242330a7fc8cf193eebe8f7b64736f6c63430008120033",
  "linkReferences": {},
  "deployedLinkReferences": {}
}