{
  "_format": "hh-sol-artifact-1",
  "contractName": "IBL",
  "sourceName": "contracts/IBL.sol",
  "abi": [
    {
      "inputs": [
        {
          "internalType": "address",
          "name": "_devAddress",
          "type": "address"
        }
      ],
      "stateMutability": "nonpayable",
      "type": "constructor"
    },
    {
      "anonymous": false,
      "inputs": [
        {
          "indexed": true,
          "internalType": "uint256",
          "name": "cycle",
          "type": "uint256"
        },
        {
          "indexed": true,
          "internalType": "address",
          "name": "account",
          "type": "address"
        },
        {
          "indexed": false,
          "internalType": "uint256",
          "name": "fees",
          "type": "uint256"
        }
      ],
      "name": "FeesClaimed",
      "type": "event"
    },
    {
      "anonymous": false,
      "inputs": [
        {
          "indexed": true,
          "internalType": "address",
          "name": "previousOwner",
          "type": "address"
        },
        {
          "indexed": true,
          "internalType": "address",
          "name": "newOwner",
          "type": "address"
        }
      ],
      "name": "OwnershipTransferred",
      "type": "event"
    },
    {
      "inputs": [],
      "name": "IBL_TEAM_FEE",
      "outputs": [
        {
          "internalType": "uint256",
          "name": "",
          "type": "uint256"
        }
      ],
      "stateMutability": "view",
      "type": "function"
    },
    {
      "inputs": [],
      "name": "POOL_FEE",
      "outputs": [
        {
          "internalType": "uint256",
          "name": "",
          "type": "uint256"
        }
      ],
      "stateMutability": "view",
      "type": "function"
    },
    {
      "inputs": [],
      "name": "SCALING_FACTOR",
      "outputs": [
        {
          "internalType": "uint256",
          "name": "",
          "type": "uint256"
        }
      ],
      "stateMutability": "view",
      "type": "function"
    },
    {
      "inputs": [
        {
          "internalType": "address",
          "name": "",
          "type": "address"
        }
      ],
      "name": "accAccruedFees",
      "outputs": [
        {
          "internalType": "uint256",
          "name": "",
          "type": "uint256"
        }
      ],
      "stateMutability": "view",
      "type": "function"
    },
    {
      "inputs": [
        {
          "internalType": "address",
          "name": "",
          "type": "address"
        }
      ],
      "name": "accFirstStake",
      "outputs": [
        {
          "internalType": "uint256",
          "name": "",
          "type": "uint256"
        }
      ],
      "stateMutability": "view",
      "type": "function"
    },
    {
      "inputs": [
        {
          "internalType": "address",
          "name": "",
          "type": "address"
        }
      ],
      "name": "accRewards",
      "outputs": [
        {
          "internalType": "uint256",
          "name": "",
          "type": "uint256"
        }
      ],
      "stateMutability": "view",
      "type": "function"
    },
    {
      "inputs": [
        {
          "internalType": "address",
          "name": "",
          "type": "address"
        }
      ],
      "name": "accSecondStake",
      "outputs": [
        {
          "internalType": "uint256",
          "name": "",
          "type": "uint256"
        }
      ],
      "stateMutability": "view",
      "type": "function"
    },
    {
      "inputs": [
        {
          "internalType": "address",
          "name": "",
          "type": "address"
        },
        {
          "internalType": "uint256",
          "name": "",
          "type": "uint256"
        }
      ],
      "name": "accStakeCycle",
      "outputs": [
        {
          "internalType": "uint256",
          "name": "",
          "type": "uint256"
        }
      ],
      "stateMutability": "view",
      "type": "function"
    },
    {
      "inputs": [
        {
          "internalType": "address",
          "name": "",
          "type": "address"
        }
      ],
      "name": "accWithdrawableStake",
      "outputs": [
        {
          "internalType": "uint256",
          "name": "",
          "type": "uint256"
        }
      ],
      "stateMutability": "view",
      "type": "function"
    },
    {
      "inputs": [],
      "name": "accruedFees",
      "outputs": [
        {
          "internalType": "uint256",
          "name": "",
          "type": "uint256"
        }
      ],
      "stateMutability": "view",
      "type": "function"
    },
    {
      "inputs": [
        {
          "components": [
            {
              "internalType": "string",
              "name": "id",
              "type": "string"
            },
            {
              "internalType": "uint256",
              "name": "runPrice",
              "type": "uint256"
            },
            {
              "internalType": "uint256",
              "name": "downloadPrice",
              "type": "uint256"
            }
          ],
          "internalType": "struct IBL.Component[]",
          "name": "components",
          "type": "tuple[]"
        }
      ],
      "name": "addComponent",
      "outputs": [],
      "stateMutability": "nonpayable",
      "type": "function"
    },
    {
      "inputs": [
        {
          "internalType": "uint256",
          "name": "",
          "type": "uint256"
        }
      ],
      "name": "alreadyUpdateCycleData",
      "outputs": [
        {
          "internalType": "bool",
          "name": "",
          "type": "bool"
        }
      ],
      "stateMutability": "view",
      "type": "function"
    },
    {
      "inputs": [],
      "name": "appInteraction",
      "outputs": [],
      "stateMutability": "nonpayable",
      "type": "function"
    },
    {
      "inputs": [
        {
          "internalType": "address",
          "name": "",
          "type": "address"
        }
      ],
      "name": "builderReward",
      "outputs": [
        {
          "internalType": "uint256",
          "name": "",
          "type": "uint256"
        }
      ],
      "stateMutability": "view",
      "type": "function"
    },
    {
      "inputs": [],
      "name": "claimFees",
      "outputs": [],
      "stateMutability": "nonpayable",
      "type": "function"
    },
    {
      "inputs": [],
      "name": "claimNativeFeeAcc",
      "outputs": [],
      "stateMutability": "nonpayable",
      "type": "function"
    },
    {
      "inputs": [],
      "name": "currentCycle",
      "outputs": [
        {
          "internalType": "uint256",
          "name": "",
          "type": "uint256"
        }
      ],
      "stateMutability": "view",
      "type": "function"
    },
    {
      "inputs": [],
      "name": "currentStartedCycle",
      "outputs": [
        {
          "internalType": "uint256",
          "name": "",
          "type": "uint256"
        }
      ],
      "stateMutability": "view",
      "type": "function"
    },
    {
      "inputs": [
        {
          "internalType": "uint256",
          "name": "",
          "type": "uint256"
        }
      ],
      "name": "cycleAccruedFees",
      "outputs": [
        {
          "internalType": "uint256",
          "name": "",
          "type": "uint256"
        }
      ],
      "stateMutability": "view",
      "type": "function"
    },
    {
      "inputs": [
        {
          "internalType": "uint256",
          "name": "",
          "type": "uint256"
        }
      ],
      "name": "cycleFeesPerStakeSummed",
      "outputs": [
        {
          "internalType": "uint256",
          "name": "",
          "type": "uint256"
        }
      ],
      "stateMutability": "view",
      "type": "function"
    },
    {
      "inputs": [],
      "name": "devAddress",
      "outputs": [
        {
          "internalType": "address",
          "name": "",
          "type": "address"
        }
      ],
      "stateMutability": "view",
      "type": "function"
    },
    {
      "inputs": [
        {
          "internalType": "string",
          "name": "",
          "type": "string"
        }
      ],
      "name": "downloadPrice",
      "outputs": [
        {
          "internalType": "uint256",
          "name": "",
          "type": "uint256"
        }
      ],
      "stateMutability": "view",
      "type": "function"
    },
    {
      "inputs": [
        {
          "internalType": "string[]",
          "name": "componentsIds",
          "type": "string[]"
        }
      ],
      "name": "downlodApplication",
      "outputs": [],
      "stateMutability": "payable",
      "type": "function"
    },
    {
      "inputs": [],
      "name": "getCurrentCycle",
      "outputs": [
        {
          "internalType": "uint256",
          "name": "",
          "type": "uint256"
        }
      ],
      "stateMutability": "view",
      "type": "function"
    },
    {
      "inputs": [
        {
          "internalType": "address",
          "name": "user",
          "type": "address"
        },
        {
          "internalType": "uint256",
          "name": "arrayLength",
          "type": "uint256"
        }
      ],
      "name": "getUserComponent",
      "outputs": [
        {
          "components": [
            {
              "internalType": "string",
              "name": "id",
              "type": "string"
            },
            {
              "internalType": "uint256",
              "name": "runPrice",
              "type": "uint256"
            },
            {
              "internalType": "uint256",
              "name": "downloadPrice",
              "type": "uint256"
            }
          ],
          "internalType": "struct IBL.Component[]",
          "name": "",
          "type": "tuple[]"
        }
      ],
      "stateMutability": "view",
      "type": "function"
    },
    {
      "inputs": [
        {
          "internalType": "address",
          "name": "user",
          "type": "address"
        }
      ],
      "name": "getUserComponentNumber",
      "outputs": [
        {
          "internalType": "uint256",
          "name": "",
          "type": "uint256"
        }
      ],
      "stateMutability": "view",
      "type": "function"
    },
    {
      "inputs": [],
      "name": "i_initialTimestamp",
      "outputs": [
        {
          "internalType": "uint256",
          "name": "",
          "type": "uint256"
        }
      ],
      "stateMutability": "view",
      "type": "function"
    },
    {
      "inputs": [],
      "name": "i_periodDuration",
      "outputs": [
        {
          "internalType": "uint256",
          "name": "",
          "type": "uint256"
        }
      ],
      "stateMutability": "view",
      "type": "function"
    },
    {
      "inputs": [],
      "name": "ibl",
      "outputs": [
        {
          "internalType": "contract IBLERC20",
          "name": "",
          "type": "address"
        }
      ],
      "stateMutability": "view",
      "type": "function"
    },
    {
      "inputs": [
        {
          "internalType": "address",
          "name": "",
          "type": "address"
        }
      ],
      "name": "lastFeeUpdateCycle",
      "outputs": [
        {
          "internalType": "uint256",
          "name": "",
          "type": "uint256"
        }
      ],
      "stateMutability": "view",
      "type": "function"
    },
    {
      "inputs": [],
      "name": "lastStartedCycle",
      "outputs": [
        {
          "internalType": "uint256",
          "name": "",
          "type": "uint256"
        }
      ],
      "stateMutability": "view",
      "type": "function"
    },
    {
      "inputs": [],
      "name": "owner",
      "outputs": [
        {
          "internalType": "address",
          "name": "",
          "type": "address"
        }
      ],
      "stateMutability": "view",
      "type": "function"
    },
    {
      "inputs": [
        {
          "internalType": "string",
          "name": "",
          "type": "string"
        }
      ],
      "name": "ownerComponent",
      "outputs": [
        {
          "internalType": "address",
          "name": "",
          "type": "address"
        }
      ],
      "stateMutability": "view",
      "type": "function"
    },
    {
      "inputs": [
        {
          "internalType": "address",
          "name": "",
          "type": "address"
        }
      ],
      "name": "ownerNativeFeeAcc",
      "outputs": [
        {
          "internalType": "uint256",
          "name": "",
          "type": "uint256"
        }
      ],
      "stateMutability": "view",
      "type": "function"
    },
    {
      "inputs": [],
      "name": "pendingFees",
      "outputs": [
        {
          "internalType": "uint256",
          "name": "",
          "type": "uint256"
        }
      ],
      "stateMutability": "view",
      "type": "function"
    },
    {
      "inputs": [],
      "name": "pendingStake",
      "outputs": [
        {
          "internalType": "uint256",
          "name": "",
          "type": "uint256"
        }
      ],
      "stateMutability": "view",
      "type": "function"
    },
    {
      "inputs": [],
      "name": "pendingStakeWithdrawal",
      "outputs": [
        {
          "internalType": "uint256",
          "name": "",
          "type": "uint256"
        }
      ],
      "stateMutability": "view",
      "type": "function"
    },
    {
      "inputs": [],
      "name": "previousStartedCycle",
      "outputs": [
        {
          "internalType": "uint256",
          "name": "",
          "type": "uint256"
        }
      ],
      "stateMutability": "view",
      "type": "function"
    },
    {
      "inputs": [],
      "name": "renounceOwnership",
      "outputs": [],
      "stateMutability": "nonpayable",
      "type": "function"
    },
    {
      "inputs": [
        {
          "internalType": "uint256",
          "name": "",
          "type": "uint256"
        }
      ],
      "name": "rewardPerCycle",
      "outputs": [
        {
          "internalType": "uint256",
          "name": "",
          "type": "uint256"
        }
      ],
      "stateMutability": "view",
      "type": "function"
    },
    {
      "inputs": [
        {
          "internalType": "string[]",
          "name": "componentsIds",
          "type": "string[]"
        }
      ],
      "name": "runApplication",
      "outputs": [],
      "stateMutability": "payable",
      "type": "function"
    },
    {
      "inputs": [
        {
          "internalType": "string",
          "name": "",
          "type": "string"
        }
      ],
      "name": "runPrice",
      "outputs": [
        {
          "internalType": "uint256",
          "name": "",
          "type": "uint256"
        }
      ],
      "stateMutability": "view",
      "type": "function"
    },
    {
      "inputs": [
        {
          "internalType": "address",
          "name": "_devAddress",
          "type": "address"
        }
      ],
      "name": "setDevAddress",
      "outputs": [],
      "stateMutability": "nonpayable",
      "type": "function"
    },
    {
      "inputs": [
        {
          "components": [
            {
              "internalType": "string",
              "name": "id",
              "type": "string"
            },
            {
              "internalType": "uint256",
              "name": "runPrice",
              "type": "uint256"
            },
            {
              "internalType": "uint256",
              "name": "downloadPrice",
              "type": "uint256"
            }
          ],
          "internalType": "struct IBL.Component",
          "name": "newComponent",
          "type": "tuple"
        }
      ],
      "name": "setNewPrice",
      "outputs": [],
      "stateMutability": "nonpayable",
      "type": "function"
    },
    {
      "inputs": [
        {
          "internalType": "uint256",
          "name": "",
          "type": "uint256"
        }
      ],
      "name": "summedCycleStakes",
      "outputs": [
        {
          "internalType": "uint256",
          "name": "",
          "type": "uint256"
        }
      ],
      "stateMutability": "view",
      "type": "function"
    },
    {
      "inputs": [
        {
          "internalType": "address",
          "name": "newOwner",
          "type": "address"
        }
      ],
      "name": "transferOwnership",
      "outputs": [],
      "stateMutability": "nonpayable",
      "type": "function"
    },
    {
      "inputs": [
        {
          "internalType": "address",
          "name": "",
          "type": "address"
        },
        {
          "internalType": "uint256",
          "name": "",
          "type": "uint256"
        }
      ],
      "name": "userComponents",
      "outputs": [
        {
          "internalType": "string",
          "name": "id",
          "type": "string"
        },
        {
          "internalType": "uint256",
          "name": "runPrice",
          "type": "uint256"
        },
        {
          "internalType": "uint256",
          "name": "downloadPrice",
          "type": "uint256"
        }
      ],
      "stateMutability": "view",
      "type": "function"
    }
  ],
  "bytecode": "0x60c06040526101f460165561251c6017553480156200001d57600080fd5b506040516200550f3803806200550f833981810160405281019062000043919062000275565b62000063620000576200013160201b60201c565b6200013960201b60201c565b600180819055506040516200007890620001fd565b604051809103906000f08015801562000095573d6000803e3d6000fd5b50600260006101000a81548173ffffffffffffffffffffffffffffffffffffffff021916908373ffffffffffffffffffffffffffffffffffffffff16021790555080601860006101000a81548173ffffffffffffffffffffffffffffffffffffffff021916908373ffffffffffffffffffffffffffffffffffffffff16021790555042608081815250506201518060a0818152505050620002a7565b600033905090565b60008060009054906101000a900473ffffffffffffffffffffffffffffffffffffffff169050816000806101000a81548173ffffffffffffffffffffffffffffffffffffffff021916908373ffffffffffffffffffffffffffffffffffffffff1602179055508173ffffffffffffffffffffffffffffffffffffffff168173ffffffffffffffffffffffffffffffffffffffff167f8be0079c531659141344cd1fd0a4f28419497f9722a3daafe3b4186f6b6457e060405160405180910390a35050565b611a098062003b0683390190565b600080fd5b600073ffffffffffffffffffffffffffffffffffffffff82169050919050565b60006200023d8262000210565b9050919050565b6200024f8162000230565b81146200025b57600080fd5b50565b6000815190506200026f8162000244565b92915050565b6000602082840312156200028e576200028d6200020b565b5b60006200029e848285016200025e565b91505092915050565b60805160a05161382b620002db60003960008181610e6d015261177e01526000818161156c015261179f015261382b6000f3fe6080604052600436106102885760003560e01c8063adc0f6861161015a578063d359955d116100c1578063e60c90c41161007a578063e60c90c414610a30578063ed725e8314610a6d578063ef4cadc514610aaa578063f1b371e214610ad5578063f2fde38b14610b00578063f7185e8614610b2957610288565b8063d359955d1461092d578063d4432e4e14610944578063d8043d8f1461096f578063db0a0c8d1461098b578063db80a28c146109c8578063dd1b9c4a14610a0557610288565b8063bebc9dfc11610113578063bebc9dfc1461081f578063bee7708e1461085c578063c4235ae914610899578063c499d829146108d6578063d0d41fe1146108ed578063d294f0931461091657610288565b8063adc0f686146106d5578063af2f850e14610712578063af501bd41461074f578063bab2f5521461078c578063bc713290146107b7578063be26ed7f146107f457610288565b80635f5080b4116101fe5780638bd95563116101b75780638bd95563146105895780638da5cb5b146105b4578063a0f49556146105df578063a2727db31461061e578063a707140b1461065b578063aabbb1bd1461069857610288565b80635f5080b4146104ac578063682c2058146104d757806368f05769146105025780636adb0eb61461052d578063715018a6146105495780638459872d1461056057610288565b80631f75f3ec116102505780631f75f3ec1461039a578063224438d1146103c35780632f7cdab0146103ee5780633ad10ef614610419578063436091c1146104445780634ed9331b1461046f57610288565b80630ece21541461028d57806312d47439146102ca578063168b0a5c146102f55780631aad4a16146103205780631ed6380f1461035d575b600080fd5b34801561029957600080fd5b506102b460048036038101906102af9190612659565b610b66565b6040516102c19190612695565b60405180910390f35b3480156102d657600080fd5b506102df610b7e565b6040516102ec9190612695565b60405180910390f35b34801561030157600080fd5b5061030a610b84565b604051610317919061272f565b60405180910390f35b34801561032c57600080fd5b5061034760048036038101906103429190612890565b610baa565b6040516103549190612695565b60405180910390f35b34801561036957600080fd5b50610384600480360381019061037f9190612917565b610bd8565b6040516103919190612695565b60405180910390f35b3480156103a657600080fd5b506103c160048036038101906103bc9190612ab4565b610bf0565b005b3480156103cf57600080fd5b506103d8610e65565b6040516103e59190612695565b60405180910390f35b3480156103fa57600080fd5b50610403610e6b565b6040516104109190612695565b60405180910390f35b34801561042557600080fd5b5061042e610e8f565b60405161043b9190612b0c565b60405180910390f35b34801561045057600080fd5b50610459610eb5565b6040516104669190612695565b60405180910390f35b34801561047b57600080fd5b5061049660048036038101906104919190612917565b610ebb565b6040516104a39190612695565b60405180910390f35b3480156104b857600080fd5b506104c1610f07565b6040516104ce9190612695565b60405180910390f35b3480156104e357600080fd5b506104ec610f0d565b6040516104f99190612695565b60405180910390f35b34801561050e57600080fd5b50610517610f13565b6040516105249190612695565b60405180910390f35b61054760048036038101906105429190612c08565b610f19565b005b34801561055557600080fd5b5061055e611264565b005b34801561056c57600080fd5b5061058760048036038101906105829190612c51565b611278565b005b34801561059557600080fd5b5061059e61156a565b6040516105ab9190612695565b60405180910390f35b3480156105c057600080fd5b506105c961158e565b6040516105d69190612b0c565b60405180910390f35b3480156105eb57600080fd5b5061060660048036038101906106019190612c9a565b6115b7565b60405161061593929190612d59565b60405180910390f35b34801561062a57600080fd5b5061064560048036038101906106409190612917565b611686565b6040516106529190612695565b60405180910390f35b34801561066757600080fd5b50610682600480360381019061067d9190612917565b61169e565b60405161068f9190612695565b60405180910390f35b3480156106a457600080fd5b506106bf60048036038101906106ba9190612c9a565b6116b6565b6040516106cc9190612695565b60405180910390f35b3480156106e157600080fd5b506106fc60048036038101906106f79190612659565b6116db565b6040516107099190612695565b60405180910390f35b34801561071e57600080fd5b5061073960048036038101906107349190612659565b6116f3565b6040516107469190612db2565b60405180910390f35b34801561075b57600080fd5b5061077660048036038101906107719190612890565b611713565b6040516107839190612b0c565b60405180910390f35b34801561079857600080fd5b506107a161175c565b6040516107ae9190612695565b60405180910390f35b3480156107c357600080fd5b506107de60048036038101906107d99190612917565b611762565b6040516107eb9190612695565b60405180910390f35b34801561080057600080fd5b5061080961177a565b6040516108169190612695565b60405180910390f35b34801561082b57600080fd5b5061084660048036038101906108419190612659565b6117d8565b6040516108539190612695565b60405180910390f35b34801561086857600080fd5b50610883600480360381019061087e9190612917565b6117f0565b6040516108909190612695565b60405180910390f35b3480156108a557600080fd5b506108c060048036038101906108bb9190612659565b611808565b6040516108cd9190612695565b60405180910390f35b3480156108e257600080fd5b506108eb611820565b005b3480156108f957600080fd5b50610914600480360381019061090f9190612917565b611909565b005b34801561092257600080fd5b5061092b611965565b005b34801561093957600080fd5b50610942611aac565b005b34801561095057600080fd5b50610959611abe565b6040516109669190612695565b60405180910390f35b61098960048036038101906109849190612c08565b611ac4565b005b34801561099757600080fd5b506109b260048036038101906109ad9190612c9a565b611e0f565b6040516109bf9190612f38565b60405180910390f35b3480156109d457600080fd5b506109ef60048036038101906109ea9190612917565b611fc6565b6040516109fc9190612695565b60405180910390f35b348015610a1157600080fd5b50610a1a611fde565b604051610a279190612695565b60405180910390f35b348015610a3c57600080fd5b50610a576004803603810190610a529190612917565b611fe4565b604051610a649190612695565b60405180910390f35b348015610a7957600080fd5b50610a946004803603810190610a8f9190612917565b611ffc565b604051610aa19190612695565b60405180910390f35b348015610ab657600080fd5b50610abf612014565b604051610acc9190612695565b60405180910390f35b348015610ae157600080fd5b50610aea612029565b604051610af79190612695565b60405180910390f35b348015610b0c57600080fd5b50610b276004803603810190610b229190612917565b61202f565b005b348015610b3557600080fd5b50610b506004803603810190610b4b9190612890565b6120b2565b604051610b5d9190612695565b60405180910390f35b600d6020528060005260406000206000915090505481565b60165481565b600260009054906101000a900473ffffffffffffffffffffffffffffffffffffffff1681565b6004818051602081018201805184825260208301602085012081835280955050505050506000915090505481565b60106020528060005260406000206000915090505481565b610bf86120e0565b60005b8151811015610e5957600360003373ffffffffffffffffffffffffffffffffffffffff1673ffffffffffffffffffffffffffffffffffffffff1681526020019081526020016000206040518060600160405280848481518110610c6157610c60612f5a565b5b6020026020010151600001518152602001848481518110610c8557610c84612f5a565b5b6020026020010151602001518152602001848481518110610ca957610ca8612f5a565b5b60200260200101516040015181525090806001815401808255809150506001900390600052602060002090600302016000909190919091506000820151816000019081610cf6919061318b565b5060208201518160010155604082015181600201555050818181518110610d2057610d1f612f5a565b5b6020026020010151602001516004838381518110610d4157610d40612f5a565b5b602002602001015160000151604051610d5a9190613299565b908152602001604051809103902081905550818181518110610d7f57610d7e612f5a565b5b6020026020010151604001516005838381518110610da057610d9f612f5a565b5b602002602001015160000151604051610db99190613299565b908152602001604051809103902081905550336006838381518110610de157610de0612f5a565b5b602002602001015160000151604051610dfa9190613299565b908152602001604051809103902060006101000a81548173ffffffffffffffffffffffffffffffffffffffff021916908373ffffffffffffffffffffffffffffffffffffffff1602179055508080610e51906132df565b915050610bfb565b50610e6261212f565b50565b601e5481565b7f000000000000000000000000000000000000000000000000000000000000000081565b601860009054906101000a900473ffffffffffffffffffffffffffffffffffffffff1681565b601b5481565b6000600360008373ffffffffffffffffffffffffffffffffffffffff1673ffffffffffffffffffffffffffffffffffffffff168152602001908152602001600020805490509050919050565b601c5481565b60155481565b601f5481565b610f216120e0565b610f29612138565b610f31612159565b610f396122c5565b610f42336123f0565b6000805b825181101561108e576004838281518110610f6457610f63612f5a565b5b6020026020010151604051610f799190613299565b90815260200160405180910390205482610f939190613327565b91506004838281518110610faa57610fa9612f5a565b5b6020026020010151604051610fbf9190613299565b908152602001604051809103902054600860006006868581518110610fe757610fe6612f5a565b5b6020026020010151604051610ffc9190613299565b908152602001604051809103902060009054906101000a900473ffffffffffffffffffffffffffffffffffffffff1673ffffffffffffffffffffffffffffffffffffffff1673ffffffffffffffffffffffffffffffffffffffff16815260200190815260200160002060008282546110749190613327565b925050819055508080611086906132df565b915050610f46565b5060028161109c919061335b565b34146110dd576040517f08c379a00000000000000000000000000000000000000000000000000000000081526004016110d4906133e9565b60405180910390fd5b611123601860009054906101000a900473ffffffffffffffffffffffffffffffffffffffff1661271060165484611114919061335b565b61111e9190613438565b6123f3565b61271060175482611134919061335b565b61113e9190613438565b600d6000601a54815260200190815260200160002060008282546111629190613327565b92505081905550600260009054906101000a900473ffffffffffffffffffffffffffffffffffffffff1673ffffffffffffffffffffffffffffffffffffffff16639a49090e3369021e19e0c9bab24000006040518363ffffffff1660e01b81526004016111d09291906134a4565b600060405180830381600087803b1580156111ea57600080fd5b505af11580156111fe573d6000803e3d6000fd5b5050505069021e19e0c9bab240000060146000601a5481526020019081526020016000205461122d9190613327565b60146000601a54815260200190815260200160002060008282546112519190613327565b925050819055505061126161212f565b50565b61126c6124a4565b6112766000612522565b565b6112806120e0565b6000600360003373ffffffffffffffffffffffffffffffffffffffff1673ffffffffffffffffffffffffffffffffffffffff168152602001908152602001600020805480602002602001604051908101604052809291908181526020016000905b828210156113b9578382906000526020600020906003020160405180606001604052908160008201805461131490612fb8565b80601f016020809104026020016040519081016040528092919081815260200182805461134090612fb8565b801561138d5780601f106113625761010080835404028352916020019161138d565b820191906000526020600020905b81548152906001019060200180831161137057829003601f168201915b5050505050815260200160018201548152602001600282015481525050815260200190600101906112e1565b50505050905060005b815181101561155d5782600001516040516020016113e09190613299565b6040516020818303038152906040528051906020012082828151811061140957611408612f5a565b5b6020026020010151600001516040516020016114259190613299565b604051602081830303815290604052805190602001200361154a57604051806060016040528084600001518152602001846020015181526020018460400151815250600360003373ffffffffffffffffffffffffffffffffffffffff1673ffffffffffffffffffffffffffffffffffffffff16815260200190815260200160002082815481106114b8576114b7612f5a565b5b906000526020600020906003020160008201518160000190816114db919061318b565b50602082015181600101556040820151816002015590505082602001516004846000015160405161150c9190613299565b9081526020016040518091039020819055508260400151600584600001516040516115379190613299565b9081526020016040518091039020819055505b8080611555906132df565b9150506113c2565b505061156761212f565b50565b7f000000000000000000000000000000000000000000000000000000000000000081565b60008060009054906101000a900473ffffffffffffffffffffffffffffffffffffffff16905090565b600360205281600052604060002081815481106115d357600080fd5b9060005260206000209060030201600091509150508060000180546115f790612fb8565b80601f016020809104026020016040519081016040528092919081815260200182805461162390612fb8565b80156116705780601f1061164557610100808354040283529160200191611670565b820191906000526020600020905b81548152906001019060200180831161165357829003601f168201915b5050505050908060010154908060020154905083565b60076020528060005260406000206000915090505481565b600c6020528060005260406000206000915090505481565b600f602052816000526040600020602052806000526040600020600091509150505481565b60146020528060005260406000206000915090505481565b60096020528060005260406000206000915054906101000a900460ff1681565b6006818051602081018201805184825260208301602085012081835280955050505050506000915054906101000a900473ffffffffffffffffffffffffffffffffffffffff1681565b601a5481565b60136020528060005260406000206000915090505481565b60007f00000000000000000000000000000000000000000000000000000000000000007f0000000000000000000000000000000000000000000000000000000000000000426117c991906134cd565b6117d39190613438565b905090565b600e6020528060005260406000206000915090505481565b60086020528060005260406000206000915090505481565b600b6020528060005260406000206000915090505481565b6118286120e0565b6000600860003373ffffffffffffffffffffffffffffffffffffffff1673ffffffffffffffffffffffffffffffffffffffff168152602001908152602001600020549050600081116118af576040517f08c379a00000000000000000000000000000000000000000000000000000000081526004016118a69061354d565b60405180910390fd5b6000600860003373ffffffffffffffffffffffffffffffffffffffff1673ffffffffffffffffffffffffffffffffffffffff168152602001908152602001600020819055506118fe33826123f3565b5061190761212f565b565b6119116124a4565b6119196120e0565b80601860006101000a81548173ffffffffffffffffffffffffffffffffffffffff021916908373ffffffffffffffffffffffffffffffffffffffff16021790555061196261212f565b50565b61196d6120e0565b611975612138565b6000601360003373ffffffffffffffffffffffffffffffffffffffff1673ffffffffffffffffffffffffffffffffffffffff168152602001908152602001600020549050600081116119fc576040517f08c379a00000000000000000000000000000000000000000000000000000000081526004016119f3906135b9565b60405180910390fd5b6000601360003373ffffffffffffffffffffffffffffffffffffffff1673ffffffffffffffffffffffffffffffffffffffff16815260200190815260200160002081905550611a4b33826123f3565b3373ffffffffffffffffffffffffffffffffffffffff16611a6a61177a565b7f2227733fc4c8a9034cb58087dcf6995128b9c0233b038b03366aaf30c92b92d683604051611a999190612695565b60405180910390a350611aaa61212f565b565b611ab46120e0565b611abc61212f565b565b60195481565b611acc6120e0565b611ad4612138565b611adc612159565b611ae46122c5565b611aed336123f0565b6000805b8251811015611c39576005838281518110611b0f57611b0e612f5a565b5b6020026020010151604051611b249190613299565b90815260200160405180910390205482611b3e9190613327565b91506005838281518110611b5557611b54612f5a565b5b6020026020010151604051611b6a9190613299565b908152602001604051809103902054600860006006868581518110611b9257611b91612f5a565b5b6020026020010151604051611ba79190613299565b908152602001604051809103902060009054906101000a900473ffffffffffffffffffffffffffffffffffffffff1673ffffffffffffffffffffffffffffffffffffffff1673ffffffffffffffffffffffffffffffffffffffff1681526020019081526020016000206000828254611c1f9190613327565b925050819055508080611c31906132df565b915050611af1565b50600281611c47919061335b565b3414611c88576040517f08c379a0000000000000000000000000000000000000000000000000000000008152600401611c7f906133e9565b60405180910390fd5b611cce601860009054906101000a900473ffffffffffffffffffffffffffffffffffffffff1661271060165484611cbf919061335b565b611cc99190613438565b6123f3565b61271060175482611cdf919061335b565b611ce99190613438565b600d6000601a5481526020019081526020016000206000828254611d0d9190613327565b92505081905550600260009054906101000a900473ffffffffffffffffffffffffffffffffffffffff1673ffffffffffffffffffffffffffffffffffffffff16639a49090e3369021e19e0c9bab24000006040518363ffffffff1660e01b8152600401611d7b9291906134a4565b600060405180830381600087803b158015611d9557600080fd5b505af1158015611da9573d6000803e3d6000fd5b5050505069021e19e0c9bab240000060146000601a54815260200190815260200160002054611dd89190613327565b60146000601a5481526020019081526020016000206000828254611dfc9190613327565b9250508190555050611e0c61212f565b50565b606060008267ffffffffffffffff811115611e2d57611e2c612765565b5b604051908082528060200260200182016040528015611e6657816020015b611e536125ee565b815260200190600190039081611e4b5790505b50905060005b83811015611fbb576000600360008773ffffffffffffffffffffffffffffffffffffffff1673ffffffffffffffffffffffffffffffffffffffff1681526020019081526020016000208281548110611ec757611ec6612f5a565b5b9060005260206000209060030201604051806060016040529081600082018054611ef090612fb8565b80601f0160208091040260200160405190810160405280929190818152602001828054611f1c90612fb8565b8015611f695780601f10611f3e57610100808354040283529160200191611f69565b820191906000526020600020905b815481529060010190602001808311611f4c57829003601f168201915b5050505050815260200160018201548152602001600282015481525050905080838381518110611f9c57611f9b612f5a565b5b6020026020010181905250508080611fb3906132df565b915050611e6c565b508091505092915050565b60126020528060005260406000206000915090505481565b60175481565b60116020528060005260406000206000915090505481565b600a6020528060005260406000206000915090505481565b701d6329f1c35ca4bfabb9f561000000000081565b601d5481565b6120376124a4565b600073ffffffffffffffffffffffffffffffffffffffff168173ffffffffffffffffffffffffffffffffffffffff16036120a6576040517f08c379a000000000000000000000000000000000000000000000000000000000815260040161209d9061364b565b60405180910390fd5b6120af81612522565b50565b6005818051602081018201805184825260208301602085012081835280955050505050506000915090505481565b600260015403612125576040517f08c379a000000000000000000000000000000000000000000000000000000000815260040161211c906136b7565b60405180910390fd5b6002600181905550565b60018081905550565b600061214261177a565b9050601a548111156121565780601a819055505b50565b601d54601a5414612183576001601b546121739190613327565b601c81905550601d54601b819055505b601b54601a541180156121b757506000600e60006001601b546121a69190613327565b815260200190815260200160002054145b156122c357600080600b6000601b548152602001908152602001600020541461224857600b6000601b54815260200190815260200160002054701d6329f1c35ca4bfabb9f5610000000000601e54600d6000601b548152602001908152602001600020546122259190613327565b61222f919061335b565b6122399190613438565b90506000601e8190555061227b565b600d6000601b54815260200190815260200160002054601e600082825461226f9190613327565b92505081905550600090505b80600e6000601c5481526020019081526020016000205461229c9190613327565b600e60006001601b546122af9190613327565b815260200190815260200160002081905550505b565b6000151560096000601a54815260200190815260200160002060009054906101000a900460ff161515036123ee57600160096000601a54815260200190815260200160002060006101000a81548160ff021916908315150217905550601a54601d81905550600b6000601b54815260200190815260200160002054600b6000601d54815260200190815260200160002060008282546123649190613327565b925050819055506000601954146123ac57601954600b6000601d548152602001908152602001600020600082825461239c9190613327565b9250508190555060006019819055505b6000601f54146123ed57601f54600b6000601d54815260200190815260200160002060008282546123dd91906134cd565b925050819055506000601f819055505b5b565b50565b60008273ffffffffffffffffffffffffffffffffffffffff168260405161241990613708565b60006040518083038185875af1925050503d8060008114612456576040519150601f19603f3d011682016040523d82523d6000602084013e61245b565b606091505b505090508061249f576040517f08c379a000000000000000000000000000000000000000000000000000000000815260040161249690613769565b60405180910390fd5b505050565b6124ac6125e6565b73ffffffffffffffffffffffffffffffffffffffff166124ca61158e565b73ffffffffffffffffffffffffffffffffffffffff1614612520576040517f08c379a0000000000000000000000000000000000000000000000000000000008152600401612517906137d5565b60405180910390fd5b565b60008060009054906101000a900473ffffffffffffffffffffffffffffffffffffffff169050816000806101000a81548173ffffffffffffffffffffffffffffffffffffffff021916908373ffffffffffffffffffffffffffffffffffffffff1602179055508173ffffffffffffffffffffffffffffffffffffffff168173ffffffffffffffffffffffffffffffffffffffff167f8be0079c531659141344cd1fd0a4f28419497f9722a3daafe3b4186f6b6457e060405160405180910390a35050565b600033905090565b60405180606001604052806060815260200160008152602001600081525090565b6000604051905090565b600080fd5b600080fd5b6000819050919050565b61263681612623565b811461264157600080fd5b50565b6000813590506126538161262d565b92915050565b60006020828403121561266f5761266e612619565b5b600061267d84828501612644565b91505092915050565b61268f81612623565b82525050565b60006020820190506126aa6000830184612686565b92915050565b600073ffffffffffffffffffffffffffffffffffffffff82169050919050565b6000819050919050565b60006126f56126f06126eb846126b0565b6126d0565b6126b0565b9050919050565b6000612707826126da565b9050919050565b6000612719826126fc565b9050919050565b6127298161270e565b82525050565b60006020820190506127446000830184612720565b92915050565b600080fd5b600080fd5b6000601f19601f8301169050919050565b7f4e487b7100000000000000000000000000000000000000000000000000000000600052604160045260246000fd5b61279d82612754565b810181811067ffffffffffffffff821117156127bc576127bb612765565b5b80604052505050565b60006127cf61260f565b90506127db8282612794565b919050565b600067ffffffffffffffff8211156127fb576127fa612765565b5b61280482612754565b9050602081019050919050565b82818337600083830152505050565b600061283361282e846127e0565b6127c5565b90508281526020810184848401111561284f5761284e61274f565b5b61285a848285612811565b509392505050565b600082601f8301126128775761287661274a565b5b8135612887848260208601612820565b91505092915050565b6000602082840312156128a6576128a5612619565b5b600082013567ffffffffffffffff8111156128c4576128c361261e565b5b6128d084828501612862565b91505092915050565b60006128e4826126b0565b9050919050565b6128f4816128d9565b81146128ff57600080fd5b50565b600081359050612911816128eb565b92915050565b60006020828403121561292d5761292c612619565b5b600061293b84828501612902565b91505092915050565b600067ffffffffffffffff82111561295f5761295e612765565b5b602082029050602081019050919050565b600080fd5b600080fd5b600080fd5b60006060828403121561299557612994612975565b5b61299f60606127c5565b9050600082013567ffffffffffffffff8111156129bf576129be61297a565b5b6129cb84828501612862565b60008301525060206129df84828501612644565b60208301525060406129f384828501612644565b60408301525092915050565b6000612a12612a0d84612944565b6127c5565b90508083825260208201905060208402830185811115612a3557612a34612970565b5b835b81811015612a7c57803567ffffffffffffffff811115612a5a57612a5961274a565b5b808601612a67898261297f565b85526020850194505050602081019050612a37565b5050509392505050565b600082601f830112612a9b57612a9a61274a565b5b8135612aab8482602086016129ff565b91505092915050565b600060208284031215612aca57612ac9612619565b5b600082013567ffffffffffffffff811115612ae857612ae761261e565b5b612af484828501612a86565b91505092915050565b612b06816128d9565b82525050565b6000602082019050612b216000830184612afd565b92915050565b600067ffffffffffffffff821115612b4257612b41612765565b5b602082029050602081019050919050565b6000612b66612b6184612b27565b6127c5565b90508083825260208201905060208402830185811115612b8957612b88612970565b5b835b81811015612bd057803567ffffffffffffffff811115612bae57612bad61274a565b5b808601612bbb8982612862565b85526020850194505050602081019050612b8b565b5050509392505050565b600082601f830112612bef57612bee61274a565b5b8135612bff848260208601612b53565b91505092915050565b600060208284031215612c1e57612c1d612619565b5b600082013567ffffffffffffffff811115612c3c57612c3b61261e565b5b612c4884828501612bda565b91505092915050565b600060208284031215612c6757612c66612619565b5b600082013567ffffffffffffffff811115612c8557612c8461261e565b5b612c918482850161297f565b91505092915050565b60008060408385031215612cb157612cb0612619565b5b6000612cbf85828601612902565b9250506020612cd085828601612644565b9150509250929050565b600081519050919050565b600082825260208201905092915050565b60005b83811015612d14578082015181840152602081019050612cf9565b60008484015250505050565b6000612d2b82612cda565b612d358185612ce5565b9350612d45818560208601612cf6565b612d4e81612754565b840191505092915050565b60006060820190508181036000830152612d738186612d20565b9050612d826020830185612686565b612d8f6040830184612686565b949350505050565b60008115159050919050565b612dac81612d97565b82525050565b6000602082019050612dc76000830184612da3565b92915050565b600081519050919050565b600082825260208201905092915050565b6000819050602082019050919050565b600082825260208201905092915050565b6000612e1582612cda565b612e1f8185612df9565b9350612e2f818560208601612cf6565b612e3881612754565b840191505092915050565b612e4c81612623565b82525050565b60006060830160008301518482036000860152612e6f8282612e0a565b9150506020830151612e846020860182612e43565b506040830151612e976040860182612e43565b508091505092915050565b6000612eae8383612e52565b905092915050565b6000602082019050919050565b6000612ece82612dcd565b612ed88185612dd8565b935083602082028501612eea85612de9565b8060005b85811015612f265784840389528151612f078582612ea2565b9450612f1283612eb6565b925060208a01995050600181019050612eee565b50829750879550505050505092915050565b60006020820190508181036000830152612f528184612ec3565b905092915050565b7f4e487b7100000000000000000000000000000000000000000000000000000000600052603260045260246000fd5b7f4e487b7100000000000000000000000000000000000000000000000000000000600052602260045260246000fd5b60006002820490506001821680612fd057607f821691505b602082108103612fe357612fe2612f89565b5b50919050565b60008190508160005260206000209050919050565b60006020601f8301049050919050565b600082821b905092915050565b60006008830261304b7fffffffffffffffffffffffffffffffffffffffffffffffffffffffffffffffff8261300e565b613055868361300e565b95508019841693508086168417925050509392505050565b600061308861308361307e84612623565b6126d0565b612623565b9050919050565b6000819050919050565b6130a28361306d565b6130b66130ae8261308f565b84845461301b565b825550505050565b600090565b6130cb6130be565b6130d6818484613099565b505050565b5b818110156130fa576130ef6000826130c3565b6001810190506130dc565b5050565b601f82111561313f5761311081612fe9565b61311984612ffe565b81016020851015613128578190505b61313c61313485612ffe565b8301826130db565b50505b505050565b600082821c905092915050565b600061316260001984600802613144565b1980831691505092915050565b600061317b8383613151565b9150826002028217905092915050565b61319482612cda565b67ffffffffffffffff8111156131ad576131ac612765565b5b6131b78254612fb8565b6131c28282856130fe565b600060209050601f8311600181146131f557600084156131e3578287015190505b6131ed858261316f565b865550613255565b601f19841661320386612fe9565b60005b8281101561322b57848901518255600182019150602085019450602081019050613206565b868310156132485784890151613244601f891682613151565b8355505b6001600288020188555050505b505050505050565b600081905092915050565b600061327382612cda565b61327d818561325d565b935061328d818560208601612cf6565b80840191505092915050565b60006132a58284613268565b915081905092915050565b7f4e487b7100000000000000000000000000000000000000000000000000000000600052601160045260246000fd5b60006132ea82612623565b91507fffffffffffffffffffffffffffffffffffffffffffffffffffffffffffffffff820361331c5761331b6132b0565b5b600182019050919050565b600061333282612623565b915061333d83612623565b9250828201905080821115613355576133546132b0565b5b92915050565b600061336682612623565b915061337183612623565b925082820261337f81612623565b91508282048414831517613396576133956132b0565b5b5092915050565b7f49424c3a20596f75206d7573742073656e642065786163742076616c75652100600082015250565b60006133d3601f83612ce5565b91506133de8261339d565b602082019050919050565b60006020820190508181036000830152613402816133c6565b9050919050565b7f4e487b7100000000000000000000000000000000000000000000000000000000600052601260045260246000fd5b600061344382612623565b915061344e83612623565b92508261345e5761345d613409565b5b828204905092915050565b6000819050919050565b600061348e61348961348484613469565b6126d0565b612623565b9050919050565b61349e81613473565b82525050565b60006040820190506134b96000830185612afd565b6134c66020830184613495565b9392505050565b60006134d882612623565b91506134e383612623565b92508282039050818111156134fb576134fa6132b0565b5b92915050565b7f49424c3a20596f7520646f206e6f742068617665206665657300000000000000600082015250565b6000613537601983612ce5565b915061354282613501565b602082019050919050565b600060208201905081810360008301526135668161352a565b9050919050565b7f444258656e3a20616d6f756e74206973207a65726f0000000000000000000000600082015250565b60006135a3601583612ce5565b91506135ae8261356d565b602082019050919050565b600060208201905081810360008301526135d281613596565b9050919050565b7f4f776e61626c653a206e6577206f776e657220697320746865207a65726f206160008201527f6464726573730000000000000000000000000000000000000000000000000000602082015250565b6000613635602683612ce5565b9150613640826135d9565b604082019050919050565b6000602082019050818103600083015261366481613628565b9050919050565b7f5265656e7472616e637947756172643a207265656e7472616e742063616c6c00600082015250565b60006136a1601f83612ce5565b91506136ac8261366b565b602082019050919050565b600060208201905081810360008301526136d081613694565b9050919050565b600081905092915050565b50565b60006136f26000836136d7565b91506136fd826136e2565b600082019050919050565b6000613713826136e5565b9150819050919050565b7f444258656e3a206661696c656420746f2073656e6420616d6f756e7400000000600082015250565b6000613753601c83612ce5565b915061375e8261371d565b602082019050919050565b6000602082019050818103600083015261378281613746565b9050919050565b7f4f776e61626c653a2063616c6c6572206973206e6f7420746865206f776e6572600082015250565b60006137bf602083612ce5565b91506137ca82613789565b602082019050919050565b600060208201905081810360008301526137ee816137b2565b905091905056fea264697066735822122076bf5239ef0e13b8821cfc8a29e1659a6ae87d7a853dc5ca300a35a90bc0de8164736f6c6343000812003360a06040523480156200001157600080fd5b506040518060400160405280601081526020017f49424c2052657761726420746f6b656e000000000000000000000000000000008152506040518060400160405280600381526020017f49424c000000000000000000000000000000000000000000000000000000000081525081600390816200008f919062000358565b508060049081620000a1919062000358565b5050503373ffffffffffffffffffffffffffffffffffffffff1660808173ffffffffffffffffffffffffffffffffffffffff16815250506200043f565b600081519050919050565b7f4e487b7100000000000000000000000000000000000000000000000000000000600052604160045260246000fd5b7f4e487b7100000000000000000000000000000000000000000000000000000000600052602260045260246000fd5b600060028204905060018216806200016057607f821691505b60208210810362000176576200017562000118565b5b50919050565b60008190508160005260206000209050919050565b60006020601f8301049050919050565b600082821b905092915050565b600060088302620001e07fffffffffffffffffffffffffffffffffffffffffffffffffffffffffffffffff82620001a1565b620001ec8683620001a1565b95508019841693508086168417925050509392505050565b6000819050919050565b6000819050919050565b600062000239620002336200022d8462000204565b6200020e565b62000204565b9050919050565b6000819050919050565b620002558362000218565b6200026d620002648262000240565b848454620001ae565b825550505050565b600090565b6200028462000275565b620002918184846200024a565b505050565b5b81811015620002b957620002ad6000826200027a565b60018101905062000297565b5050565b601f8211156200030857620002d2816200017c565b620002dd8462000191565b81016020851015620002ed578190505b62000305620002fc8562000191565b83018262000296565b50505b505050565b600082821c905092915050565b60006200032d600019846008026200030d565b1980831691505092915050565b60006200034883836200031a565b9150826002028217905092915050565b6200036382620000de565b67ffffffffffffffff8111156200037f576200037e620000e9565b5b6200038b825462000147565b62000398828285620002bd565b600060209050601f831160018114620003d05760008415620003bb578287015190505b620003c785826200033a565b86555062000437565b601f198416620003e0866200017c565b60005b828110156200040a57848901518255600182019150602085019450602081019050620003e3565b868310156200042a578489015162000426601f8916826200031a565b8355505b6001600288020188555050505b505050505050565b6080516115a7620004626000396000818161044e015261050401526115a76000f3fe608060405234801561001057600080fd5b50600436106100cf5760003560e01c806370a082311161008c5780639a49090e116100665780639a49090e1461022a578063a457c2d714610246578063a9059cbb14610276578063dd62ed3e146102a6576100cf565b806370a08231146101be5780638da5cb5b146101ee57806395d89b411461020c576100cf565b806306fdde03146100d4578063095ea7b3146100f257806318160ddd1461012257806323b872dd14610140578063313ce56714610170578063395093511461018e575b600080fd5b6100dc6102d6565b6040516100e99190610d82565b60405180910390f35b61010c60048036038101906101079190610e3d565b610368565b6040516101199190610e98565b60405180910390f35b61012a61038b565b6040516101379190610ec2565b60405180910390f35b61015a60048036038101906101559190610edd565b610395565b6040516101679190610e98565b60405180910390f35b6101786103c4565b6040516101859190610f4c565b60405180910390f35b6101a860048036038101906101a39190610e3d565b6103cd565b6040516101b59190610e98565b60405180910390f35b6101d860048036038101906101d39190610f67565b610404565b6040516101e59190610ec2565b60405180910390f35b6101f661044c565b6040516102039190610fa3565b60405180910390f35b610214610470565b6040516102219190610d82565b60405180910390f35b610244600480360381019061023f9190610e3d565b610502565b005b610260600480360381019061025b9190610e3d565b61059e565b60405161026d9190610e98565b60405180910390f35b610290600480360381019061028b9190610e3d565b610615565b60405161029d9190610e98565b60405180910390f35b6102c060048036038101906102bb9190610fbe565b610638565b6040516102cd9190610ec2565b60405180910390f35b6060600380546102e59061102d565b80601f01602080910402602001604051908101604052809291908181526020018280546103119061102d565b801561035e5780601f106103335761010080835404028352916020019161035e565b820191906000526020600020905b81548152906001019060200180831161034157829003601f168201915b5050505050905090565b6000806103736106bf565b90506103808185856106c7565b600191505092915050565b6000600254905090565b6000806103a06106bf565b90506103ad858285610890565b6103b885858561091c565b60019150509392505050565b60006012905090565b6000806103d86106bf565b90506103f98185856103ea8589610638565b6103f4919061108d565b6106c7565b600191505092915050565b60008060008373ffffffffffffffffffffffffffffffffffffffff1673ffffffffffffffffffffffffffffffffffffffff168152602001908152602001600020549050919050565b7f000000000000000000000000000000000000000000000000000000000000000081565b60606004805461047f9061102d565b80601f01602080910402602001604051908101604052809291908181526020018280546104ab9061102d565b80156104f85780601f106104cd576101008083540402835291602001916104f8565b820191906000526020600020905b8154815290600101906020018083116104db57829003601f168201915b5050505050905090565b7f000000000000000000000000000000000000000000000000000000000000000073ffffffffffffffffffffffffffffffffffffffff163373ffffffffffffffffffffffffffffffffffffffff1614610590576040517f08c379a00000000000000000000000000000000000000000000000000000000081526004016105879061110d565b60405180910390fd5b61059a8282610b92565b5050565b6000806105a96106bf565b905060006105b78286610638565b9050838110156105fc576040517f08c379a00000000000000000000000000000000000000000000000000000000081526004016105f39061119f565b60405180910390fd5b61060982868684036106c7565b60019250505092915050565b6000806106206106bf565b905061062d81858561091c565b600191505092915050565b6000600160008473ffffffffffffffffffffffffffffffffffffffff1673ffffffffffffffffffffffffffffffffffffffff16815260200190815260200160002060008373ffffffffffffffffffffffffffffffffffffffff1673ffffffffffffffffffffffffffffffffffffffff16815260200190815260200160002054905092915050565b600033905090565b600073ffffffffffffffffffffffffffffffffffffffff168373ffffffffffffffffffffffffffffffffffffffff1603610736576040517f08c379a000000000000000000000000000000000000000000000000000000000815260040161072d90611231565b60405180910390fd5b600073ffffffffffffffffffffffffffffffffffffffff168273ffffffffffffffffffffffffffffffffffffffff16036107a5576040517f08c379a000000000000000000000000000000000000000000000000000000000815260040161079c906112c3565b60405180910390fd5b80600160008573ffffffffffffffffffffffffffffffffffffffff1673ffffffffffffffffffffffffffffffffffffffff16815260200190815260200160002060008473ffffffffffffffffffffffffffffffffffffffff1673ffffffffffffffffffffffffffffffffffffffff168152602001908152602001600020819055508173ffffffffffffffffffffffffffffffffffffffff168373ffffffffffffffffffffffffffffffffffffffff167f8c5be1e5ebec7d5bd14f71427d1e84f3dd0314c0f7b2291e5b200ac8c7c3b925836040516108839190610ec2565b60405180910390a3505050565b600061089c8484610638565b90507fffffffffffffffffffffffffffffffffffffffffffffffffffffffffffffffff81146109165781811015610908576040517f08c379a00000000000000000000000000000000000000000000000000000000081526004016108ff9061132f565b60405180910390fd5b61091584848484036106c7565b5b50505050565b600073ffffffffffffffffffffffffffffffffffffffff168373ffffffffffffffffffffffffffffffffffffffff160361098b576040517f08c379a0000000000000000000000000000000000000000000000000000000008152600401610982906113c1565b60405180910390fd5b600073ffffffffffffffffffffffffffffffffffffffff168273ffffffffffffffffffffffffffffffffffffffff16036109fa576040517f08c379a00000000000000000000000000000000000000000000000000000000081526004016109f190611453565b60405180910390fd5b610a05838383610ce8565b60008060008573ffffffffffffffffffffffffffffffffffffffff1673ffffffffffffffffffffffffffffffffffffffff16815260200190815260200160002054905081811015610a8b576040517f08c379a0000000000000000000000000000000000000000000000000000000008152600401610a82906114e5565b60405180910390fd5b8181036000808673ffffffffffffffffffffffffffffffffffffffff1673ffffffffffffffffffffffffffffffffffffffff16815260200190815260200160002081905550816000808573ffffffffffffffffffffffffffffffffffffffff1673ffffffffffffffffffffffffffffffffffffffff168152602001908152602001600020600082825401925050819055508273ffffffffffffffffffffffffffffffffffffffff168473ffffffffffffffffffffffffffffffffffffffff167fddf252ad1be2c89b69c2b068fc378daa952ba7f163c4a11628f55a4df523b3ef84604051610b799190610ec2565b60405180910390a3610b8c848484610ced565b50505050565b600073ffffffffffffffffffffffffffffffffffffffff168273ffffffffffffffffffffffffffffffffffffffff1603610c01576040517f08c379a0000000000000000000000000000000000000000000000000000000008152600401610bf890611551565b60405180910390fd5b610c0d60008383610ce8565b8060026000828254610c1f919061108d565b92505081905550806000808473ffffffffffffffffffffffffffffffffffffffff1673ffffffffffffffffffffffffffffffffffffffff168152602001908152602001600020600082825401925050819055508173ffffffffffffffffffffffffffffffffffffffff16600073ffffffffffffffffffffffffffffffffffffffff167fddf252ad1be2c89b69c2b068fc378daa952ba7f163c4a11628f55a4df523b3ef83604051610cd09190610ec2565b60405180910390a3610ce460008383610ced565b5050565b505050565b505050565b600081519050919050565b600082825260208201905092915050565b60005b83811015610d2c578082015181840152602081019050610d11565b60008484015250505050565b6000601f19601f8301169050919050565b6000610d5482610cf2565b610d5e8185610cfd565b9350610d6e818560208601610d0e565b610d7781610d38565b840191505092915050565b60006020820190508181036000830152610d9c8184610d49565b905092915050565b600080fd5b600073ffffffffffffffffffffffffffffffffffffffff82169050919050565b6000610dd482610da9565b9050919050565b610de481610dc9565b8114610def57600080fd5b50565b600081359050610e0181610ddb565b92915050565b6000819050919050565b610e1a81610e07565b8114610e2557600080fd5b50565b600081359050610e3781610e11565b92915050565b60008060408385031215610e5457610e53610da4565b5b6000610e6285828601610df2565b9250506020610e7385828601610e28565b9150509250929050565b60008115159050919050565b610e9281610e7d565b82525050565b6000602082019050610ead6000830184610e89565b92915050565b610ebc81610e07565b82525050565b6000602082019050610ed76000830184610eb3565b92915050565b600080600060608486031215610ef657610ef5610da4565b5b6000610f0486828701610df2565b9350506020610f1586828701610df2565b9250506040610f2686828701610e28565b9150509250925092565b600060ff82169050919050565b610f4681610f30565b82525050565b6000602082019050610f616000830184610f3d565b92915050565b600060208284031215610f7d57610f7c610da4565b5b6000610f8b84828501610df2565b91505092915050565b610f9d81610dc9565b82525050565b6000602082019050610fb86000830184610f94565b92915050565b60008060408385031215610fd557610fd4610da4565b5b6000610fe385828601610df2565b9250506020610ff485828601610df2565b9150509250929050565b7f4e487b7100000000000000000000000000000000000000000000000000000000600052602260045260246000fd5b6000600282049050600182168061104557607f821691505b60208210810361105857611057610ffe565b5b50919050565b7f4e487b7100000000000000000000000000000000000000000000000000000000600052601160045260246000fd5b600061109882610e07565b91506110a383610e07565b92508282019050808211156110bb576110ba61105e565b5b92915050565b7f49424c3a2063616c6c6572206973206e6f742049424c20636f6e74726163742e600082015250565b60006110f7602083610cfd565b9150611102826110c1565b602082019050919050565b60006020820190508181036000830152611126816110ea565b9050919050565b7f45524332303a2064656372656173656420616c6c6f77616e63652062656c6f7760008201527f207a65726f000000000000000000000000000000000000000000000000000000602082015250565b6000611189602583610cfd565b91506111948261112d565b604082019050919050565b600060208201905081810360008301526111b88161117c565b9050919050565b7f45524332303a20617070726f76652066726f6d20746865207a65726f2061646460008201527f7265737300000000000000000000000000000000000000000000000000000000602082015250565b600061121b602483610cfd565b9150611226826111bf565b604082019050919050565b6000602082019050818103600083015261124a8161120e565b9050919050565b7f45524332303a20617070726f766520746f20746865207a65726f20616464726560008201527f7373000000000000000000000000000000000000000000000000000000000000602082015250565b60006112ad602283610cfd565b91506112b882611251565b604082019050919050565b600060208201905081810360008301526112dc816112a0565b9050919050565b7f45524332303a20696e73756666696369656e7420616c6c6f77616e6365000000600082015250565b6000611319601d83610cfd565b9150611324826112e3565b602082019050919050565b600060208201905081810360008301526113488161130c565b9050919050565b7f45524332303a207472616e736665722066726f6d20746865207a65726f20616460008201527f6472657373000000000000000000000000000000000000000000000000000000602082015250565b60006113ab602583610cfd565b91506113b68261134f565b604082019050919050565b600060208201905081810360008301526113da8161139e565b9050919050565b7f45524332303a207472616e7366657220746f20746865207a65726f206164647260008201527f6573730000000000000000000000000000000000000000000000000000000000602082015250565b600061143d602383610cfd565b9150611448826113e1565b604082019050919050565b6000602082019050818103600083015261146c81611430565b9050919050565b7f45524332303a207472616e7366657220616d6f756e742065786365656473206260008201527f616c616e63650000000000000000000000000000000000000000000000000000602082015250565b60006114cf602683610cfd565b91506114da82611473565b604082019050919050565b600060208201905081810360008301526114fe816114c2565b9050919050565b7f45524332303a206d696e7420746f20746865207a65726f206164647265737300600082015250565b600061153b601f83610cfd565b915061154682611505565b602082019050919050565b6000602082019050818103600083015261156a8161152e565b905091905056fea26469706673582212200fc3290df972103c42d9ac6eb32720dfea4a416649ae2e306e4bb4c6c7f0d85664736f6c63430008120033",
  "linkReferences": {},
  "deployedLinkReferences": {}
}