{
  "_format": "hh-sol-artifact-1",
  "contractName": "IBL",
  "sourceName": "contracts/IBL.sol",
  "abi": [
    {
      "inputs": [
        {
          "internalType": "address",
          "name": "_devAddress",
          "type": "address"
        }
      ],
      "stateMutability": "nonpayable",
      "type": "constructor"
    },
    {
      "anonymous": false,
      "inputs": [
        {
          "indexed": true,
          "internalType": "uint256",
          "name": "cycle",
          "type": "uint256"
        },
        {
          "indexed": true,
          "internalType": "address",
          "name": "account",
          "type": "address"
        },
        {
          "indexed": false,
          "internalType": "uint256",
          "name": "fees",
          "type": "uint256"
        }
      ],
      "name": "FeesClaimed",
      "type": "event"
    },
    {
      "anonymous": false,
      "inputs": [
        {
          "indexed": true,
          "internalType": "address",
          "name": "previousOwner",
          "type": "address"
        },
        {
          "indexed": true,
          "internalType": "address",
          "name": "newOwner",
          "type": "address"
        }
      ],
      "name": "OwnershipTransferred",
      "type": "event"
    },
    {
      "inputs": [],
      "name": "IBL_TEAM_FEE",
      "outputs": [
        {
          "internalType": "uint256",
          "name": "",
          "type": "uint256"
        }
      ],
      "stateMutability": "view",
      "type": "function"
    },
    {
      "inputs": [],
      "name": "POOL_FEE",
      "outputs": [
        {
          "internalType": "uint256",
          "name": "",
          "type": "uint256"
        }
      ],
      "stateMutability": "view",
      "type": "function"
    },
    {
      "inputs": [],
      "name": "SCALING_FACTOR",
      "outputs": [
        {
          "internalType": "uint256",
          "name": "",
          "type": "uint256"
        }
      ],
      "stateMutability": "view",
      "type": "function"
    },
    {
      "inputs": [
        {
          "internalType": "address",
          "name": "",
          "type": "address"
        }
      ],
      "name": "accAccruedFees",
      "outputs": [
        {
          "internalType": "uint256",
          "name": "",
          "type": "uint256"
        }
      ],
      "stateMutability": "view",
      "type": "function"
    },
    {
      "inputs": [
        {
          "internalType": "address",
          "name": "",
          "type": "address"
        }
      ],
      "name": "accCycleBatchesBurned",
      "outputs": [
        {
          "internalType": "uint256",
          "name": "",
          "type": "uint256"
        }
      ],
      "stateMutability": "view",
      "type": "function"
    },
    {
      "inputs": [
        {
          "internalType": "address",
          "name": "",
          "type": "address"
        }
      ],
      "name": "accFirstStake",
      "outputs": [
        {
          "internalType": "uint256",
          "name": "",
          "type": "uint256"
        }
      ],
      "stateMutability": "view",
      "type": "function"
    },
    {
      "inputs": [
        {
          "internalType": "address",
          "name": "",
          "type": "address"
        }
      ],
      "name": "accRewards",
      "outputs": [
        {
          "internalType": "uint256",
          "name": "",
          "type": "uint256"
        }
      ],
      "stateMutability": "view",
      "type": "function"
    },
    {
      "inputs": [
        {
          "internalType": "address",
          "name": "",
          "type": "address"
        }
      ],
      "name": "accSecondStake",
      "outputs": [
        {
          "internalType": "uint256",
          "name": "",
          "type": "uint256"
        }
      ],
      "stateMutability": "view",
      "type": "function"
    },
    {
      "inputs": [
        {
          "internalType": "address",
          "name": "",
          "type": "address"
        },
        {
          "internalType": "uint256",
          "name": "",
          "type": "uint256"
        }
      ],
      "name": "accStakeCycle",
      "outputs": [
        {
          "internalType": "uint256",
          "name": "",
          "type": "uint256"
        }
      ],
      "stateMutability": "view",
      "type": "function"
    },
    {
      "inputs": [
        {
          "internalType": "address",
          "name": "",
          "type": "address"
        }
      ],
      "name": "accWithdrawableStake",
      "outputs": [
        {
          "internalType": "uint256",
          "name": "",
          "type": "uint256"
        }
      ],
      "stateMutability": "view",
      "type": "function"
    },
    {
      "inputs": [],
      "name": "accruedFees",
      "outputs": [
        {
          "internalType": "uint256",
          "name": "",
          "type": "uint256"
        }
      ],
      "stateMutability": "view",
      "type": "function"
    },
    {
      "inputs": [
        {
          "components": [
            {
              "internalType": "string",
              "name": "id",
              "type": "string"
            },
            {
              "internalType": "uint256",
              "name": "runPrice",
              "type": "uint256"
            },
            {
              "internalType": "uint256",
              "name": "downloadPrice",
              "type": "uint256"
            },
            {
              "internalType": "address[]",
              "name": "owners",
              "type": "address[]"
            },
            {
              "internalType": "uint256[]",
              "name": "procentages",
              "type": "uint256[]"
            }
          ],
          "internalType": "struct IBL.Component",
          "name": "component",
          "type": "tuple"
        }
      ],
      "name": "addComponent",
      "outputs": [],
      "stateMutability": "payable",
      "type": "function"
    },
    {
      "inputs": [
        {
          "internalType": "uint256",
          "name": "",
          "type": "uint256"
        }
      ],
      "name": "alreadyUpdateCycleData",
      "outputs": [
        {
          "internalType": "bool",
          "name": "",
          "type": "bool"
        }
      ],
      "stateMutability": "view",
      "type": "function"
    },
    {
      "inputs": [
        {
          "internalType": "address",
          "name": "",
          "type": "address"
        }
      ],
      "name": "builderReward",
      "outputs": [
        {
          "internalType": "uint256",
          "name": "",
          "type": "uint256"
        }
      ],
      "stateMutability": "view",
      "type": "function"
    },
    {
      "inputs": [],
      "name": "claimFees",
      "outputs": [],
      "stateMutability": "nonpayable",
      "type": "function"
    },
    {
      "inputs": [],
      "name": "claimRewards",
      "outputs": [],
      "stateMutability": "nonpayable",
      "type": "function"
    },
    {
      "inputs": [
        {
          "internalType": "string",
          "name": "",
          "type": "string"
        }
      ],
      "name": "componentData",
      "outputs": [
        {
          "internalType": "string",
          "name": "id",
          "type": "string"
        },
        {
          "internalType": "uint256",
          "name": "runPrice",
          "type": "uint256"
        },
        {
          "internalType": "uint256",
          "name": "downloadPrice",
          "type": "uint256"
        }
      ],
      "stateMutability": "view",
      "type": "function"
    },
    {
      "inputs": [],
      "name": "currentCycle",
      "outputs": [
        {
          "internalType": "uint256",
          "name": "",
          "type": "uint256"
        }
      ],
      "stateMutability": "view",
      "type": "function"
    },
    {
      "inputs": [],
      "name": "currentStartedCycle",
      "outputs": [
        {
          "internalType": "uint256",
          "name": "",
          "type": "uint256"
        }
      ],
      "stateMutability": "view",
      "type": "function"
    },
    {
      "inputs": [
        {
          "internalType": "uint256",
          "name": "",
          "type": "uint256"
        }
      ],
      "name": "cycleAccruedFees",
      "outputs": [
        {
          "internalType": "uint256",
          "name": "",
          "type": "uint256"
        }
      ],
      "stateMutability": "view",
      "type": "function"
    },
    {
      "inputs": [
        {
          "internalType": "uint256",
          "name": "",
          "type": "uint256"
        }
      ],
      "name": "cycleFeesPerStakeSummed",
      "outputs": [
        {
          "internalType": "uint256",
          "name": "",
          "type": "uint256"
        }
      ],
      "stateMutability": "view",
      "type": "function"
    },
    {
      "inputs": [
        {
          "internalType": "uint256",
          "name": "",
          "type": "uint256"
        }
      ],
      "name": "cycleTotalBatchesBurned",
      "outputs": [
        {
          "internalType": "uint256",
          "name": "",
          "type": "uint256"
        }
      ],
      "stateMutability": "view",
      "type": "function"
    },
    {
      "inputs": [],
      "name": "devAddress",
      "outputs": [
        {
          "internalType": "address",
          "name": "",
          "type": "address"
        }
      ],
      "stateMutability": "view",
      "type": "function"
    },
    {
      "inputs": [
        {
          "internalType": "string[]",
          "name": "componentsIds",
          "type": "string[]"
        }
      ],
      "name": "downlodApplication",
      "outputs": [],
      "stateMutability": "payable",
      "type": "function"
    },
    {
      "inputs": [],
      "name": "getCurrentCycle",
      "outputs": [
        {
          "internalType": "uint256",
          "name": "",
          "type": "uint256"
        }
      ],
      "stateMutability": "view",
      "type": "function"
    },
    {
      "inputs": [
        {
          "internalType": "string",
          "name": "id",
          "type": "string"
        }
      ],
      "name": "getFees",
      "outputs": [
        {
          "internalType": "uint256",
          "name": "",
          "type": "uint256"
        },
        {
          "internalType": "uint256",
          "name": "",
          "type": "uint256"
        }
      ],
      "stateMutability": "view",
      "type": "function"
    },
    {
      "inputs": [
        {
          "internalType": "string",
          "name": "id",
          "type": "string"
        }
      ],
      "name": "getOwnersForComponent",
      "outputs": [
        {
          "internalType": "address[]",
          "name": "",
          "type": "address[]"
        }
      ],
      "stateMutability": "view",
      "type": "function"
    },
    {
      "inputs": [
        {
          "internalType": "string",
          "name": "id",
          "type": "string"
        }
      ],
      "name": "getProcentagesForComponent",
      "outputs": [
        {
          "internalType": "uint256[]",
          "name": "",
          "type": "uint256[]"
        }
      ],
      "stateMutability": "view",
      "type": "function"
    },
    {
      "inputs": [],
      "name": "i_initialTimestamp",
      "outputs": [
        {
          "internalType": "uint256",
          "name": "",
          "type": "uint256"
        }
      ],
      "stateMutability": "view",
      "type": "function"
    },
    {
      "inputs": [],
      "name": "i_periodDuration",
      "outputs": [
        {
          "internalType": "uint256",
          "name": "",
          "type": "uint256"
        }
      ],
      "stateMutability": "view",
      "type": "function"
    },
    {
      "inputs": [],
      "name": "ibl",
      "outputs": [
        {
          "internalType": "contract IBLERC20",
          "name": "",
          "type": "address"
        }
      ],
      "stateMutability": "view",
      "type": "function"
    },
    {
      "inputs": [
        {
          "internalType": "address",
          "name": "",
          "type": "address"
        }
      ],
      "name": "lastActiveCycle",
      "outputs": [
        {
          "internalType": "uint256",
          "name": "",
          "type": "uint256"
        }
      ],
      "stateMutability": "view",
      "type": "function"
    },
    {
      "inputs": [],
      "name": "lastCycleReward",
      "outputs": [
        {
          "internalType": "uint256",
          "name": "",
          "type": "uint256"
        }
      ],
      "stateMutability": "view",
      "type": "function"
    },
    {
      "inputs": [
        {
          "internalType": "address",
          "name": "",
          "type": "address"
        }
      ],
      "name": "lastFeeUpdateCycle",
      "outputs": [
        {
          "internalType": "uint256",
          "name": "",
          "type": "uint256"
        }
      ],
      "stateMutability": "view",
      "type": "function"
    },
    {
      "inputs": [
        {
          "internalType": "string",
          "name": "",
          "type": "string"
        }
      ],
      "name": "lastHighestDownloadPrice",
      "outputs": [
        {
          "internalType": "uint256",
          "name": "",
          "type": "uint256"
        }
      ],
      "stateMutability": "view",
      "type": "function"
    },
    {
      "inputs": [],
      "name": "lastStartedCycle",
      "outputs": [
        {
          "internalType": "uint256",
          "name": "",
          "type": "uint256"
        }
      ],
      "stateMutability": "view",
      "type": "function"
    },
    {
      "inputs": [],
      "name": "owner",
      "outputs": [
        {
          "internalType": "address",
          "name": "",
          "type": "address"
        }
      ],
      "stateMutability": "view",
      "type": "function"
    },
    {
      "inputs": [
        {
          "internalType": "address",
          "name": "",
          "type": "address"
        }
      ],
      "name": "ownerNativeFeeAcc",
      "outputs": [
        {
          "internalType": "uint256",
          "name": "",
          "type": "uint256"
        }
      ],
      "stateMutability": "view",
      "type": "function"
    },
    {
      "inputs": [],
      "name": "pendingStake",
      "outputs": [
        {
          "internalType": "uint256",
          "name": "",
          "type": "uint256"
        }
      ],
      "stateMutability": "view",
      "type": "function"
    },
    {
      "inputs": [],
      "name": "pendingStakeWithdrawal",
      "outputs": [
        {
          "internalType": "uint256",
          "name": "",
          "type": "uint256"
        }
      ],
      "stateMutability": "view",
      "type": "function"
    },
    {
      "inputs": [],
      "name": "previousStartedCycle",
      "outputs": [
        {
          "internalType": "uint256",
          "name": "",
          "type": "uint256"
        }
      ],
      "stateMutability": "view",
      "type": "function"
    },
    {
      "inputs": [],
      "name": "renounceOwnership",
      "outputs": [],
      "stateMutability": "nonpayable",
      "type": "function"
    },
    {
      "inputs": [
        {
          "internalType": "uint256",
          "name": "",
          "type": "uint256"
        }
      ],
      "name": "rewardPerCycle",
      "outputs": [
        {
          "internalType": "uint256",
          "name": "",
          "type": "uint256"
        }
      ],
      "stateMutability": "view",
      "type": "function"
    },
    {
      "inputs": [
        {
          "internalType": "string[]",
          "name": "componentsIds",
          "type": "string[]"
        }
      ],
      "name": "runApplication",
      "outputs": [],
      "stateMutability": "payable",
      "type": "function"
    },
    {
      "inputs": [
        {
          "internalType": "address",
          "name": "_devAddress",
          "type": "address"
        }
      ],
      "name": "setDevAddress",
      "outputs": [],
      "stateMutability": "nonpayable",
      "type": "function"
    },
    {
      "inputs": [
        {
          "internalType": "string",
          "name": "id",
          "type": "string"
        },
        {
          "internalType": "uint256",
          "name": "newRunPrice",
          "type": "uint256"
        },
        {
          "internalType": "uint256",
          "name": "newDownloadPrice",
          "type": "uint256"
        }
      ],
      "name": "setNewPrice",
      "outputs": [],
      "stateMutability": "payable",
      "type": "function"
    },
    {
      "inputs": [
        {
          "internalType": "uint256",
          "name": "amount",
          "type": "uint256"
        }
      ],
      "name": "stake",
      "outputs": [],
      "stateMutability": "nonpayable",
      "type": "function"
    },
    {
      "inputs": [
        {
          "internalType": "uint256",
          "name": "",
          "type": "uint256"
        }
      ],
      "name": "summedCycleStakes",
      "outputs": [
        {
          "internalType": "uint256",
          "name": "",
          "type": "uint256"
        }
      ],
      "stateMutability": "view",
      "type": "function"
    },
    {
      "inputs": [],
      "name": "totalNumberOfBatchesBurned",
      "outputs": [
        {
          "internalType": "uint256",
          "name": "",
          "type": "uint256"
        }
      ],
      "stateMutability": "view",
      "type": "function"
    },
    {
      "inputs": [
        {
          "internalType": "address",
          "name": "newOwner",
          "type": "address"
        }
      ],
      "name": "transferOwnership",
      "outputs": [],
      "stateMutability": "nonpayable",
      "type": "function"
    },
    {
      "inputs": [
        {
          "internalType": "uint256",
          "name": "amount",
          "type": "uint256"
        }
      ],
      "name": "unstake",
      "outputs": [],
      "stateMutability": "nonpayable",
      "type": "function"
    }
  ],
  "bytecode": "0x60c06040526101f4600b5561251c600c553480156200001d57600080fd5b506040516200772538038062007725833981810160405281019062000043919062000275565b62000063620000576200013160201b60201c565b6200013960201b60201c565b600180819055506040516200007890620001fd565b604051809103906000f08015801562000095573d6000803e3d6000fd5b50600260006101000a81548173ffffffffffffffffffffffffffffffffffffffff021916908373ffffffffffffffffffffffffffffffffffffffff16021790555080600d60006101000a81548173ffffffffffffffffffffffffffffffffffffffff021916908373ffffffffffffffffffffffffffffffffffffffff16021790555042608081815250506201518060a0818152505050620002a7565b600033905090565b60008060009054906101000a900473ffffffffffffffffffffffffffffffffffffffff169050816000806101000a81548173ffffffffffffffffffffffffffffffffffffffff021916908373ffffffffffffffffffffffffffffffffffffffff1602179055508173ffffffffffffffffffffffffffffffffffffffff168173ffffffffffffffffffffffffffffffffffffffff167f8be0079c531659141344cd1fd0a4f28419497f9722a3daafe3b4186f6b6457e060405160405180910390a35050565b611a098062005d1c83390190565b600080fd5b600073ffffffffffffffffffffffffffffffffffffffff82169050919050565b60006200023d8262000210565b9050919050565b6200024f8162000230565b81146200025b57600080fd5b50565b6000815190506200026f8162000244565b92915050565b6000602082840312156200028e576200028d6200020b565b5b60006200029e848285016200025e565b91505092915050565b60805160a051615a41620002db60003960008181610f570152611e110152600081816119780152611e320152615a416000f3fe6080604052600436106102e45760003560e01c8063aabbb1bd11610190578063d4432e4e116100dc578063eb90b2bc11610095578063f1b371e21161006f578063f1b371e214610bb9578063f2fde38b14610be4578063fa845ca914610c0d578063fded701214610c4a576102e4565b8063eb90b2bc14610b13578063ed725e8314610b51578063ef4cadc514610b8e576102e4565b8063d4432e4e14610a0b578063d8043d8f14610a36578063db80a28c14610a52578063dd1b9c4a14610a8f578063e60c90c414610aba578063e858e05c14610af7576102e4565b8063be26ed7f11610149578063c40af1ee11610123578063c40af1ee14610963578063c4235ae91461098e578063d0d41fe1146109cb578063d294f093146109f4576102e4565b8063be26ed7f146108be578063bebc9dfc146108e9578063bee7708e14610926576102e4565b8063aabbb1bd14610762578063adc0f6861461079f578063af2f850e146107dc578063b6f2a9ce14610819578063bab2f55214610856578063bc71329014610881576102e4565b8063541c78861161024f57806374ef836711610208578063a2727db3116101e2578063a2727db314610694578063a694fc3a146106d1578063a707140b146106fa578063a95f1dac14610737576102e4565b806374ef8367146106225780638bd955631461063e5780638da5cb5b14610669576102e4565b8063541c7886146105315780635f5080b41461056e578063682c20581461059957806368f05769146105c45780636adb0eb6146105ef578063715018a61461060b576102e4565b80632e17de78116102a15780632e17de78146104335780632f7cdab01461045c578063372500ab146104875780633ad10ef61461049e578063436091c1146104c95780635347a47d146104f4576102e4565b80630ece2154146102e957806312cb22ac1461032657806312d4743914610363578063168b0a5c1461038e57806317d9c47a146103b95780631ed6380f146103f6575b600080fd5b3480156102f557600080fd5b50610310600480360381019061030b91906141da565b610c89565b60405161031d9190614216565b60405180910390f35b34801561033257600080fd5b5061034d6004803603810190610348919061428f565b610ca1565b60405161035a9190614216565b60405180910390f35b34801561036f57600080fd5b50610378610cb9565b6040516103859190614216565b60405180910390f35b34801561039a57600080fd5b506103a3610cbf565b6040516103b0919061431b565b60405180910390f35b3480156103c557600080fd5b506103e060048036038101906103db91906141da565b610ce5565b6040516103ed9190614216565b60405180910390f35b34801561040257600080fd5b5061041d6004803603810190610418919061428f565b610cfd565b60405161042a9190614216565b60405180910390f35b34801561043f57600080fd5b5061045a600480360381019061045591906141da565b610d15565b005b34801561046857600080fd5b50610471610f55565b60405161047e9190614216565b60405180910390f35b34801561049357600080fd5b5061049c610f79565b005b3480156104aa57600080fd5b506104b36111bf565b6040516104c09190614345565b60405180910390f35b3480156104d557600080fd5b506104de6111e5565b6040516104eb9190614216565b60405180910390f35b34801561050057600080fd5b5061051b600480360381019061051691906144a6565b6111eb565b6040516105289190614216565b60405180910390f35b34801561053d57600080fd5b50610558600480360381019061055391906144a6565b611219565b60405161056591906145ad565b60405180910390f35b34801561057a57600080fd5b506105836112c8565b6040516105909190614216565b60405180910390f35b3480156105a557600080fd5b506105ae6112ce565b6040516105bb9190614216565b60405180910390f35b3480156105d057600080fd5b506105d96112d4565b6040516105e69190614216565b60405180910390f35b610609600480360381019061060491906146b5565b6112da565b005b34801561061757600080fd5b50610620611801565b005b61063c6004803603810190610637919061496e565b611815565b005b34801561064a57600080fd5b50610653611976565b6040516106609190614216565b60405180910390f35b34801561067557600080fd5b5061067e61199a565b60405161068b9190614345565b60405180910390f35b3480156106a057600080fd5b506106bb60048036038101906106b6919061428f565b6119c3565b6040516106c89190614216565b60405180910390f35b3480156106dd57600080fd5b506106f860048036038101906106f391906141da565b6119db565b005b34801561070657600080fd5b50610721600480360381019061071c919061428f565b611cfb565b60405161072e9190614216565b60405180910390f35b34801561074357600080fd5b5061074c611d13565b6040516107599190614216565b60405180910390f35b34801561076e57600080fd5b50610789600480360381019061078491906149b7565b611d19565b6040516107969190614216565b60405180910390f35b3480156107ab57600080fd5b506107c660048036038101906107c191906141da565b611d3e565b6040516107d39190614216565b60405180910390f35b3480156107e857600080fd5b5061080360048036038101906107fe91906141da565b611d56565b6040516108109190614a12565b60405180910390f35b34801561082557600080fd5b50610840600480360381019061083b91906144a6565b611d76565b60405161084d9190614aeb565b60405180910390f35b34801561086257600080fd5b5061086b611def565b6040516108789190614216565b60405180910390f35b34801561088d57600080fd5b506108a860048036038101906108a3919061428f565b611df5565b6040516108b59190614216565b60405180910390f35b3480156108ca57600080fd5b506108d3611e0d565b6040516108e09190614216565b60405180910390f35b3480156108f557600080fd5b50610910600480360381019061090b91906141da565b611e6b565b60405161091d9190614216565b60405180910390f35b34801561093257600080fd5b5061094d6004803603810190610948919061428f565b611e83565b60405161095a9190614216565b60405180910390f35b34801561096f57600080fd5b50610978611e9b565b6040516109859190614216565b60405180910390f35b34801561099a57600080fd5b506109b560048036038101906109b091906141da565b611ea1565b6040516109c29190614216565b60405180910390f35b3480156109d757600080fd5b506109f260048036038101906109ed919061428f565b611eb9565b005b348015610a0057600080fd5b50610a09611f15565b005b348015610a1757600080fd5b50610a20612017565b604051610a2d9190614216565b60405180910390f35b610a506004803603810190610a4b91906146b5565b61201d565b005b348015610a5e57600080fd5b50610a796004803603810190610a74919061428f565b612556565b604051610a869190614216565b60405180910390f35b348015610a9b57600080fd5b50610aa461256e565b604051610ab19190614216565b60405180910390f35b348015610ac657600080fd5b50610ae16004803603810190610adc919061428f565b612574565b604051610aee9190614216565b60405180910390f35b610b116004803603810190610b0c9190614b0d565b61258b565b005b348015610b1f57600080fd5b50610b3a6004803603810190610b3591906144a6565b6129d5565b604051610b48929190614b7c565b60405180910390f35b348015610b5d57600080fd5b50610b786004803603810190610b73919061428f565b612a25565b604051610b859190614216565b60405180910390f35b348015610b9a57600080fd5b50610ba3612a3d565b604051610bb09190614216565b60405180910390f35b348015610bc557600080fd5b50610bce612a52565b604051610bdb9190614216565b60405180910390f35b348015610bf057600080fd5b50610c0b6004803603810190610c06919061428f565b612a58565b005b348015610c1957600080fd5b50610c346004803603810190610c2f919061428f565b612adb565b604051610c419190614216565b60405180910390f35b348015610c5657600080fd5b50610c716004803603810190610c6c91906144a6565b612af3565b604051610c8093929190614c24565b60405180910390f35b601d6020528060005260406000206000915090505481565b60166020528060005260406000206000915090505481565b600b5481565b600260009054906101000a900473ffffffffffffffffffffffffffffffffffffffff1681565b60176020528060005260406000206000915090505481565b601f6020528060005260406000206000915090505481565b610d1d612bbb565b610d25612c0a565b610d2d612c2b565b610d3633612d54565b60008111610d79576040517f08c379a0000000000000000000000000000000000000000000000000000000008152600401610d7090614cae565b60405180910390fd5b601f60003373ffffffffffffffffffffffffffffffffffffffff1673ffffffffffffffffffffffffffffffffffffffff16815260200190815260200160002054811115610dfb576040517f08c379a0000000000000000000000000000000000000000000000000000000008152600401610df290614d40565b60405180910390fd5b60135460115403610e24578060146000828254610e189190614d8f565b92505081905550610e51565b80601b6000600f5481526020019081526020016000206000828254610e499190614dc3565b925050819055505b80601f60003373ffffffffffffffffffffffffffffffffffffffff1673ffffffffffffffffffffffffffffffffffffffff1681526020019081526020016000206000828254610ea09190614dc3565b9250508190555080601960003373ffffffffffffffffffffffffffffffffffffffff1673ffffffffffffffffffffffffffffffffffffffff1681526020019081526020016000206000828254610ef69190614dc3565b92505081905550610f4a3382600260009054906101000a900473ffffffffffffffffffffffffffffffffffffffff1673ffffffffffffffffffffffffffffffffffffffff166139dc9092919063ffffffff16565b610f52613a62565b50565b7f000000000000000000000000000000000000000000000000000000000000000081565b610f81612bbb565b610f89612c0a565b610f91612c2b565b610f9a33612d54565b6000601f60003373ffffffffffffffffffffffffffffffffffffffff1673ffffffffffffffffffffffffffffffffffffffff16815260200190815260200160002054601960003373ffffffffffffffffffffffffffffffffffffffff1673ffffffffffffffffffffffffffffffffffffffff168152602001908152602001600020546110269190614dc3565b90506000811161106b576040517f08c379a000000000000000000000000000000000000000000000000000000000815260040161106290614e43565b60405180910390fd5b80601960003373ffffffffffffffffffffffffffffffffffffffff1673ffffffffffffffffffffffffffffffffffffffff16815260200190815260200160002060008282546110ba9190614dc3565b92505081905550601354601154036110ea5780601460008282546110de9190614d8f565b92505081905550611125565b80601b6000600f5481526020019081526020016000205461110b9190614dc3565b601b6000600f548152602001908152602001600020819055505b600260009054906101000a900473ffffffffffffffffffffffffffffffffffffffff1673ffffffffffffffffffffffffffffffffffffffff16639a49090e33836040518363ffffffff1660e01b8152600401611182929190614e63565b600060405180830381600087803b15801561119c57600080fd5b505af11580156111b0573d6000803e3d6000fd5b50505050506111bd613a62565b565b600d60009054906101000a900473ffffffffffffffffffffffffffffffffffffffff1681565b60115481565b6007818051602081018201805184825260208301602085012081835280955050505050506000915090505481565b606060038260405161122b9190614ec8565b90815260200160405180910390206003018054806020026020016040519081016040528092919081815260200182805480156112bc57602002820191906000526020600020905b8160009054906101000a900473ffffffffffffffffffffffffffffffffffffffff1673ffffffffffffffffffffffffffffffffffffffff1681526020019060010190808311611272575b50505050509050919050565b60125481565b600a5481565b60145481565b6112e2612bbb565b6112ea612c0a565b6112f2612c2b565b6112fa613a6b565b61130333612d54565b6000808251905061131261406d565b606080600080600090505b858110156115e557600388828151811061133a57611339614edf565b5b602002602001015160405161134f9190614ec8565b90815260200160405180910390206040518060a001604052908160008201805461137890614f3d565b80601f01602080910402602001604051908101604052809291908181526020018280546113a490614f3d565b80156113f15780601f106113c6576101008083540402835291602001916113f1565b820191906000526020600020905b8154815290600101906020018083116113d457829003601f168201915b5050505050815260200160018201548152602001600282015481526020016003820180548060200260200160405190810160405280929190818152602001828054801561149357602002820191906000526020600020905b8160009054906101000a900473ffffffffffffffffffffffffffffffffffffffff1673ffffffffffffffffffffffffffffffffffffffff1681526020019060010190808311611449575b50505050508152602001600482018054806020026020016040519081016040528092919081815260200182805480156114eb57602002820191906000526020600020905b8154815260200190600101908083116114d7575b505050505081525050945084606001519350846080015192508351915060005b828110156115bf5783818151811061152657611525614edf565b5b6020026020010151866040015161153d9190614f6e565b6005600087848151811061155457611553614edf565b5b602002602001015173ffffffffffffffffffffffffffffffffffffffff1673ffffffffffffffffffffffffffffffffffffffff16815260200190815260200160002060008282546115a59190614d8f565b9250508190555080806115b790614fb0565b91505061150b565b508460400151876115d09190614d8f565b965080806115dd90614fb0565b91505061131d565b506002866115f39190614f6e565b3414611634576040517f08c379a000000000000000000000000000000000000000000000000000000000815260040161162b90615044565b60405180910390fd5b61167a600d60009054906101000a900473ffffffffffffffffffffffffffffffffffffffff16612710600b548961166b9190614f6e565b6116759190615093565b613b55565b612710600c548761168b9190614f6e565b6116959190615093565b601d6000600f54815260200190815260200160002060008282546116b99190614d8f565b9250508190555069021e19e0c9bab2400000601a6000600f54815260200190815260200160002060008282546116ef9190614d8f565b92505081905550683635c9adc5dea00000601960003373ffffffffffffffffffffffffffffffffffffffff1673ffffffffffffffffffffffffffffffffffffffff168152602001908152602001600020600082825461174e9190614d8f565b92505081905550600f54601860003373ffffffffffffffffffffffffffffffffffffffff1673ffffffffffffffffffffffffffffffffffffffff16815260200190815260200160002081905550683635c9adc5dea00000601b60006011548152602001908152602001600020546117c59190614d8f565b601b6000600f54815260200190815260200160002060008282546117e99190614d8f565b925050819055505050505050506117fe613a62565b50565b611809613c06565b6118136000613c84565b565b61181d612bbb565b611825612c0a565b61182d612c2b565b61183633612d54565b8060400151341461187c576040517f08c379a000000000000000000000000000000000000000000000000000000000815260040161187390615136565b60405180910390fd5b6040518060a00160405280826000015181526020018260200151815260200182604001518152602001826060015181526020018260800151815250600382600001516040516118cb9190614ec8565b908152602001604051809103902060008201518160000190816118ee91906152f8565b506020820151816001015560408201518160020155606082015181600301908051906020019061191f92919061409c565b50608082015181600401908051906020019061193c929190614126565b509050508060400151600782600001516040516119599190614ec8565b908152602001604051809103902081905550611973613a62565b50565b7f000000000000000000000000000000000000000000000000000000000000000081565b60008060009054906101000a900473ffffffffffffffffffffffffffffffffffffffff16905090565b60046020528060005260406000206000915090505481565b6119e3612bbb565b6119eb612c0a565b6119f3612c2b565b6119fc33612d54565b60008111611a3f576040517f08c379a0000000000000000000000000000000000000000000000000000000008152600401611a3690614cae565b60405180910390fd5b80600e6000828254611a519190614d8f565b9250508190555060006001600f54611a699190614d8f565b905060135460115403611a88576001601154611a859190614d8f565b90505b602060003373ffffffffffffffffffffffffffffffffffffffff1673ffffffffffffffffffffffffffffffffffffffff168152602001908152602001600020548114158015611b165750602160003373ffffffffffffffffffffffffffffffffffffffff1673ffffffffffffffffffffffffffffffffffffffff168152602001908152602001600020548114155b15611c39576000602060003373ffffffffffffffffffffffffffffffffffffffff1673ffffffffffffffffffffffffffffffffffffffff1681526020019081526020016000205403611bab5780602060003373ffffffffffffffffffffffffffffffffffffffff1673ffffffffffffffffffffffffffffffffffffffff16815260200190815260200160002081905550611c38565b6000602160003373ffffffffffffffffffffffffffffffffffffffff1673ffffffffffffffffffffffffffffffffffffffff1681526020019081526020016000205403611c375780602160003373ffffffffffffffffffffffffffffffffffffffff1673ffffffffffffffffffffffffffffffffffffffff168152602001908152602001600020819055505b5b5b81601e60003373ffffffffffffffffffffffffffffffffffffffff1673ffffffffffffffffffffffffffffffffffffffff16815260200190815260200160002060008381526020019081526020016000206000828254611c999190614d8f565b92505081905550611cef333084600260009054906101000a900473ffffffffffffffffffffffffffffffffffffffff1673ffffffffffffffffffffffffffffffffffffffff16613d48909392919063ffffffff16565b50611cf8613a62565b50565b601c6020528060005260406000206000915090505481565b60105481565b601e602052816000526040600020602052806000526040600020600091509150505481565b601a6020528060005260406000206000915090505481565b60066020528060005260406000206000915054906101000a900460ff1681565b6060600382604051611d889190614ec8565b9081526020016040518091039020600401805480602002602001604051908101604052809291908181526020018280548015611de357602002820191906000526020600020905b815481526020019060010190808311611dcf575b50505050509050919050565b600f5481565b60096020528060005260406000206000915090505481565b60007f00000000000000000000000000000000000000000000000000000000000000007f000000000000000000000000000000000000000000000000000000000000000042611e5c9190614dc3565b611e669190615093565b905090565b60086020528060005260406000206000915090505481565b60056020528060005260406000206000915090505481565b60155481565b601b6020528060005260406000206000915090505481565b611ec1613c06565b611ec9612bbb565b80600d60006101000a81548173ffffffffffffffffffffffffffffffffffffffff021916908373ffffffffffffffffffffffffffffffffffffffff160217905550611f12613a62565b50565b611f1d612bbb565b611f25612c0a565b611f2d612c2b565b611f3633612d54565b6000600960003373ffffffffffffffffffffffffffffffffffffffff1673ffffffffffffffffffffffffffffffffffffffff16815260200190815260200160002054905060008111611fbd576040517f08c379a0000000000000000000000000000000000000000000000000000000008152600401611fb490615416565b60405180910390fd5b6000600960003373ffffffffffffffffffffffffffffffffffffffff1673ffffffffffffffffffffffffffffffffffffffff1681526020019081526020016000208190555061200c3382613b55565b50612015613a62565b565b600e5481565b612025612bbb565b61202d612c0a565b612035612c2b565b61203d613a6b565b61204633612d54565b6000808251905061205561406d565b606080600080600090505b8581101561233b57600388828151811061207d5761207c614edf565b5b60200260200101516040516120929190614ec8565b90815260200160405180910390206040518060a00160405290816000820180546120bb90614f3d565b80601f01602080910402602001604051908101604052809291908181526020018280546120e790614f3d565b80156121345780601f1061210957610100808354040283529160200191612134565b820191906000526020600020905b81548152906001019060200180831161211757829003601f168201915b505050505081526020016001820154815260200160028201548152602001600382018054806020026020016040519081016040528092919081815260200182805480156121d657602002820191906000526020600020905b8160009054906101000a900473ffffffffffffffffffffffffffffffffffffffff1673ffffffffffffffffffffffffffffffffffffffff168152602001906001019080831161218c575b505050505081526020016004820180548060200260200160405190810160405280929190818152602001828054801561222e57602002820191906000526020600020905b81548152602001906001019080831161221a575b505050505081525050945084606001519350846080015192508351915060005b8281101561231557670de0b6b3a764000084828151811061227257612271614edf565b5b602002602001015187604001516122899190614f6e565b6122939190615093565b600560008784815181106122aa576122a9614edf565b5b602002602001015173ffffffffffffffffffffffffffffffffffffffff1673ffffffffffffffffffffffffffffffffffffffff16815260200190815260200160002060008282546122fb9190614d8f565b92505081905550808061230d90614fb0565b91505061224e565b508460400151876123269190614d8f565b9650808061233390614fb0565b915050612060565b506002866123499190614f6e565b341461238a576040517f08c379a000000000000000000000000000000000000000000000000000000000815260040161238190615044565b60405180910390fd5b6123d0600d60009054906101000a900473ffffffffffffffffffffffffffffffffffffffff16612710600b54896123c19190614f6e565b6123cb9190615093565b613b55565b612710600c54876123e19190614f6e565b6123eb9190615093565b601d6000600f548152602001908152602001600020600082825461240f9190614d8f565b92505081905550683635c9adc5dea00000601a6000600f54815260200190815260200160002060008282546124449190614d8f565b92505081905550683635c9adc5dea00000601960003373ffffffffffffffffffffffffffffffffffffffff1673ffffffffffffffffffffffffffffffffffffffff16815260200190815260200160002060008282546124a39190614d8f565b92505081905550600f54601860003373ffffffffffffffffffffffffffffffffffffffff1673ffffffffffffffffffffffffffffffffffffffff16815260200190815260200160002081905550683635c9adc5dea00000601b600060115481526020019081526020016000205461251a9190614d8f565b601b6000600f548152602001908152602001600020600082825461253e9190614d8f565b92505081905550505050505050612553613a62565b50565b60216020528060005260406000206000915090505481565b600c5481565b602080528060005260406000206000915090505481565b612593612bbb565b61259b612c0a565b6125a3612c2b565b6125ac33612d54565b60006003846040516125be9190614ec8565b90815260200160405180910390206040518060a00160405290816000820180546125e790614f3d565b80601f016020809104026020016040519081016040528092919081815260200182805461261390614f3d565b80156126605780601f1061263557610100808354040283529160200191612660565b820191906000526020600020905b81548152906001019060200180831161264357829003601f168201915b5050505050815260200160018201548152602001600282015481526020016003820180548060200260200160405190810160405280929190818152602001828054801561270257602002820191906000526020600020905b8160009054906101000a900473ffffffffffffffffffffffffffffffffffffffff1673ffffffffffffffffffffffffffffffffffffffff16815260200190600101908083116126b8575b505050505081526020016004820180548060200260200160405190810160405280929190818152602001828054801561275a57602002820191906000526020600020905b815481526020019060010190808311612746575b5050505050815250509050600081606001519050600081519050600080600090505b828110156127ed573373ffffffffffffffffffffffffffffffffffffffff168482815181106127ae576127ad614edf565b5b602002602001015173ffffffffffffffffffffffffffffffffffffffff16036127da57600191506127ed565b80806127e590614fb0565b91505061277c565b508061282e576040517f08c379a0000000000000000000000000000000000000000000000000000000008152600401612825906154a8565b60405180910390fd5b8460078860405161283f9190614ec8565b9081526020016040518091039020541015612910576007876040516128649190614ec8565b9081526020016040518091039020548561287e9190614dc3565b3410156128c0576040517f08c379a00000000000000000000000000000000000000000000000000000000081526004016128b79061553a565b60405180910390fd5b846007886040516128d19190614ec8565b90815260200160405180910390208190555034601d6000600f54815260200190815260200160002060008282546129089190614d8f565b925050819055505b6040518060a0016040528088815260200187815260200186815260200185606001518152602001856080015181525060038860405161294f9190614ec8565b9081526020016040518091039020600082015181600001908161297291906152f8565b50602082015181600101556040820151816002015560608201518160030190805190602001906129a392919061409c565b5060808201518160040190805190602001906129c0929190614126565b50905050505050506129d0613a62565b505050565b6000806003836040516129e89190614ec8565b908152602001604051809103902060010154600384604051612a0a9190614ec8565b90815260200160405180910390206002015491509150915091565b60196020528060005260406000206000915090505481565b701d6329f1c35ca4bfabb9f561000000000081565b60135481565b612a60613c06565b600073ffffffffffffffffffffffffffffffffffffffff168173ffffffffffffffffffffffffffffffffffffffff1603612acf576040517f08c379a0000000000000000000000000000000000000000000000000000000008152600401612ac6906155cc565b60405180910390fd5b612ad881613c84565b50565b60186020528060005260406000206000915090505481565b600381805160208101820180518482526020830160208501208183528095505050505050600091509050806000018054612b2c90614f3d565b80601f0160208091040260200160405190810160405280929190818152602001828054612b5890614f3d565b8015612ba55780601f10612b7a57610100808354040283529160200191612ba5565b820191906000526020600020905b815481529060010190602001808311612b8857829003601f168201915b5050505050908060010154908060020154905083565b600260015403612c00576040517f08c379a0000000000000000000000000000000000000000000000000000000008152600401612bf790615638565b60405180910390fd5b6002600181905550565b6000612c14611e0d565b9050600f54811115612c285780600f819055505b50565b601354600f5414612c55576001601154612c459190614d8f565b6012819055506013546011819055505b601154600f54118015612c8957506000600860006001601154612c789190614d8f565b815260200190815260200160002054145b15612d5257600080601b600060115481526020019081526020016000205414612d0557601b6000601154815260200190815260200160002054701d6329f1c35ca4bfabb9f5610000000000601d6000601154815260200190815260200160002054612cf49190614f6e565b612cfe9190615093565b9050612d0a565b600090505b8060086000601254815260200190815260200160002054612d2b9190614d8f565b600860006001601154612d3e9190614d8f565b815260200190815260200160002081905550505b565b601154600f54118015612db457506001601154612d719190614d8f565b601c60008373ffffffffffffffffffffffffffffffffffffffff1673ffffffffffffffffffffffffffffffffffffffff1681526020019081526020016000205414155b15612f7e57701d6329f1c35ca4bfabb9f561000000000060086000601c60008573ffffffffffffffffffffffffffffffffffffffff1673ffffffffffffffffffffffffffffffffffffffff16815260200190815260200160002054815260200190815260200160002054600860006001601154612e319190614d8f565b815260200190815260200160002054612e4a9190614dc3565b601960008473ffffffffffffffffffffffffffffffffffffffff1673ffffffffffffffffffffffffffffffffffffffff16815260200190815260200160002054612e949190614f6e565b612e9e9190615093565b600960008373ffffffffffffffffffffffffffffffffffffffff1673ffffffffffffffffffffffffffffffffffffffff16815260200190815260200160002054612ee89190614d8f565b600960008373ffffffffffffffffffffffffffffffffffffffff1673ffffffffffffffffffffffffffffffffffffffff168152602001908152602001600020819055506001601154612f3a9190614d8f565b601c60008373ffffffffffffffffffffffffffffffffffffffff1673ffffffffffffffffffffffffffffffffffffffff168152602001908152602001600020819055505b6000602060008373ffffffffffffffffffffffffffffffffffffffff1673ffffffffffffffffffffffffffffffffffffffff168152602001908152602001600020541415801561300e5750602060008273ffffffffffffffffffffffffffffffffffffffff1673ffffffffffffffffffffffffffffffffffffffff16815260200190815260200160002054600f54115b156139d9576000601e60008373ffffffffffffffffffffffffffffffffffffffff1673ffffffffffffffffffffffffffffffffffffffff1681526020019081526020016000206000602060008573ffffffffffffffffffffffffffffffffffffffff1673ffffffffffffffffffffffffffffffffffffffff16815260200190815260200160002054815260200190815260200160002054905080601960008473ffffffffffffffffffffffffffffffffffffffff1673ffffffffffffffffffffffffffffffffffffffff16815260200190815260200160002060008282546130f69190614d8f565b9250508190555080601f60008473ffffffffffffffffffffffffffffffffffffffff1673ffffffffffffffffffffffffffffffffffffffff168152602001908152602001600020600082825461314c9190614d8f565b92505081905550602060008373ffffffffffffffffffffffffffffffffffffffff1673ffffffffffffffffffffffffffffffffffffffff1681526020019081526020016000205460016011546131a29190614d8f565b111561336b57701d6329f1c35ca4bfabb9f561000000000060086000602060008673ffffffffffffffffffffffffffffffffffffffff1673ffffffffffffffffffffffffffffffffffffffff168152602001908152602001600020548152602001908152602001600020546008600060016011546132209190614d8f565b8152602001908152602001600020546132399190614dc3565b601e60008573ffffffffffffffffffffffffffffffffffffffff1673ffffffffffffffffffffffffffffffffffffffff1681526020019081526020016000206000602060008773ffffffffffffffffffffffffffffffffffffffff1673ffffffffffffffffffffffffffffffffffffffff168152602001908152602001600020548152602001908152602001600020546132d39190614f6e565b6132dd9190615093565b600960008473ffffffffffffffffffffffffffffffffffffffff1673ffffffffffffffffffffffffffffffffffffffff168152602001908152602001600020546133279190614d8f565b600960008473ffffffffffffffffffffffffffffffffffffffff1673ffffffffffffffffffffffffffffffffffffffff168152602001908152602001600020819055505b6000601e60008473ffffffffffffffffffffffffffffffffffffffff1673ffffffffffffffffffffffffffffffffffffffff1681526020019081526020016000206000602060008673ffffffffffffffffffffffffffffffffffffffff1673ffffffffffffffffffffffffffffffffffffffff168152602001908152602001600020548152602001908152602001600020819055506000602060008473ffffffffffffffffffffffffffffffffffffffff1673ffffffffffffffffffffffffffffffffffffffff168152602001908152602001600020819055506000602160008473ffffffffffffffffffffffffffffffffffffffff1673ffffffffffffffffffffffffffffffffffffffff16815260200190815260200160002054146139d757602160008373ffffffffffffffffffffffffffffffffffffffff1673ffffffffffffffffffffffffffffffffffffffff16815260200190815260200160002054600f54111561390d576000601e60008473ffffffffffffffffffffffffffffffffffffffff1673ffffffffffffffffffffffffffffffffffffffff1681526020019081526020016000206000602160008673ffffffffffffffffffffffffffffffffffffffff1673ffffffffffffffffffffffffffffffffffffffff16815260200190815260200160002054815260200190815260200160002054905080601960008573ffffffffffffffffffffffffffffffffffffffff1673ffffffffffffffffffffffffffffffffffffffff16815260200190815260200160002060008282546135b89190614d8f565b9250508190555080601f60008573ffffffffffffffffffffffffffffffffffffffff1673ffffffffffffffffffffffffffffffffffffffff168152602001908152602001600020600082825461360e9190614d8f565b92505081905550602160008473ffffffffffffffffffffffffffffffffffffffff1673ffffffffffffffffffffffffffffffffffffffff1681526020019081526020016000205460016011546136649190614d8f565b111561382d57701d6329f1c35ca4bfabb9f561000000000060086000602160008773ffffffffffffffffffffffffffffffffffffffff1673ffffffffffffffffffffffffffffffffffffffff168152602001908152602001600020548152602001908152602001600020546008600060016011546136e29190614d8f565b8152602001908152602001600020546136fb9190614dc3565b601e60008673ffffffffffffffffffffffffffffffffffffffff1673ffffffffffffffffffffffffffffffffffffffff1681526020019081526020016000206000602160008873ffffffffffffffffffffffffffffffffffffffff1673ffffffffffffffffffffffffffffffffffffffff168152602001908152602001600020548152602001908152602001600020546137959190614f6e565b61379f9190615093565b600960008573ffffffffffffffffffffffffffffffffffffffff1673ffffffffffffffffffffffffffffffffffffffff168152602001908152602001600020546137e99190614d8f565b600960008573ffffffffffffffffffffffffffffffffffffffff1673ffffffffffffffffffffffffffffffffffffffff168152602001908152602001600020819055505b6000601e60008573ffffffffffffffffffffffffffffffffffffffff1673ffffffffffffffffffffffffffffffffffffffff1681526020019081526020016000206000602160008773ffffffffffffffffffffffffffffffffffffffff1673ffffffffffffffffffffffffffffffffffffffff168152602001908152602001600020548152602001908152602001600020819055506000602160008573ffffffffffffffffffffffffffffffffffffffff1673ffffffffffffffffffffffffffffffffffffffff16815260200190815260200160002081905550506139d6565b602160008373ffffffffffffffffffffffffffffffffffffffff1673ffffffffffffffffffffffffffffffffffffffff16815260200190815260200160002054602060008473ffffffffffffffffffffffffffffffffffffffff1673ffffffffffffffffffffffffffffffffffffffff168152602001908152602001600020819055506000602160008473ffffffffffffffffffffffffffffffffffffffff1673ffffffffffffffffffffffffffffffffffffffff168152602001908152602001600020819055505b5b505b50565b613a5d8363a9059cbb60e01b84846040516024016139fb929190614e63565b604051602081830303815290604052907bffffffffffffffffffffffffffffffffffffffffffffffffffffffff19166020820180517bffffffffffffffffffffffffffffffffffffffffffffffffffffffff8381831617835250505050613dd1565b505050565b60018081905550565b6000151560066000600f54815260200190815260200160002060009054906101000a900460ff16151503613b5357600160066000600f54815260200190815260200160002060006101000a81548160ff021916908315150217905550600f546013819055506000600e5414613b1157600e54601b600060135481526020019081526020016000206000828254613b019190614d8f565b925050819055506000600e819055505b600060145414613b5257601454601b600060135481526020019081526020016000206000828254613b429190614dc3565b9250508190555060006014819055505b5b565b60008273ffffffffffffffffffffffffffffffffffffffff1682604051613b7b90615689565b60006040518083038185875af1925050503d8060008114613bb8576040519150601f19603f3d011682016040523d82523d6000602084013e613bbd565b606091505b5050905080613c01576040517f08c379a0000000000000000000000000000000000000000000000000000000008152600401613bf8906156ea565b60405180910390fd5b505050565b613c0e613e98565b73ffffffffffffffffffffffffffffffffffffffff16613c2c61199a565b73ffffffffffffffffffffffffffffffffffffffff1614613c82576040517f08c379a0000000000000000000000000000000000000000000000000000000008152600401613c7990615756565b60405180910390fd5b565b60008060009054906101000a900473ffffffffffffffffffffffffffffffffffffffff169050816000806101000a81548173ffffffffffffffffffffffffffffffffffffffff021916908373ffffffffffffffffffffffffffffffffffffffff1602179055508173ffffffffffffffffffffffffffffffffffffffff168173ffffffffffffffffffffffffffffffffffffffff167f8be0079c531659141344cd1fd0a4f28419497f9722a3daafe3b4186f6b6457e060405160405180910390a35050565b613dcb846323b872dd60e01b858585604051602401613d6993929190615776565b604051602081830303815290604052907bffffffffffffffffffffffffffffffffffffffffffffffffffffffff19166020820180517bffffffffffffffffffffffffffffffffffffffffffffffffffffffff8381831617835250505050613dd1565b50505050565b6000613e33826040518060400160405280602081526020017f5361666545524332303a206c6f772d6c6576656c2063616c6c206661696c65648152508573ffffffffffffffffffffffffffffffffffffffff16613ea09092919063ffffffff16565b9050600081511115613e935780806020019051810190613e5391906157d9565b613e92576040517f08c379a0000000000000000000000000000000000000000000000000000000008152600401613e8990615878565b60405180910390fd5b5b505050565b600033905090565b6060613eaf8484600085613eb8565b90509392505050565b606082471015613efd576040517f08c379a0000000000000000000000000000000000000000000000000000000008152600401613ef49061590a565b60405180910390fd5b6000808673ffffffffffffffffffffffffffffffffffffffff168587604051613f269190615966565b60006040518083038185875af1925050503d8060008114613f63576040519150601f19603f3d011682016040523d82523d6000602084013e613f68565b606091505b5091509150613f7987838387613f85565b92505050949350505050565b60608315613fe7576000835103613fdf57613f9f85613ffa565b613fde576040517f08c379a0000000000000000000000000000000000000000000000000000000008152600401613fd5906159c9565b60405180910390fd5b5b829050613ff2565b613ff1838361401d565b5b949350505050565b6000808273ffffffffffffffffffffffffffffffffffffffff163b119050919050565b6000825111156140305781518083602001fd5b806040517f08c379a000000000000000000000000000000000000000000000000000000000815260040161406491906159e9565b60405180910390fd5b6040518060a0016040528060608152602001600081526020016000815260200160608152602001606081525090565b828054828255906000526020600020908101928215614115579160200282015b828111156141145782518260006101000a81548173ffffffffffffffffffffffffffffffffffffffff021916908373ffffffffffffffffffffffffffffffffffffffff160217905550916020019190600101906140bc565b5b5090506141229190614173565b5090565b828054828255906000526020600020908101928215614162579160200282015b82811115614161578251825591602001919060010190614146565b5b50905061416f9190614173565b5090565b5b8082111561418c576000816000905550600101614174565b5090565b6000604051905090565b600080fd5b600080fd5b6000819050919050565b6141b7816141a4565b81146141c257600080fd5b50565b6000813590506141d4816141ae565b92915050565b6000602082840312156141f0576141ef61419a565b5b60006141fe848285016141c5565b91505092915050565b614210816141a4565b82525050565b600060208201905061422b6000830184614207565b92915050565b600073ffffffffffffffffffffffffffffffffffffffff82169050919050565b600061425c82614231565b9050919050565b61426c81614251565b811461427757600080fd5b50565b60008135905061428981614263565b92915050565b6000602082840312156142a5576142a461419a565b5b60006142b38482850161427a565b91505092915050565b6000819050919050565b60006142e16142dc6142d784614231565b6142bc565b614231565b9050919050565b60006142f3826142c6565b9050919050565b6000614305826142e8565b9050919050565b614315816142fa565b82525050565b6000602082019050614330600083018461430c565b92915050565b61433f81614251565b82525050565b600060208201905061435a6000830184614336565b92915050565b600080fd5b600080fd5b6000601f19601f8301169050919050565b7f4e487b7100000000000000000000000000000000000000000000000000000000600052604160045260246000fd5b6143b38261436a565b810181811067ffffffffffffffff821117156143d2576143d161437b565b5b80604052505050565b60006143e5614190565b90506143f182826143aa565b919050565b600067ffffffffffffffff8211156144115761441061437b565b5b61441a8261436a565b9050602081019050919050565b82818337600083830152505050565b6000614449614444846143f6565b6143db565b90508281526020810184848401111561446557614464614365565b5b614470848285614427565b509392505050565b600082601f83011261448d5761448c614360565b5b813561449d848260208601614436565b91505092915050565b6000602082840312156144bc576144bb61419a565b5b600082013567ffffffffffffffff8111156144da576144d961419f565b5b6144e684828501614478565b91505092915050565b600081519050919050565b600082825260208201905092915050565b6000819050602082019050919050565b61452481614251565b82525050565b6000614536838361451b565b60208301905092915050565b6000602082019050919050565b600061455a826144ef565b61456481856144fa565b935061456f8361450b565b8060005b838110156145a0578151614587888261452a565b975061459283614542565b925050600181019050614573565b5085935050505092915050565b600060208201905081810360008301526145c7818461454f565b905092915050565b600067ffffffffffffffff8211156145ea576145e961437b565b5b602082029050602081019050919050565b600080fd5b600061461361460e846145cf565b6143db565b90508083825260208201905060208402830185811115614636576146356145fb565b5b835b8181101561467d57803567ffffffffffffffff81111561465b5761465a614360565b5b8086016146688982614478565b85526020850194505050602081019050614638565b5050509392505050565b600082601f83011261469c5761469b614360565b5b81356146ac848260208601614600565b91505092915050565b6000602082840312156146cb576146ca61419a565b5b600082013567ffffffffffffffff8111156146e9576146e861419f565b5b6146f584828501614687565b91505092915050565b600080fd5b600080fd5b600067ffffffffffffffff8211156147235761472261437b565b5b602082029050602081019050919050565b600061474761474284614708565b6143db565b9050808382526020820190506020840283018581111561476a576147696145fb565b5b835b81811015614793578061477f888261427a565b84526020840193505060208101905061476c565b5050509392505050565b600082601f8301126147b2576147b1614360565b5b81356147c2848260208601614734565b91505092915050565b600067ffffffffffffffff8211156147e6576147e561437b565b5b602082029050602081019050919050565b600061480a614805846147cb565b6143db565b9050808382526020820190506020840283018581111561482d5761482c6145fb565b5b835b81811015614856578061484288826141c5565b84526020840193505060208101905061482f565b5050509392505050565b600082601f83011261487557614874614360565b5b81356148858482602086016147f7565b91505092915050565b600060a082840312156148a4576148a36146fe565b5b6148ae60a06143db565b9050600082013567ffffffffffffffff8111156148ce576148cd614703565b5b6148da84828501614478565b60008301525060206148ee848285016141c5565b6020830152506040614902848285016141c5565b604083015250606082013567ffffffffffffffff81111561492657614925614703565b5b6149328482850161479d565b606083015250608082013567ffffffffffffffff81111561495657614955614703565b5b61496284828501614860565b60808301525092915050565b6000602082840312156149845761498361419a565b5b600082013567ffffffffffffffff8111156149a2576149a161419f565b5b6149ae8482850161488e565b91505092915050565b600080604083850312156149ce576149cd61419a565b5b60006149dc8582860161427a565b92505060206149ed858286016141c5565b9150509250929050565b60008115159050919050565b614a0c816149f7565b82525050565b6000602082019050614a276000830184614a03565b92915050565b600081519050919050565b600082825260208201905092915050565b6000819050602082019050919050565b614a62816141a4565b82525050565b6000614a748383614a59565b60208301905092915050565b6000602082019050919050565b6000614a9882614a2d565b614aa28185614a38565b9350614aad83614a49565b8060005b83811015614ade578151614ac58882614a68565b9750614ad083614a80565b925050600181019050614ab1565b5085935050505092915050565b60006020820190508181036000830152614b058184614a8d565b905092915050565b600080600060608486031215614b2657614b2561419a565b5b600084013567ffffffffffffffff811115614b4457614b4361419f565b5b614b5086828701614478565b9350506020614b61868287016141c5565b9250506040614b72868287016141c5565b9150509250925092565b6000604082019050614b916000830185614207565b614b9e6020830184614207565b9392505050565b600081519050919050565b600082825260208201905092915050565b60005b83811015614bdf578082015181840152602081019050614bc4565b60008484015250505050565b6000614bf682614ba5565b614c008185614bb0565b9350614c10818560208601614bc1565b614c198161436a565b840191505092915050565b60006060820190508181036000830152614c3e8186614beb565b9050614c4d6020830185614207565b614c5a6040830184614207565b949350505050565b7f49424c3a20616d6f756e74206973207a65726f00000000000000000000000000600082015250565b6000614c98601383614bb0565b9150614ca382614c62565b602082019050919050565b60006020820190508181036000830152614cc781614c8b565b9050919050565b7f49424c3a20616d6f756e742067726561746572207468616e207769746864726160008201527f7761626c65207374616b65000000000000000000000000000000000000000000602082015250565b6000614d2a602b83614bb0565b9150614d3582614cce565b604082019050919050565b60006020820190508181036000830152614d5981614d1d565b9050919050565b7f4e487b7100000000000000000000000000000000000000000000000000000000600052601160045260246000fd5b6000614d9a826141a4565b9150614da5836141a4565b9250828201905080821115614dbd57614dbc614d60565b5b92915050565b6000614dce826141a4565b9150614dd9836141a4565b9250828203905081811115614df157614df0614d60565b5b92915050565b7f49424c3a206163636f756e7420686173206e6f20726577617264730000000000600082015250565b6000614e2d601b83614bb0565b9150614e3882614df7565b602082019050919050565b60006020820190508181036000830152614e5c81614e20565b9050919050565b6000604082019050614e786000830185614336565b614e856020830184614207565b9392505050565b600081905092915050565b6000614ea282614ba5565b614eac8185614e8c565b9350614ebc818560208601614bc1565b80840191505092915050565b6000614ed48284614e97565b915081905092915050565b7f4e487b7100000000000000000000000000000000000000000000000000000000600052603260045260246000fd5b7f4e487b7100000000000000000000000000000000000000000000000000000000600052602260045260246000fd5b60006002820490506001821680614f5557607f821691505b602082108103614f6857614f67614f0e565b5b50919050565b6000614f79826141a4565b9150614f84836141a4565b9250828202614f92816141a4565b91508282048414831517614fa957614fa8614d60565b5b5092915050565b6000614fbb826141a4565b91507fffffffffffffffffffffffffffffffffffffffffffffffffffffffffffffffff8203614fed57614fec614d60565b5b600182019050919050565b7f49424c3a20596f75206d7573742073656e642065786163742076616c75652100600082015250565b600061502e601f83614bb0565b915061503982614ff8565b602082019050919050565b6000602082019050818103600083015261505d81615021565b9050919050565b7f4e487b7100000000000000000000000000000000000000000000000000000000600052601260045260246000fd5b600061509e826141a4565b91506150a9836141a4565b9250826150b9576150b8615064565b5b828204905092915050565b7f49424c3a20596f75206d75737420706179207075626c69636174696f6e20666560008201527f6521000000000000000000000000000000000000000000000000000000000000602082015250565b6000615120602283614bb0565b915061512b826150c4565b604082019050919050565b6000602082019050818103600083015261514f81615113565b9050919050565b60008190508160005260206000209050919050565b60006020601f8301049050919050565b600082821b905092915050565b6000600883026151b87fffffffffffffffffffffffffffffffffffffffffffffffffffffffffffffffff8261517b565b6151c2868361517b565b95508019841693508086168417925050509392505050565b60006151f56151f06151eb846141a4565b6142bc565b6141a4565b9050919050565b6000819050919050565b61520f836151da565b61522361521b826151fc565b848454615188565b825550505050565b600090565b61523861522b565b615243818484615206565b505050565b5b818110156152675761525c600082615230565b600181019050615249565b5050565b601f8211156152ac5761527d81615156565b6152868461516b565b81016020851015615295578190505b6152a96152a18561516b565b830182615248565b50505b505050565b600082821c905092915050565b60006152cf600019846008026152b1565b1980831691505092915050565b60006152e883836152be565b9150826002028217905092915050565b61530182614ba5565b67ffffffffffffffff81111561531a5761531961437b565b5b6153248254614f3d565b61532f82828561526b565b600060209050601f8311600181146153625760008415615350578287015190505b61535a85826152dc565b8655506153c2565b601f19841661537086615156565b60005b8281101561539857848901518255600182019150602085019450602081019050615373565b868310156153b557848901516153b1601f8916826152be565b8355505b6001600288020188555050505b505050505050565b7f444258656e3a20616d6f756e74206973207a65726f0000000000000000000000600082015250565b6000615400601583614bb0565b915061540b826153ca565b602082019050919050565b6000602082019050818103600083015261542f816153f3565b9050919050565b7f49424c3a20596f752063616e6e6f74207570646174652074686520707269636560008201527f206265636175736520796f7520617265206e6f7420746865206f776e65720000602082015250565b6000615492603e83614bb0565b915061549d82615436565b604082019050919050565b600060208201905081810360008301526154c181615485565b9050919050565b7f49424c3a20796f75206d7573742073656e64207468652066656520696e20636f60008201527f6e74726163742100000000000000000000000000000000000000000000000000602082015250565b6000615524602783614bb0565b915061552f826154c8565b604082019050919050565b6000602082019050818103600083015261555381615517565b9050919050565b7f4f776e61626c653a206e6577206f776e657220697320746865207a65726f206160008201527f6464726573730000000000000000000000000000000000000000000000000000602082015250565b60006155b6602683614bb0565b91506155c18261555a565b604082019050919050565b600060208201905081810360008301526155e5816155a9565b9050919050565b7f5265656e7472616e637947756172643a207265656e7472616e742063616c6c00600082015250565b6000615622601f83614bb0565b915061562d826155ec565b602082019050919050565b6000602082019050818103600083015261565181615615565b9050919050565b600081905092915050565b50565b6000615673600083615658565b915061567e82615663565b600082019050919050565b600061569482615666565b9150819050919050565b7f444258656e3a206661696c656420746f2073656e6420616d6f756e7400000000600082015250565b60006156d4601c83614bb0565b91506156df8261569e565b602082019050919050565b60006020820190508181036000830152615703816156c7565b9050919050565b7f4f776e61626c653a2063616c6c6572206973206e6f7420746865206f776e6572600082015250565b6000615740602083614bb0565b915061574b8261570a565b602082019050919050565b6000602082019050818103600083015261576f81615733565b9050919050565b600060608201905061578b6000830186614336565b6157986020830185614336565b6157a56040830184614207565b949350505050565b6157b6816149f7565b81146157c157600080fd5b50565b6000815190506157d3816157ad565b92915050565b6000602082840312156157ef576157ee61419a565b5b60006157fd848285016157c4565b91505092915050565b7f5361666545524332303a204552433230206f7065726174696f6e20646964206e60008201527f6f74207375636365656400000000000000000000000000000000000000000000602082015250565b6000615862602a83614bb0565b915061586d82615806565b604082019050919050565b6000602082019050818103600083015261589181615855565b9050919050565b7f416464726573733a20696e73756666696369656e742062616c616e636520666f60008201527f722063616c6c0000000000000000000000000000000000000000000000000000602082015250565b60006158f4602683614bb0565b91506158ff82615898565b604082019050919050565b60006020820190508181036000830152615923816158e7565b9050919050565b600081519050919050565b60006159408261592a565b61594a8185615658565b935061595a818560208601614bc1565b80840191505092915050565b60006159728284615935565b915081905092915050565b7f416464726573733a2063616c6c20746f206e6f6e2d636f6e7472616374000000600082015250565b60006159b3601d83614bb0565b91506159be8261597d565b602082019050919050565b600060208201905081810360008301526159e2816159a6565b9050919050565b60006020820190508181036000830152615a038184614beb565b90509291505056fea2646970667358221220d898fcc53aa1c03c8fc95cab48be21a935021bbdf741798a5794023645f0c69764736f6c6343000812003360a06040523480156200001157600080fd5b506040518060400160405280601081526020017f49424c2052657761726420746f6b656e000000000000000000000000000000008152506040518060400160405280600381526020017f49424c000000000000000000000000000000000000000000000000000000000081525081600390816200008f919062000358565b508060049081620000a1919062000358565b5050503373ffffffffffffffffffffffffffffffffffffffff1660808173ffffffffffffffffffffffffffffffffffffffff16815250506200043f565b600081519050919050565b7f4e487b7100000000000000000000000000000000000000000000000000000000600052604160045260246000fd5b7f4e487b7100000000000000000000000000000000000000000000000000000000600052602260045260246000fd5b600060028204905060018216806200016057607f821691505b60208210810362000176576200017562000118565b5b50919050565b60008190508160005260206000209050919050565b60006020601f8301049050919050565b600082821b905092915050565b600060088302620001e07fffffffffffffffffffffffffffffffffffffffffffffffffffffffffffffffff82620001a1565b620001ec8683620001a1565b95508019841693508086168417925050509392505050565b6000819050919050565b6000819050919050565b600062000239620002336200022d8462000204565b6200020e565b62000204565b9050919050565b6000819050919050565b620002558362000218565b6200026d620002648262000240565b848454620001ae565b825550505050565b600090565b6200028462000275565b620002918184846200024a565b505050565b5b81811015620002b957620002ad6000826200027a565b60018101905062000297565b5050565b601f8211156200030857620002d2816200017c565b620002dd8462000191565b81016020851015620002ed578190505b62000305620002fc8562000191565b83018262000296565b50505b505050565b600082821c905092915050565b60006200032d600019846008026200030d565b1980831691505092915050565b60006200034883836200031a565b9150826002028217905092915050565b6200036382620000de565b67ffffffffffffffff8111156200037f576200037e620000e9565b5b6200038b825462000147565b62000398828285620002bd565b600060209050601f831160018114620003d05760008415620003bb578287015190505b620003c785826200033a565b86555062000437565b601f198416620003e0866200017c565b60005b828110156200040a57848901518255600182019150602085019450602081019050620003e3565b868310156200042a578489015162000426601f8916826200031a565b8355505b6001600288020188555050505b505050505050565b6080516115a7620004626000396000818161044e015261050401526115a76000f3fe608060405234801561001057600080fd5b50600436106100cf5760003560e01c806370a082311161008c5780639a49090e116100665780639a49090e1461022a578063a457c2d714610246578063a9059cbb14610276578063dd62ed3e146102a6576100cf565b806370a08231146101be5780638da5cb5b146101ee57806395d89b411461020c576100cf565b806306fdde03146100d4578063095ea7b3146100f257806318160ddd1461012257806323b872dd14610140578063313ce56714610170578063395093511461018e575b600080fd5b6100dc6102d6565b6040516100e99190610d82565b60405180910390f35b61010c60048036038101906101079190610e3d565b610368565b6040516101199190610e98565b60405180910390f35b61012a61038b565b6040516101379190610ec2565b60405180910390f35b61015a60048036038101906101559190610edd565b610395565b6040516101679190610e98565b60405180910390f35b6101786103c4565b6040516101859190610f4c565b60405180910390f35b6101a860048036038101906101a39190610e3d565b6103cd565b6040516101b59190610e98565b60405180910390f35b6101d860048036038101906101d39190610f67565b610404565b6040516101e59190610ec2565b60405180910390f35b6101f661044c565b6040516102039190610fa3565b60405180910390f35b610214610470565b6040516102219190610d82565b60405180910390f35b610244600480360381019061023f9190610e3d565b610502565b005b610260600480360381019061025b9190610e3d565b61059e565b60405161026d9190610e98565b60405180910390f35b610290600480360381019061028b9190610e3d565b610615565b60405161029d9190610e98565b60405180910390f35b6102c060048036038101906102bb9190610fbe565b610638565b6040516102cd9190610ec2565b60405180910390f35b6060600380546102e59061102d565b80601f01602080910402602001604051908101604052809291908181526020018280546103119061102d565b801561035e5780601f106103335761010080835404028352916020019161035e565b820191906000526020600020905b81548152906001019060200180831161034157829003601f168201915b5050505050905090565b6000806103736106bf565b90506103808185856106c7565b600191505092915050565b6000600254905090565b6000806103a06106bf565b90506103ad858285610890565b6103b885858561091c565b60019150509392505050565b60006012905090565b6000806103d86106bf565b90506103f98185856103ea8589610638565b6103f4919061108d565b6106c7565b600191505092915050565b60008060008373ffffffffffffffffffffffffffffffffffffffff1673ffffffffffffffffffffffffffffffffffffffff168152602001908152602001600020549050919050565b7f000000000000000000000000000000000000000000000000000000000000000081565b60606004805461047f9061102d565b80601f01602080910402602001604051908101604052809291908181526020018280546104ab9061102d565b80156104f85780601f106104cd576101008083540402835291602001916104f8565b820191906000526020600020905b8154815290600101906020018083116104db57829003601f168201915b5050505050905090565b7f000000000000000000000000000000000000000000000000000000000000000073ffffffffffffffffffffffffffffffffffffffff163373ffffffffffffffffffffffffffffffffffffffff1614610590576040517f08c379a00000000000000000000000000000000000000000000000000000000081526004016105879061110d565b60405180910390fd5b61059a8282610b92565b5050565b6000806105a96106bf565b905060006105b78286610638565b9050838110156105fc576040517f08c379a00000000000000000000000000000000000000000000000000000000081526004016105f39061119f565b60405180910390fd5b61060982868684036106c7565b60019250505092915050565b6000806106206106bf565b905061062d81858561091c565b600191505092915050565b6000600160008473ffffffffffffffffffffffffffffffffffffffff1673ffffffffffffffffffffffffffffffffffffffff16815260200190815260200160002060008373ffffffffffffffffffffffffffffffffffffffff1673ffffffffffffffffffffffffffffffffffffffff16815260200190815260200160002054905092915050565b600033905090565b600073ffffffffffffffffffffffffffffffffffffffff168373ffffffffffffffffffffffffffffffffffffffff1603610736576040517f08c379a000000000000000000000000000000000000000000000000000000000815260040161072d90611231565b60405180910390fd5b600073ffffffffffffffffffffffffffffffffffffffff168273ffffffffffffffffffffffffffffffffffffffff16036107a5576040517f08c379a000000000000000000000000000000000000000000000000000000000815260040161079c906112c3565b60405180910390fd5b80600160008573ffffffffffffffffffffffffffffffffffffffff1673ffffffffffffffffffffffffffffffffffffffff16815260200190815260200160002060008473ffffffffffffffffffffffffffffffffffffffff1673ffffffffffffffffffffffffffffffffffffffff168152602001908152602001600020819055508173ffffffffffffffffffffffffffffffffffffffff168373ffffffffffffffffffffffffffffffffffffffff167f8c5be1e5ebec7d5bd14f71427d1e84f3dd0314c0f7b2291e5b200ac8c7c3b925836040516108839190610ec2565b60405180910390a3505050565b600061089c8484610638565b90507fffffffffffffffffffffffffffffffffffffffffffffffffffffffffffffffff81146109165781811015610908576040517f08c379a00000000000000000000000000000000000000000000000000000000081526004016108ff9061132f565b60405180910390fd5b61091584848484036106c7565b5b50505050565b600073ffffffffffffffffffffffffffffffffffffffff168373ffffffffffffffffffffffffffffffffffffffff160361098b576040517f08c379a0000000000000000000000000000000000000000000000000000000008152600401610982906113c1565b60405180910390fd5b600073ffffffffffffffffffffffffffffffffffffffff168273ffffffffffffffffffffffffffffffffffffffff16036109fa576040517f08c379a00000000000000000000000000000000000000000000000000000000081526004016109f190611453565b60405180910390fd5b610a05838383610ce8565b60008060008573ffffffffffffffffffffffffffffffffffffffff1673ffffffffffffffffffffffffffffffffffffffff16815260200190815260200160002054905081811015610a8b576040517f08c379a0000000000000000000000000000000000000000000000000000000008152600401610a82906114e5565b60405180910390fd5b8181036000808673ffffffffffffffffffffffffffffffffffffffff1673ffffffffffffffffffffffffffffffffffffffff16815260200190815260200160002081905550816000808573ffffffffffffffffffffffffffffffffffffffff1673ffffffffffffffffffffffffffffffffffffffff168152602001908152602001600020600082825401925050819055508273ffffffffffffffffffffffffffffffffffffffff168473ffffffffffffffffffffffffffffffffffffffff167fddf252ad1be2c89b69c2b068fc378daa952ba7f163c4a11628f55a4df523b3ef84604051610b799190610ec2565b60405180910390a3610b8c848484610ced565b50505050565b600073ffffffffffffffffffffffffffffffffffffffff168273ffffffffffffffffffffffffffffffffffffffff1603610c01576040517f08c379a0000000000000000000000000000000000000000000000000000000008152600401610bf890611551565b60405180910390fd5b610c0d60008383610ce8565b8060026000828254610c1f919061108d565b92505081905550806000808473ffffffffffffffffffffffffffffffffffffffff1673ffffffffffffffffffffffffffffffffffffffff168152602001908152602001600020600082825401925050819055508173ffffffffffffffffffffffffffffffffffffffff16600073ffffffffffffffffffffffffffffffffffffffff167fddf252ad1be2c89b69c2b068fc378daa952ba7f163c4a11628f55a4df523b3ef83604051610cd09190610ec2565b60405180910390a3610ce460008383610ced565b5050565b505050565b505050565b600081519050919050565b600082825260208201905092915050565b60005b83811015610d2c578082015181840152602081019050610d11565b60008484015250505050565b6000601f19601f8301169050919050565b6000610d5482610cf2565b610d5e8185610cfd565b9350610d6e818560208601610d0e565b610d7781610d38565b840191505092915050565b60006020820190508181036000830152610d9c8184610d49565b905092915050565b600080fd5b600073ffffffffffffffffffffffffffffffffffffffff82169050919050565b6000610dd482610da9565b9050919050565b610de481610dc9565b8114610def57600080fd5b50565b600081359050610e0181610ddb565b92915050565b6000819050919050565b610e1a81610e07565b8114610e2557600080fd5b50565b600081359050610e3781610e11565b92915050565b60008060408385031215610e5457610e53610da4565b5b6000610e6285828601610df2565b9250506020610e7385828601610e28565b9150509250929050565b60008115159050919050565b610e9281610e7d565b82525050565b6000602082019050610ead6000830184610e89565b92915050565b610ebc81610e07565b82525050565b6000602082019050610ed76000830184610eb3565b92915050565b600080600060608486031215610ef657610ef5610da4565b5b6000610f0486828701610df2565b9350506020610f1586828701610df2565b9250506040610f2686828701610e28565b9150509250925092565b600060ff82169050919050565b610f4681610f30565b82525050565b6000602082019050610f616000830184610f3d565b92915050565b600060208284031215610f7d57610f7c610da4565b5b6000610f8b84828501610df2565b91505092915050565b610f9d81610dc9565b82525050565b6000602082019050610fb86000830184610f94565b92915050565b60008060408385031215610fd557610fd4610da4565b5b6000610fe385828601610df2565b9250506020610ff485828601610df2565b9150509250929050565b7f4e487b7100000000000000000000000000000000000000000000000000000000600052602260045260246000fd5b6000600282049050600182168061104557607f821691505b60208210810361105857611057610ffe565b5b50919050565b7f4e487b7100000000000000000000000000000000000000000000000000000000600052601160045260246000fd5b600061109882610e07565b91506110a383610e07565b92508282019050808211156110bb576110ba61105e565b5b92915050565b7f49424c3a2063616c6c6572206973206e6f742049424c20636f6e74726163742e600082015250565b60006110f7602083610cfd565b9150611102826110c1565b602082019050919050565b60006020820190508181036000830152611126816110ea565b9050919050565b7f45524332303a2064656372656173656420616c6c6f77616e63652062656c6f7760008201527f207a65726f000000000000000000000000000000000000000000000000000000602082015250565b6000611189602583610cfd565b91506111948261112d565b604082019050919050565b600060208201905081810360008301526111b88161117c565b9050919050565b7f45524332303a20617070726f76652066726f6d20746865207a65726f2061646460008201527f7265737300000000000000000000000000000000000000000000000000000000602082015250565b600061121b602483610cfd565b9150611226826111bf565b604082019050919050565b6000602082019050818103600083015261124a8161120e565b9050919050565b7f45524332303a20617070726f766520746f20746865207a65726f20616464726560008201527f7373000000000000000000000000000000000000000000000000000000000000602082015250565b60006112ad602283610cfd565b91506112b882611251565b604082019050919050565b600060208201905081810360008301526112dc816112a0565b9050919050565b7f45524332303a20696e73756666696369656e7420616c6c6f77616e6365000000600082015250565b6000611319601d83610cfd565b9150611324826112e3565b602082019050919050565b600060208201905081810360008301526113488161130c565b9050919050565b7f45524332303a207472616e736665722066726f6d20746865207a65726f20616460008201527f6472657373000000000000000000000000000000000000000000000000000000602082015250565b60006113ab602583610cfd565b91506113b68261134f565b604082019050919050565b600060208201905081810360008301526113da8161139e565b9050919050565b7f45524332303a207472616e7366657220746f20746865207a65726f206164647260008201527f6573730000000000000000000000000000000000000000000000000000000000602082015250565b600061143d602383610cfd565b9150611448826113e1565b604082019050919050565b6000602082019050818103600083015261146c81611430565b9050919050565b7f45524332303a207472616e7366657220616d6f756e742065786365656473206260008201527f616c616e63650000000000000000000000000000000000000000000000000000602082015250565b60006114cf602683610cfd565b91506114da82611473565b604082019050919050565b600060208201905081810360008301526114fe816114c2565b9050919050565b7f45524332303a206d696e7420746f20746865207a65726f206164647265737300600082015250565b600061153b601f83610cfd565b915061154682611505565b602082019050919050565b6000602082019050818103600083015261156a8161152e565b905091905056fea26469706673582212205a3067c46e09df399be094e80c9fb25d65ba159c1ca86528e25bb038e649aaaa64736f6c63430008120033",
  "linkReferences": {},
  "deployedLinkReferences": {}
}