{
  "_format": "hh-sol-artifact-1",
  "contractName": "IBL",
  "sourceName": "contracts/IBL.sol",
  "abi": [
    {
      "inputs": [
        {
          "internalType": "address",
          "name": "_devAddress",
          "type": "address"
        }
      ],
      "stateMutability": "nonpayable",
      "type": "constructor"
    },
    {
      "anonymous": false,
      "inputs": [
        {
          "indexed": true,
          "internalType": "uint256",
          "name": "cycle",
          "type": "uint256"
        },
        {
          "indexed": true,
          "internalType": "address",
          "name": "account",
          "type": "address"
        },
        {
          "indexed": false,
          "internalType": "uint256",
          "name": "fees",
          "type": "uint256"
        }
      ],
      "name": "FeesClaimed",
      "type": "event"
    },
    {
      "anonymous": false,
      "inputs": [
        {
          "indexed": true,
          "internalType": "address",
          "name": "previousOwner",
          "type": "address"
        },
        {
          "indexed": true,
          "internalType": "address",
          "name": "newOwner",
          "type": "address"
        }
      ],
      "name": "OwnershipTransferred",
      "type": "event"
    },
    {
      "inputs": [],
      "name": "IBL_TEAM_FEE",
      "outputs": [
        {
          "internalType": "uint256",
          "name": "",
          "type": "uint256"
        }
      ],
      "stateMutability": "view",
      "type": "function"
    },
    {
      "inputs": [],
      "name": "POOL_FEE",
      "outputs": [
        {
          "internalType": "uint256",
          "name": "",
          "type": "uint256"
        }
      ],
      "stateMutability": "view",
      "type": "function"
    },
    {
      "inputs": [],
      "name": "SCALING_FACTOR",
      "outputs": [
        {
          "internalType": "uint256",
          "name": "",
          "type": "uint256"
        }
      ],
      "stateMutability": "view",
      "type": "function"
    },
    {
      "inputs": [
        {
          "internalType": "address",
          "name": "",
          "type": "address"
        }
      ],
      "name": "accAccruedFees",
      "outputs": [
        {
          "internalType": "uint256",
          "name": "",
          "type": "uint256"
        }
      ],
      "stateMutability": "view",
      "type": "function"
    },
    {
      "inputs": [
        {
          "internalType": "address",
          "name": "",
          "type": "address"
        }
      ],
      "name": "accCycleBatchesBurned",
      "outputs": [
        {
          "internalType": "uint256",
          "name": "",
          "type": "uint256"
        }
      ],
      "stateMutability": "view",
      "type": "function"
    },
    {
      "inputs": [
        {
          "internalType": "address",
          "name": "",
          "type": "address"
        }
      ],
      "name": "accFirstStake",
      "outputs": [
        {
          "internalType": "uint256",
          "name": "",
          "type": "uint256"
        }
      ],
      "stateMutability": "view",
      "type": "function"
    },
    {
      "inputs": [
        {
          "internalType": "address",
          "name": "",
          "type": "address"
        }
      ],
      "name": "accRewards",
      "outputs": [
        {
          "internalType": "uint256",
          "name": "",
          "type": "uint256"
        }
      ],
      "stateMutability": "view",
      "type": "function"
    },
    {
      "inputs": [
        {
          "internalType": "address",
          "name": "",
          "type": "address"
        }
      ],
      "name": "accSecondStake",
      "outputs": [
        {
          "internalType": "uint256",
          "name": "",
          "type": "uint256"
        }
      ],
      "stateMutability": "view",
      "type": "function"
    },
    {
      "inputs": [
        {
          "internalType": "address",
          "name": "",
          "type": "address"
        },
        {
          "internalType": "uint256",
          "name": "",
          "type": "uint256"
        }
      ],
      "name": "accStakeCycle",
      "outputs": [
        {
          "internalType": "uint256",
          "name": "",
          "type": "uint256"
        }
      ],
      "stateMutability": "view",
      "type": "function"
    },
    {
      "inputs": [
        {
          "internalType": "address",
          "name": "",
          "type": "address"
        }
      ],
      "name": "accWithdrawableStake",
      "outputs": [
        {
          "internalType": "uint256",
          "name": "",
          "type": "uint256"
        }
      ],
      "stateMutability": "view",
      "type": "function"
    },
    {
      "inputs": [],
      "name": "accruedFees",
      "outputs": [
        {
          "internalType": "uint256",
          "name": "",
          "type": "uint256"
        }
      ],
      "stateMutability": "view",
      "type": "function"
    },
    {
      "inputs": [
        {
          "components": [
            {
              "internalType": "string",
              "name": "id",
              "type": "string"
            },
            {
              "internalType": "uint256",
              "name": "runPrice",
              "type": "uint256"
            },
            {
              "internalType": "uint256",
              "name": "downloadPrice",
              "type": "uint256"
            },
            {
              "internalType": "address[]",
              "name": "owners",
              "type": "address[]"
            },
            {
              "internalType": "uint256[]",
              "name": "procentages",
              "type": "uint256[]"
            }
          ],
          "internalType": "struct IBL.Component",
          "name": "component",
          "type": "tuple"
        }
      ],
      "name": "addComponent",
      "outputs": [],
      "stateMutability": "payable",
      "type": "function"
    },
    {
      "inputs": [
        {
          "internalType": "uint256",
          "name": "",
          "type": "uint256"
        }
      ],
      "name": "alreadyUpdateCycleData",
      "outputs": [
        {
          "internalType": "bool",
          "name": "",
          "type": "bool"
        }
      ],
      "stateMutability": "view",
      "type": "function"
    },
    {
      "inputs": [
        {
          "internalType": "address",
          "name": "",
          "type": "address"
        }
      ],
      "name": "builderReward",
      "outputs": [
        {
          "internalType": "uint256",
          "name": "",
          "type": "uint256"
        }
      ],
      "stateMutability": "view",
      "type": "function"
    },
    {
      "inputs": [],
      "name": "claimComponentOwnerFees",
      "outputs": [],
      "stateMutability": "nonpayable",
      "type": "function"
    },
    {
      "inputs": [],
      "name": "claimFees",
      "outputs": [],
      "stateMutability": "nonpayable",
      "type": "function"
    },
    {
      "inputs": [],
      "name": "claimRewards",
      "outputs": [],
      "stateMutability": "nonpayable",
      "type": "function"
    },
    {
      "inputs": [
        {
          "internalType": "string",
          "name": "",
          "type": "string"
        }
      ],
      "name": "componentData",
      "outputs": [
        {
          "internalType": "string",
          "name": "id",
          "type": "string"
        },
        {
          "internalType": "uint256",
          "name": "runPrice",
          "type": "uint256"
        },
        {
          "internalType": "uint256",
          "name": "downloadPrice",
          "type": "uint256"
        }
      ],
      "stateMutability": "view",
      "type": "function"
    },
    {
      "inputs": [],
      "name": "currentCycle",
      "outputs": [
        {
          "internalType": "uint256",
          "name": "",
          "type": "uint256"
        }
      ],
      "stateMutability": "view",
      "type": "function"
    },
    {
      "inputs": [],
      "name": "currentStartedCycle",
      "outputs": [
        {
          "internalType": "uint256",
          "name": "",
          "type": "uint256"
        }
      ],
      "stateMutability": "view",
      "type": "function"
    },
    {
      "inputs": [
        {
          "internalType": "uint256",
          "name": "",
          "type": "uint256"
        }
      ],
      "name": "cycleAccruedFees",
      "outputs": [
        {
          "internalType": "uint256",
          "name": "",
          "type": "uint256"
        }
      ],
      "stateMutability": "view",
      "type": "function"
    },
    {
      "inputs": [
        {
          "internalType": "uint256",
          "name": "",
          "type": "uint256"
        }
      ],
      "name": "cycleFeesPerStakeSummed",
      "outputs": [
        {
          "internalType": "uint256",
          "name": "",
          "type": "uint256"
        }
      ],
      "stateMutability": "view",
      "type": "function"
    },
    {
      "inputs": [
        {
          "internalType": "uint256",
          "name": "",
          "type": "uint256"
        }
      ],
      "name": "cycleTotalBatchesBurned",
      "outputs": [
        {
          "internalType": "uint256",
          "name": "",
          "type": "uint256"
        }
      ],
      "stateMutability": "view",
      "type": "function"
    },
    {
      "inputs": [],
      "name": "devAddress",
      "outputs": [
        {
          "internalType": "address",
          "name": "",
          "type": "address"
        }
      ],
      "stateMutability": "view",
      "type": "function"
    },
    {
      "inputs": [
        {
          "internalType": "string[]",
          "name": "componentsIds",
          "type": "string[]"
        }
      ],
      "name": "downlodApplication",
      "outputs": [],
      "stateMutability": "payable",
      "type": "function"
    },
    {
      "inputs": [],
      "name": "getCurrentCycle",
      "outputs": [
        {
          "internalType": "uint256",
          "name": "",
          "type": "uint256"
        }
      ],
      "stateMutability": "view",
      "type": "function"
    },
    {
      "inputs": [
        {
          "internalType": "string",
          "name": "id",
          "type": "string"
        }
      ],
      "name": "getFees",
      "outputs": [
        {
          "internalType": "uint256",
          "name": "",
          "type": "uint256"
        },
        {
          "internalType": "uint256",
          "name": "",
          "type": "uint256"
        }
      ],
      "stateMutability": "view",
      "type": "function"
    },
    {
      "inputs": [
        {
          "internalType": "string",
          "name": "id",
          "type": "string"
        }
      ],
      "name": "getOwnersForComponent",
      "outputs": [
        {
          "internalType": "address[]",
          "name": "",
          "type": "address[]"
        }
      ],
      "stateMutability": "view",
      "type": "function"
    },
    {
      "inputs": [
        {
          "internalType": "string",
          "name": "id",
          "type": "string"
        }
      ],
      "name": "getProcentagesForComponent",
      "outputs": [
        {
          "internalType": "uint256[]",
          "name": "",
          "type": "uint256[]"
        }
      ],
      "stateMutability": "view",
      "type": "function"
    },
    {
      "inputs": [],
      "name": "i_initialTimestamp",
      "outputs": [
        {
          "internalType": "uint256",
          "name": "",
          "type": "uint256"
        }
      ],
      "stateMutability": "view",
      "type": "function"
    },
    {
      "inputs": [],
      "name": "i_periodDuration",
      "outputs": [
        {
          "internalType": "uint256",
          "name": "",
          "type": "uint256"
        }
      ],
      "stateMutability": "view",
      "type": "function"
    },
    {
      "inputs": [],
      "name": "ibl",
      "outputs": [
        {
          "internalType": "contract IBLERC20",
          "name": "",
          "type": "address"
        }
      ],
      "stateMutability": "view",
      "type": "function"
    },
    {
      "inputs": [
        {
          "internalType": "address",
          "name": "",
          "type": "address"
        }
      ],
      "name": "lastActiveCycle",
      "outputs": [
        {
          "internalType": "uint256",
          "name": "",
          "type": "uint256"
        }
      ],
      "stateMutability": "view",
      "type": "function"
    },
    {
      "inputs": [],
      "name": "lastCycleReward",
      "outputs": [
        {
          "internalType": "uint256",
          "name": "",
          "type": "uint256"
        }
      ],
      "stateMutability": "view",
      "type": "function"
    },
    {
      "inputs": [
        {
          "internalType": "address",
          "name": "",
          "type": "address"
        }
      ],
      "name": "lastFeeUpdateCycle",
      "outputs": [
        {
          "internalType": "uint256",
          "name": "",
          "type": "uint256"
        }
      ],
      "stateMutability": "view",
      "type": "function"
    },
    {
      "inputs": [
        {
          "internalType": "string",
          "name": "",
          "type": "string"
        }
      ],
      "name": "lastHighestDownloadPrice",
      "outputs": [
        {
          "internalType": "uint256",
          "name": "",
          "type": "uint256"
        }
      ],
      "stateMutability": "view",
      "type": "function"
    },
    {
      "inputs": [],
      "name": "lastStartedCycle",
      "outputs": [
        {
          "internalType": "uint256",
          "name": "",
          "type": "uint256"
        }
      ],
      "stateMutability": "view",
      "type": "function"
    },
    {
      "inputs": [],
      "name": "owner",
      "outputs": [
        {
          "internalType": "address",
          "name": "",
          "type": "address"
        }
      ],
      "stateMutability": "view",
      "type": "function"
    },
    {
      "inputs": [
        {
          "internalType": "address",
          "name": "",
          "type": "address"
        }
      ],
      "name": "ownerNativeFeeAcc",
      "outputs": [
        {
          "internalType": "uint256",
          "name": "",
          "type": "uint256"
        }
      ],
      "stateMutability": "view",
      "type": "function"
    },
    {
      "inputs": [],
      "name": "pendingStake",
      "outputs": [
        {
          "internalType": "uint256",
          "name": "",
          "type": "uint256"
        }
      ],
      "stateMutability": "view",
      "type": "function"
    },
    {
      "inputs": [],
      "name": "pendingStakeWithdrawal",
      "outputs": [
        {
          "internalType": "uint256",
          "name": "",
          "type": "uint256"
        }
      ],
      "stateMutability": "view",
      "type": "function"
    },
    {
      "inputs": [],
      "name": "previousStartedCycle",
      "outputs": [
        {
          "internalType": "uint256",
          "name": "",
          "type": "uint256"
        }
      ],
      "stateMutability": "view",
      "type": "function"
    },
    {
      "inputs": [],
      "name": "renounceOwnership",
      "outputs": [],
      "stateMutability": "nonpayable",
      "type": "function"
    },
    {
      "inputs": [
        {
          "internalType": "uint256",
          "name": "",
          "type": "uint256"
        }
      ],
      "name": "rewardPerCycle",
      "outputs": [
        {
          "internalType": "uint256",
          "name": "",
          "type": "uint256"
        }
      ],
      "stateMutability": "view",
      "type": "function"
    },
    {
      "inputs": [
        {
          "internalType": "string[]",
          "name": "componentsIds",
          "type": "string[]"
        }
      ],
      "name": "runApplication",
      "outputs": [],
      "stateMutability": "payable",
      "type": "function"
    },
    {
      "inputs": [
        {
          "internalType": "address",
          "name": "_devAddress",
          "type": "address"
        }
      ],
      "name": "setDevAddress",
      "outputs": [],
      "stateMutability": "nonpayable",
      "type": "function"
    },
    {
      "inputs": [
        {
          "internalType": "string",
          "name": "id",
          "type": "string"
        },
        {
          "internalType": "uint256",
          "name": "newRunPrice",
          "type": "uint256"
        },
        {
          "internalType": "uint256",
          "name": "newDownloadPrice",
          "type": "uint256"
        }
      ],
      "name": "setNewPrice",
      "outputs": [],
      "stateMutability": "payable",
      "type": "function"
    },
    {
      "inputs": [
        {
          "internalType": "uint256",
          "name": "amount",
          "type": "uint256"
        }
      ],
      "name": "stake",
      "outputs": [],
      "stateMutability": "nonpayable",
      "type": "function"
    },
    {
      "inputs": [
        {
          "internalType": "uint256",
          "name": "",
          "type": "uint256"
        }
      ],
      "name": "summedCycleStakes",
      "outputs": [
        {
          "internalType": "uint256",
          "name": "",
          "type": "uint256"
        }
      ],
      "stateMutability": "view",
      "type": "function"
    },
    {
      "inputs": [],
      "name": "totalNumberOfBatchesBurned",
      "outputs": [
        {
          "internalType": "uint256",
          "name": "",
          "type": "uint256"
        }
      ],
      "stateMutability": "view",
      "type": "function"
    },
    {
      "inputs": [
        {
          "internalType": "address",
          "name": "newOwner",
          "type": "address"
        }
      ],
      "name": "transferOwnership",
      "outputs": [],
      "stateMutability": "nonpayable",
      "type": "function"
    },
    {
      "inputs": [
        {
          "internalType": "uint256",
          "name": "amount",
          "type": "uint256"
        }
      ],
      "name": "unstake",
      "outputs": [],
      "stateMutability": "nonpayable",
      "type": "function"
    }
  ],
  "bytecode": "0x60c06040526101f4600b5561251c600c553480156200001d57600080fd5b50604051620077eb380380620077eb833981810160405281019062000043919062000275565b62000063620000576200013160201b60201c565b6200013960201b60201c565b600180819055506040516200007890620001fd565b604051809103906000f08015801562000095573d6000803e3d6000fd5b50600260006101000a81548173ffffffffffffffffffffffffffffffffffffffff021916908373ffffffffffffffffffffffffffffffffffffffff16021790555080600d60006101000a81548173ffffffffffffffffffffffffffffffffffffffff021916908373ffffffffffffffffffffffffffffffffffffffff16021790555042608081815250506201518060a0818152505050620002a7565b600033905090565b60008060009054906101000a900473ffffffffffffffffffffffffffffffffffffffff169050816000806101000a81548173ffffffffffffffffffffffffffffffffffffffff021916908373ffffffffffffffffffffffffffffffffffffffff1602179055508173ffffffffffffffffffffffffffffffffffffffff168173ffffffffffffffffffffffffffffffffffffffff167f8be0079c531659141344cd1fd0a4f28419497f9722a3daafe3b4186f6b6457e060405160405180910390a35050565b611a098062005de283390190565b600080fd5b600073ffffffffffffffffffffffffffffffffffffffff82169050919050565b60006200023d8262000210565b9050919050565b6200024f8162000230565b81146200025b57600080fd5b50565b6000815190506200026f8162000244565b92915050565b6000602082840312156200028e576200028d6200020b565b5b60006200029e848285016200025e565b91505092915050565b60805160a051615b07620002db60003960008181610f890152611e610152600081816119c80152611e820152615b076000f3fe6080604052600436106102ff5760003560e01c8063adc0f68611610190578063d8043d8f116100dc578063eb90b2bc11610095578063f1b371e21161006f578063f1b371e214610beb578063f2fde38b14610c16578063fa845ca914610c3f578063fded701214610c7c576102ff565b8063eb90b2bc14610b45578063ed725e8314610b83578063ef4cadc514610bc0576102ff565b8063d8043d8f14610a51578063db80a28c14610a6d578063dd1b9c4a14610aaa578063e203d03014610ad5578063e60c90c414610aec578063e858e05c14610b29576102ff565b8063bebc9dfc11610149578063c4235ae911610123578063c4235ae9146109a9578063d0d41fe1146109e6578063d294f09314610a0f578063d4432e4e14610a26576102ff565b8063bebc9dfc14610904578063bee7708e14610941578063c40af1ee1461097e576102ff565b8063adc0f686146107ba578063af2f850e146107f7578063b6f2a9ce14610834578063bab2f55214610871578063bc7132901461089c578063be26ed7f146108d9576102ff565b80635f5080b41161024f5780638bd9556311610208578063a694fc3a116101e2578063a694fc3a146106ec578063a707140b14610715578063a95f1dac14610752578063aabbb1bd1461077d576102ff565b80638bd95563146106595780638da5cb5b14610684578063a2727db3146106af576102ff565b80635f5080b414610589578063682c2058146105b457806368f05769146105df5780636adb0eb61461060a578063715018a61461062657806374ef83671461063d576102ff565b80632e17de78116102bc5780633ad10ef6116102965780633ad10ef6146104b9578063436091c1146104e45780635347a47d1461050f578063541c78861461054c576102ff565b80632e17de781461044e5780632f7cdab014610477578063372500ab146104a2576102ff565b80630ece21541461030457806312cb22ac1461034157806312d474391461037e578063168b0a5c146103a957806317d9c47a146103d45780631ed6380f14610411575b600080fd5b34801561031057600080fd5b5061032b6004803603810190610326919061430c565b610cbb565b6040516103389190614348565b60405180910390f35b34801561034d57600080fd5b50610368600480360381019061036391906143c1565b610cd3565b6040516103759190614348565b60405180910390f35b34801561038a57600080fd5b50610393610ceb565b6040516103a09190614348565b60405180910390f35b3480156103b557600080fd5b506103be610cf1565b6040516103cb919061444d565b60405180910390f35b3480156103e057600080fd5b506103fb60048036038101906103f6919061430c565b610d17565b6040516104089190614348565b60405180910390f35b34801561041d57600080fd5b50610438600480360381019061043391906143c1565b610d2f565b6040516104459190614348565b60405180910390f35b34801561045a57600080fd5b506104756004803603810190610470919061430c565b610d47565b005b34801561048357600080fd5b5061048c610f87565b6040516104999190614348565b60405180910390f35b3480156104ae57600080fd5b506104b7610fab565b005b3480156104c557600080fd5b506104ce6111f1565b6040516104db9190614477565b60405180910390f35b3480156104f057600080fd5b506104f9611217565b6040516105069190614348565b60405180910390f35b34801561051b57600080fd5b50610536600480360381019061053191906145d8565b61121d565b6040516105439190614348565b60405180910390f35b34801561055857600080fd5b50610573600480360381019061056e91906145d8565b61124b565b60405161058091906146df565b60405180910390f35b34801561059557600080fd5b5061059e6112fa565b6040516105ab9190614348565b60405180910390f35b3480156105c057600080fd5b506105c9611300565b6040516105d69190614348565b60405180910390f35b3480156105eb57600080fd5b506105f4611306565b6040516106019190614348565b60405180910390f35b610624600480360381019061061f91906147e7565b61130c565b005b34801561063257600080fd5b5061063b611825565b005b61065760048036038101906106529190614aa0565b611839565b005b34801561066557600080fd5b5061066e6119c6565b60405161067b9190614348565b60405180910390f35b34801561069057600080fd5b506106996119ea565b6040516106a69190614477565b60405180910390f35b3480156106bb57600080fd5b506106d660048036038101906106d191906143c1565b611a13565b6040516106e39190614348565b60405180910390f35b3480156106f857600080fd5b50610713600480360381019061070e919061430c565b611a2b565b005b34801561072157600080fd5b5061073c600480360381019061073791906143c1565b611d4b565b6040516107499190614348565b60405180910390f35b34801561075e57600080fd5b50610767611d63565b6040516107749190614348565b60405180910390f35b34801561078957600080fd5b506107a4600480360381019061079f9190614ae9565b611d69565b6040516107b19190614348565b60405180910390f35b3480156107c657600080fd5b506107e160048036038101906107dc919061430c565b611d8e565b6040516107ee9190614348565b60405180910390f35b34801561080357600080fd5b5061081e6004803603810190610819919061430c565b611da6565b60405161082b9190614b44565b60405180910390f35b34801561084057600080fd5b5061085b600480360381019061085691906145d8565b611dc6565b6040516108689190614c1d565b60405180910390f35b34801561087d57600080fd5b50610886611e3f565b6040516108939190614348565b60405180910390f35b3480156108a857600080fd5b506108c360048036038101906108be91906143c1565b611e45565b6040516108d09190614348565b60405180910390f35b3480156108e557600080fd5b506108ee611e5d565b6040516108fb9190614348565b60405180910390f35b34801561091057600080fd5b5061092b6004803603810190610926919061430c565b611ebb565b6040516109389190614348565b60405180910390f35b34801561094d57600080fd5b50610968600480360381019061096391906143c1565b611ed3565b6040516109759190614348565b60405180910390f35b34801561098a57600080fd5b50610993611eeb565b6040516109a09190614348565b60405180910390f35b3480156109b557600080fd5b506109d060048036038101906109cb919061430c565b611ef1565b6040516109dd9190614348565b60405180910390f35b3480156109f257600080fd5b50610a0d6004803603810190610a0891906143c1565b611f09565b005b348015610a1b57600080fd5b50610a24611f65565b005b348015610a3257600080fd5b50610a3b612067565b604051610a489190614348565b60405180910390f35b610a6b6004803603810190610a6691906147e7565b61206d565b005b348015610a7957600080fd5b50610a946004803603810190610a8f91906143c1565b612586565b604051610aa19190614348565b60405180910390f35b348015610ab657600080fd5b50610abf61259e565b604051610acc9190614348565b60405180910390f35b348015610ae157600080fd5b50610aea6125a4565b005b348015610af857600080fd5b50610b136004803603810190610b0e91906143c1565b6126a6565b604051610b209190614348565b60405180910390f35b610b436004803603810190610b3e9190614c3f565b6126bd565b005b348015610b5157600080fd5b50610b6c6004803603810190610b6791906145d8565b612b07565b604051610b7a929190614cae565b60405180910390f35b348015610b8f57600080fd5b50610baa6004803603810190610ba591906143c1565b612b57565b604051610bb79190614348565b60405180910390f35b348015610bcc57600080fd5b50610bd5612b6f565b604051610be29190614348565b60405180910390f35b348015610bf757600080fd5b50610c00612b84565b604051610c0d9190614348565b60405180910390f35b348015610c2257600080fd5b50610c3d6004803603810190610c3891906143c1565b612b8a565b005b348015610c4b57600080fd5b50610c666004803603810190610c6191906143c1565b612c0d565b604051610c739190614348565b60405180910390f35b348015610c8857600080fd5b50610ca36004803603810190610c9e91906145d8565b612c25565b604051610cb293929190614d56565b60405180910390f35b601d6020528060005260406000206000915090505481565b60166020528060005260406000206000915090505481565b600b5481565b600260009054906101000a900473ffffffffffffffffffffffffffffffffffffffff1681565b60176020528060005260406000206000915090505481565b601f6020528060005260406000206000915090505481565b610d4f612ced565b610d57612d3c565b610d5f612d5d565b610d6833612e86565b60008111610dab576040517f08c379a0000000000000000000000000000000000000000000000000000000008152600401610da290614de0565b60405180910390fd5b601f60003373ffffffffffffffffffffffffffffffffffffffff1673ffffffffffffffffffffffffffffffffffffffff16815260200190815260200160002054811115610e2d576040517f08c379a0000000000000000000000000000000000000000000000000000000008152600401610e2490614e72565b60405180910390fd5b60135460115403610e56578060146000828254610e4a9190614ec1565b92505081905550610e83565b80601b6000600f5481526020019081526020016000206000828254610e7b9190614ef5565b925050819055505b80601f60003373ffffffffffffffffffffffffffffffffffffffff1673ffffffffffffffffffffffffffffffffffffffff1681526020019081526020016000206000828254610ed29190614ef5565b9250508190555080601960003373ffffffffffffffffffffffffffffffffffffffff1673ffffffffffffffffffffffffffffffffffffffff1681526020019081526020016000206000828254610f289190614ef5565b92505081905550610f7c3382600260009054906101000a900473ffffffffffffffffffffffffffffffffffffffff1673ffffffffffffffffffffffffffffffffffffffff16613b0e9092919063ffffffff16565b610f84613b94565b50565b7f000000000000000000000000000000000000000000000000000000000000000081565b610fb3612ced565b610fbb612d3c565b610fc3612d5d565b610fcc33612e86565b6000601f60003373ffffffffffffffffffffffffffffffffffffffff1673ffffffffffffffffffffffffffffffffffffffff16815260200190815260200160002054601960003373ffffffffffffffffffffffffffffffffffffffff1673ffffffffffffffffffffffffffffffffffffffff168152602001908152602001600020546110589190614ef5565b90506000811161109d576040517f08c379a000000000000000000000000000000000000000000000000000000000815260040161109490614f75565b60405180910390fd5b80601960003373ffffffffffffffffffffffffffffffffffffffff1673ffffffffffffffffffffffffffffffffffffffff16815260200190815260200160002060008282546110ec9190614ef5565b925050819055506013546011540361111c5780601460008282546111109190614ec1565b92505081905550611157565b80601b6000600f5481526020019081526020016000205461113d9190614ef5565b601b6000600f548152602001908152602001600020819055505b600260009054906101000a900473ffffffffffffffffffffffffffffffffffffffff1673ffffffffffffffffffffffffffffffffffffffff16639a49090e33836040518363ffffffff1660e01b81526004016111b4929190614f95565b600060405180830381600087803b1580156111ce57600080fd5b505af11580156111e2573d6000803e3d6000fd5b50505050506111ef613b94565b565b600d60009054906101000a900473ffffffffffffffffffffffffffffffffffffffff1681565b60115481565b6007818051602081018201805184825260208301602085012081835280955050505050506000915090505481565b606060038260405161125d9190614ffa565b90815260200160405180910390206003018054806020026020016040519081016040528092919081815260200182805480156112ee57602002820191906000526020600020905b8160009054906101000a900473ffffffffffffffffffffffffffffffffffffffff1673ffffffffffffffffffffffffffffffffffffffff16815260200190600101908083116112a4575b50505050509050919050565b60125481565b600a5481565b60145481565b611314612ced565b61131c612d3c565b611324612d5d565b61132c613b9d565b61133533612e86565b6000808251905061134461419f565b606080600080600090505b8581101561162a57600388828151811061136c5761136b615011565b5b60200260200101516040516113819190614ffa565b90815260200160405180910390206040518060a00160405290816000820180546113aa9061506f565b80601f01602080910402602001604051908101604052809291908181526020018280546113d69061506f565b80156114235780601f106113f857610100808354040283529160200191611423565b820191906000526020600020905b81548152906001019060200180831161140657829003601f168201915b505050505081526020016001820154815260200160028201548152602001600382018054806020026020016040519081016040528092919081815260200182805480156114c557602002820191906000526020600020905b8160009054906101000a900473ffffffffffffffffffffffffffffffffffffffff1673ffffffffffffffffffffffffffffffffffffffff168152602001906001019080831161147b575b505050505081526020016004820180548060200260200160405190810160405280929190818152602001828054801561151d57602002820191906000526020600020905b815481526020019060010190808311611509575b505050505081525050945084606001519350846080015192508351915060005b8281101561160457670de0b6b3a764000084828151811061156157611560615011565b5b6020026020010151876020015161157891906150a0565b6115829190615111565b6005600087848151811061159957611598615011565b5b602002602001015173ffffffffffffffffffffffffffffffffffffffff1673ffffffffffffffffffffffffffffffffffffffff16815260200190815260200160002060008282546115ea9190614ec1565b9250508190555080806115fc90615142565b91505061153d565b508460200151876116159190614ec1565b9650808061162290615142565b91505061134f565b5060028661163891906150a0565b3414611679576040517f08c379a0000000000000000000000000000000000000000000000000000000008152600401611670906151d6565b60405180910390fd5b6116bf600d60009054906101000a900473ffffffffffffffffffffffffffffffffffffffff16612710600b54896116b091906150a0565b6116ba9190615111565b613c87565b612710600c54876116d091906150a0565b6116da9190615111565b601d6000600f54815260200190815260200160002060008282546116fe9190614ec1565b92505081905550683635c9adc5dea00000601a6000600f54815260200190815260200160002060008282546117339190614ec1565b92505081905550683635c9adc5dea00000601960003373ffffffffffffffffffffffffffffffffffffffff1673ffffffffffffffffffffffffffffffffffffffff16815260200190815260200160002060008282546117929190614ec1565b92505081905550600f54601860003373ffffffffffffffffffffffffffffffffffffffff1673ffffffffffffffffffffffffffffffffffffffff16815260200190815260200160002081905550683635c9adc5dea00000601b6000600f548152602001908152602001600020600082825461180d9190614ec1565b92505081905550505050505050611822613b94565b50565b61182d613d38565b6118376000613db6565b565b611841612ced565b611849612d3c565b611851612d5d565b61185a33612e86565b806040015134146118a0576040517f08c379a000000000000000000000000000000000000000000000000000000000815260040161189790615268565b60405180910390fd5b6040518060a00160405280826000015181526020018260200151815260200182604001518152602001826060015181526020018260800151815250600382600001516040516118ef9190614ffa565b90815260200160405180910390206000820151816000019081611912919061542a565b50602082015181600101556040820151816002015560608201518160030190805190602001906119439291906141ce565b506080820151816004019080519060200190611960929190614258565b5090505080604001516007826000015160405161197d9190614ffa565b9081526020016040518091039020819055506119bb600d60009054906101000a900473ffffffffffffffffffffffffffffffffffffffff1634613c87565b6119c3613b94565b50565b7f000000000000000000000000000000000000000000000000000000000000000081565b60008060009054906101000a900473ffffffffffffffffffffffffffffffffffffffff16905090565b60046020528060005260406000206000915090505481565b611a33612ced565b611a3b612d3c565b611a43612d5d565b611a4c33612e86565b60008111611a8f576040517f08c379a0000000000000000000000000000000000000000000000000000000008152600401611a8690614de0565b60405180910390fd5b80600e6000828254611aa19190614ec1565b9250508190555060006001600f54611ab99190614ec1565b905060135460115403611ad8576001601154611ad59190614ec1565b90505b602060003373ffffffffffffffffffffffffffffffffffffffff1673ffffffffffffffffffffffffffffffffffffffff168152602001908152602001600020548114158015611b665750602160003373ffffffffffffffffffffffffffffffffffffffff1673ffffffffffffffffffffffffffffffffffffffff168152602001908152602001600020548114155b15611c89576000602060003373ffffffffffffffffffffffffffffffffffffffff1673ffffffffffffffffffffffffffffffffffffffff1681526020019081526020016000205403611bfb5780602060003373ffffffffffffffffffffffffffffffffffffffff1673ffffffffffffffffffffffffffffffffffffffff16815260200190815260200160002081905550611c88565b6000602160003373ffffffffffffffffffffffffffffffffffffffff1673ffffffffffffffffffffffffffffffffffffffff1681526020019081526020016000205403611c875780602160003373ffffffffffffffffffffffffffffffffffffffff1673ffffffffffffffffffffffffffffffffffffffff168152602001908152602001600020819055505b5b5b81601e60003373ffffffffffffffffffffffffffffffffffffffff1673ffffffffffffffffffffffffffffffffffffffff16815260200190815260200160002060008381526020019081526020016000206000828254611ce99190614ec1565b92505081905550611d3f333084600260009054906101000a900473ffffffffffffffffffffffffffffffffffffffff1673ffffffffffffffffffffffffffffffffffffffff16613e7a909392919063ffffffff16565b50611d48613b94565b50565b601c6020528060005260406000206000915090505481565b60105481565b601e602052816000526040600020602052806000526040600020600091509150505481565b601a6020528060005260406000206000915090505481565b60066020528060005260406000206000915054906101000a900460ff1681565b6060600382604051611dd89190614ffa565b9081526020016040518091039020600401805480602002602001604051908101604052809291908181526020018280548015611e3357602002820191906000526020600020905b815481526020019060010190808311611e1f575b50505050509050919050565b600f5481565b60096020528060005260406000206000915090505481565b60007f00000000000000000000000000000000000000000000000000000000000000007f000000000000000000000000000000000000000000000000000000000000000042611eac9190614ef5565b611eb69190615111565b905090565b60086020528060005260406000206000915090505481565b60056020528060005260406000206000915090505481565b60155481565b601b6020528060005260406000206000915090505481565b611f11613d38565b611f19612ced565b80600d60006101000a81548173ffffffffffffffffffffffffffffffffffffffff021916908373ffffffffffffffffffffffffffffffffffffffff160217905550611f62613b94565b50565b611f6d612ced565b611f75612d3c565b611f7d612d5d565b611f8633612e86565b6000600960003373ffffffffffffffffffffffffffffffffffffffff1673ffffffffffffffffffffffffffffffffffffffff1681526020019081526020016000205490506000811161200d576040517f08c379a000000000000000000000000000000000000000000000000000000000815260040161200490614de0565b60405180910390fd5b6000600960003373ffffffffffffffffffffffffffffffffffffffff1673ffffffffffffffffffffffffffffffffffffffff1681526020019081526020016000208190555061205c3382613c87565b50612065613b94565b565b600e5481565b612075612ced565b61207d612d3c565b612085612d5d565b61208d613b9d565b61209633612e86565b600080825190506120a561419f565b606080600080600090505b8581101561238b5760038882815181106120cd576120cc615011565b5b60200260200101516040516120e29190614ffa565b90815260200160405180910390206040518060a001604052908160008201805461210b9061506f565b80601f01602080910402602001604051908101604052809291908181526020018280546121379061506f565b80156121845780601f1061215957610100808354040283529160200191612184565b820191906000526020600020905b81548152906001019060200180831161216757829003601f168201915b5050505050815260200160018201548152602001600282015481526020016003820180548060200260200160405190810160405280929190818152602001828054801561222657602002820191906000526020600020905b8160009054906101000a900473ffffffffffffffffffffffffffffffffffffffff1673ffffffffffffffffffffffffffffffffffffffff16815260200190600101908083116121dc575b505050505081526020016004820180548060200260200160405190810160405280929190818152602001828054801561227e57602002820191906000526020600020905b81548152602001906001019080831161226a575b505050505081525050945084606001519350846080015192508351915060005b8281101561236557670de0b6b3a76400008482815181106122c2576122c1615011565b5b602002602001015187604001516122d991906150a0565b6122e39190615111565b600560008784815181106122fa576122f9615011565b5b602002602001015173ffffffffffffffffffffffffffffffffffffffff1673ffffffffffffffffffffffffffffffffffffffff168152602001908152602001600020600082825461234b9190614ec1565b92505081905550808061235d90615142565b91505061229e565b508460400151876123769190614ec1565b9650808061238390615142565b9150506120b0565b5060028661239991906150a0565b34146123da576040517f08c379a00000000000000000000000000000000000000000000000000000000081526004016123d1906151d6565b60405180910390fd5b612420600d60009054906101000a900473ffffffffffffffffffffffffffffffffffffffff16612710600b548961241191906150a0565b61241b9190615111565b613c87565b612710600c548761243191906150a0565b61243b9190615111565b601d6000600f548152602001908152602001600020600082825461245f9190614ec1565b92505081905550683635c9adc5dea00000601a6000600f54815260200190815260200160002060008282546124949190614ec1565b92505081905550683635c9adc5dea00000601960003373ffffffffffffffffffffffffffffffffffffffff1673ffffffffffffffffffffffffffffffffffffffff16815260200190815260200160002060008282546124f39190614ec1565b92505081905550600f54601860003373ffffffffffffffffffffffffffffffffffffffff1673ffffffffffffffffffffffffffffffffffffffff16815260200190815260200160002081905550683635c9adc5dea00000601b6000600f548152602001908152602001600020600082825461256e9190614ec1565b92505081905550505050505050612583613b94565b50565b60216020528060005260406000206000915090505481565b600c5481565b6125ac612ced565b6125b4612d3c565b6125bc612d5d565b6125c533612e86565b6000600560003373ffffffffffffffffffffffffffffffffffffffff1673ffffffffffffffffffffffffffffffffffffffff1681526020019081526020016000205490506000811161264c576040517f08c379a000000000000000000000000000000000000000000000000000000000815260040161264390614de0565b60405180910390fd5b6000600560003373ffffffffffffffffffffffffffffffffffffffff1673ffffffffffffffffffffffffffffffffffffffff1681526020019081526020016000208190555061269b3382613c87565b506126a4613b94565b565b602080528060005260406000206000915090505481565b6126c5612ced565b6126cd612d3c565b6126d5612d5d565b6126de33612e86565b60006003846040516126f09190614ffa565b90815260200160405180910390206040518060a00160405290816000820180546127199061506f565b80601f01602080910402602001604051908101604052809291908181526020018280546127459061506f565b80156127925780601f1061276757610100808354040283529160200191612792565b820191906000526020600020905b81548152906001019060200180831161277557829003601f168201915b5050505050815260200160018201548152602001600282015481526020016003820180548060200260200160405190810160405280929190818152602001828054801561283457602002820191906000526020600020905b8160009054906101000a900473ffffffffffffffffffffffffffffffffffffffff1673ffffffffffffffffffffffffffffffffffffffff16815260200190600101908083116127ea575b505050505081526020016004820180548060200260200160405190810160405280929190818152602001828054801561288c57602002820191906000526020600020905b815481526020019060010190808311612878575b5050505050815250509050600081606001519050600081519050600080600090505b8281101561291f573373ffffffffffffffffffffffffffffffffffffffff168482815181106128e0576128df615011565b5b602002602001015173ffffffffffffffffffffffffffffffffffffffff160361290c576001915061291f565b808061291790615142565b9150506128ae565b5080612960576040517f08c379a00000000000000000000000000000000000000000000000000000000081526004016129579061556e565b60405180910390fd5b846007886040516129719190614ffa565b9081526020016040518091039020541015612a42576007876040516129969190614ffa565b908152602001604051809103902054856129b09190614ef5565b3410156129f2576040517f08c379a00000000000000000000000000000000000000000000000000000000081526004016129e990615600565b60405180910390fd5b84600788604051612a039190614ffa565b90815260200160405180910390208190555034601d6000600f5481526020019081526020016000206000828254612a3a9190614ec1565b925050819055505b6040518060a00160405280888152602001878152602001868152602001856060015181526020018560800151815250600388604051612a819190614ffa565b90815260200160405180910390206000820151816000019081612aa4919061542a565b5060208201518160010155604082015181600201556060820151816003019080519060200190612ad59291906141ce565b506080820151816004019080519060200190612af2929190614258565b5090505050505050612b02613b94565b505050565b600080600383604051612b1a9190614ffa565b908152602001604051809103902060010154600384604051612b3c9190614ffa565b90815260200160405180910390206002015491509150915091565b60196020528060005260406000206000915090505481565b701d6329f1c35ca4bfabb9f561000000000081565b60135481565b612b92613d38565b600073ffffffffffffffffffffffffffffffffffffffff168173ffffffffffffffffffffffffffffffffffffffff1603612c01576040517f08c379a0000000000000000000000000000000000000000000000000000000008152600401612bf890615692565b60405180910390fd5b612c0a81613db6565b50565b60186020528060005260406000206000915090505481565b600381805160208101820180518482526020830160208501208183528095505050505050600091509050806000018054612c5e9061506f565b80601f0160208091040260200160405190810160405280929190818152602001828054612c8a9061506f565b8015612cd75780601f10612cac57610100808354040283529160200191612cd7565b820191906000526020600020905b815481529060010190602001808311612cba57829003601f168201915b5050505050908060010154908060020154905083565b600260015403612d32576040517f08c379a0000000000000000000000000000000000000000000000000000000008152600401612d29906156fe565b60405180910390fd5b6002600181905550565b6000612d46611e5d565b9050600f54811115612d5a5780600f819055505b50565b601354600f5414612d87576001601154612d779190614ec1565b6012819055506013546011819055505b601154600f54118015612dbb57506000600860006001601154612daa9190614ec1565b815260200190815260200160002054145b15612e8457600080601b600060115481526020019081526020016000205414612e3757601b6000601154815260200190815260200160002054701d6329f1c35ca4bfabb9f5610000000000601d6000601154815260200190815260200160002054612e2691906150a0565b612e309190615111565b9050612e3c565b600090505b8060086000601254815260200190815260200160002054612e5d9190614ec1565b600860006001601154612e709190614ec1565b815260200190815260200160002081905550505b565b601154600f54118015612ee657506001601154612ea39190614ec1565b601c60008373ffffffffffffffffffffffffffffffffffffffff1673ffffffffffffffffffffffffffffffffffffffff1681526020019081526020016000205414155b156130b057701d6329f1c35ca4bfabb9f561000000000060086000601c60008573ffffffffffffffffffffffffffffffffffffffff1673ffffffffffffffffffffffffffffffffffffffff16815260200190815260200160002054815260200190815260200160002054600860006001601154612f639190614ec1565b815260200190815260200160002054612f7c9190614ef5565b601960008473ffffffffffffffffffffffffffffffffffffffff1673ffffffffffffffffffffffffffffffffffffffff16815260200190815260200160002054612fc691906150a0565b612fd09190615111565b600960008373ffffffffffffffffffffffffffffffffffffffff1673ffffffffffffffffffffffffffffffffffffffff1681526020019081526020016000205461301a9190614ec1565b600960008373ffffffffffffffffffffffffffffffffffffffff1673ffffffffffffffffffffffffffffffffffffffff16815260200190815260200160002081905550600160115461306c9190614ec1565b601c60008373ffffffffffffffffffffffffffffffffffffffff1673ffffffffffffffffffffffffffffffffffffffff168152602001908152602001600020819055505b6000602060008373ffffffffffffffffffffffffffffffffffffffff1673ffffffffffffffffffffffffffffffffffffffff16815260200190815260200160002054141580156131405750602060008273ffffffffffffffffffffffffffffffffffffffff1673ffffffffffffffffffffffffffffffffffffffff16815260200190815260200160002054600f54115b15613b0b576000601e60008373ffffffffffffffffffffffffffffffffffffffff1673ffffffffffffffffffffffffffffffffffffffff1681526020019081526020016000206000602060008573ffffffffffffffffffffffffffffffffffffffff1673ffffffffffffffffffffffffffffffffffffffff16815260200190815260200160002054815260200190815260200160002054905080601960008473ffffffffffffffffffffffffffffffffffffffff1673ffffffffffffffffffffffffffffffffffffffff16815260200190815260200160002060008282546132289190614ec1565b9250508190555080601f60008473ffffffffffffffffffffffffffffffffffffffff1673ffffffffffffffffffffffffffffffffffffffff168152602001908152602001600020600082825461327e9190614ec1565b92505081905550602060008373ffffffffffffffffffffffffffffffffffffffff1673ffffffffffffffffffffffffffffffffffffffff1681526020019081526020016000205460016011546132d49190614ec1565b111561349d57701d6329f1c35ca4bfabb9f561000000000060086000602060008673ffffffffffffffffffffffffffffffffffffffff1673ffffffffffffffffffffffffffffffffffffffff168152602001908152602001600020548152602001908152602001600020546008600060016011546133529190614ec1565b81526020019081526020016000205461336b9190614ef5565b601e60008573ffffffffffffffffffffffffffffffffffffffff1673ffffffffffffffffffffffffffffffffffffffff1681526020019081526020016000206000602060008773ffffffffffffffffffffffffffffffffffffffff1673ffffffffffffffffffffffffffffffffffffffff1681526020019081526020016000205481526020019081526020016000205461340591906150a0565b61340f9190615111565b600960008473ffffffffffffffffffffffffffffffffffffffff1673ffffffffffffffffffffffffffffffffffffffff168152602001908152602001600020546134599190614ec1565b600960008473ffffffffffffffffffffffffffffffffffffffff1673ffffffffffffffffffffffffffffffffffffffff168152602001908152602001600020819055505b6000601e60008473ffffffffffffffffffffffffffffffffffffffff1673ffffffffffffffffffffffffffffffffffffffff1681526020019081526020016000206000602060008673ffffffffffffffffffffffffffffffffffffffff1673ffffffffffffffffffffffffffffffffffffffff168152602001908152602001600020548152602001908152602001600020819055506000602060008473ffffffffffffffffffffffffffffffffffffffff1673ffffffffffffffffffffffffffffffffffffffff168152602001908152602001600020819055506000602160008473ffffffffffffffffffffffffffffffffffffffff1673ffffffffffffffffffffffffffffffffffffffff1681526020019081526020016000205414613b0957602160008373ffffffffffffffffffffffffffffffffffffffff1673ffffffffffffffffffffffffffffffffffffffff16815260200190815260200160002054600f541115613a3f576000601e60008473ffffffffffffffffffffffffffffffffffffffff1673ffffffffffffffffffffffffffffffffffffffff1681526020019081526020016000206000602160008673ffffffffffffffffffffffffffffffffffffffff1673ffffffffffffffffffffffffffffffffffffffff16815260200190815260200160002054815260200190815260200160002054905080601960008573ffffffffffffffffffffffffffffffffffffffff1673ffffffffffffffffffffffffffffffffffffffff16815260200190815260200160002060008282546136ea9190614ec1565b9250508190555080601f60008573ffffffffffffffffffffffffffffffffffffffff1673ffffffffffffffffffffffffffffffffffffffff16815260200190815260200160002060008282546137409190614ec1565b92505081905550602160008473ffffffffffffffffffffffffffffffffffffffff1673ffffffffffffffffffffffffffffffffffffffff1681526020019081526020016000205460016011546137969190614ec1565b111561395f57701d6329f1c35ca4bfabb9f561000000000060086000602160008773ffffffffffffffffffffffffffffffffffffffff1673ffffffffffffffffffffffffffffffffffffffff168152602001908152602001600020548152602001908152602001600020546008600060016011546138149190614ec1565b81526020019081526020016000205461382d9190614ef5565b601e60008673ffffffffffffffffffffffffffffffffffffffff1673ffffffffffffffffffffffffffffffffffffffff1681526020019081526020016000206000602160008873ffffffffffffffffffffffffffffffffffffffff1673ffffffffffffffffffffffffffffffffffffffff168152602001908152602001600020548152602001908152602001600020546138c791906150a0565b6138d19190615111565b600960008573ffffffffffffffffffffffffffffffffffffffff1673ffffffffffffffffffffffffffffffffffffffff1681526020019081526020016000205461391b9190614ec1565b600960008573ffffffffffffffffffffffffffffffffffffffff1673ffffffffffffffffffffffffffffffffffffffff168152602001908152602001600020819055505b6000601e60008573ffffffffffffffffffffffffffffffffffffffff1673ffffffffffffffffffffffffffffffffffffffff1681526020019081526020016000206000602160008773ffffffffffffffffffffffffffffffffffffffff1673ffffffffffffffffffffffffffffffffffffffff168152602001908152602001600020548152602001908152602001600020819055506000602160008573ffffffffffffffffffffffffffffffffffffffff1673ffffffffffffffffffffffffffffffffffffffff1681526020019081526020016000208190555050613b08565b602160008373ffffffffffffffffffffffffffffffffffffffff1673ffffffffffffffffffffffffffffffffffffffff16815260200190815260200160002054602060008473ffffffffffffffffffffffffffffffffffffffff1673ffffffffffffffffffffffffffffffffffffffff168152602001908152602001600020819055506000602160008473ffffffffffffffffffffffffffffffffffffffff1673ffffffffffffffffffffffffffffffffffffffff168152602001908152602001600020819055505b5b505b50565b613b8f8363a9059cbb60e01b8484604051602401613b2d929190614f95565b604051602081830303815290604052907bffffffffffffffffffffffffffffffffffffffffffffffffffffffff19166020820180517bffffffffffffffffffffffffffffffffffffffffffffffffffffffff8381831617835250505050613f03565b505050565b60018081905550565b6000151560066000600f54815260200190815260200160002060009054906101000a900460ff16151503613c8557600160066000600f54815260200190815260200160002060006101000a81548160ff021916908315150217905550600f546013819055506000600e5414613c4357600e54601b600060135481526020019081526020016000206000828254613c339190614ec1565b925050819055506000600e819055505b600060145414613c8457601454601b600060135481526020019081526020016000206000828254613c749190614ef5565b9250508190555060006014819055505b5b565b60008273ffffffffffffffffffffffffffffffffffffffff1682604051613cad9061574f565b60006040518083038185875af1925050503d8060008114613cea576040519150601f19603f3d011682016040523d82523d6000602084013e613cef565b606091505b5050905080613d33576040517f08c379a0000000000000000000000000000000000000000000000000000000008152600401613d2a906157b0565b60405180910390fd5b505050565b613d40613fca565b73ffffffffffffffffffffffffffffffffffffffff16613d5e6119ea565b73ffffffffffffffffffffffffffffffffffffffff1614613db4576040517f08c379a0000000000000000000000000000000000000000000000000000000008152600401613dab9061581c565b60405180910390fd5b565b60008060009054906101000a900473ffffffffffffffffffffffffffffffffffffffff169050816000806101000a81548173ffffffffffffffffffffffffffffffffffffffff021916908373ffffffffffffffffffffffffffffffffffffffff1602179055508173ffffffffffffffffffffffffffffffffffffffff168173ffffffffffffffffffffffffffffffffffffffff167f8be0079c531659141344cd1fd0a4f28419497f9722a3daafe3b4186f6b6457e060405160405180910390a35050565b613efd846323b872dd60e01b858585604051602401613e9b9392919061583c565b604051602081830303815290604052907bffffffffffffffffffffffffffffffffffffffffffffffffffffffff19166020820180517bffffffffffffffffffffffffffffffffffffffffffffffffffffffff8381831617835250505050613f03565b50505050565b6000613f65826040518060400160405280602081526020017f5361666545524332303a206c6f772d6c6576656c2063616c6c206661696c65648152508573ffffffffffffffffffffffffffffffffffffffff16613fd29092919063ffffffff16565b9050600081511115613fc55780806020019051810190613f85919061589f565b613fc4576040517f08c379a0000000000000000000000000000000000000000000000000000000008152600401613fbb9061593e565b60405180910390fd5b5b505050565b600033905090565b6060613fe18484600085613fea565b90509392505050565b60608247101561402f576040517f08c379a0000000000000000000000000000000000000000000000000000000008152600401614026906159d0565b60405180910390fd5b6000808673ffffffffffffffffffffffffffffffffffffffff1685876040516140589190615a2c565b60006040518083038185875af1925050503d8060008114614095576040519150601f19603f3d011682016040523d82523d6000602084013e61409a565b606091505b50915091506140ab878383876140b7565b92505050949350505050565b60608315614119576000835103614111576140d18561412c565b614110576040517f08c379a000000000000000000000000000000000000000000000000000000000815260040161410790615a8f565b60405180910390fd5b5b829050614124565b614123838361414f565b5b949350505050565b6000808273ffffffffffffffffffffffffffffffffffffffff163b119050919050565b6000825111156141625781518083602001fd5b806040517f08c379a00000000000000000000000000000000000000000000000000000000081526004016141969190615aaf565b60405180910390fd5b6040518060a0016040528060608152602001600081526020016000815260200160608152602001606081525090565b828054828255906000526020600020908101928215614247579160200282015b828111156142465782518260006101000a81548173ffffffffffffffffffffffffffffffffffffffff021916908373ffffffffffffffffffffffffffffffffffffffff160217905550916020019190600101906141ee565b5b50905061425491906142a5565b5090565b828054828255906000526020600020908101928215614294579160200282015b82811115614293578251825591602001919060010190614278565b5b5090506142a191906142a5565b5090565b5b808211156142be5760008160009055506001016142a6565b5090565b6000604051905090565b600080fd5b600080fd5b6000819050919050565b6142e9816142d6565b81146142f457600080fd5b50565b600081359050614306816142e0565b92915050565b600060208284031215614322576143216142cc565b5b6000614330848285016142f7565b91505092915050565b614342816142d6565b82525050565b600060208201905061435d6000830184614339565b92915050565b600073ffffffffffffffffffffffffffffffffffffffff82169050919050565b600061438e82614363565b9050919050565b61439e81614383565b81146143a957600080fd5b50565b6000813590506143bb81614395565b92915050565b6000602082840312156143d7576143d66142cc565b5b60006143e5848285016143ac565b91505092915050565b6000819050919050565b600061441361440e61440984614363565b6143ee565b614363565b9050919050565b6000614425826143f8565b9050919050565b60006144378261441a565b9050919050565b6144478161442c565b82525050565b6000602082019050614462600083018461443e565b92915050565b61447181614383565b82525050565b600060208201905061448c6000830184614468565b92915050565b600080fd5b600080fd5b6000601f19601f8301169050919050565b7f4e487b7100000000000000000000000000000000000000000000000000000000600052604160045260246000fd5b6144e58261449c565b810181811067ffffffffffffffff82111715614504576145036144ad565b5b80604052505050565b60006145176142c2565b905061452382826144dc565b919050565b600067ffffffffffffffff821115614543576145426144ad565b5b61454c8261449c565b9050602081019050919050565b82818337600083830152505050565b600061457b61457684614528565b61450d565b90508281526020810184848401111561459757614596614497565b5b6145a2848285614559565b509392505050565b600082601f8301126145bf576145be614492565b5b81356145cf848260208601614568565b91505092915050565b6000602082840312156145ee576145ed6142cc565b5b600082013567ffffffffffffffff81111561460c5761460b6142d1565b5b614618848285016145aa565b91505092915050565b600081519050919050565b600082825260208201905092915050565b6000819050602082019050919050565b61465681614383565b82525050565b6000614668838361464d565b60208301905092915050565b6000602082019050919050565b600061468c82614621565b614696818561462c565b93506146a18361463d565b8060005b838110156146d25781516146b9888261465c565b97506146c483614674565b9250506001810190506146a5565b5085935050505092915050565b600060208201905081810360008301526146f98184614681565b905092915050565b600067ffffffffffffffff82111561471c5761471b6144ad565b5b602082029050602081019050919050565b600080fd5b600061474561474084614701565b61450d565b905080838252602082019050602084028301858111156147685761476761472d565b5b835b818110156147af57803567ffffffffffffffff81111561478d5761478c614492565b5b80860161479a89826145aa565b8552602085019450505060208101905061476a565b5050509392505050565b600082601f8301126147ce576147cd614492565b5b81356147de848260208601614732565b91505092915050565b6000602082840312156147fd576147fc6142cc565b5b600082013567ffffffffffffffff81111561481b5761481a6142d1565b5b614827848285016147b9565b91505092915050565b600080fd5b600080fd5b600067ffffffffffffffff821115614855576148546144ad565b5b602082029050602081019050919050565b60006148796148748461483a565b61450d565b9050808382526020820190506020840283018581111561489c5761489b61472d565b5b835b818110156148c557806148b188826143ac565b84526020840193505060208101905061489e565b5050509392505050565b600082601f8301126148e4576148e3614492565b5b81356148f4848260208601614866565b91505092915050565b600067ffffffffffffffff821115614918576149176144ad565b5b602082029050602081019050919050565b600061493c614937846148fd565b61450d565b9050808382526020820190506020840283018581111561495f5761495e61472d565b5b835b81811015614988578061497488826142f7565b845260208401935050602081019050614961565b5050509392505050565b600082601f8301126149a7576149a6614492565b5b81356149b7848260208601614929565b91505092915050565b600060a082840312156149d6576149d5614830565b5b6149e060a061450d565b9050600082013567ffffffffffffffff811115614a00576149ff614835565b5b614a0c848285016145aa565b6000830152506020614a20848285016142f7565b6020830152506040614a34848285016142f7565b604083015250606082013567ffffffffffffffff811115614a5857614a57614835565b5b614a64848285016148cf565b606083015250608082013567ffffffffffffffff811115614a8857614a87614835565b5b614a9484828501614992565b60808301525092915050565b600060208284031215614ab657614ab56142cc565b5b600082013567ffffffffffffffff811115614ad457614ad36142d1565b5b614ae0848285016149c0565b91505092915050565b60008060408385031215614b0057614aff6142cc565b5b6000614b0e858286016143ac565b9250506020614b1f858286016142f7565b9150509250929050565b60008115159050919050565b614b3e81614b29565b82525050565b6000602082019050614b596000830184614b35565b92915050565b600081519050919050565b600082825260208201905092915050565b6000819050602082019050919050565b614b94816142d6565b82525050565b6000614ba68383614b8b565b60208301905092915050565b6000602082019050919050565b6000614bca82614b5f565b614bd48185614b6a565b9350614bdf83614b7b565b8060005b83811015614c10578151614bf78882614b9a565b9750614c0283614bb2565b925050600181019050614be3565b5085935050505092915050565b60006020820190508181036000830152614c378184614bbf565b905092915050565b600080600060608486031215614c5857614c576142cc565b5b600084013567ffffffffffffffff811115614c7657614c756142d1565b5b614c82868287016145aa565b9350506020614c93868287016142f7565b9250506040614ca4868287016142f7565b9150509250925092565b6000604082019050614cc36000830185614339565b614cd06020830184614339565b9392505050565b600081519050919050565b600082825260208201905092915050565b60005b83811015614d11578082015181840152602081019050614cf6565b60008484015250505050565b6000614d2882614cd7565b614d328185614ce2565b9350614d42818560208601614cf3565b614d4b8161449c565b840191505092915050565b60006060820190508181036000830152614d708186614d1d565b9050614d7f6020830185614339565b614d8c6040830184614339565b949350505050565b7f49424c3a20616d6f756e74206973207a65726f00000000000000000000000000600082015250565b6000614dca601383614ce2565b9150614dd582614d94565b602082019050919050565b60006020820190508181036000830152614df981614dbd565b9050919050565b7f49424c3a20616d6f756e742067726561746572207468616e207769746864726160008201527f7761626c65207374616b65000000000000000000000000000000000000000000602082015250565b6000614e5c602b83614ce2565b9150614e6782614e00565b604082019050919050565b60006020820190508181036000830152614e8b81614e4f565b9050919050565b7f4e487b7100000000000000000000000000000000000000000000000000000000600052601160045260246000fd5b6000614ecc826142d6565b9150614ed7836142d6565b9250828201905080821115614eef57614eee614e92565b5b92915050565b6000614f00826142d6565b9150614f0b836142d6565b9250828203905081811115614f2357614f22614e92565b5b92915050565b7f49424c3a206163636f756e7420686173206e6f20726577617264730000000000600082015250565b6000614f5f601b83614ce2565b9150614f6a82614f29565b602082019050919050565b60006020820190508181036000830152614f8e81614f52565b9050919050565b6000604082019050614faa6000830185614468565b614fb76020830184614339565b9392505050565b600081905092915050565b6000614fd482614cd7565b614fde8185614fbe565b9350614fee818560208601614cf3565b80840191505092915050565b60006150068284614fc9565b915081905092915050565b7f4e487b7100000000000000000000000000000000000000000000000000000000600052603260045260246000fd5b7f4e487b7100000000000000000000000000000000000000000000000000000000600052602260045260246000fd5b6000600282049050600182168061508757607f821691505b60208210810361509a57615099615040565b5b50919050565b60006150ab826142d6565b91506150b6836142d6565b92508282026150c4816142d6565b915082820484148315176150db576150da614e92565b5b5092915050565b7f4e487b7100000000000000000000000000000000000000000000000000000000600052601260045260246000fd5b600061511c826142d6565b9150615127836142d6565b925082615137576151366150e2565b5b828204905092915050565b600061514d826142d6565b91507fffffffffffffffffffffffffffffffffffffffffffffffffffffffffffffffff820361517f5761517e614e92565b5b600182019050919050565b7f49424c3a20596f75206d7573742073656e642065786163742076616c75652100600082015250565b60006151c0601f83614ce2565b91506151cb8261518a565b602082019050919050565b600060208201905081810360008301526151ef816151b3565b9050919050565b7f49424c3a20596f75206d75737420706179207075626c69636174696f6e20666560008201527f6521000000000000000000000000000000000000000000000000000000000000602082015250565b6000615252602283614ce2565b915061525d826151f6565b604082019050919050565b6000602082019050818103600083015261528181615245565b9050919050565b60008190508160005260206000209050919050565b60006020601f8301049050919050565b600082821b905092915050565b6000600883026152ea7fffffffffffffffffffffffffffffffffffffffffffffffffffffffffffffffff826152ad565b6152f486836152ad565b95508019841693508086168417925050509392505050565b600061532761532261531d846142d6565b6143ee565b6142d6565b9050919050565b6000819050919050565b6153418361530c565b61535561534d8261532e565b8484546152ba565b825550505050565b600090565b61536a61535d565b615375818484615338565b505050565b5b818110156153995761538e600082615362565b60018101905061537b565b5050565b601f8211156153de576153af81615288565b6153b88461529d565b810160208510156153c7578190505b6153db6153d38561529d565b83018261537a565b50505b505050565b600082821c905092915050565b6000615401600019846008026153e3565b1980831691505092915050565b600061541a83836153f0565b9150826002028217905092915050565b61543382614cd7565b67ffffffffffffffff81111561544c5761544b6144ad565b5b615456825461506f565b61546182828561539d565b600060209050601f8311600181146154945760008415615482578287015190505b61548c858261540e565b8655506154f4565b601f1984166154a286615288565b60005b828110156154ca578489015182556001820191506020850194506020810190506154a5565b868310156154e757848901516154e3601f8916826153f0565b8355505b6001600288020188555050505b505050505050565b7f49424c3a20596f752063616e6e6f74207570646174652074686520707269636560008201527f206265636175736520796f7520617265206e6f7420746865206f776e65720000602082015250565b6000615558603e83614ce2565b9150615563826154fc565b604082019050919050565b600060208201905081810360008301526155878161554b565b9050919050565b7f49424c3a20796f75206d7573742073656e64207468652066656520696e20636f60008201527f6e74726163742100000000000000000000000000000000000000000000000000602082015250565b60006155ea602783614ce2565b91506155f58261558e565b604082019050919050565b60006020820190508181036000830152615619816155dd565b9050919050565b7f4f776e61626c653a206e6577206f776e657220697320746865207a65726f206160008201527f6464726573730000000000000000000000000000000000000000000000000000602082015250565b600061567c602683614ce2565b915061568782615620565b604082019050919050565b600060208201905081810360008301526156ab8161566f565b9050919050565b7f5265656e7472616e637947756172643a207265656e7472616e742063616c6c00600082015250565b60006156e8601f83614ce2565b91506156f3826156b2565b602082019050919050565b60006020820190508181036000830152615717816156db565b9050919050565b600081905092915050565b50565b600061573960008361571e565b915061574482615729565b600082019050919050565b600061575a8261572c565b9150819050919050565b7f444258656e3a206661696c656420746f2073656e6420616d6f756e7400000000600082015250565b600061579a601c83614ce2565b91506157a582615764565b602082019050919050565b600060208201905081810360008301526157c98161578d565b9050919050565b7f4f776e61626c653a2063616c6c6572206973206e6f7420746865206f776e6572600082015250565b6000615806602083614ce2565b9150615811826157d0565b602082019050919050565b60006020820190508181036000830152615835816157f9565b9050919050565b60006060820190506158516000830186614468565b61585e6020830185614468565b61586b6040830184614339565b949350505050565b61587c81614b29565b811461588757600080fd5b50565b60008151905061589981615873565b92915050565b6000602082840312156158b5576158b46142cc565b5b60006158c38482850161588a565b91505092915050565b7f5361666545524332303a204552433230206f7065726174696f6e20646964206e60008201527f6f74207375636365656400000000000000000000000000000000000000000000602082015250565b6000615928602a83614ce2565b9150615933826158cc565b604082019050919050565b600060208201905081810360008301526159578161591b565b9050919050565b7f416464726573733a20696e73756666696369656e742062616c616e636520666f60008201527f722063616c6c0000000000000000000000000000000000000000000000000000602082015250565b60006159ba602683614ce2565b91506159c58261595e565b604082019050919050565b600060208201905081810360008301526159e9816159ad565b9050919050565b600081519050919050565b6000615a06826159f0565b615a10818561571e565b9350615a20818560208601614cf3565b80840191505092915050565b6000615a3882846159fb565b915081905092915050565b7f416464726573733a2063616c6c20746f206e6f6e2d636f6e7472616374000000600082015250565b6000615a79601d83614ce2565b9150615a8482615a43565b602082019050919050565b60006020820190508181036000830152615aa881615a6c565b9050919050565b60006020820190508181036000830152615ac98184614d1d565b90509291505056fea2646970667358221220fc9dcf1ca18703e2b17f0886f1136e342863cbf25b3f691d8567fbb6fb63001764736f6c6343000811003360a06040523480156200001157600080fd5b506040518060400160405280601081526020017f49424c2052657761726420746f6b656e000000000000000000000000000000008152506040518060400160405280600381526020017f49424c000000000000000000000000000000000000000000000000000000000081525081600390816200008f919062000358565b508060049081620000a1919062000358565b5050503373ffffffffffffffffffffffffffffffffffffffff1660808173ffffffffffffffffffffffffffffffffffffffff16815250506200043f565b600081519050919050565b7f4e487b7100000000000000000000000000000000000000000000000000000000600052604160045260246000fd5b7f4e487b7100000000000000000000000000000000000000000000000000000000600052602260045260246000fd5b600060028204905060018216806200016057607f821691505b60208210810362000176576200017562000118565b5b50919050565b60008190508160005260206000209050919050565b60006020601f8301049050919050565b600082821b905092915050565b600060088302620001e07fffffffffffffffffffffffffffffffffffffffffffffffffffffffffffffffff82620001a1565b620001ec8683620001a1565b95508019841693508086168417925050509392505050565b6000819050919050565b6000819050919050565b600062000239620002336200022d8462000204565b6200020e565b62000204565b9050919050565b6000819050919050565b620002558362000218565b6200026d620002648262000240565b848454620001ae565b825550505050565b600090565b6200028462000275565b620002918184846200024a565b505050565b5b81811015620002b957620002ad6000826200027a565b60018101905062000297565b5050565b601f8211156200030857620002d2816200017c565b620002dd8462000191565b81016020851015620002ed578190505b62000305620002fc8562000191565b83018262000296565b50505b505050565b600082821c905092915050565b60006200032d600019846008026200030d565b1980831691505092915050565b60006200034883836200031a565b9150826002028217905092915050565b6200036382620000de565b67ffffffffffffffff8111156200037f576200037e620000e9565b5b6200038b825462000147565b62000398828285620002bd565b600060209050601f831160018114620003d05760008415620003bb578287015190505b620003c785826200033a565b86555062000437565b601f198416620003e0866200017c565b60005b828110156200040a57848901518255600182019150602085019450602081019050620003e3565b868310156200042a578489015162000426601f8916826200031a565b8355505b6001600288020188555050505b505050505050565b6080516115a7620004626000396000818161044e015261050401526115a76000f3fe608060405234801561001057600080fd5b50600436106100cf5760003560e01c806370a082311161008c5780639a49090e116100665780639a49090e1461022a578063a457c2d714610246578063a9059cbb14610276578063dd62ed3e146102a6576100cf565b806370a08231146101be5780638da5cb5b146101ee57806395d89b411461020c576100cf565b806306fdde03146100d4578063095ea7b3146100f257806318160ddd1461012257806323b872dd14610140578063313ce56714610170578063395093511461018e575b600080fd5b6100dc6102d6565b6040516100e99190610d82565b60405180910390f35b61010c60048036038101906101079190610e3d565b610368565b6040516101199190610e98565b60405180910390f35b61012a61038b565b6040516101379190610ec2565b60405180910390f35b61015a60048036038101906101559190610edd565b610395565b6040516101679190610e98565b60405180910390f35b6101786103c4565b6040516101859190610f4c565b60405180910390f35b6101a860048036038101906101a39190610e3d565b6103cd565b6040516101b59190610e98565b60405180910390f35b6101d860048036038101906101d39190610f67565b610404565b6040516101e59190610ec2565b60405180910390f35b6101f661044c565b6040516102039190610fa3565b60405180910390f35b610214610470565b6040516102219190610d82565b60405180910390f35b610244600480360381019061023f9190610e3d565b610502565b005b610260600480360381019061025b9190610e3d565b61059e565b60405161026d9190610e98565b60405180910390f35b610290600480360381019061028b9190610e3d565b610615565b60405161029d9190610e98565b60405180910390f35b6102c060048036038101906102bb9190610fbe565b610638565b6040516102cd9190610ec2565b60405180910390f35b6060600380546102e59061102d565b80601f01602080910402602001604051908101604052809291908181526020018280546103119061102d565b801561035e5780601f106103335761010080835404028352916020019161035e565b820191906000526020600020905b81548152906001019060200180831161034157829003601f168201915b5050505050905090565b6000806103736106bf565b90506103808185856106c7565b600191505092915050565b6000600254905090565b6000806103a06106bf565b90506103ad858285610890565b6103b885858561091c565b60019150509392505050565b60006012905090565b6000806103d86106bf565b90506103f98185856103ea8589610638565b6103f4919061108d565b6106c7565b600191505092915050565b60008060008373ffffffffffffffffffffffffffffffffffffffff1673ffffffffffffffffffffffffffffffffffffffff168152602001908152602001600020549050919050565b7f000000000000000000000000000000000000000000000000000000000000000081565b60606004805461047f9061102d565b80601f01602080910402602001604051908101604052809291908181526020018280546104ab9061102d565b80156104f85780601f106104cd576101008083540402835291602001916104f8565b820191906000526020600020905b8154815290600101906020018083116104db57829003601f168201915b5050505050905090565b7f000000000000000000000000000000000000000000000000000000000000000073ffffffffffffffffffffffffffffffffffffffff163373ffffffffffffffffffffffffffffffffffffffff1614610590576040517f08c379a00000000000000000000000000000000000000000000000000000000081526004016105879061110d565b60405180910390fd5b61059a8282610b92565b5050565b6000806105a96106bf565b905060006105b78286610638565b9050838110156105fc576040517f08c379a00000000000000000000000000000000000000000000000000000000081526004016105f39061119f565b60405180910390fd5b61060982868684036106c7565b60019250505092915050565b6000806106206106bf565b905061062d81858561091c565b600191505092915050565b6000600160008473ffffffffffffffffffffffffffffffffffffffff1673ffffffffffffffffffffffffffffffffffffffff16815260200190815260200160002060008373ffffffffffffffffffffffffffffffffffffffff1673ffffffffffffffffffffffffffffffffffffffff16815260200190815260200160002054905092915050565b600033905090565b600073ffffffffffffffffffffffffffffffffffffffff168373ffffffffffffffffffffffffffffffffffffffff1603610736576040517f08c379a000000000000000000000000000000000000000000000000000000000815260040161072d90611231565b60405180910390fd5b600073ffffffffffffffffffffffffffffffffffffffff168273ffffffffffffffffffffffffffffffffffffffff16036107a5576040517f08c379a000000000000000000000000000000000000000000000000000000000815260040161079c906112c3565b60405180910390fd5b80600160008573ffffffffffffffffffffffffffffffffffffffff1673ffffffffffffffffffffffffffffffffffffffff16815260200190815260200160002060008473ffffffffffffffffffffffffffffffffffffffff1673ffffffffffffffffffffffffffffffffffffffff168152602001908152602001600020819055508173ffffffffffffffffffffffffffffffffffffffff168373ffffffffffffffffffffffffffffffffffffffff167f8c5be1e5ebec7d5bd14f71427d1e84f3dd0314c0f7b2291e5b200ac8c7c3b925836040516108839190610ec2565b60405180910390a3505050565b600061089c8484610638565b90507fffffffffffffffffffffffffffffffffffffffffffffffffffffffffffffffff81146109165781811015610908576040517f08c379a00000000000000000000000000000000000000000000000000000000081526004016108ff9061132f565b60405180910390fd5b61091584848484036106c7565b5b50505050565b600073ffffffffffffffffffffffffffffffffffffffff168373ffffffffffffffffffffffffffffffffffffffff160361098b576040517f08c379a0000000000000000000000000000000000000000000000000000000008152600401610982906113c1565b60405180910390fd5b600073ffffffffffffffffffffffffffffffffffffffff168273ffffffffffffffffffffffffffffffffffffffff16036109fa576040517f08c379a00000000000000000000000000000000000000000000000000000000081526004016109f190611453565b60405180910390fd5b610a05838383610ce8565b60008060008573ffffffffffffffffffffffffffffffffffffffff1673ffffffffffffffffffffffffffffffffffffffff16815260200190815260200160002054905081811015610a8b576040517f08c379a0000000000000000000000000000000000000000000000000000000008152600401610a82906114e5565b60405180910390fd5b8181036000808673ffffffffffffffffffffffffffffffffffffffff1673ffffffffffffffffffffffffffffffffffffffff16815260200190815260200160002081905550816000808573ffffffffffffffffffffffffffffffffffffffff1673ffffffffffffffffffffffffffffffffffffffff168152602001908152602001600020600082825401925050819055508273ffffffffffffffffffffffffffffffffffffffff168473ffffffffffffffffffffffffffffffffffffffff167fddf252ad1be2c89b69c2b068fc378daa952ba7f163c4a11628f55a4df523b3ef84604051610b799190610ec2565b60405180910390a3610b8c848484610ced565b50505050565b600073ffffffffffffffffffffffffffffffffffffffff168273ffffffffffffffffffffffffffffffffffffffff1603610c01576040517f08c379a0000000000000000000000000000000000000000000000000000000008152600401610bf890611551565b60405180910390fd5b610c0d60008383610ce8565b8060026000828254610c1f919061108d565b92505081905550806000808473ffffffffffffffffffffffffffffffffffffffff1673ffffffffffffffffffffffffffffffffffffffff168152602001908152602001600020600082825401925050819055508173ffffffffffffffffffffffffffffffffffffffff16600073ffffffffffffffffffffffffffffffffffffffff167fddf252ad1be2c89b69c2b068fc378daa952ba7f163c4a11628f55a4df523b3ef83604051610cd09190610ec2565b60405180910390a3610ce460008383610ced565b5050565b505050565b505050565b600081519050919050565b600082825260208201905092915050565b60005b83811015610d2c578082015181840152602081019050610d11565b60008484015250505050565b6000601f19601f8301169050919050565b6000610d5482610cf2565b610d5e8185610cfd565b9350610d6e818560208601610d0e565b610d7781610d38565b840191505092915050565b60006020820190508181036000830152610d9c8184610d49565b905092915050565b600080fd5b600073ffffffffffffffffffffffffffffffffffffffff82169050919050565b6000610dd482610da9565b9050919050565b610de481610dc9565b8114610def57600080fd5b50565b600081359050610e0181610ddb565b92915050565b6000819050919050565b610e1a81610e07565b8114610e2557600080fd5b50565b600081359050610e3781610e11565b92915050565b60008060408385031215610e5457610e53610da4565b5b6000610e6285828601610df2565b9250506020610e7385828601610e28565b9150509250929050565b60008115159050919050565b610e9281610e7d565b82525050565b6000602082019050610ead6000830184610e89565b92915050565b610ebc81610e07565b82525050565b6000602082019050610ed76000830184610eb3565b92915050565b600080600060608486031215610ef657610ef5610da4565b5b6000610f0486828701610df2565b9350506020610f1586828701610df2565b9250506040610f2686828701610e28565b9150509250925092565b600060ff82169050919050565b610f4681610f30565b82525050565b6000602082019050610f616000830184610f3d565b92915050565b600060208284031215610f7d57610f7c610da4565b5b6000610f8b84828501610df2565b91505092915050565b610f9d81610dc9565b82525050565b6000602082019050610fb86000830184610f94565b92915050565b60008060408385031215610fd557610fd4610da4565b5b6000610fe385828601610df2565b9250506020610ff485828601610df2565b9150509250929050565b7f4e487b7100000000000000000000000000000000000000000000000000000000600052602260045260246000fd5b6000600282049050600182168061104557607f821691505b60208210810361105857611057610ffe565b5b50919050565b7f4e487b7100000000000000000000000000000000000000000000000000000000600052601160045260246000fd5b600061109882610e07565b91506110a383610e07565b92508282019050808211156110bb576110ba61105e565b5b92915050565b7f49424c3a2063616c6c6572206973206e6f742049424c20636f6e74726163742e600082015250565b60006110f7602083610cfd565b9150611102826110c1565b602082019050919050565b60006020820190508181036000830152611126816110ea565b9050919050565b7f45524332303a2064656372656173656420616c6c6f77616e63652062656c6f7760008201527f207a65726f000000000000000000000000000000000000000000000000000000602082015250565b6000611189602583610cfd565b91506111948261112d565b604082019050919050565b600060208201905081810360008301526111b88161117c565b9050919050565b7f45524332303a20617070726f76652066726f6d20746865207a65726f2061646460008201527f7265737300000000000000000000000000000000000000000000000000000000602082015250565b600061121b602483610cfd565b9150611226826111bf565b604082019050919050565b6000602082019050818103600083015261124a8161120e565b9050919050565b7f45524332303a20617070726f766520746f20746865207a65726f20616464726560008201527f7373000000000000000000000000000000000000000000000000000000000000602082015250565b60006112ad602283610cfd565b91506112b882611251565b604082019050919050565b600060208201905081810360008301526112dc816112a0565b9050919050565b7f45524332303a20696e73756666696369656e7420616c6c6f77616e6365000000600082015250565b6000611319601d83610cfd565b9150611324826112e3565b602082019050919050565b600060208201905081810360008301526113488161130c565b9050919050565b7f45524332303a207472616e736665722066726f6d20746865207a65726f20616460008201527f6472657373000000000000000000000000000000000000000000000000000000602082015250565b60006113ab602583610cfd565b91506113b68261134f565b604082019050919050565b600060208201905081810360008301526113da8161139e565b9050919050565b7f45524332303a207472616e7366657220746f20746865207a65726f206164647260008201527f6573730000000000000000000000000000000000000000000000000000000000602082015250565b600061143d602383610cfd565b9150611448826113e1565b604082019050919050565b6000602082019050818103600083015261146c81611430565b9050919050565b7f45524332303a207472616e7366657220616d6f756e742065786365656473206260008201527f616c616e63650000000000000000000000000000000000000000000000000000602082015250565b60006114cf602683610cfd565b91506114da82611473565b604082019050919050565b600060208201905081810360008301526114fe816114c2565b9050919050565b7f45524332303a206d696e7420746f20746865207a65726f206164647265737300600082015250565b600061153b601f83610cfd565b915061154682611505565b602082019050919050565b6000602082019050818103600083015261156a8161152e565b905091905056fea26469706673582212201e94c56cc2caba728fc301f445919d0ed98ab83315ad6c1b5fb96de7949eee1464736f6c63430008110033",
  "linkReferences": {},
  "deployedLinkReferences": {}
}