{
  "_format": "hh-sol-artifact-1",
  "contractName": "IBL",
  "sourceName": "contracts/IBL.sol",
  "abi": [
    {
      "inputs": [
        {
          "internalType": "address",
          "name": "_devAddress",
          "type": "address"
        }
      ],
      "stateMutability": "nonpayable",
      "type": "constructor"
    },
    {
      "anonymous": false,
      "inputs": [
        {
          "indexed": true,
          "internalType": "uint256",
          "name": "cycle",
          "type": "uint256"
        },
        {
          "indexed": true,
          "internalType": "address",
          "name": "account",
          "type": "address"
        },
        {
          "indexed": false,
          "internalType": "uint256",
          "name": "fees",
          "type": "uint256"
        }
      ],
      "name": "FeesClaimed",
      "type": "event"
    },
    {
      "anonymous": false,
      "inputs": [
        {
          "indexed": true,
          "internalType": "address",
          "name": "previousOwner",
          "type": "address"
        },
        {
          "indexed": true,
          "internalType": "address",
          "name": "newOwner",
          "type": "address"
        }
      ],
      "name": "OwnershipTransferred",
      "type": "event"
    },
    {
      "inputs": [],
      "name": "IBL_TEAM_FEE",
      "outputs": [
        {
          "internalType": "uint256",
          "name": "",
          "type": "uint256"
        }
      ],
      "stateMutability": "view",
      "type": "function"
    },
    {
      "inputs": [],
      "name": "POOL_FEE",
      "outputs": [
        {
          "internalType": "uint256",
          "name": "",
          "type": "uint256"
        }
      ],
      "stateMutability": "view",
      "type": "function"
    },
    {
      "inputs": [],
      "name": "SCALING_FACTOR",
      "outputs": [
        {
          "internalType": "uint256",
          "name": "",
          "type": "uint256"
        }
      ],
      "stateMutability": "view",
      "type": "function"
    },
    {
      "inputs": [
        {
          "internalType": "address",
          "name": "",
          "type": "address"
        }
      ],
      "name": "accAccruedFees",
      "outputs": [
        {
          "internalType": "uint256",
          "name": "",
          "type": "uint256"
        }
      ],
      "stateMutability": "view",
      "type": "function"
    },
    {
      "inputs": [
        {
          "internalType": "address",
          "name": "",
          "type": "address"
        }
      ],
      "name": "accCycleBatchesBurned",
      "outputs": [
        {
          "internalType": "uint256",
          "name": "",
          "type": "uint256"
        }
      ],
      "stateMutability": "view",
      "type": "function"
    },
    {
      "inputs": [
        {
          "internalType": "address",
          "name": "",
          "type": "address"
        }
      ],
      "name": "accFirstStake",
      "outputs": [
        {
          "internalType": "uint256",
          "name": "",
          "type": "uint256"
        }
      ],
      "stateMutability": "view",
      "type": "function"
    },
    {
      "inputs": [
        {
          "internalType": "address",
          "name": "",
          "type": "address"
        }
      ],
      "name": "accRewards",
      "outputs": [
        {
          "internalType": "uint256",
          "name": "",
          "type": "uint256"
        }
      ],
      "stateMutability": "view",
      "type": "function"
    },
    {
      "inputs": [
        {
          "internalType": "address",
          "name": "",
          "type": "address"
        }
      ],
      "name": "accSecondStake",
      "outputs": [
        {
          "internalType": "uint256",
          "name": "",
          "type": "uint256"
        }
      ],
      "stateMutability": "view",
      "type": "function"
    },
    {
      "inputs": [
        {
          "internalType": "address",
          "name": "",
          "type": "address"
        },
        {
          "internalType": "uint256",
          "name": "",
          "type": "uint256"
        }
      ],
      "name": "accStakeCycle",
      "outputs": [
        {
          "internalType": "uint256",
          "name": "",
          "type": "uint256"
        }
      ],
      "stateMutability": "view",
      "type": "function"
    },
    {
      "inputs": [
        {
          "internalType": "address",
          "name": "",
          "type": "address"
        }
      ],
      "name": "accWithdrawableStake",
      "outputs": [
        {
          "internalType": "uint256",
          "name": "",
          "type": "uint256"
        }
      ],
      "stateMutability": "view",
      "type": "function"
    },
    {
      "inputs": [],
      "name": "accruedFees",
      "outputs": [
        {
          "internalType": "uint256",
          "name": "",
          "type": "uint256"
        }
      ],
      "stateMutability": "view",
      "type": "function"
    },
    {
      "inputs": [
        {
          "internalType": "string",
          "name": "id",
          "type": "string"
        },
        {
          "internalType": "uint256",
          "name": "fee",
          "type": "uint256"
        }
      ],
      "name": "addApplicationFee",
      "outputs": [],
      "stateMutability": "nonpayable",
      "type": "function"
    },
    {
      "inputs": [
        {
          "components": [
            {
              "internalType": "string",
              "name": "id",
              "type": "string"
            },
            {
              "internalType": "uint256",
              "name": "runPrice",
              "type": "uint256"
            },
            {
              "internalType": "uint256",
              "name": "downloadPrice",
              "type": "uint256"
            },
            {
              "internalType": "address[]",
              "name": "owners",
              "type": "address[]"
            },
            {
              "internalType": "uint256[]",
              "name": "procentages",
              "type": "uint256[]"
            }
          ],
          "internalType": "struct IBL.Component",
          "name": "component",
          "type": "tuple"
        }
      ],
      "name": "addComponent",
      "outputs": [],
      "stateMutability": "payable",
      "type": "function"
    },
    {
      "inputs": [
        {
          "internalType": "uint256",
          "name": "",
          "type": "uint256"
        }
      ],
      "name": "alreadyUpdateCycleData",
      "outputs": [
        {
          "internalType": "bool",
          "name": "",
          "type": "bool"
        }
      ],
      "stateMutability": "view",
      "type": "function"
    },
    {
      "inputs": [
        {
          "internalType": "string",
          "name": "",
          "type": "string"
        }
      ],
      "name": "applicationFee",
      "outputs": [
        {
          "internalType": "uint256",
          "name": "",
          "type": "uint256"
        }
      ],
      "stateMutability": "view",
      "type": "function"
    },
    {
      "inputs": [
        {
          "internalType": "address",
          "name": "",
          "type": "address"
        }
      ],
      "name": "applicationFeeReward",
      "outputs": [
        {
          "internalType": "uint256",
          "name": "",
          "type": "uint256"
        }
      ],
      "stateMutability": "view",
      "type": "function"
    },
    {
      "inputs": [
        {
          "internalType": "string",
          "name": "",
          "type": "string"
        }
      ],
      "name": "applicationOwner",
      "outputs": [
        {
          "internalType": "address",
          "name": "",
          "type": "address"
        }
      ],
      "stateMutability": "view",
      "type": "function"
    },
    {
      "inputs": [
        {
          "internalType": "string",
          "name": "",
          "type": "string"
        }
      ],
      "name": "applicationTotalFeeAccrued",
      "outputs": [
        {
          "internalType": "uint256",
          "name": "",
          "type": "uint256"
        }
      ],
      "stateMutability": "view",
      "type": "function"
    },
    {
      "inputs": [
        {
          "internalType": "address",
          "name": "",
          "type": "address"
        }
      ],
      "name": "builderReward",
      "outputs": [
        {
          "internalType": "uint256",
          "name": "",
          "type": "uint256"
        }
      ],
      "stateMutability": "view",
      "type": "function"
    },
    {
      "inputs": [
        {
          "internalType": "string[]",
          "name": "componentsIds",
          "type": "string[]"
        }
      ],
      "name": "calculateFeesFoRunningApplication",
      "outputs": [
        {
          "internalType": "uint256",
          "name": "",
          "type": "uint256"
        }
      ],
      "stateMutability": "nonpayable",
      "type": "function"
    },
    {
      "inputs": [
        {
          "internalType": "uint256",
          "name": "x",
          "type": "uint256"
        }
      ],
      "name": "calculateProportion",
      "outputs": [
        {
          "internalType": "uint256",
          "name": "",
          "type": "uint256"
        }
      ],
      "stateMutability": "pure",
      "type": "function"
    },
    {
      "inputs": [
        {
          "internalType": "string[]",
          "name": "componentsIds",
          "type": "string[]"
        }
      ],
      "name": "calculatedownlodFeeApplication",
      "outputs": [
        {
          "internalType": "uint256",
          "name": "",
          "type": "uint256"
        }
      ],
      "stateMutability": "nonpayable",
      "type": "function"
    },
    {
      "inputs": [],
      "name": "claimApplicationFee",
      "outputs": [],
      "stateMutability": "nonpayable",
      "type": "function"
    },
    {
      "inputs": [],
      "name": "claimComponentOwnerFees",
      "outputs": [],
      "stateMutability": "nonpayable",
      "type": "function"
    },
    {
      "inputs": [],
      "name": "claimFees",
      "outputs": [],
      "stateMutability": "nonpayable",
      "type": "function"
    },
    {
      "inputs": [],
      "name": "claimRewards",
      "outputs": [],
      "stateMutability": "nonpayable",
      "type": "function"
    },
    {
      "inputs": [
        {
          "internalType": "string",
          "name": "",
          "type": "string"
        }
      ],
      "name": "componentData",
      "outputs": [
        {
          "internalType": "string",
          "name": "id",
          "type": "string"
        },
        {
          "internalType": "uint256",
          "name": "runPrice",
          "type": "uint256"
        },
        {
          "internalType": "uint256",
          "name": "downloadPrice",
          "type": "uint256"
        }
      ],
      "stateMutability": "view",
      "type": "function"
    },
    {
      "inputs": [],
      "name": "currentCycle",
      "outputs": [
        {
          "internalType": "uint256",
          "name": "",
          "type": "uint256"
        }
      ],
      "stateMutability": "view",
      "type": "function"
    },
    {
      "inputs": [],
      "name": "currentStartedCycle",
      "outputs": [
        {
          "internalType": "uint256",
          "name": "",
          "type": "uint256"
        }
      ],
      "stateMutability": "view",
      "type": "function"
    },
    {
      "inputs": [
        {
          "internalType": "uint256",
          "name": "",
          "type": "uint256"
        }
      ],
      "name": "cycleAccruedFees",
      "outputs": [
        {
          "internalType": "uint256",
          "name": "",
          "type": "uint256"
        }
      ],
      "stateMutability": "view",
      "type": "function"
    },
    {
      "inputs": [
        {
          "internalType": "uint256",
          "name": "",
          "type": "uint256"
        }
      ],
      "name": "cycleFeesPerStakeSummed",
      "outputs": [
        {
          "internalType": "uint256",
          "name": "",
          "type": "uint256"
        }
      ],
      "stateMutability": "view",
      "type": "function"
    },
    {
      "inputs": [
        {
          "internalType": "uint256",
          "name": "",
          "type": "uint256"
        }
      ],
      "name": "cycleTotalBatchesBurned",
      "outputs": [
        {
          "internalType": "uint256",
          "name": "",
          "type": "uint256"
        }
      ],
      "stateMutability": "view",
      "type": "function"
    },
    {
      "inputs": [],
      "name": "devAddress",
      "outputs": [
        {
          "internalType": "address",
          "name": "",
          "type": "address"
        }
      ],
      "stateMutability": "view",
      "type": "function"
    },
    {
      "inputs": [
        {
          "internalType": "string[]",
          "name": "componentsIds",
          "type": "string[]"
        }
      ],
      "name": "distributeFeesFoRunningApplication",
      "outputs": [],
      "stateMutability": "payable",
      "type": "function"
    },
    {
      "inputs": [
        {
          "internalType": "string[]",
          "name": "componentsIds",
          "type": "string[]"
        }
      ],
      "name": "downlodApplication",
      "outputs": [],
      "stateMutability": "payable",
      "type": "function"
    },
    {
      "inputs": [],
      "name": "getCurrentCycle",
      "outputs": [
        {
          "internalType": "uint256",
          "name": "",
          "type": "uint256"
        }
      ],
      "stateMutability": "view",
      "type": "function"
    },
    {
      "inputs": [
        {
          "internalType": "string",
          "name": "id",
          "type": "string"
        }
      ],
      "name": "getFees",
      "outputs": [
        {
          "internalType": "uint256",
          "name": "",
          "type": "uint256"
        },
        {
          "internalType": "uint256",
          "name": "",
          "type": "uint256"
        }
      ],
      "stateMutability": "view",
      "type": "function"
    },
    {
      "inputs": [
        {
          "internalType": "string",
          "name": "id",
          "type": "string"
        }
      ],
      "name": "getOwnersForComponent",
      "outputs": [
        {
          "internalType": "address[]",
          "name": "",
          "type": "address[]"
        }
      ],
      "stateMutability": "view",
      "type": "function"
    },
    {
      "inputs": [
        {
          "internalType": "string",
          "name": "id",
          "type": "string"
        }
      ],
      "name": "getProcentagesForComponent",
      "outputs": [
        {
          "internalType": "uint256[]",
          "name": "",
          "type": "uint256[]"
        }
      ],
      "stateMutability": "view",
      "type": "function"
    },
    {
      "inputs": [],
      "name": "i_initialTimestamp",
      "outputs": [
        {
          "internalType": "uint256",
          "name": "",
          "type": "uint256"
        }
      ],
      "stateMutability": "view",
      "type": "function"
    },
    {
      "inputs": [],
      "name": "i_periodDuration",
      "outputs": [
        {
          "internalType": "uint256",
          "name": "",
          "type": "uint256"
        }
      ],
      "stateMutability": "view",
      "type": "function"
    },
    {
      "inputs": [],
      "name": "ibl",
      "outputs": [
        {
          "internalType": "contract IBLERC20",
          "name": "",
          "type": "address"
        }
      ],
      "stateMutability": "view",
      "type": "function"
    },
    {
      "inputs": [
        {
          "internalType": "address",
          "name": "",
          "type": "address"
        }
      ],
      "name": "lastActiveCycle",
      "outputs": [
        {
          "internalType": "uint256",
          "name": "",
          "type": "uint256"
        }
      ],
      "stateMutability": "view",
      "type": "function"
    },
    {
      "inputs": [
        {
          "internalType": "address",
          "name": "",
          "type": "address"
        }
      ],
      "name": "lastActiveCycleAccReward",
      "outputs": [
        {
          "internalType": "uint256",
          "name": "",
          "type": "uint256"
        }
      ],
      "stateMutability": "view",
      "type": "function"
    },
    {
      "inputs": [],
      "name": "lastCycleReward",
      "outputs": [
        {
          "internalType": "uint256",
          "name": "",
          "type": "uint256"
        }
      ],
      "stateMutability": "view",
      "type": "function"
    },
    {
      "inputs": [
        {
          "internalType": "address",
          "name": "",
          "type": "address"
        }
      ],
      "name": "lastFeeUpdateCycle",
      "outputs": [
        {
          "internalType": "uint256",
          "name": "",
          "type": "uint256"
        }
      ],
      "stateMutability": "view",
      "type": "function"
    },
    {
      "inputs": [
        {
          "internalType": "string",
          "name": "",
          "type": "string"
        }
      ],
      "name": "lastHighestDownloadPrice",
      "outputs": [
        {
          "internalType": "uint256",
          "name": "",
          "type": "uint256"
        }
      ],
      "stateMutability": "view",
      "type": "function"
    },
    {
      "inputs": [],
      "name": "lastStartedCycle",
      "outputs": [
        {
          "internalType": "uint256",
          "name": "",
          "type": "uint256"
        }
      ],
      "stateMutability": "view",
      "type": "function"
    },
    {
      "inputs": [],
      "name": "owner",
      "outputs": [
        {
          "internalType": "address",
          "name": "",
          "type": "address"
        }
      ],
      "stateMutability": "view",
      "type": "function"
    },
    {
      "inputs": [
        {
          "internalType": "address",
          "name": "",
          "type": "address"
        }
      ],
      "name": "ownerNativeFeeAcc",
      "outputs": [
        {
          "internalType": "uint256",
          "name": "",
          "type": "uint256"
        }
      ],
      "stateMutability": "view",
      "type": "function"
    },
    {
      "inputs": [],
      "name": "pendingStake",
      "outputs": [
        {
          "internalType": "uint256",
          "name": "",
          "type": "uint256"
        }
      ],
      "stateMutability": "view",
      "type": "function"
    },
    {
      "inputs": [],
      "name": "pendingStakeWithdrawal",
      "outputs": [
        {
          "internalType": "uint256",
          "name": "",
          "type": "uint256"
        }
      ],
      "stateMutability": "view",
      "type": "function"
    },
    {
      "inputs": [],
      "name": "previousStartedCycle",
      "outputs": [
        {
          "internalType": "uint256",
          "name": "",
          "type": "uint256"
        }
      ],
      "stateMutability": "view",
      "type": "function"
    },
    {
      "inputs": [],
      "name": "renounceOwnership",
      "outputs": [],
      "stateMutability": "nonpayable",
      "type": "function"
    },
    {
      "inputs": [
        {
          "internalType": "uint256",
          "name": "",
          "type": "uint256"
        }
      ],
      "name": "rewardPerCycle",
      "outputs": [
        {
          "internalType": "uint256",
          "name": "",
          "type": "uint256"
        }
      ],
      "stateMutability": "view",
      "type": "function"
    },
    {
      "inputs": [
        {
          "internalType": "address",
          "name": "_devAddress",
          "type": "address"
        }
      ],
      "name": "setDevAddress",
      "outputs": [],
      "stateMutability": "nonpayable",
      "type": "function"
    },
    {
      "inputs": [
        {
          "internalType": "string",
          "name": "id",
          "type": "string"
        },
        {
          "internalType": "uint256",
          "name": "newFee",
          "type": "uint256"
        }
      ],
      "name": "setNewApplicationFee",
      "outputs": [],
      "stateMutability": "nonpayable",
      "type": "function"
    },
    {
      "inputs": [
        {
          "internalType": "string",
          "name": "id",
          "type": "string"
        },
        {
          "internalType": "uint256",
          "name": "newRunPrice",
          "type": "uint256"
        },
        {
          "internalType": "uint256",
          "name": "newDownloadPrice",
          "type": "uint256"
        }
      ],
      "name": "setNewPrice",
      "outputs": [],
      "stateMutability": "payable",
      "type": "function"
    },
    {
      "inputs": [
        {
          "internalType": "uint256",
          "name": "amount",
          "type": "uint256"
        }
      ],
      "name": "stake",
      "outputs": [],
      "stateMutability": "nonpayable",
      "type": "function"
    },
    {
      "inputs": [
        {
          "internalType": "uint256",
          "name": "",
          "type": "uint256"
        }
      ],
      "name": "summedCycleStakes",
      "outputs": [
        {
          "internalType": "uint256",
          "name": "",
          "type": "uint256"
        }
      ],
      "stateMutability": "view",
      "type": "function"
    },
    {
      "inputs": [],
      "name": "totalNumberOfBatchesBurned",
      "outputs": [
        {
          "internalType": "uint256",
          "name": "",
          "type": "uint256"
        }
      ],
      "stateMutability": "view",
      "type": "function"
    },
    {
      "inputs": [
        {
          "internalType": "address",
          "name": "newOwner",
          "type": "address"
        }
      ],
      "name": "transferOwnership",
      "outputs": [],
      "stateMutability": "nonpayable",
      "type": "function"
    },
    {
      "inputs": [
        {
          "internalType": "uint256",
          "name": "amount",
          "type": "uint256"
        }
      ],
      "name": "unstake",
      "outputs": [],
      "stateMutability": "nonpayable",
      "type": "function"
    }
  ],
  "bytecode": "0x60c06040526101f4600f5561251c6010553480156200001d57600080fd5b5060405162007f5f38038062007f5f833981810160405281019062000043919062000275565b62000063620000576200013160201b60201c565b6200013960201b60201c565b600180819055506040516200007890620001fd565b604051809103906000f08015801562000095573d6000803e3d6000fd5b50600260006101000a81548173ffffffffffffffffffffffffffffffffffffffff021916908373ffffffffffffffffffffffffffffffffffffffff16021790555080601160006101000a81548173ffffffffffffffffffffffffffffffffffffffff021916908373ffffffffffffffffffffffffffffffffffffffff16021790555042608081815250506201518060a0818152505050620002a7565b600033905090565b60008060009054906101000a900473ffffffffffffffffffffffffffffffffffffffff169050816000806101000a81548173ffffffffffffffffffffffffffffffffffffffff021916908373ffffffffffffffffffffffffffffffffffffffff1602179055508173ffffffffffffffffffffffffffffffffffffffff168173ffffffffffffffffffffffffffffffffffffffff167f8be0079c531659141344cd1fd0a4f28419497f9722a3daafe3b4186f6b6457e060405160405180910390a35050565b611a09806200655683390190565b600080fd5b600073ffffffffffffffffffffffffffffffffffffffff82169050919050565b60006200023d8262000210565b9050919050565b6200024f8162000230565b81146200025b57600080fd5b50565b6000815190506200026f8162000244565b92915050565b6000602082840312156200028e576200028d6200020b565b5b60006200029e848285016200025e565b91505092915050565b60805160a05161627b620002db600039600081816119d601526125dc01526000818161209701526125fd015261627b6000f3fe6080604052600436106103b75760003560e01c8063a2727db3116101f2578063d294f0931161010d578063e858e05c116100a0578063f1b371e21161006f578063f1b371e214610ef4578063f2fde38b14610f1f578063fa845ca914610f48578063fded701214610f85576103b7565b8063e858e05c14610e32578063eb90b2bc14610e4e578063ed725e8314610e8c578063ef4cadc514610ec9576103b7565b8063dd1b9c4a116100dc578063dd1b9c4a14610d76578063e203d03014610da1578063e57a4b3f14610db8578063e60c90c414610df5576103b7565b8063d294f09314610cdb578063d4432e4e14610cf2578063d8043d8f14610d1d578063db80a28c14610d39576103b7565b8063bab2f55211610185578063bee7708e11610154578063bee7708e14610c0d578063c40af1ee14610c4a578063c4235ae914610c75578063d0d41fe114610cb2576103b7565b8063bab2f55214610b3d578063bc71329014610b68578063be26ed7f14610ba5578063bebc9dfc14610bd0576103b7565b8063aabbb1bd116101c1578063aabbb1bd14610a49578063adc0f68614610a86578063af2f850e14610ac3578063b6f2a9ce14610b00576103b7565b8063a2727db31461097b578063a694fc3a146109b8578063a707140b146109e1578063a95f1dac14610a1e576103b7565b8063436091c1116102e257806372d8b444116102755780638bd95563116102445780638bd95563146108bf5780638c211793146108ea5780638da5cb5b14610913578063908a76281461093e576103b7565b806372d8b4441461082157806374ef83671461083d5780637b0846f3146108595780637dde48e514610882576103b7565b8063650b1881116102b1578063650b188114610777578063682c2058146107b457806368f05769146107df578063715018a61461080a576103b7565b8063436091c1146106a75780635347a47d146106d2578063541c78861461070f5780635f5080b41461074c576103b7565b80631ed6380f1161035a5780632f7cdab0116103295780632f7cdab0146105fd578063372500ab146106285780633ad10ef61461063f5780633f78ccc51461066a576103b7565b80631ed6380f146105435780632132066b146105805780632b716ad6146105975780632e17de78146105d4576103b7565b806312d474391161039657806312d4743914610473578063168b0a5c1461049e57806317d9c47a146104c95780631cb5046114610506576103b7565b8062552dd0146103bc5780630ece2154146103f957806312cb22ac14610436575b600080fd5b3480156103c857600080fd5b506103e360048036038101906103de9190614b88565b610fc4565b6040516103f09190614bea565b60405180910390f35b34801561040557600080fd5b50610420600480360381019061041b9190614c31565b6112ce565b60405161042d9190614bea565b60405180910390f35b34801561044257600080fd5b5061045d60048036038101906104589190614cbc565b6112e6565b60405161046a9190614bea565b60405180910390f35b34801561047f57600080fd5b506104886112fe565b6040516104959190614bea565b60405180910390f35b3480156104aa57600080fd5b506104b3611304565b6040516104c09190614d48565b60405180910390f35b3480156104d557600080fd5b506104f060048036038101906104eb9190614c31565b61132a565b6040516104fd9190614bea565b60405180910390f35b34801561051257600080fd5b5061052d60048036038101906105289190614b88565b611342565b60405161053a9190614bea565b60405180910390f35b34801561054f57600080fd5b5061056a60048036038101906105659190614cbc565b61164c565b6040516105779190614bea565b60405180910390f35b34801561058c57600080fd5b50610595611664565b005b3480156105a357600080fd5b506105be60048036038101906105b99190614d63565b611766565b6040516105cb9190614bea565b60405180910390f35b3480156105e057600080fd5b506105fb60048036038101906105f69190614c31565b611794565b005b34801561060957600080fd5b506106126119d4565b60405161061f9190614bea565b60405180910390f35b34801561063457600080fd5b5061063d6119f8565b005b34801561064b57600080fd5b50610654611c3e565b6040516106619190614dbb565b60405180910390f35b34801561067657600080fd5b50610691600480360381019061068c9190614cbc565b611c64565b60405161069e9190614bea565b60405180910390f35b3480156106b357600080fd5b506106bc611c7c565b6040516106c99190614bea565b60405180910390f35b3480156106de57600080fd5b506106f960048036038101906106f49190614d63565b611c82565b6040516107069190614bea565b60405180910390f35b34801561071b57600080fd5b5061073660048036038101906107319190614d63565b611cb0565b6040516107439190614e94565b60405180910390f35b34801561075857600080fd5b50610761611d5f565b60405161076e9190614bea565b60405180910390f35b34801561078357600080fd5b5061079e60048036038101906107999190614c31565b611d65565b6040516107ab9190614bea565b60405180910390f35b3480156107c057600080fd5b506107c9611d8c565b6040516107d69190614bea565b60405180910390f35b3480156107eb57600080fd5b506107f4611d92565b6040516108019190614bea565b60405180910390f35b34801561081657600080fd5b5061081f611d98565b005b61083b60048036038101906108369190614b88565b611dac565b005b61085760048036038101906108529190615126565b611df7565b005b34801561086557600080fd5b50610880600480360381019061087b919061516f565b611f84565b005b34801561088e57600080fd5b506108a960048036038101906108a49190614d63565b612067565b6040516108b69190614bea565b60405180910390f35b3480156108cb57600080fd5b506108d4612095565b6040516108e19190614bea565b60405180910390f35b3480156108f657600080fd5b50610911600480360381019061090c919061516f565b6120b9565b005b34801561091f57600080fd5b5061092861214d565b6040516109359190614dbb565b60405180910390f35b34801561094a57600080fd5b5061096560048036038101906109609190614cbc565b612176565b6040516109729190614bea565b60405180910390f35b34801561098757600080fd5b506109a2600480360381019061099d9190614cbc565b61218e565b6040516109af9190614bea565b60405180910390f35b3480156109c457600080fd5b506109df60048036038101906109da9190614c31565b6121a6565b005b3480156109ed57600080fd5b50610a086004803603810190610a039190614cbc565b6124c6565b604051610a159190614bea565b60405180910390f35b348015610a2a57600080fd5b50610a336124de565b604051610a409190614bea565b60405180910390f35b348015610a5557600080fd5b50610a706004803603810190610a6b91906151cb565b6124e4565b604051610a7d9190614bea565b60405180910390f35b348015610a9257600080fd5b50610aad6004803603810190610aa89190614c31565b612509565b604051610aba9190614bea565b60405180910390f35b348015610acf57600080fd5b50610aea6004803603810190610ae59190614c31565b612521565b604051610af79190615226565b60405180910390f35b348015610b0c57600080fd5b50610b276004803603810190610b229190614d63565b612541565b604051610b3491906152ff565b60405180910390f35b348015610b4957600080fd5b50610b526125ba565b604051610b5f9190614bea565b60405180910390f35b348015610b7457600080fd5b50610b8f6004803603810190610b8a9190614cbc565b6125c0565b604051610b9c9190614bea565b60405180910390f35b348015610bb157600080fd5b50610bba6125d8565b604051610bc79190614bea565b60405180910390f35b348015610bdc57600080fd5b50610bf76004803603810190610bf29190614c31565b612636565b604051610c049190614bea565b60405180910390f35b348015610c1957600080fd5b50610c346004803603810190610c2f9190614cbc565b61264e565b604051610c419190614bea565b60405180910390f35b348015610c5657600080fd5b50610c5f612666565b604051610c6c9190614bea565b60405180910390f35b348015610c8157600080fd5b50610c9c6004803603810190610c979190614c31565b61266c565b604051610ca99190614bea565b60405180910390f35b348015610cbe57600080fd5b50610cd96004803603810190610cd49190614cbc565b612683565b005b348015610ce757600080fd5b50610cf06126df565b005b348015610cfe57600080fd5b50610d076127e1565b604051610d149190614bea565b60405180910390f35b610d376004803603810190610d329190614b88565b6127e7565b005b348015610d4557600080fd5b50610d606004803603810190610d5b9190614cbc565b612832565b604051610d6d9190614bea565b60405180910390f35b348015610d8257600080fd5b50610d8b61284a565b604051610d989190614bea565b60405180910390f35b348015610dad57600080fd5b50610db6612850565b005b348015610dc457600080fd5b50610ddf6004803603810190610dda9190614d63565b612952565b604051610dec9190614dbb565b60405180910390f35b348015610e0157600080fd5b50610e1c6004803603810190610e179190614cbc565b61299b565b604051610e299190614bea565b60405180910390f35b610e4c6004803603810190610e479190615321565b6129b3565b005b348015610e5a57600080fd5b50610e756004803603810190610e709190614d63565b612dfd565b604051610e83929190615390565b60405180910390f35b348015610e9857600080fd5b50610eb36004803603810190610eae9190614cbc565b612e4d565b604051610ec09190614bea565b60405180910390f35b348015610ed557600080fd5b50610ede612e65565b604051610eeb9190614bea565b60405180910390f35b348015610f0057600080fd5b50610f09612e7a565b604051610f169190614bea565b60405180910390f35b348015610f2b57600080fd5b50610f466004803603810190610f419190614cbc565b612e80565b005b348015610f5457600080fd5b50610f6f6004803603810190610f6a9190614cbc565b612f03565b604051610f7c9190614bea565b60405180910390f35b348015610f9157600080fd5b50610fac6004803603810190610fa79190614d63565b612f1b565b604051610fbb93929190615438565b60405180910390f35b60008060009050600083519050610fd9614825565b606080600080600090505b858110156112bf57600389828151811061100157611000615476565b5b602002602001015160405161101691906154e1565b90815260200160405180910390206040518060a001604052908160008201805461103f90615527565b80601f016020809104026020016040519081016040528092919081815260200182805461106b90615527565b80156110b85780601f1061108d576101008083540402835291602001916110b8565b820191906000526020600020905b81548152906001019060200180831161109b57829003601f168201915b5050505050815260200160018201548152602001600282015481526020016003820180548060200260200160405190810160405280929190818152602001828054801561115a57602002820191906000526020600020905b8160009054906101000a900473ffffffffffffffffffffffffffffffffffffffff1673ffffffffffffffffffffffffffffffffffffffff1681526020019060010190808311611110575b50505050508152602001600482018054806020026020016040519081016040528092919081815260200182805480156111b257602002820191906000526020600020905b81548152602001906001019080831161119e575b505050505081525050945084606001519350846080015192508351915060005b8281101561129957670de0b6b3a76400008482815181106111f6576111f5615476565b5b6020026020010151876040015161120d9190615587565b61121791906155f8565b6005600087848151811061122e5761122d615476565b5b602002602001015173ffffffffffffffffffffffffffffffffffffffff1673ffffffffffffffffffffffffffffffffffffffff168152602001908152602001600020600082825461127f9190615629565b9250508190555080806112919061565d565b9150506111d2565b508460400151876112aa9190615629565b965080806112b79061565d565b915050610fe4565b50859650505050505050919050565b60226020528060005260406000206000915090505481565b601a6020528060005260406000206000915090505481565b600f5481565b600260009054906101000a900473ffffffffffffffffffffffffffffffffffffffff1681565b601b6020528060005260406000206000915090505481565b60008060009050600083519050611357614825565b606080600080600090505b8581101561163d57600389828151811061137f5761137e615476565b5b602002602001015160405161139491906154e1565b90815260200160405180910390206040518060a00160405290816000820180546113bd90615527565b80601f01602080910402602001604051908101604052809291908181526020018280546113e990615527565b80156114365780601f1061140b57610100808354040283529160200191611436565b820191906000526020600020905b81548152906001019060200180831161141957829003601f168201915b505050505081526020016001820154815260200160028201548152602001600382018054806020026020016040519081016040528092919081815260200182805480156114d857602002820191906000526020600020905b8160009054906101000a900473ffffffffffffffffffffffffffffffffffffffff1673ffffffffffffffffffffffffffffffffffffffff168152602001906001019080831161148e575b505050505081526020016004820180548060200260200160405190810160405280929190818152602001828054801561153057602002820191906000526020600020905b81548152602001906001019080831161151c575b505050505081525050945084606001519350846080015192508351915060005b8281101561161757670de0b6b3a764000084828151811061157457611573615476565b5b6020026020010151876020015161158b9190615587565b61159591906155f8565b600560008784815181106115ac576115ab615476565b5b602002602001015173ffffffffffffffffffffffffffffffffffffffff1673ffffffffffffffffffffffffffffffffffffffff16815260200190815260200160002060008282546115fd9190615629565b92505081905550808061160f9061565d565b915050611550565b508460200151876116289190615629565b965080806116359061565d565b915050611362565b50859650505050505050919050565b60246020528060005260406000206000915090505481565b61166c612fe3565b611674613032565b61167c613053565b6116853361317c565b6000600a60003373ffffffffffffffffffffffffffffffffffffffff1673ffffffffffffffffffffffffffffffffffffffff1681526020019081526020016000205490506000811161170c576040517f08c379a0000000000000000000000000000000000000000000000000000000008152600401611703906156f1565b60405180910390fd5b6000600a60003373ffffffffffffffffffffffffffffffffffffffff1673ffffffffffffffffffffffffffffffffffffffff1681526020019081526020016000208190555061175b3382613f74565b50611764614025565b565b6008818051602081018201805184825260208301602085012081835280955050505050506000915090505481565b61179c612fe3565b6117a4613032565b6117ac613053565b6117b53361317c565b600081116117f8576040517f08c379a00000000000000000000000000000000000000000000000000000000081526004016117ef906156f1565b60405180910390fd5b602460003373ffffffffffffffffffffffffffffffffffffffff1673ffffffffffffffffffffffffffffffffffffffff1681526020019081526020016000205481111561187a576040517f08c379a000000000000000000000000000000000000000000000000000000000815260040161187190615783565b60405180910390fd5b601754601554036118a35780601860008282546118979190615629565b925050819055506118d0565b8060206000601354815260200190815260200160002060008282546118c891906157a3565b925050819055505b80602460003373ffffffffffffffffffffffffffffffffffffffff1673ffffffffffffffffffffffffffffffffffffffff168152602001908152602001600020600082825461191f91906157a3565b9250508190555080601d60003373ffffffffffffffffffffffffffffffffffffffff1673ffffffffffffffffffffffffffffffffffffffff168152602001908152602001600020600082825461197591906157a3565b925050819055506119c93382600260009054906101000a900473ffffffffffffffffffffffffffffffffffffffff1673ffffffffffffffffffffffffffffffffffffffff1661402e9092919063ffffffff16565b6119d1614025565b50565b7f000000000000000000000000000000000000000000000000000000000000000081565b611a00612fe3565b611a08613032565b611a10613053565b611a193361317c565b6000602460003373ffffffffffffffffffffffffffffffffffffffff1673ffffffffffffffffffffffffffffffffffffffff16815260200190815260200160002054601d60003373ffffffffffffffffffffffffffffffffffffffff1673ffffffffffffffffffffffffffffffffffffffff16815260200190815260200160002054611aa591906157a3565b905060008111611aea576040517f08c379a0000000000000000000000000000000000000000000000000000000008152600401611ae190615823565b60405180910390fd5b80601d60003373ffffffffffffffffffffffffffffffffffffffff1673ffffffffffffffffffffffffffffffffffffffff1681526020019081526020016000206000828254611b3991906157a3565b9250508190555060175460155403611b69578060186000828254611b5d9190615629565b92505081905550611ba4565b8060206000601354815260200190815260200160002054611b8a91906157a3565b602060006013548152602001908152602001600020819055505b600260009054906101000a900473ffffffffffffffffffffffffffffffffffffffff1673ffffffffffffffffffffffffffffffffffffffff16639a49090e33836040518363ffffffff1660e01b8152600401611c01929190615843565b600060405180830381600087803b158015611c1b57600080fd5b505af1158015611c2f573d6000803e3d6000fd5b5050505050611c3c614025565b565b601160009054906101000a900473ffffffffffffffffffffffffffffffffffffffff1681565b601e6020528060005260406000206000915090505481565b60155481565b6007818051602081018201805184825260208301602085012081835280955050505050506000915090505481565b6060600382604051611cc291906154e1565b9081526020016040518091039020600301805480602002602001604051908101604052809291908181526020018280548015611d5357602002820191906000526020600020905b8160009054906101000a900473ffffffffffffffffffffffffffffffffffffffff1673ffffffffffffffffffffffffffffffffffffffff1681526020019060010190808311611d09575b50505050509050919050565b60165481565b6000806001606484611d779190615587565b611d8191906155f8565b905080915050919050565b600e5481565b60185481565b611da06140b4565b611daa6000614132565b565b611db4612fe3565b611dbc613032565b611dc4613053565b611dcc6141f6565b611dd53361317c565b6000611de082611342565b9050611deb81614321565b50611df4614025565b50565b611dff612fe3565b611e07613032565b611e0f613053565b611e183361317c565b80604001513414611e5e576040517f08c379a0000000000000000000000000000000000000000000000000000000008152600401611e55906158de565b60405180910390fd5b6040518060a0016040528082600001518152602001826020015181526020018260400151815260200182606001518152602001826080015181525060038260000151604051611ead91906154e1565b90815260200160405180910390206000820151816000019081611ed09190615aa0565b5060208201518160010155604082015181600201556060820151816003019080519060200190611f01929190614854565b506080820151816004019080519060200190611f1e9291906148de565b50905050806040015160078260000151604051611f3b91906154e1565b908152602001604051809103902081905550611f79601160009054906101000a900473ffffffffffffffffffffffffffffffffffffffff1634613f74565b611f81614025565b50565b611f8c612fe3565b3373ffffffffffffffffffffffffffffffffffffffff16600983604051611fb391906154e1565b908152602001604051809103902060009054906101000a900473ffffffffffffffffffffffffffffffffffffffff1673ffffffffffffffffffffffffffffffffffffffff1614612038576040517f08c379a000000000000000000000000000000000000000000000000000000000815260040161202f90615be4565b60405180910390fd5b8060088360405161204991906154e1565b908152602001604051809103902081905550612063614025565b5050565b600c818051602081018201805184825260208301602085012081835280955050505050506000915090505481565b7f000000000000000000000000000000000000000000000000000000000000000081565b6120c1612fe3565b806008836040516120d291906154e1565b908152602001604051809103902081905550336009836040516120f591906154e1565b908152602001604051809103902060006101000a81548173ffffffffffffffffffffffffffffffffffffffff021916908373ffffffffffffffffffffffffffffffffffffffff160217905550612149614025565b5050565b60008060009054906101000a900473ffffffffffffffffffffffffffffffffffffffff16905090565b600a6020528060005260406000206000915090505481565b60046020528060005260406000206000915090505481565b6121ae612fe3565b6121b6613032565b6121be613053565b6121c73361317c565b6000811161220a576040517f08c379a0000000000000000000000000000000000000000000000000000000008152600401612201906156f1565b60405180910390fd5b806012600082825461221c9190615629565b92505081905550600060016013546122349190615629565b9050601754601554036122535760016015546122509190615629565b90505b602560003373ffffffffffffffffffffffffffffffffffffffff1673ffffffffffffffffffffffffffffffffffffffff1681526020019081526020016000205481141580156122e15750602660003373ffffffffffffffffffffffffffffffffffffffff1673ffffffffffffffffffffffffffffffffffffffff168152602001908152602001600020548114155b15612404576000602560003373ffffffffffffffffffffffffffffffffffffffff1673ffffffffffffffffffffffffffffffffffffffff16815260200190815260200160002054036123765780602560003373ffffffffffffffffffffffffffffffffffffffff1673ffffffffffffffffffffffffffffffffffffffff16815260200190815260200160002081905550612403565b6000602660003373ffffffffffffffffffffffffffffffffffffffff1673ffffffffffffffffffffffffffffffffffffffff16815260200190815260200160002054036124025780602660003373ffffffffffffffffffffffffffffffffffffffff1673ffffffffffffffffffffffffffffffffffffffff168152602001908152602001600020819055505b5b5b81602360003373ffffffffffffffffffffffffffffffffffffffff1673ffffffffffffffffffffffffffffffffffffffff168152602001908152602001600020600083815260200190815260200160002060008282546124649190615629565b925050819055506124ba333084600260009054906101000a900473ffffffffffffffffffffffffffffffffffffffff1673ffffffffffffffffffffffffffffffffffffffff16614500909392919063ffffffff16565b506124c3614025565b50565b60216020528060005260406000206000915090505481565b60145481565b6023602052816000526040600020602052806000526040600020600091509150505481565b601f6020528060005260406000206000915090505481565b60066020528060005260406000206000915054906101000a900460ff1681565b606060038260405161255391906154e1565b90815260200160405180910390206004018054806020026020016040519081016040528092919081815260200182805480156125ae57602002820191906000526020600020905b81548152602001906001019080831161259a575b50505050509050919050565b60135481565b600d6020528060005260406000206000915090505481565b60007f00000000000000000000000000000000000000000000000000000000000000007f00000000000000000000000000000000000000000000000000000000000000004261262791906157a3565b61263191906155f8565b905090565b600b6020528060005260406000206000915090505481565b60056020528060005260406000206000915090505481565b60195481565b602080528060005260406000206000915090505481565b61268b6140b4565b612693612fe3565b80601160006101000a81548173ffffffffffffffffffffffffffffffffffffffff021916908373ffffffffffffffffffffffffffffffffffffffff1602179055506126dc614025565b50565b6126e7612fe3565b6126ef613032565b6126f7613053565b6127003361317c565b6000600d60003373ffffffffffffffffffffffffffffffffffffffff1673ffffffffffffffffffffffffffffffffffffffff16815260200190815260200160002054905060008111612787576040517f08c379a000000000000000000000000000000000000000000000000000000000815260040161277e906156f1565b60405180910390fd5b6000600d60003373ffffffffffffffffffffffffffffffffffffffff1673ffffffffffffffffffffffffffffffffffffffff168152602001908152602001600020819055506127d63382613f74565b506127df614025565b565b60125481565b6127ef612fe3565b6127f7613032565b6127ff613053565b6128076141f6565b6128103361317c565b600061281b82610fc4565b905061282681614321565b5061282f614025565b50565b60266020528060005260406000206000915090505481565b60105481565b612858612fe3565b612860613032565b612868613053565b6128713361317c565b6000600560003373ffffffffffffffffffffffffffffffffffffffff1673ffffffffffffffffffffffffffffffffffffffff168152602001908152602001600020549050600081116128f8576040517f08c379a00000000000000000000000000000000000000000000000000000000081526004016128ef906156f1565b60405180910390fd5b6000600560003373ffffffffffffffffffffffffffffffffffffffff1673ffffffffffffffffffffffffffffffffffffffff168152602001908152602001600020819055506129473382613f74565b50612950614025565b565b6009818051602081018201805184825260208301602085012081835280955050505050506000915054906101000a900473ffffffffffffffffffffffffffffffffffffffff1681565b60256020528060005260406000206000915090505481565b6129bb612fe3565b6129c3613032565b6129cb613053565b6129d43361317c565b60006003846040516129e691906154e1565b90815260200160405180910390206040518060a0016040529081600082018054612a0f90615527565b80601f0160208091040260200160405190810160405280929190818152602001828054612a3b90615527565b8015612a885780601f10612a5d57610100808354040283529160200191612a88565b820191906000526020600020905b815481529060010190602001808311612a6b57829003601f168201915b50505050508152602001600182015481526020016002820154815260200160038201805480602002602001604051908101604052809291908181526020018280548015612b2a57602002820191906000526020600020905b8160009054906101000a900473ffffffffffffffffffffffffffffffffffffffff1673ffffffffffffffffffffffffffffffffffffffff1681526020019060010190808311612ae0575b5050505050815260200160048201805480602002602001604051908101604052809291908181526020018280548015612b8257602002820191906000526020600020905b815481526020019060010190808311612b6e575b5050505050815250509050600081606001519050600081519050600080600090505b82811015612c15573373ffffffffffffffffffffffffffffffffffffffff16848281518110612bd657612bd5615476565b5b602002602001015173ffffffffffffffffffffffffffffffffffffffff1603612c025760019150612c15565b8080612c0d9061565d565b915050612ba4565b5080612c56576040517f08c379a0000000000000000000000000000000000000000000000000000000008152600401612c4d90615c76565b60405180910390fd5b84600788604051612c6791906154e1565b9081526020016040518091039020541015612d3857600787604051612c8c91906154e1565b90815260200160405180910390205485612ca691906157a3565b341015612ce8576040517f08c379a0000000000000000000000000000000000000000000000000000000008152600401612cdf90615d08565b60405180910390fd5b84600788604051612cf991906154e1565b908152602001604051809103902081905550346022600060135481526020019081526020016000206000828254612d309190615629565b925050819055505b6040518060a00160405280888152602001878152602001868152602001856060015181526020018560800151815250600388604051612d7791906154e1565b90815260200160405180910390206000820151816000019081612d9a9190615aa0565b5060208201518160010155604082015181600201556060820151816003019080519060200190612dcb929190614854565b506080820151816004019080519060200190612de89291906148de565b5090505050505050612df8614025565b505050565b600080600383604051612e1091906154e1565b908152602001604051809103902060010154600384604051612e3291906154e1565b90815260200160405180910390206002015491509150915091565b601d6020528060005260406000206000915090505481565b701d6329f1c35ca4bfabb9f561000000000081565b60175481565b612e886140b4565b600073ffffffffffffffffffffffffffffffffffffffff168173ffffffffffffffffffffffffffffffffffffffff1603612ef7576040517f08c379a0000000000000000000000000000000000000000000000000000000008152600401612eee90615d9a565b60405180910390fd5b612f0081614132565b50565b601c6020528060005260406000206000915090505481565b600381805160208101820180518482526020830160208501208183528095505050505050600091509050806000018054612f5490615527565b80601f0160208091040260200160405190810160405280929190818152602001828054612f8090615527565b8015612fcd5780601f10612fa257610100808354040283529160200191612fcd565b820191906000526020600020905b815481529060010190602001808311612fb057829003601f168201915b5050505050908060010154908060020154905083565b600260015403613028576040517f08c379a000000000000000000000000000000000000000000000000000000000815260040161301f90615e06565b60405180910390fd5b6002600181905550565b600061303c6125d8565b905060135481111561305057806013819055505b50565b6017546013541461307d57600160155461306d9190615629565b6016819055506017546015819055505b6015546013541180156130b157506000600b600060016015546130a09190615629565b815260200190815260200160002054145b1561317a57600080602060006015548152602001908152602001600020541461312d5760206000601554815260200190815260200160002054701d6329f1c35ca4bfabb9f56100000000006022600060155481526020019081526020016000205461311c9190615587565b61312691906155f8565b9050613132565b600090505b80600b60006016548152602001908152602001600020546131539190615629565b600b600060016015546131669190615629565b815260200190815260200160002081905550505b565b601c60008273ffffffffffffffffffffffffffffffffffffffff1673ffffffffffffffffffffffffffffffffffffffff1681526020019081526020016000205460135411801561320c57506000601e60008373ffffffffffffffffffffffffffffffffffffffff1673ffffffffffffffffffffffffffffffffffffffff1681526020019081526020016000205414155b156132ec57601e60008273ffffffffffffffffffffffffffffffffffffffff1673ffffffffffffffffffffffffffffffffffffffff16815260200190815260200160002054601d60008373ffffffffffffffffffffffffffffffffffffffff1673ffffffffffffffffffffffffffffffffffffffff168152602001908152602001600020600082825461329f9190615629565b925050819055506000601e60008373ffffffffffffffffffffffffffffffffffffffff1673ffffffffffffffffffffffffffffffffffffffff168152602001908152602001600020819055505b60155460135411801561334c575060016015546133099190615629565b602160008373ffffffffffffffffffffffffffffffffffffffff1673ffffffffffffffffffffffffffffffffffffffff1681526020019081526020016000205414155b1561351657701d6329f1c35ca4bfabb9f5610000000000600b6000602160008573ffffffffffffffffffffffffffffffffffffffff1673ffffffffffffffffffffffffffffffffffffffff16815260200190815260200160002054815260200190815260200160002054600b600060016015546133c99190615629565b8152602001908152602001600020546133e291906157a3565b601d60008473ffffffffffffffffffffffffffffffffffffffff1673ffffffffffffffffffffffffffffffffffffffff1681526020019081526020016000205461342c9190615587565b61343691906155f8565b600d60008373ffffffffffffffffffffffffffffffffffffffff1673ffffffffffffffffffffffffffffffffffffffff168152602001908152602001600020546134809190615629565b600d60008373ffffffffffffffffffffffffffffffffffffffff1673ffffffffffffffffffffffffffffffffffffffff1681526020019081526020016000208190555060016015546134d29190615629565b602160008373ffffffffffffffffffffffffffffffffffffffff1673ffffffffffffffffffffffffffffffffffffffff168152602001908152602001600020819055505b6000602560008373ffffffffffffffffffffffffffffffffffffffff1673ffffffffffffffffffffffffffffffffffffffff16815260200190815260200160002054141580156135a65750602560008273ffffffffffffffffffffffffffffffffffffffff1673ffffffffffffffffffffffffffffffffffffffff16815260200190815260200160002054601354115b15613f71576000602360008373ffffffffffffffffffffffffffffffffffffffff1673ffffffffffffffffffffffffffffffffffffffff1681526020019081526020016000206000602560008573ffffffffffffffffffffffffffffffffffffffff1673ffffffffffffffffffffffffffffffffffffffff16815260200190815260200160002054815260200190815260200160002054905080601d60008473ffffffffffffffffffffffffffffffffffffffff1673ffffffffffffffffffffffffffffffffffffffff168152602001908152602001600020600082825461368e9190615629565b9250508190555080602460008473ffffffffffffffffffffffffffffffffffffffff1673ffffffffffffffffffffffffffffffffffffffff16815260200190815260200160002060008282546136e49190615629565b92505081905550602560008373ffffffffffffffffffffffffffffffffffffffff1673ffffffffffffffffffffffffffffffffffffffff16815260200190815260200160002054600160155461373a9190615629565b111561390357701d6329f1c35ca4bfabb9f5610000000000600b6000602560008673ffffffffffffffffffffffffffffffffffffffff1673ffffffffffffffffffffffffffffffffffffffff16815260200190815260200160002054815260200190815260200160002054600b600060016015546137b89190615629565b8152602001908152602001600020546137d191906157a3565b602360008573ffffffffffffffffffffffffffffffffffffffff1673ffffffffffffffffffffffffffffffffffffffff1681526020019081526020016000206000602560008773ffffffffffffffffffffffffffffffffffffffff1673ffffffffffffffffffffffffffffffffffffffff1681526020019081526020016000205481526020019081526020016000205461386b9190615587565b61387591906155f8565b600d60008473ffffffffffffffffffffffffffffffffffffffff1673ffffffffffffffffffffffffffffffffffffffff168152602001908152602001600020546138bf9190615629565b600d60008473ffffffffffffffffffffffffffffffffffffffff1673ffffffffffffffffffffffffffffffffffffffff168152602001908152602001600020819055505b6000602360008473ffffffffffffffffffffffffffffffffffffffff1673ffffffffffffffffffffffffffffffffffffffff1681526020019081526020016000206000602560008673ffffffffffffffffffffffffffffffffffffffff1673ffffffffffffffffffffffffffffffffffffffff168152602001908152602001600020548152602001908152602001600020819055506000602560008473ffffffffffffffffffffffffffffffffffffffff1673ffffffffffffffffffffffffffffffffffffffff168152602001908152602001600020819055506000602660008473ffffffffffffffffffffffffffffffffffffffff1673ffffffffffffffffffffffffffffffffffffffff1681526020019081526020016000205414613f6f57602660008373ffffffffffffffffffffffffffffffffffffffff1673ffffffffffffffffffffffffffffffffffffffff168152602001908152602001600020546013541115613ea5576000602360008473ffffffffffffffffffffffffffffffffffffffff1673ffffffffffffffffffffffffffffffffffffffff1681526020019081526020016000206000602660008673ffffffffffffffffffffffffffffffffffffffff1673ffffffffffffffffffffffffffffffffffffffff16815260200190815260200160002054815260200190815260200160002054905080601d60008573ffffffffffffffffffffffffffffffffffffffff1673ffffffffffffffffffffffffffffffffffffffff1681526020019081526020016000206000828254613b509190615629565b9250508190555080602460008573ffffffffffffffffffffffffffffffffffffffff1673ffffffffffffffffffffffffffffffffffffffff1681526020019081526020016000206000828254613ba69190615629565b92505081905550602660008473ffffffffffffffffffffffffffffffffffffffff1673ffffffffffffffffffffffffffffffffffffffff168152602001908152602001600020546001601554613bfc9190615629565b1115613dc557701d6329f1c35ca4bfabb9f5610000000000600b6000602660008773ffffffffffffffffffffffffffffffffffffffff1673ffffffffffffffffffffffffffffffffffffffff16815260200190815260200160002054815260200190815260200160002054600b60006001601554613c7a9190615629565b815260200190815260200160002054613c9391906157a3565b602360008673ffffffffffffffffffffffffffffffffffffffff1673ffffffffffffffffffffffffffffffffffffffff1681526020019081526020016000206000602660008873ffffffffffffffffffffffffffffffffffffffff1673ffffffffffffffffffffffffffffffffffffffff16815260200190815260200160002054815260200190815260200160002054613d2d9190615587565b613d3791906155f8565b600d60008573ffffffffffffffffffffffffffffffffffffffff1673ffffffffffffffffffffffffffffffffffffffff16815260200190815260200160002054613d819190615629565b600d60008573ffffffffffffffffffffffffffffffffffffffff1673ffffffffffffffffffffffffffffffffffffffff168152602001908152602001600020819055505b6000602360008573ffffffffffffffffffffffffffffffffffffffff1673ffffffffffffffffffffffffffffffffffffffff1681526020019081526020016000206000602660008773ffffffffffffffffffffffffffffffffffffffff1673ffffffffffffffffffffffffffffffffffffffff168152602001908152602001600020548152602001908152602001600020819055506000602660008573ffffffffffffffffffffffffffffffffffffffff1673ffffffffffffffffffffffffffffffffffffffff1681526020019081526020016000208190555050613f6e565b602660008373ffffffffffffffffffffffffffffffffffffffff1673ffffffffffffffffffffffffffffffffffffffff16815260200190815260200160002054602560008473ffffffffffffffffffffffffffffffffffffffff1673ffffffffffffffffffffffffffffffffffffffff168152602001908152602001600020819055506000602660008473ffffffffffffffffffffffffffffffffffffffff1673ffffffffffffffffffffffffffffffffffffffff168152602001908152602001600020819055505b5b505b50565b60008273ffffffffffffffffffffffffffffffffffffffff1682604051613f9a90615e57565b60006040518083038185875af1925050503d8060008114613fd7576040519150601f19603f3d011682016040523d82523d6000602084013e613fdc565b606091505b5050905080614020576040517f08c379a000000000000000000000000000000000000000000000000000000000815260040161401790615eb8565b60405180910390fd5b505050565b60018081905550565b6140af8363a9059cbb60e01b848460405160240161404d929190615843565b604051602081830303815290604052907bffffffffffffffffffffffffffffffffffffffffffffffffffffffff19166020820180517bffffffffffffffffffffffffffffffffffffffffffffffffffffffff8381831617835250505050614589565b505050565b6140bc614650565b73ffffffffffffffffffffffffffffffffffffffff166140da61214d565b73ffffffffffffffffffffffffffffffffffffffff1614614130576040517f08c379a000000000000000000000000000000000000000000000000000000000815260040161412790615f24565b60405180910390fd5b565b60008060009054906101000a900473ffffffffffffffffffffffffffffffffffffffff169050816000806101000a81548173ffffffffffffffffffffffffffffffffffffffff021916908373ffffffffffffffffffffffffffffffffffffffff1602179055508173ffffffffffffffffffffffffffffffffffffffff168173ffffffffffffffffffffffffffffffffffffffff167f8be0079c531659141344cd1fd0a4f28419497f9722a3daafe3b4186f6b6457e060405160405180910390a35050565b6000151560066000601354815260200190815260200160002060009054906101000a900460ff1615150361431f57600160066000601354815260200190815260200160002060006101000a81548160ff0219169083151502179055506013546017819055506020600060155481526020019081526020016000205460206000601754815260200190815260200160002060008282546142959190615629565b925050819055506000601254146142dd5760125460206000601754815260200190815260200160002060008282546142cd9190615629565b9250508190555060006012819055505b60006018541461431e57601854602060006017548152602001908152602001600020600082825461430e91906157a3565b9250508190555060006018819055505b5b565b60028161432e9190615587565b341461436f576040517f08c379a000000000000000000000000000000000000000000000000000000000815260040161436690615f90565b60405180910390fd5b6143b5601160009054906101000a900473ffffffffffffffffffffffffffffffffffffffff16612710600f54846143a69190615587565b6143b091906155f8565b613f74565b612710601054826143c69190615587565b6143d091906155f8565b60226000601354815260200190815260200160002060008282546143f49190615629565b92505081905550600061440634611d65565b905080601f60006013548152602001908152602001600020600082825461442d9190615629565b9250508190555080601e60003373ffffffffffffffffffffffffffffffffffffffff1673ffffffffffffffffffffffffffffffffffffffff16815260200190815260200160002060008282546144839190615629565b92505081905550601354601c60003373ffffffffffffffffffffffffffffffffffffffff1673ffffffffffffffffffffffffffffffffffffffff168152602001908152602001600020819055508060206000601354815260200190815260200160002060008282546144f59190615629565b925050819055505050565b614583846323b872dd60e01b85858560405160240161452193929190615fb0565b604051602081830303815290604052907bffffffffffffffffffffffffffffffffffffffffffffffffffffffff19166020820180517bffffffffffffffffffffffffffffffffffffffffffffffffffffffff8381831617835250505050614589565b50505050565b60006145eb826040518060400160405280602081526020017f5361666545524332303a206c6f772d6c6576656c2063616c6c206661696c65648152508573ffffffffffffffffffffffffffffffffffffffff166146589092919063ffffffff16565b905060008151111561464b578080602001905181019061460b9190616013565b61464a576040517f08c379a0000000000000000000000000000000000000000000000000000000008152600401614641906160b2565b60405180910390fd5b5b505050565b600033905090565b60606146678484600085614670565b90509392505050565b6060824710156146b5576040517f08c379a00000000000000000000000000000000000000000000000000000000081526004016146ac90616144565b60405180910390fd5b6000808673ffffffffffffffffffffffffffffffffffffffff1685876040516146de91906161a0565b60006040518083038185875af1925050503d806000811461471b576040519150601f19603f3d011682016040523d82523d6000602084013e614720565b606091505b50915091506147318783838761473d565b92505050949350505050565b6060831561479f57600083510361479757614757856147b2565b614796576040517f08c379a000000000000000000000000000000000000000000000000000000000815260040161478d90616203565b60405180910390fd5b5b8290506147aa565b6147a983836147d5565b5b949350505050565b6000808273ffffffffffffffffffffffffffffffffffffffff163b119050919050565b6000825111156147e85781518083602001fd5b806040517f08c379a000000000000000000000000000000000000000000000000000000000815260040161481c9190616223565b60405180910390fd5b6040518060a0016040528060608152602001600081526020016000815260200160608152602001606081525090565b8280548282559060005260206000209081019282156148cd579160200282015b828111156148cc5782518260006101000a81548173ffffffffffffffffffffffffffffffffffffffff021916908373ffffffffffffffffffffffffffffffffffffffff16021790555091602001919060010190614874565b5b5090506148da919061492b565b5090565b82805482825590600052602060002090810192821561491a579160200282015b828111156149195782518255916020019190600101906148fe565b5b509050614927919061492b565b5090565b5b8082111561494457600081600090555060010161492c565b5090565b6000604051905090565b600080fd5b600080fd5b600080fd5b6000601f19601f8301169050919050565b7f4e487b7100000000000000000000000000000000000000000000000000000000600052604160045260246000fd5b6149aa82614961565b810181811067ffffffffffffffff821117156149c9576149c8614972565b5b80604052505050565b60006149dc614948565b90506149e882826149a1565b919050565b600067ffffffffffffffff821115614a0857614a07614972565b5b602082029050602081019050919050565b600080fd5b600080fd5b600067ffffffffffffffff821115614a3e57614a3d614972565b5b614a4782614961565b9050602081019050919050565b82818337600083830152505050565b6000614a76614a7184614a23565b6149d2565b905082815260208101848484011115614a9257614a91614a1e565b5b614a9d848285614a54565b509392505050565b600082601f830112614aba57614ab961495c565b5b8135614aca848260208601614a63565b91505092915050565b6000614ae6614ae1846149ed565b6149d2565b90508083825260208201905060208402830185811115614b0957614b08614a19565b5b835b81811015614b5057803567ffffffffffffffff811115614b2e57614b2d61495c565b5b808601614b3b8982614aa5565b85526020850194505050602081019050614b0b565b5050509392505050565b600082601f830112614b6f57614b6e61495c565b5b8135614b7f848260208601614ad3565b91505092915050565b600060208284031215614b9e57614b9d614952565b5b600082013567ffffffffffffffff811115614bbc57614bbb614957565b5b614bc884828501614b5a565b91505092915050565b6000819050919050565b614be481614bd1565b82525050565b6000602082019050614bff6000830184614bdb565b92915050565b614c0e81614bd1565b8114614c1957600080fd5b50565b600081359050614c2b81614c05565b92915050565b600060208284031215614c4757614c46614952565b5b6000614c5584828501614c1c565b91505092915050565b600073ffffffffffffffffffffffffffffffffffffffff82169050919050565b6000614c8982614c5e565b9050919050565b614c9981614c7e565b8114614ca457600080fd5b50565b600081359050614cb681614c90565b92915050565b600060208284031215614cd257614cd1614952565b5b6000614ce084828501614ca7565b91505092915050565b6000819050919050565b6000614d0e614d09614d0484614c5e565b614ce9565b614c5e565b9050919050565b6000614d2082614cf3565b9050919050565b6000614d3282614d15565b9050919050565b614d4281614d27565b82525050565b6000602082019050614d5d6000830184614d39565b92915050565b600060208284031215614d7957614d78614952565b5b600082013567ffffffffffffffff811115614d9757614d96614957565b5b614da384828501614aa5565b91505092915050565b614db581614c7e565b82525050565b6000602082019050614dd06000830184614dac565b92915050565b600081519050919050565b600082825260208201905092915050565b6000819050602082019050919050565b614e0b81614c7e565b82525050565b6000614e1d8383614e02565b60208301905092915050565b6000602082019050919050565b6000614e4182614dd6565b614e4b8185614de1565b9350614e5683614df2565b8060005b83811015614e87578151614e6e8882614e11565b9750614e7983614e29565b925050600181019050614e5a565b5085935050505092915050565b60006020820190508181036000830152614eae8184614e36565b905092915050565b600080fd5b600080fd5b600067ffffffffffffffff821115614edb57614eda614972565b5b602082029050602081019050919050565b6000614eff614efa84614ec0565b6149d2565b90508083825260208201905060208402830185811115614f2257614f21614a19565b5b835b81811015614f4b5780614f378882614ca7565b845260208401935050602081019050614f24565b5050509392505050565b600082601f830112614f6a57614f6961495c565b5b8135614f7a848260208601614eec565b91505092915050565b600067ffffffffffffffff821115614f9e57614f9d614972565b5b602082029050602081019050919050565b6000614fc2614fbd84614f83565b6149d2565b90508083825260208201905060208402830185811115614fe557614fe4614a19565b5b835b8181101561500e5780614ffa8882614c1c565b845260208401935050602081019050614fe7565b5050509392505050565b600082601f83011261502d5761502c61495c565b5b813561503d848260208601614faf565b91505092915050565b600060a0828403121561505c5761505b614eb6565b5b61506660a06149d2565b9050600082013567ffffffffffffffff81111561508657615085614ebb565b5b61509284828501614aa5565b60008301525060206150a684828501614c1c565b60208301525060406150ba84828501614c1c565b604083015250606082013567ffffffffffffffff8111156150de576150dd614ebb565b5b6150ea84828501614f55565b606083015250608082013567ffffffffffffffff81111561510e5761510d614ebb565b5b61511a84828501615018565b60808301525092915050565b60006020828403121561513c5761513b614952565b5b600082013567ffffffffffffffff81111561515a57615159614957565b5b61516684828501615046565b91505092915050565b6000806040838503121561518657615185614952565b5b600083013567ffffffffffffffff8111156151a4576151a3614957565b5b6151b085828601614aa5565b92505060206151c185828601614c1c565b9150509250929050565b600080604083850312156151e2576151e1614952565b5b60006151f085828601614ca7565b925050602061520185828601614c1c565b9150509250929050565b60008115159050919050565b6152208161520b565b82525050565b600060208201905061523b6000830184615217565b92915050565b600081519050919050565b600082825260208201905092915050565b6000819050602082019050919050565b61527681614bd1565b82525050565b6000615288838361526d565b60208301905092915050565b6000602082019050919050565b60006152ac82615241565b6152b6818561524c565b93506152c18361525d565b8060005b838110156152f25781516152d9888261527c565b97506152e483615294565b9250506001810190506152c5565b5085935050505092915050565b6000602082019050818103600083015261531981846152a1565b905092915050565b60008060006060848603121561533a57615339614952565b5b600084013567ffffffffffffffff81111561535857615357614957565b5b61536486828701614aa5565b935050602061537586828701614c1c565b925050604061538686828701614c1c565b9150509250925092565b60006040820190506153a56000830185614bdb565b6153b26020830184614bdb565b9392505050565b600081519050919050565b600082825260208201905092915050565b60005b838110156153f35780820151818401526020810190506153d8565b60008484015250505050565b600061540a826153b9565b61541481856153c4565b93506154248185602086016153d5565b61542d81614961565b840191505092915050565b6000606082019050818103600083015261545281866153ff565b90506154616020830185614bdb565b61546e6040830184614bdb565b949350505050565b7f4e487b7100000000000000000000000000000000000000000000000000000000600052603260045260246000fd5b600081905092915050565b60006154bb826153b9565b6154c581856154a5565b93506154d58185602086016153d5565b80840191505092915050565b60006154ed82846154b0565b915081905092915050565b7f4e487b7100000000000000000000000000000000000000000000000000000000600052602260045260246000fd5b6000600282049050600182168061553f57607f821691505b602082108103615552576155516154f8565b5b50919050565b7f4e487b7100000000000000000000000000000000000000000000000000000000600052601160045260246000fd5b600061559282614bd1565b915061559d83614bd1565b92508282026155ab81614bd1565b915082820484148315176155c2576155c1615558565b5b5092915050565b7f4e487b7100000000000000000000000000000000000000000000000000000000600052601260045260246000fd5b600061560382614bd1565b915061560e83614bd1565b92508261561e5761561d6155c9565b5b828204905092915050565b600061563482614bd1565b915061563f83614bd1565b925082820190508082111561565757615656615558565b5b92915050565b600061566882614bd1565b91507fffffffffffffffffffffffffffffffffffffffffffffffffffffffffffffffff820361569a57615699615558565b5b600182019050919050565b7f49424c3a20616d6f756e74206973207a65726f00000000000000000000000000600082015250565b60006156db6013836153c4565b91506156e6826156a5565b602082019050919050565b6000602082019050818103600083015261570a816156ce565b9050919050565b7f49424c3a20616d6f756e742067726561746572207468616e207769746864726160008201527f7761626c65207374616b65000000000000000000000000000000000000000000602082015250565b600061576d602b836153c4565b915061577882615711565b604082019050919050565b6000602082019050818103600083015261579c81615760565b9050919050565b60006157ae82614bd1565b91506157b983614bd1565b92508282039050818111156157d1576157d0615558565b5b92915050565b7f49424c3a206163636f756e7420686173206e6f20726577617264730000000000600082015250565b600061580d601b836153c4565b9150615818826157d7565b602082019050919050565b6000602082019050818103600083015261583c81615800565b9050919050565b60006040820190506158586000830185614dac565b6158656020830184614bdb565b9392505050565b7f49424c3a20596f75206d75737420706179207075626c69636174696f6e20666560008201527f6521000000000000000000000000000000000000000000000000000000000000602082015250565b60006158c86022836153c4565b91506158d38261586c565b604082019050919050565b600060208201905081810360008301526158f7816158bb565b9050919050565b60008190508160005260206000209050919050565b60006020601f8301049050919050565b600082821b905092915050565b6000600883026159607fffffffffffffffffffffffffffffffffffffffffffffffffffffffffffffffff82615923565b61596a8683615923565b95508019841693508086168417925050509392505050565b600061599d61599861599384614bd1565b614ce9565b614bd1565b9050919050565b6000819050919050565b6159b783615982565b6159cb6159c3826159a4565b848454615930565b825550505050565b600090565b6159e06159d3565b6159eb8184846159ae565b505050565b5b81811015615a0f57615a046000826159d8565b6001810190506159f1565b5050565b601f821115615a5457615a25816158fe565b615a2e84615913565b81016020851015615a3d578190505b615a51615a4985615913565b8301826159f0565b50505b505050565b600082821c905092915050565b6000615a7760001984600802615a59565b1980831691505092915050565b6000615a908383615a66565b9150826002028217905092915050565b615aa9826153b9565b67ffffffffffffffff811115615ac257615ac1614972565b5b615acc8254615527565b615ad7828285615a13565b600060209050601f831160018114615b0a5760008415615af8578287015190505b615b028582615a84565b865550615b6a565b601f198416615b18866158fe565b60005b82811015615b4057848901518255600182019150602085019450602081019050615b1b565b86831015615b5d5784890151615b59601f891682615a66565b8355505b6001600288020188555050505b505050505050565b7f49424c3a20596f7520617265206e6f7420746865206f776e6572206f6620746860008201527f6973206170706c69636174696f6e210000000000000000000000000000000000602082015250565b6000615bce602f836153c4565b9150615bd982615b72565b604082019050919050565b60006020820190508181036000830152615bfd81615bc1565b9050919050565b7f49424c3a20596f752063616e6e6f74207570646174652074686520707269636560008201527f206265636175736520796f7520617265206e6f7420746865206f776e65720000602082015250565b6000615c60603e836153c4565b9150615c6b82615c04565b604082019050919050565b60006020820190508181036000830152615c8f81615c53565b9050919050565b7f49424c3a20796f75206d7573742073656e64207468652066656520696e20636f60008201527f6e74726163742100000000000000000000000000000000000000000000000000602082015250565b6000615cf26027836153c4565b9150615cfd82615c96565b604082019050919050565b60006020820190508181036000830152615d2181615ce5565b9050919050565b7f4f776e61626c653a206e6577206f776e657220697320746865207a65726f206160008201527f6464726573730000000000000000000000000000000000000000000000000000602082015250565b6000615d846026836153c4565b9150615d8f82615d28565b604082019050919050565b60006020820190508181036000830152615db381615d77565b9050919050565b7f5265656e7472616e637947756172643a207265656e7472616e742063616c6c00600082015250565b6000615df0601f836153c4565b9150615dfb82615dba565b602082019050919050565b60006020820190508181036000830152615e1f81615de3565b9050919050565b600081905092915050565b50565b6000615e41600083615e26565b9150615e4c82615e31565b600082019050919050565b6000615e6282615e34565b9150819050919050565b7f444258656e3a206661696c656420746f2073656e6420616d6f756e7400000000600082015250565b6000615ea2601c836153c4565b9150615ead82615e6c565b602082019050919050565b60006020820190508181036000830152615ed181615e95565b9050919050565b7f4f776e61626c653a2063616c6c6572206973206e6f7420746865206f776e6572600082015250565b6000615f0e6020836153c4565b9150615f1982615ed8565b602082019050919050565b60006020820190508181036000830152615f3d81615f01565b9050919050565b7f49424c3a20596f75206d7573742073656e642065786163742076616c75652100600082015250565b6000615f7a601f836153c4565b9150615f8582615f44565b602082019050919050565b60006020820190508181036000830152615fa981615f6d565b9050919050565b6000606082019050615fc56000830186614dac565b615fd26020830185614dac565b615fdf6040830184614bdb565b949350505050565b615ff08161520b565b8114615ffb57600080fd5b50565b60008151905061600d81615fe7565b92915050565b60006020828403121561602957616028614952565b5b600061603784828501615ffe565b91505092915050565b7f5361666545524332303a204552433230206f7065726174696f6e20646964206e60008201527f6f74207375636365656400000000000000000000000000000000000000000000602082015250565b600061609c602a836153c4565b91506160a782616040565b604082019050919050565b600060208201905081810360008301526160cb8161608f565b9050919050565b7f416464726573733a20696e73756666696369656e742062616c616e636520666f60008201527f722063616c6c0000000000000000000000000000000000000000000000000000602082015250565b600061612e6026836153c4565b9150616139826160d2565b604082019050919050565b6000602082019050818103600083015261615d81616121565b9050919050565b600081519050919050565b600061617a82616164565b6161848185615e26565b93506161948185602086016153d5565b80840191505092915050565b60006161ac828461616f565b915081905092915050565b7f416464726573733a2063616c6c20746f206e6f6e2d636f6e7472616374000000600082015250565b60006161ed601d836153c4565b91506161f8826161b7565b602082019050919050565b6000602082019050818103600083015261621c816161e0565b9050919050565b6000602082019050818103600083015261623d81846153ff565b90509291505056fea264697066735822122085f65aac79a2e87e9a8b0ed8764ab4e6e883575546c97d1e4b3f8e13795e4ffb64736f6c6343000811003360a06040523480156200001157600080fd5b506040518060400160405280601081526020017f49424c2052657761726420746f6b656e000000000000000000000000000000008152506040518060400160405280600381526020017f49424c000000000000000000000000000000000000000000000000000000000081525081600390816200008f919062000358565b508060049081620000a1919062000358565b5050503373ffffffffffffffffffffffffffffffffffffffff1660808173ffffffffffffffffffffffffffffffffffffffff16815250506200043f565b600081519050919050565b7f4e487b7100000000000000000000000000000000000000000000000000000000600052604160045260246000fd5b7f4e487b7100000000000000000000000000000000000000000000000000000000600052602260045260246000fd5b600060028204905060018216806200016057607f821691505b60208210810362000176576200017562000118565b5b50919050565b60008190508160005260206000209050919050565b60006020601f8301049050919050565b600082821b905092915050565b600060088302620001e07fffffffffffffffffffffffffffffffffffffffffffffffffffffffffffffffff82620001a1565b620001ec8683620001a1565b95508019841693508086168417925050509392505050565b6000819050919050565b6000819050919050565b600062000239620002336200022d8462000204565b6200020e565b62000204565b9050919050565b6000819050919050565b620002558362000218565b6200026d620002648262000240565b848454620001ae565b825550505050565b600090565b6200028462000275565b620002918184846200024a565b505050565b5b81811015620002b957620002ad6000826200027a565b60018101905062000297565b5050565b601f8211156200030857620002d2816200017c565b620002dd8462000191565b81016020851015620002ed578190505b62000305620002fc8562000191565b83018262000296565b50505b505050565b600082821c905092915050565b60006200032d600019846008026200030d565b1980831691505092915050565b60006200034883836200031a565b9150826002028217905092915050565b6200036382620000de565b67ffffffffffffffff8111156200037f576200037e620000e9565b5b6200038b825462000147565b62000398828285620002bd565b600060209050601f831160018114620003d05760008415620003bb578287015190505b620003c785826200033a565b86555062000437565b601f198416620003e0866200017c565b60005b828110156200040a57848901518255600182019150602085019450602081019050620003e3565b868310156200042a578489015162000426601f8916826200031a565b8355505b6001600288020188555050505b505050505050565b6080516115a7620004626000396000818161044e015261050401526115a76000f3fe608060405234801561001057600080fd5b50600436106100cf5760003560e01c806370a082311161008c5780639a49090e116100665780639a49090e1461022a578063a457c2d714610246578063a9059cbb14610276578063dd62ed3e146102a6576100cf565b806370a08231146101be5780638da5cb5b146101ee57806395d89b411461020c576100cf565b806306fdde03146100d4578063095ea7b3146100f257806318160ddd1461012257806323b872dd14610140578063313ce56714610170578063395093511461018e575b600080fd5b6100dc6102d6565b6040516100e99190610d82565b60405180910390f35b61010c60048036038101906101079190610e3d565b610368565b6040516101199190610e98565b60405180910390f35b61012a61038b565b6040516101379190610ec2565b60405180910390f35b61015a60048036038101906101559190610edd565b610395565b6040516101679190610e98565b60405180910390f35b6101786103c4565b6040516101859190610f4c565b60405180910390f35b6101a860048036038101906101a39190610e3d565b6103cd565b6040516101b59190610e98565b60405180910390f35b6101d860048036038101906101d39190610f67565b610404565b6040516101e59190610ec2565b60405180910390f35b6101f661044c565b6040516102039190610fa3565b60405180910390f35b610214610470565b6040516102219190610d82565b60405180910390f35b610244600480360381019061023f9190610e3d565b610502565b005b610260600480360381019061025b9190610e3d565b61059e565b60405161026d9190610e98565b60405180910390f35b610290600480360381019061028b9190610e3d565b610615565b60405161029d9190610e98565b60405180910390f35b6102c060048036038101906102bb9190610fbe565b610638565b6040516102cd9190610ec2565b60405180910390f35b6060600380546102e59061102d565b80601f01602080910402602001604051908101604052809291908181526020018280546103119061102d565b801561035e5780601f106103335761010080835404028352916020019161035e565b820191906000526020600020905b81548152906001019060200180831161034157829003601f168201915b5050505050905090565b6000806103736106bf565b90506103808185856106c7565b600191505092915050565b6000600254905090565b6000806103a06106bf565b90506103ad858285610890565b6103b885858561091c565b60019150509392505050565b60006012905090565b6000806103d86106bf565b90506103f98185856103ea8589610638565b6103f4919061108d565b6106c7565b600191505092915050565b60008060008373ffffffffffffffffffffffffffffffffffffffff1673ffffffffffffffffffffffffffffffffffffffff168152602001908152602001600020549050919050565b7f000000000000000000000000000000000000000000000000000000000000000081565b60606004805461047f9061102d565b80601f01602080910402602001604051908101604052809291908181526020018280546104ab9061102d565b80156104f85780601f106104cd576101008083540402835291602001916104f8565b820191906000526020600020905b8154815290600101906020018083116104db57829003601f168201915b5050505050905090565b7f000000000000000000000000000000000000000000000000000000000000000073ffffffffffffffffffffffffffffffffffffffff163373ffffffffffffffffffffffffffffffffffffffff1614610590576040517f08c379a00000000000000000000000000000000000000000000000000000000081526004016105879061110d565b60405180910390fd5b61059a8282610b92565b5050565b6000806105a96106bf565b905060006105b78286610638565b9050838110156105fc576040517f08c379a00000000000000000000000000000000000000000000000000000000081526004016105f39061119f565b60405180910390fd5b61060982868684036106c7565b60019250505092915050565b6000806106206106bf565b905061062d81858561091c565b600191505092915050565b6000600160008473ffffffffffffffffffffffffffffffffffffffff1673ffffffffffffffffffffffffffffffffffffffff16815260200190815260200160002060008373ffffffffffffffffffffffffffffffffffffffff1673ffffffffffffffffffffffffffffffffffffffff16815260200190815260200160002054905092915050565b600033905090565b600073ffffffffffffffffffffffffffffffffffffffff168373ffffffffffffffffffffffffffffffffffffffff1603610736576040517f08c379a000000000000000000000000000000000000000000000000000000000815260040161072d90611231565b60405180910390fd5b600073ffffffffffffffffffffffffffffffffffffffff168273ffffffffffffffffffffffffffffffffffffffff16036107a5576040517f08c379a000000000000000000000000000000000000000000000000000000000815260040161079c906112c3565b60405180910390fd5b80600160008573ffffffffffffffffffffffffffffffffffffffff1673ffffffffffffffffffffffffffffffffffffffff16815260200190815260200160002060008473ffffffffffffffffffffffffffffffffffffffff1673ffffffffffffffffffffffffffffffffffffffff168152602001908152602001600020819055508173ffffffffffffffffffffffffffffffffffffffff168373ffffffffffffffffffffffffffffffffffffffff167f8c5be1e5ebec7d5bd14f71427d1e84f3dd0314c0f7b2291e5b200ac8c7c3b925836040516108839190610ec2565b60405180910390a3505050565b600061089c8484610638565b90507fffffffffffffffffffffffffffffffffffffffffffffffffffffffffffffffff81146109165781811015610908576040517f08c379a00000000000000000000000000000000000000000000000000000000081526004016108ff9061132f565b60405180910390fd5b61091584848484036106c7565b5b50505050565b600073ffffffffffffffffffffffffffffffffffffffff168373ffffffffffffffffffffffffffffffffffffffff160361098b576040517f08c379a0000000000000000000000000000000000000000000000000000000008152600401610982906113c1565b60405180910390fd5b600073ffffffffffffffffffffffffffffffffffffffff168273ffffffffffffffffffffffffffffffffffffffff16036109fa576040517f08c379a00000000000000000000000000000000000000000000000000000000081526004016109f190611453565b60405180910390fd5b610a05838383610ce8565b60008060008573ffffffffffffffffffffffffffffffffffffffff1673ffffffffffffffffffffffffffffffffffffffff16815260200190815260200160002054905081811015610a8b576040517f08c379a0000000000000000000000000000000000000000000000000000000008152600401610a82906114e5565b60405180910390fd5b8181036000808673ffffffffffffffffffffffffffffffffffffffff1673ffffffffffffffffffffffffffffffffffffffff16815260200190815260200160002081905550816000808573ffffffffffffffffffffffffffffffffffffffff1673ffffffffffffffffffffffffffffffffffffffff168152602001908152602001600020600082825401925050819055508273ffffffffffffffffffffffffffffffffffffffff168473ffffffffffffffffffffffffffffffffffffffff167fddf252ad1be2c89b69c2b068fc378daa952ba7f163c4a11628f55a4df523b3ef84604051610b799190610ec2565b60405180910390a3610b8c848484610ced565b50505050565b600073ffffffffffffffffffffffffffffffffffffffff168273ffffffffffffffffffffffffffffffffffffffff1603610c01576040517f08c379a0000000000000000000000000000000000000000000000000000000008152600401610bf890611551565b60405180910390fd5b610c0d60008383610ce8565b8060026000828254610c1f919061108d565b92505081905550806000808473ffffffffffffffffffffffffffffffffffffffff1673ffffffffffffffffffffffffffffffffffffffff168152602001908152602001600020600082825401925050819055508173ffffffffffffffffffffffffffffffffffffffff16600073ffffffffffffffffffffffffffffffffffffffff167fddf252ad1be2c89b69c2b068fc378daa952ba7f163c4a11628f55a4df523b3ef83604051610cd09190610ec2565b60405180910390a3610ce460008383610ced565b5050565b505050565b505050565b600081519050919050565b600082825260208201905092915050565b60005b83811015610d2c578082015181840152602081019050610d11565b60008484015250505050565b6000601f19601f8301169050919050565b6000610d5482610cf2565b610d5e8185610cfd565b9350610d6e818560208601610d0e565b610d7781610d38565b840191505092915050565b60006020820190508181036000830152610d9c8184610d49565b905092915050565b600080fd5b600073ffffffffffffffffffffffffffffffffffffffff82169050919050565b6000610dd482610da9565b9050919050565b610de481610dc9565b8114610def57600080fd5b50565b600081359050610e0181610ddb565b92915050565b6000819050919050565b610e1a81610e07565b8114610e2557600080fd5b50565b600081359050610e3781610e11565b92915050565b60008060408385031215610e5457610e53610da4565b5b6000610e6285828601610df2565b9250506020610e7385828601610e28565b9150509250929050565b60008115159050919050565b610e9281610e7d565b82525050565b6000602082019050610ead6000830184610e89565b92915050565b610ebc81610e07565b82525050565b6000602082019050610ed76000830184610eb3565b92915050565b600080600060608486031215610ef657610ef5610da4565b5b6000610f0486828701610df2565b9350506020610f1586828701610df2565b9250506040610f2686828701610e28565b9150509250925092565b600060ff82169050919050565b610f4681610f30565b82525050565b6000602082019050610f616000830184610f3d565b92915050565b600060208284031215610f7d57610f7c610da4565b5b6000610f8b84828501610df2565b91505092915050565b610f9d81610dc9565b82525050565b6000602082019050610fb86000830184610f94565b92915050565b60008060408385031215610fd557610fd4610da4565b5b6000610fe385828601610df2565b9250506020610ff485828601610df2565b9150509250929050565b7f4e487b7100000000000000000000000000000000000000000000000000000000600052602260045260246000fd5b6000600282049050600182168061104557607f821691505b60208210810361105857611057610ffe565b5b50919050565b7f4e487b7100000000000000000000000000000000000000000000000000000000600052601160045260246000fd5b600061109882610e07565b91506110a383610e07565b92508282019050808211156110bb576110ba61105e565b5b92915050565b7f49424c3a2063616c6c6572206973206e6f742049424c20636f6e74726163742e600082015250565b60006110f7602083610cfd565b9150611102826110c1565b602082019050919050565b60006020820190508181036000830152611126816110ea565b9050919050565b7f45524332303a2064656372656173656420616c6c6f77616e63652062656c6f7760008201527f207a65726f000000000000000000000000000000000000000000000000000000602082015250565b6000611189602583610cfd565b91506111948261112d565b604082019050919050565b600060208201905081810360008301526111b88161117c565b9050919050565b7f45524332303a20617070726f76652066726f6d20746865207a65726f2061646460008201527f7265737300000000000000000000000000000000000000000000000000000000602082015250565b600061121b602483610cfd565b9150611226826111bf565b604082019050919050565b6000602082019050818103600083015261124a8161120e565b9050919050565b7f45524332303a20617070726f766520746f20746865207a65726f20616464726560008201527f7373000000000000000000000000000000000000000000000000000000000000602082015250565b60006112ad602283610cfd565b91506112b882611251565b604082019050919050565b600060208201905081810360008301526112dc816112a0565b9050919050565b7f45524332303a20696e73756666696369656e7420616c6c6f77616e6365000000600082015250565b6000611319601d83610cfd565b9150611324826112e3565b602082019050919050565b600060208201905081810360008301526113488161130c565b9050919050565b7f45524332303a207472616e736665722066726f6d20746865207a65726f20616460008201527f6472657373000000000000000000000000000000000000000000000000000000602082015250565b60006113ab602583610cfd565b91506113b68261134f565b604082019050919050565b600060208201905081810360008301526113da8161139e565b9050919050565b7f45524332303a207472616e7366657220746f20746865207a65726f206164647260008201527f6573730000000000000000000000000000000000000000000000000000000000602082015250565b600061143d602383610cfd565b9150611448826113e1565b604082019050919050565b6000602082019050818103600083015261146c81611430565b9050919050565b7f45524332303a207472616e7366657220616d6f756e742065786365656473206260008201527f616c616e63650000000000000000000000000000000000000000000000000000602082015250565b60006114cf602683610cfd565b91506114da82611473565b604082019050919050565b600060208201905081810360008301526114fe816114c2565b9050919050565b7f45524332303a206d696e7420746f20746865207a65726f206164647265737300600082015250565b600061153b601f83610cfd565b915061154682611505565b602082019050919050565b6000602082019050818103600083015261156a8161152e565b905091905056fea26469706673582212201e94c56cc2caba728fc301f445919d0ed98ab83315ad6c1b5fb96de7949eee1464736f6c63430008110033",
  "linkReferences": {},
  "deployedLinkReferences": {}
}