{
  "_format": "hh-sol-artifact-1",
  "contractName": "IBL",
  "sourceName": "contracts/IBL.sol",
  "abi": [
    {
      "inputs": [
        {
          "internalType": "address",
          "name": "_devAddress",
          "type": "address"
        }
      ],
      "stateMutability": "nonpayable",
      "type": "constructor"
    },
    {
      "anonymous": false,
      "inputs": [
        {
          "indexed": true,
          "internalType": "uint256",
          "name": "cycle",
          "type": "uint256"
        },
        {
          "indexed": true,
          "internalType": "address",
          "name": "account",
          "type": "address"
        },
        {
          "indexed": false,
          "internalType": "uint256",
          "name": "fees",
          "type": "uint256"
        }
      ],
      "name": "FeesClaimed",
      "type": "event"
    },
    {
      "anonymous": false,
      "inputs": [
        {
          "indexed": true,
          "internalType": "address",
          "name": "previousOwner",
          "type": "address"
        },
        {
          "indexed": true,
          "internalType": "address",
          "name": "newOwner",
          "type": "address"
        }
      ],
      "name": "OwnershipTransferred",
      "type": "event"
    },
    {
      "inputs": [],
      "name": "IBL_TEAM_FEE",
      "outputs": [
        {
          "internalType": "uint256",
          "name": "",
          "type": "uint256"
        }
      ],
      "stateMutability": "view",
      "type": "function"
    },
    {
      "inputs": [],
      "name": "POOL_FEE",
      "outputs": [
        {
          "internalType": "uint256",
          "name": "",
          "type": "uint256"
        }
      ],
      "stateMutability": "view",
      "type": "function"
    },
    {
      "inputs": [],
      "name": "SCALING_FACTOR",
      "outputs": [
        {
          "internalType": "uint256",
          "name": "",
          "type": "uint256"
        }
      ],
      "stateMutability": "view",
      "type": "function"
    },
    {
      "inputs": [
        {
          "internalType": "address",
          "name": "",
          "type": "address"
        }
      ],
      "name": "accAccruedFees",
      "outputs": [
        {
          "internalType": "uint256",
          "name": "",
          "type": "uint256"
        }
      ],
      "stateMutability": "view",
      "type": "function"
    },
    {
      "inputs": [
        {
          "internalType": "address",
          "name": "",
          "type": "address"
        }
      ],
      "name": "accCycleBatchesBurned",
      "outputs": [
        {
          "internalType": "uint256",
          "name": "",
          "type": "uint256"
        }
      ],
      "stateMutability": "view",
      "type": "function"
    },
    {
      "inputs": [
        {
          "internalType": "address",
          "name": "",
          "type": "address"
        }
      ],
      "name": "accFirstStake",
      "outputs": [
        {
          "internalType": "uint256",
          "name": "",
          "type": "uint256"
        }
      ],
      "stateMutability": "view",
      "type": "function"
    },
    {
      "inputs": [
        {
          "internalType": "address",
          "name": "",
          "type": "address"
        }
      ],
      "name": "accRewards",
      "outputs": [
        {
          "internalType": "uint256",
          "name": "",
          "type": "uint256"
        }
      ],
      "stateMutability": "view",
      "type": "function"
    },
    {
      "inputs": [
        {
          "internalType": "address",
          "name": "",
          "type": "address"
        }
      ],
      "name": "accSecondStake",
      "outputs": [
        {
          "internalType": "uint256",
          "name": "",
          "type": "uint256"
        }
      ],
      "stateMutability": "view",
      "type": "function"
    },
    {
      "inputs": [
        {
          "internalType": "address",
          "name": "",
          "type": "address"
        },
        {
          "internalType": "uint256",
          "name": "",
          "type": "uint256"
        }
      ],
      "name": "accStakeCycle",
      "outputs": [
        {
          "internalType": "uint256",
          "name": "",
          "type": "uint256"
        }
      ],
      "stateMutability": "view",
      "type": "function"
    },
    {
      "inputs": [
        {
          "internalType": "address",
          "name": "",
          "type": "address"
        }
      ],
      "name": "accWithdrawableStake",
      "outputs": [
        {
          "internalType": "uint256",
          "name": "",
          "type": "uint256"
        }
      ],
      "stateMutability": "view",
      "type": "function"
    },
    {
      "inputs": [],
      "name": "accruedFees",
      "outputs": [
        {
          "internalType": "uint256",
          "name": "",
          "type": "uint256"
        }
      ],
      "stateMutability": "view",
      "type": "function"
    },
    {
      "inputs": [
        {
          "components": [
            {
              "internalType": "string",
              "name": "id",
              "type": "string"
            },
            {
              "internalType": "uint256",
              "name": "runPrice",
              "type": "uint256"
            },
            {
              "internalType": "uint256",
              "name": "downloadPrice",
              "type": "uint256"
            },
            {
              "internalType": "address[]",
              "name": "owners",
              "type": "address[]"
            },
            {
              "internalType": "uint256[]",
              "name": "procentages",
              "type": "uint256[]"
            }
          ],
          "internalType": "struct IBL.Component",
          "name": "component",
          "type": "tuple"
        }
      ],
      "name": "addComponent",
      "outputs": [],
      "stateMutability": "payable",
      "type": "function"
    },
    {
      "inputs": [
        {
          "internalType": "uint256",
          "name": "",
          "type": "uint256"
        }
      ],
      "name": "alreadyUpdateCycleData",
      "outputs": [
        {
          "internalType": "bool",
          "name": "",
          "type": "bool"
        }
      ],
      "stateMutability": "view",
      "type": "function"
    },
    {
      "inputs": [
        {
          "internalType": "address",
          "name": "",
          "type": "address"
        }
      ],
      "name": "builderReward",
      "outputs": [
        {
          "internalType": "uint256",
          "name": "",
          "type": "uint256"
        }
      ],
      "stateMutability": "view",
      "type": "function"
    },
    {
      "inputs": [],
      "name": "claimFees",
      "outputs": [],
      "stateMutability": "nonpayable",
      "type": "function"
    },
    {
      "inputs": [],
      "name": "claimNativeFeeAcc",
      "outputs": [],
      "stateMutability": "nonpayable",
      "type": "function"
    },
    {
      "inputs": [
        {
          "internalType": "string",
          "name": "",
          "type": "string"
        }
      ],
      "name": "componentData",
      "outputs": [
        {
          "internalType": "string",
          "name": "id",
          "type": "string"
        },
        {
          "internalType": "uint256",
          "name": "runPrice",
          "type": "uint256"
        },
        {
          "internalType": "uint256",
          "name": "downloadPrice",
          "type": "uint256"
        }
      ],
      "stateMutability": "view",
      "type": "function"
    },
    {
      "inputs": [],
      "name": "currentCycle",
      "outputs": [
        {
          "internalType": "uint256",
          "name": "",
          "type": "uint256"
        }
      ],
      "stateMutability": "view",
      "type": "function"
    },
    {
      "inputs": [],
      "name": "currentStartedCycle",
      "outputs": [
        {
          "internalType": "uint256",
          "name": "",
          "type": "uint256"
        }
      ],
      "stateMutability": "view",
      "type": "function"
    },
    {
      "inputs": [
        {
          "internalType": "uint256",
          "name": "",
          "type": "uint256"
        }
      ],
      "name": "cycleAccruedFees",
      "outputs": [
        {
          "internalType": "uint256",
          "name": "",
          "type": "uint256"
        }
      ],
      "stateMutability": "view",
      "type": "function"
    },
    {
      "inputs": [
        {
          "internalType": "uint256",
          "name": "",
          "type": "uint256"
        }
      ],
      "name": "cycleFeesPerStakeSummed",
      "outputs": [
        {
          "internalType": "uint256",
          "name": "",
          "type": "uint256"
        }
      ],
      "stateMutability": "view",
      "type": "function"
    },
    {
      "inputs": [
        {
          "internalType": "uint256",
          "name": "",
          "type": "uint256"
        }
      ],
      "name": "cycleTotalBatchesBurned",
      "outputs": [
        {
          "internalType": "uint256",
          "name": "",
          "type": "uint256"
        }
      ],
      "stateMutability": "view",
      "type": "function"
    },
    {
      "inputs": [],
      "name": "devAddress",
      "outputs": [
        {
          "internalType": "address",
          "name": "",
          "type": "address"
        }
      ],
      "stateMutability": "view",
      "type": "function"
    },
    {
      "inputs": [
        {
          "internalType": "string[]",
          "name": "componentsIds",
          "type": "string[]"
        }
      ],
      "name": "downlodApplication",
      "outputs": [],
      "stateMutability": "payable",
      "type": "function"
    },
    {
      "inputs": [],
      "name": "getCurrentCycle",
      "outputs": [
        {
          "internalType": "uint256",
          "name": "",
          "type": "uint256"
        }
      ],
      "stateMutability": "view",
      "type": "function"
    },
    {
      "inputs": [
        {
          "internalType": "string",
          "name": "id",
          "type": "string"
        }
      ],
      "name": "getFees",
      "outputs": [
        {
          "internalType": "uint256",
          "name": "",
          "type": "uint256"
        },
        {
          "internalType": "uint256",
          "name": "",
          "type": "uint256"
        }
      ],
      "stateMutability": "view",
      "type": "function"
    },
    {
      "inputs": [
        {
          "internalType": "string",
          "name": "id",
          "type": "string"
        }
      ],
      "name": "getOwnersForComponent",
      "outputs": [
        {
          "internalType": "address[]",
          "name": "",
          "type": "address[]"
        }
      ],
      "stateMutability": "view",
      "type": "function"
    },
    {
      "inputs": [
        {
          "internalType": "string",
          "name": "id",
          "type": "string"
        }
      ],
      "name": "getProcentagesForComponent",
      "outputs": [
        {
          "internalType": "uint256[]",
          "name": "",
          "type": "uint256[]"
        }
      ],
      "stateMutability": "view",
      "type": "function"
    },
    {
      "inputs": [],
      "name": "i_initialTimestamp",
      "outputs": [
        {
          "internalType": "uint256",
          "name": "",
          "type": "uint256"
        }
      ],
      "stateMutability": "view",
      "type": "function"
    },
    {
      "inputs": [],
      "name": "i_periodDuration",
      "outputs": [
        {
          "internalType": "uint256",
          "name": "",
          "type": "uint256"
        }
      ],
      "stateMutability": "view",
      "type": "function"
    },
    {
      "inputs": [],
      "name": "ibl",
      "outputs": [
        {
          "internalType": "contract IBLERC20",
          "name": "",
          "type": "address"
        }
      ],
      "stateMutability": "view",
      "type": "function"
    },
    {
      "inputs": [
        {
          "internalType": "address",
          "name": "",
          "type": "address"
        }
      ],
      "name": "lastActiveCycle",
      "outputs": [
        {
          "internalType": "uint256",
          "name": "",
          "type": "uint256"
        }
      ],
      "stateMutability": "view",
      "type": "function"
    },
    {
      "inputs": [],
      "name": "lastCycleReward",
      "outputs": [
        {
          "internalType": "uint256",
          "name": "",
          "type": "uint256"
        }
      ],
      "stateMutability": "view",
      "type": "function"
    },
    {
      "inputs": [
        {
          "internalType": "address",
          "name": "",
          "type": "address"
        }
      ],
      "name": "lastFeeUpdateCycle",
      "outputs": [
        {
          "internalType": "uint256",
          "name": "",
          "type": "uint256"
        }
      ],
      "stateMutability": "view",
      "type": "function"
    },
    {
      "inputs": [
        {
          "internalType": "string",
          "name": "",
          "type": "string"
        }
      ],
      "name": "lastHighestDownloadPrice",
      "outputs": [
        {
          "internalType": "uint256",
          "name": "",
          "type": "uint256"
        }
      ],
      "stateMutability": "view",
      "type": "function"
    },
    {
      "inputs": [],
      "name": "lastStartedCycle",
      "outputs": [
        {
          "internalType": "uint256",
          "name": "",
          "type": "uint256"
        }
      ],
      "stateMutability": "view",
      "type": "function"
    },
    {
      "inputs": [],
      "name": "owner",
      "outputs": [
        {
          "internalType": "address",
          "name": "",
          "type": "address"
        }
      ],
      "stateMutability": "view",
      "type": "function"
    },
    {
      "inputs": [
        {
          "internalType": "address",
          "name": "",
          "type": "address"
        }
      ],
      "name": "ownerNativeFeeAcc",
      "outputs": [
        {
          "internalType": "uint256",
          "name": "",
          "type": "uint256"
        }
      ],
      "stateMutability": "view",
      "type": "function"
    },
    {
      "inputs": [],
      "name": "pendingStake",
      "outputs": [
        {
          "internalType": "uint256",
          "name": "",
          "type": "uint256"
        }
      ],
      "stateMutability": "view",
      "type": "function"
    },
    {
      "inputs": [],
      "name": "pendingStakeWithdrawal",
      "outputs": [
        {
          "internalType": "uint256",
          "name": "",
          "type": "uint256"
        }
      ],
      "stateMutability": "view",
      "type": "function"
    },
    {
      "inputs": [],
      "name": "previousStartedCycle",
      "outputs": [
        {
          "internalType": "uint256",
          "name": "",
          "type": "uint256"
        }
      ],
      "stateMutability": "view",
      "type": "function"
    },
    {
      "inputs": [],
      "name": "renounceOwnership",
      "outputs": [],
      "stateMutability": "nonpayable",
      "type": "function"
    },
    {
      "inputs": [
        {
          "internalType": "uint256",
          "name": "",
          "type": "uint256"
        }
      ],
      "name": "rewardPerCycle",
      "outputs": [
        {
          "internalType": "uint256",
          "name": "",
          "type": "uint256"
        }
      ],
      "stateMutability": "view",
      "type": "function"
    },
    {
      "inputs": [
        {
          "internalType": "string[]",
          "name": "componentsIds",
          "type": "string[]"
        }
      ],
      "name": "runApplication",
      "outputs": [],
      "stateMutability": "payable",
      "type": "function"
    },
    {
      "inputs": [
        {
          "internalType": "address",
          "name": "_devAddress",
          "type": "address"
        }
      ],
      "name": "setDevAddress",
      "outputs": [],
      "stateMutability": "nonpayable",
      "type": "function"
    },
    {
      "inputs": [
        {
          "internalType": "string",
          "name": "id",
          "type": "string"
        },
        {
          "internalType": "uint256",
          "name": "newRunPrice",
          "type": "uint256"
        },
        {
          "internalType": "uint256",
          "name": "newDownloadPrice",
          "type": "uint256"
        }
      ],
      "name": "setNewPrice",
      "outputs": [],
      "stateMutability": "payable",
      "type": "function"
    },
    {
      "inputs": [
        {
          "internalType": "uint256",
          "name": "",
          "type": "uint256"
        }
      ],
      "name": "summedCycleStakes",
      "outputs": [
        {
          "internalType": "uint256",
          "name": "",
          "type": "uint256"
        }
      ],
      "stateMutability": "view",
      "type": "function"
    },
    {
      "inputs": [],
      "name": "totalNumberOfBatchesBurned",
      "outputs": [
        {
          "internalType": "uint256",
          "name": "",
          "type": "uint256"
        }
      ],
      "stateMutability": "view",
      "type": "function"
    },
    {
      "inputs": [
        {
          "internalType": "address",
          "name": "newOwner",
          "type": "address"
        }
      ],
      "name": "transferOwnership",
      "outputs": [],
      "stateMutability": "nonpayable",
      "type": "function"
    }
  ],
  "bytecode": "0x60c06040526101f4600b5561251c600c553480156200001d57600080fd5b506040516200584138038062005841833981810160405281019062000043919062000275565b62000063620000576200013160201b60201c565b6200013960201b60201c565b600180819055506040516200007890620001fd565b604051809103906000f08015801562000095573d6000803e3d6000fd5b50600260006101000a81548173ffffffffffffffffffffffffffffffffffffffff021916908373ffffffffffffffffffffffffffffffffffffffff16021790555080600d60006101000a81548173ffffffffffffffffffffffffffffffffffffffff021916908373ffffffffffffffffffffffffffffffffffffffff16021790555042608081815250506201518060a0818152505050620002a7565b600033905090565b60008060009054906101000a900473ffffffffffffffffffffffffffffffffffffffff169050816000806101000a81548173ffffffffffffffffffffffffffffffffffffffff021916908373ffffffffffffffffffffffffffffffffffffffff1602179055508173ffffffffffffffffffffffffffffffffffffffff168173ffffffffffffffffffffffffffffffffffffffff167f8be0079c531659141344cd1fd0a4f28419497f9722a3daafe3b4186f6b6457e060405160405180910390a35050565b611a098062003e3883390190565b600080fd5b600073ffffffffffffffffffffffffffffffffffffffff82169050919050565b60006200023d8262000210565b9050919050565b6200024f8162000230565b81146200025b57600080fd5b50565b6000815190506200026f8162000244565b92915050565b6000602082840312156200028e576200028d6200020b565b5b60006200029e848285016200025e565b91505092915050565b60805160a051613b5d620002db60003960008181610c8f015261150401526000818161138b01526115250152613b5d6000f3fe6080604052600436106102ae5760003560e01c8063af2f850e11610175578063d4432e4e116100dc578063eb90b2bc11610095578063f1b371e21161006f578063f1b371e214610b31578063f2fde38b14610b5c578063fa845ca914610b85578063fded701214610bc2576102ae565b8063eb90b2bc14610a8b578063ed725e8314610ac9578063ef4cadc514610b06576102ae565b8063d4432e4e14610983578063d8043d8f146109ae578063db80a28c146109ca578063dd1b9c4a14610a07578063e60c90c414610a32578063e858e05c14610a6f576102ae565b8063bee7708e1161012e578063bee7708e14610887578063c40af1ee146108c4578063c4235ae9146108ef578063c499d8291461092c578063d0d41fe114610943578063d294f0931461096c576102ae565b8063af2f850e1461073d578063b6f2a9ce1461077a578063bab2f552146107b7578063bc713290146107e2578063be26ed7f1461081f578063bebc9dfc1461084a576102ae565b8063682c2058116102195780638da5cb5b116101d25780638da5cb5b146105f3578063a2727db31461061e578063a707140b1461065b578063a95f1dac14610698578063aabbb1bd146106c3578063adc0f68614610700576102ae565b8063682c20581461052357806368f057691461054e5780636adb0eb614610579578063715018a61461059557806374ef8367146105ac5780638bd95563146105c8576102ae565b80632f7cdab01161026b5780632f7cdab0146103fd5780633ad10ef614610428578063436091c1146104535780635347a47d1461047e578063541c7886146104bb5780635f5080b4146104f8576102ae565b80630ece2154146102b357806312cb22ac146102f057806312d474391461032d578063168b0a5c1461035857806317d9c47a146103835780631ed6380f146103c0575b600080fd5b3480156102bf57600080fd5b506102da60048036038101906102d591906126b2565b610c01565b6040516102e791906126ee565b60405180910390f35b3480156102fc57600080fd5b5061031760048036038101906103129190612767565b610c19565b60405161032491906126ee565b60405180910390f35b34801561033957600080fd5b50610342610c31565b60405161034f91906126ee565b60405180910390f35b34801561036457600080fd5b5061036d610c37565b60405161037a91906127f3565b60405180910390f35b34801561038f57600080fd5b506103aa60048036038101906103a591906126b2565b610c5d565b6040516103b791906126ee565b60405180910390f35b3480156103cc57600080fd5b506103e760048036038101906103e29190612767565b610c75565b6040516103f491906126ee565b60405180910390f35b34801561040957600080fd5b50610412610c8d565b60405161041f91906126ee565b60405180910390f35b34801561043457600080fd5b5061043d610cb1565b60405161044a919061281d565b60405180910390f35b34801561045f57600080fd5b50610468610cd7565b60405161047591906126ee565b60405180910390f35b34801561048a57600080fd5b506104a560048036038101906104a0919061297e565b610cdd565b6040516104b291906126ee565b60405180910390f35b3480156104c757600080fd5b506104e260048036038101906104dd919061297e565b610d0b565b6040516104ef9190612a85565b60405180910390f35b34801561050457600080fd5b5061050d610dba565b60405161051a91906126ee565b60405180910390f35b34801561052f57600080fd5b50610538610dc0565b60405161054591906126ee565b60405180910390f35b34801561055a57600080fd5b50610563610dc6565b60405161057091906126ee565b60405180910390f35b610593600480360381019061058e9190612b8d565b610dcc565b005b3480156105a157600080fd5b506105aa61122d565b005b6105c660048036038101906105c19190612e46565b611241565b005b3480156105d457600080fd5b506105dd611389565b6040516105ea91906126ee565b60405180910390f35b3480156105ff57600080fd5b506106086113ad565b604051610615919061281d565b60405180910390f35b34801561062a57600080fd5b5061064560048036038101906106409190612767565b6113d6565b60405161065291906126ee565b60405180910390f35b34801561066757600080fd5b50610682600480360381019061067d9190612767565b6113ee565b60405161068f91906126ee565b60405180910390f35b3480156106a457600080fd5b506106ad611406565b6040516106ba91906126ee565b60405180910390f35b3480156106cf57600080fd5b506106ea60048036038101906106e59190612e8f565b61140c565b6040516106f791906126ee565b60405180910390f35b34801561070c57600080fd5b50610727600480360381019061072291906126b2565b611431565b60405161073491906126ee565b60405180910390f35b34801561074957600080fd5b50610764600480360381019061075f91906126b2565b611449565b6040516107719190612eea565b60405180910390f35b34801561078657600080fd5b506107a1600480360381019061079c919061297e565b611469565b6040516107ae9190612fc3565b60405180910390f35b3480156107c357600080fd5b506107cc6114e2565b6040516107d991906126ee565b60405180910390f35b3480156107ee57600080fd5b5061080960048036038101906108049190612767565b6114e8565b60405161081691906126ee565b60405180910390f35b34801561082b57600080fd5b50610834611500565b60405161084191906126ee565b60405180910390f35b34801561085657600080fd5b50610871600480360381019061086c91906126b2565b61155e565b60405161087e91906126ee565b60405180910390f35b34801561089357600080fd5b506108ae60048036038101906108a99190612767565b611576565b6040516108bb91906126ee565b60405180910390f35b3480156108d057600080fd5b506108d961158e565b6040516108e691906126ee565b60405180910390f35b3480156108fb57600080fd5b50610916600480360381019061091191906126b2565b611594565b60405161092391906126ee565b60405180910390f35b34801561093857600080fd5b506109416115ac565b005b34801561094f57600080fd5b5061096a60048036038101906109659190612767565b611695565b005b34801561097857600080fd5b506109816116f1565b005b34801561098f57600080fd5b50610998611838565b6040516109a591906126ee565b60405180910390f35b6109c860048036038101906109c39190612b8d565b61183e565b005b3480156109d657600080fd5b506109f160048036038101906109ec9190612767565b611cb1565b6040516109fe91906126ee565b60405180910390f35b348015610a1357600080fd5b50610a1c611cc9565b604051610a2991906126ee565b60405180910390f35b348015610a3e57600080fd5b50610a596004803603810190610a549190612767565b611ccf565b604051610a6691906126ee565b60405180910390f35b610a896004803603810190610a849190612fe5565b611ce6565b005b348015610a9757600080fd5b50610ab26004803603810190610aad919061297e565b6120eb565b604051610ac0929190613054565b60405180910390f35b348015610ad557600080fd5b50610af06004803603810190610aeb9190612767565b61213b565b604051610afd91906126ee565b60405180910390f35b348015610b1257600080fd5b50610b1b612153565b604051610b2891906126ee565b60405180910390f35b348015610b3d57600080fd5b50610b46612168565b604051610b5391906126ee565b60405180910390f35b348015610b6857600080fd5b50610b836004803603810190610b7e9190612767565b61216e565b005b348015610b9157600080fd5b50610bac6004803603810190610ba79190612767565b6121f1565b604051610bb991906126ee565b60405180910390f35b348015610bce57600080fd5b50610be96004803603810190610be4919061297e565b612209565b604051610bf8939291906130fc565b60405180910390f35b601d6020528060005260406000206000915090505481565b60166020528060005260406000206000915090505481565b600b5481565b600260009054906101000a900473ffffffffffffffffffffffffffffffffffffffff1681565b60176020528060005260406000206000915090505481565b601f6020528060005260406000206000915090505481565b7f000000000000000000000000000000000000000000000000000000000000000081565b600d60009054906101000a900473ffffffffffffffffffffffffffffffffffffffff1681565b60115481565b6007818051602081018201805184825260208301602085012081835280955050505050506000915090505481565b6060600382604051610d1d9190613176565b9081526020016040518091039020600301805480602002602001604051908101604052809291908181526020018280548015610dae57602002820191906000526020600020905b8160009054906101000a900473ffffffffffffffffffffffffffffffffffffffff1673ffffffffffffffffffffffffffffffffffffffff1681526020019060010190808311610d64575b50505050509050919050565b60125481565b600a5481565b60145481565b610dd46122d1565b610ddc612320565b60008082519050610deb612545565b606080600080600090505b858110156110be576003888281518110610e1357610e1261318d565b5b6020026020010151604051610e289190613176565b90815260200160405180910390206040518060a0016040529081600082018054610e51906131eb565b80601f0160208091040260200160405190810160405280929190818152602001828054610e7d906131eb565b8015610eca5780601f10610e9f57610100808354040283529160200191610eca565b820191906000526020600020905b815481529060010190602001808311610ead57829003601f168201915b50505050508152602001600182015481526020016002820154815260200160038201805480602002602001604051908101604052809291908181526020018280548015610f6c57602002820191906000526020600020905b8160009054906101000a900473ffffffffffffffffffffffffffffffffffffffff1673ffffffffffffffffffffffffffffffffffffffff1681526020019060010190808311610f22575b5050505050815260200160048201805480602002602001604051908101604052809291908181526020018280548015610fc457602002820191906000526020600020905b815481526020019060010190808311610fb0575b505050505081525050945084606001519350846080015192508351915060005b8281101561109857838181518110610fff57610ffe61318d565b5b60200260200101518660400151611016919061324b565b6005600087848151811061102d5761102c61318d565b5b602002602001015173ffffffffffffffffffffffffffffffffffffffff1673ffffffffffffffffffffffffffffffffffffffff168152602001908152602001600020600082825461107e919061328d565b925050819055508080611090906132c1565b915050610fe4565b508460400151876110a9919061328d565b965080806110b6906132c1565b915050610df6565b506002866110cc919061324b565b341461110d576040517f08c379a000000000000000000000000000000000000000000000000000000000815260040161110490613355565b60405180910390fd5b611153600d60009054906101000a900473ffffffffffffffffffffffffffffffffffffffff16612710600b5489611144919061324b565b61114e91906133a4565b612341565b612710600c5487611164919061324b565b61116e91906133a4565b601d6000600f5481526020019081526020016000206000828254611192919061328d565b9250508190555069021e19e0c9bab2400000601a6000600f54815260200190815260200160002060008282546111c8919061328d565b92505081905550683635c9adc5dea00000601960003373ffffffffffffffffffffffffffffffffffffffff1673ffffffffffffffffffffffffffffffffffffffff1681526020019081526020016000208190555050505050505061122a6123f2565b50565b6112356123fb565b61123f6000612479565b565b6112496122d1565b8060400151341461128f576040517f08c379a000000000000000000000000000000000000000000000000000000000815260040161128690613447565b60405180910390fd5b6040518060a00160405280826000015181526020018260200151815260200182604001518152602001826060015181526020018260800151815250600382600001516040516112de9190613176565b908152602001604051809103902060008201518160000190816113019190613609565b5060208201518160010155604082015181600201556060820151816003019080519060200190611332929190612574565b50608082015181600401908051906020019061134f9291906125fe565b5090505080604001516007826000015160405161136c9190613176565b9081526020016040518091039020819055506113866123f2565b50565b7f000000000000000000000000000000000000000000000000000000000000000081565b60008060009054906101000a900473ffffffffffffffffffffffffffffffffffffffff16905090565b60046020528060005260406000206000915090505481565b601c6020528060005260406000206000915090505481565b60105481565b601e602052816000526040600020602052806000526040600020600091509150505481565b601a6020528060005260406000206000915090505481565b60066020528060005260406000206000915054906101000a900460ff1681565b606060038260405161147b9190613176565b90815260200160405180910390206004018054806020026020016040519081016040528092919081815260200182805480156114d657602002820191906000526020600020905b8154815260200190600101908083116114c2575b50505050509050919050565b600f5481565b60096020528060005260406000206000915090505481565b60007f00000000000000000000000000000000000000000000000000000000000000007f00000000000000000000000000000000000000000000000000000000000000004261154f91906136db565b61155991906133a4565b905090565b60086020528060005260406000206000915090505481565b60056020528060005260406000206000915090505481565b60155481565b601b6020528060005260406000206000915090505481565b6115b46122d1565b6000600560003373ffffffffffffffffffffffffffffffffffffffff1673ffffffffffffffffffffffffffffffffffffffff1681526020019081526020016000205490506000811161163b576040517f08c379a00000000000000000000000000000000000000000000000000000000081526004016116329061375b565b60405180910390fd5b6000600560003373ffffffffffffffffffffffffffffffffffffffff1673ffffffffffffffffffffffffffffffffffffffff1681526020019081526020016000208190555061168a3382612341565b506116936123f2565b565b61169d6123fb565b6116a56122d1565b80600d60006101000a81548173ffffffffffffffffffffffffffffffffffffffff021916908373ffffffffffffffffffffffffffffffffffffffff1602179055506116ee6123f2565b50565b6116f96122d1565b611701612320565b6000600960003373ffffffffffffffffffffffffffffffffffffffff1673ffffffffffffffffffffffffffffffffffffffff16815260200190815260200160002054905060008111611788576040517f08c379a000000000000000000000000000000000000000000000000000000000815260040161177f906137c7565b60405180910390fd5b6000600960003373ffffffffffffffffffffffffffffffffffffffff1673ffffffffffffffffffffffffffffffffffffffff168152602001908152602001600020819055506117d73382612341565b3373ffffffffffffffffffffffffffffffffffffffff166117f6611500565b7f2227733fc4c8a9034cb58087dcf6995128b9c0233b038b03366aaf30c92b92d68360405161182591906126ee565b60405180910390a3506118366123f2565b565b600e5481565b6118466122d1565b61184e612320565b6000808251905061185d612545565b606080600080600090505b85811015611b435760038882815181106118855761188461318d565b5b602002602001015160405161189a9190613176565b90815260200160405180910390206040518060a00160405290816000820180546118c3906131eb565b80601f01602080910402602001604051908101604052809291908181526020018280546118ef906131eb565b801561193c5780601f106119115761010080835404028352916020019161193c565b820191906000526020600020905b81548152906001019060200180831161191f57829003601f168201915b505050505081526020016001820154815260200160028201548152602001600382018054806020026020016040519081016040528092919081815260200182805480156119de57602002820191906000526020600020905b8160009054906101000a900473ffffffffffffffffffffffffffffffffffffffff1673ffffffffffffffffffffffffffffffffffffffff1681526020019060010190808311611994575b5050505050815260200160048201805480602002602001604051908101604052809291908181526020018280548015611a3657602002820191906000526020600020905b815481526020019060010190808311611a22575b505050505081525050945084606001519350846080015192508351915060005b82811015611b1d57670de0b6b3a7640000848281518110611a7a57611a7961318d565b5b60200260200101518760400151611a91919061324b565b611a9b91906133a4565b60056000878481518110611ab257611ab161318d565b5b602002602001015173ffffffffffffffffffffffffffffffffffffffff1673ffffffffffffffffffffffffffffffffffffffff1681526020019081526020016000206000828254611b03919061328d565b925050819055508080611b15906132c1565b915050611a56565b50846040015187611b2e919061328d565b96508080611b3b906132c1565b915050611868565b50600286611b51919061324b565b3414611b92576040517f08c379a0000000000000000000000000000000000000000000000000000000008152600401611b8990613355565b60405180910390fd5b611bd8600d60009054906101000a900473ffffffffffffffffffffffffffffffffffffffff16612710600b5489611bc9919061324b565b611bd391906133a4565b612341565b612710600c5487611be9919061324b565b611bf391906133a4565b601d6000600f5481526020019081526020016000206000828254611c17919061328d565b92505081905550683635c9adc5dea00000601a6000600f5481526020019081526020016000206000828254611c4c919061328d565b92505081905550683635c9adc5dea00000601960003373ffffffffffffffffffffffffffffffffffffffff1673ffffffffffffffffffffffffffffffffffffffff16815260200190815260200160002081905550505050505050611cae6123f2565b50565b60216020528060005260406000206000915090505481565b600c5481565b602080528060005260406000206000915090505481565b611cee6122d1565b6000600384604051611d009190613176565b90815260200160405180910390206040518060a0016040529081600082018054611d29906131eb565b80601f0160208091040260200160405190810160405280929190818152602001828054611d55906131eb565b8015611da25780601f10611d7757610100808354040283529160200191611da2565b820191906000526020600020905b815481529060010190602001808311611d8557829003601f168201915b50505050508152602001600182015481526020016002820154815260200160038201805480602002602001604051908101604052809291908181526020018280548015611e4457602002820191906000526020600020905b8160009054906101000a900473ffffffffffffffffffffffffffffffffffffffff1673ffffffffffffffffffffffffffffffffffffffff1681526020019060010190808311611dfa575b5050505050815260200160048201805480602002602001604051908101604052809291908181526020018280548015611e9c57602002820191906000526020600020905b815481526020019060010190808311611e88575b5050505050815250509050600081606001519050600081519050600080600090505b82811015611f2f573373ffffffffffffffffffffffffffffffffffffffff16848281518110611ef057611eef61318d565b5b602002602001015173ffffffffffffffffffffffffffffffffffffffff1603611f1c5760019150611f2f565b8080611f27906132c1565b915050611ebe565b5080611f70576040517f08c379a0000000000000000000000000000000000000000000000000000000008152600401611f6790613859565b60405180910390fd5b84600788604051611f819190613176565b908152602001604051809103902054101561202657600787604051611fa69190613176565b90815260200160405180910390205485611fc091906136db565b341015612002576040517f08c379a0000000000000000000000000000000000000000000000000000000008152600401611ff9906138eb565b60405180910390fd5b846007886040516120139190613176565b9081526020016040518091039020819055505b6040518060a001604052808881526020018781526020018681526020018560600151815260200185608001518152506003886040516120659190613176565b908152602001604051809103902060008201518160000190816120889190613609565b50602082015181600101556040820151816002015560608201518160030190805190602001906120b9929190612574565b5060808201518160040190805190602001906120d69291906125fe565b50905050505050506120e66123f2565b505050565b6000806003836040516120fe9190613176565b9081526020016040518091039020600101546003846040516121209190613176565b90815260200160405180910390206002015491509150915091565b60196020528060005260406000206000915090505481565b701d6329f1c35ca4bfabb9f561000000000081565b60135481565b6121766123fb565b600073ffffffffffffffffffffffffffffffffffffffff168173ffffffffffffffffffffffffffffffffffffffff16036121e5576040517f08c379a00000000000000000000000000000000000000000000000000000000081526004016121dc9061397d565b60405180910390fd5b6121ee81612479565b50565b60186020528060005260406000206000915090505481565b600381805160208101820180518482526020830160208501208183528095505050505050600091509050806000018054612242906131eb565b80601f016020809104026020016040519081016040528092919081815260200182805461226e906131eb565b80156122bb5780601f10612290576101008083540402835291602001916122bb565b820191906000526020600020905b81548152906001019060200180831161229e57829003601f168201915b5050505050908060010154908060020154905083565b600260015403612316576040517f08c379a000000000000000000000000000000000000000000000000000000000815260040161230d906139e9565b60405180910390fd5b6002600181905550565b600061232a611500565b9050600f5481111561233e5780600f819055505b50565b60008273ffffffffffffffffffffffffffffffffffffffff168260405161236790613a3a565b60006040518083038185875af1925050503d80600081146123a4576040519150601f19603f3d011682016040523d82523d6000602084013e6123a9565b606091505b50509050806123ed576040517f08c379a00000000000000000000000000000000000000000000000000000000081526004016123e490613a9b565b60405180910390fd5b505050565b60018081905550565b61240361253d565b73ffffffffffffffffffffffffffffffffffffffff166124216113ad565b73ffffffffffffffffffffffffffffffffffffffff1614612477576040517f08c379a000000000000000000000000000000000000000000000000000000000815260040161246e90613b07565b60405180910390fd5b565b60008060009054906101000a900473ffffffffffffffffffffffffffffffffffffffff169050816000806101000a81548173ffffffffffffffffffffffffffffffffffffffff021916908373ffffffffffffffffffffffffffffffffffffffff1602179055508173ffffffffffffffffffffffffffffffffffffffff168173ffffffffffffffffffffffffffffffffffffffff167f8be0079c531659141344cd1fd0a4f28419497f9722a3daafe3b4186f6b6457e060405160405180910390a35050565b600033905090565b6040518060a0016040528060608152602001600081526020016000815260200160608152602001606081525090565b8280548282559060005260206000209081019282156125ed579160200282015b828111156125ec5782518260006101000a81548173ffffffffffffffffffffffffffffffffffffffff021916908373ffffffffffffffffffffffffffffffffffffffff16021790555091602001919060010190612594565b5b5090506125fa919061264b565b5090565b82805482825590600052602060002090810192821561263a579160200282015b8281111561263957825182559160200191906001019061261e565b5b509050612647919061264b565b5090565b5b8082111561266457600081600090555060010161264c565b5090565b6000604051905090565b600080fd5b600080fd5b6000819050919050565b61268f8161267c565b811461269a57600080fd5b50565b6000813590506126ac81612686565b92915050565b6000602082840312156126c8576126c7612672565b5b60006126d68482850161269d565b91505092915050565b6126e88161267c565b82525050565b600060208201905061270360008301846126df565b92915050565b600073ffffffffffffffffffffffffffffffffffffffff82169050919050565b600061273482612709565b9050919050565b61274481612729565b811461274f57600080fd5b50565b6000813590506127618161273b565b92915050565b60006020828403121561277d5761277c612672565b5b600061278b84828501612752565b91505092915050565b6000819050919050565b60006127b96127b46127af84612709565b612794565b612709565b9050919050565b60006127cb8261279e565b9050919050565b60006127dd826127c0565b9050919050565b6127ed816127d2565b82525050565b600060208201905061280860008301846127e4565b92915050565b61281781612729565b82525050565b6000602082019050612832600083018461280e565b92915050565b600080fd5b600080fd5b6000601f19601f8301169050919050565b7f4e487b7100000000000000000000000000000000000000000000000000000000600052604160045260246000fd5b61288b82612842565b810181811067ffffffffffffffff821117156128aa576128a9612853565b5b80604052505050565b60006128bd612668565b90506128c98282612882565b919050565b600067ffffffffffffffff8211156128e9576128e8612853565b5b6128f282612842565b9050602081019050919050565b82818337600083830152505050565b600061292161291c846128ce565b6128b3565b90508281526020810184848401111561293d5761293c61283d565b5b6129488482856128ff565b509392505050565b600082601f83011261296557612964612838565b5b813561297584826020860161290e565b91505092915050565b60006020828403121561299457612993612672565b5b600082013567ffffffffffffffff8111156129b2576129b1612677565b5b6129be84828501612950565b91505092915050565b600081519050919050565b600082825260208201905092915050565b6000819050602082019050919050565b6129fc81612729565b82525050565b6000612a0e83836129f3565b60208301905092915050565b6000602082019050919050565b6000612a32826129c7565b612a3c81856129d2565b9350612a47836129e3565b8060005b83811015612a78578151612a5f8882612a02565b9750612a6a83612a1a565b925050600181019050612a4b565b5085935050505092915050565b60006020820190508181036000830152612a9f8184612a27565b905092915050565b600067ffffffffffffffff821115612ac257612ac1612853565b5b602082029050602081019050919050565b600080fd5b6000612aeb612ae684612aa7565b6128b3565b90508083825260208201905060208402830185811115612b0e57612b0d612ad3565b5b835b81811015612b5557803567ffffffffffffffff811115612b3357612b32612838565b5b808601612b408982612950565b85526020850194505050602081019050612b10565b5050509392505050565b600082601f830112612b7457612b73612838565b5b8135612b84848260208601612ad8565b91505092915050565b600060208284031215612ba357612ba2612672565b5b600082013567ffffffffffffffff811115612bc157612bc0612677565b5b612bcd84828501612b5f565b91505092915050565b600080fd5b600080fd5b600067ffffffffffffffff821115612bfb57612bfa612853565b5b602082029050602081019050919050565b6000612c1f612c1a84612be0565b6128b3565b90508083825260208201905060208402830185811115612c4257612c41612ad3565b5b835b81811015612c6b5780612c578882612752565b845260208401935050602081019050612c44565b5050509392505050565b600082601f830112612c8a57612c89612838565b5b8135612c9a848260208601612c0c565b91505092915050565b600067ffffffffffffffff821115612cbe57612cbd612853565b5b602082029050602081019050919050565b6000612ce2612cdd84612ca3565b6128b3565b90508083825260208201905060208402830185811115612d0557612d04612ad3565b5b835b81811015612d2e5780612d1a888261269d565b845260208401935050602081019050612d07565b5050509392505050565b600082601f830112612d4d57612d4c612838565b5b8135612d5d848260208601612ccf565b91505092915050565b600060a08284031215612d7c57612d7b612bd6565b5b612d8660a06128b3565b9050600082013567ffffffffffffffff811115612da657612da5612bdb565b5b612db284828501612950565b6000830152506020612dc68482850161269d565b6020830152506040612dda8482850161269d565b604083015250606082013567ffffffffffffffff811115612dfe57612dfd612bdb565b5b612e0a84828501612c75565b606083015250608082013567ffffffffffffffff811115612e2e57612e2d612bdb565b5b612e3a84828501612d38565b60808301525092915050565b600060208284031215612e5c57612e5b612672565b5b600082013567ffffffffffffffff811115612e7a57612e79612677565b5b612e8684828501612d66565b91505092915050565b60008060408385031215612ea657612ea5612672565b5b6000612eb485828601612752565b9250506020612ec58582860161269d565b9150509250929050565b60008115159050919050565b612ee481612ecf565b82525050565b6000602082019050612eff6000830184612edb565b92915050565b600081519050919050565b600082825260208201905092915050565b6000819050602082019050919050565b612f3a8161267c565b82525050565b6000612f4c8383612f31565b60208301905092915050565b6000602082019050919050565b6000612f7082612f05565b612f7a8185612f10565b9350612f8583612f21565b8060005b83811015612fb6578151612f9d8882612f40565b9750612fa883612f58565b925050600181019050612f89565b5085935050505092915050565b60006020820190508181036000830152612fdd8184612f65565b905092915050565b600080600060608486031215612ffe57612ffd612672565b5b600084013567ffffffffffffffff81111561301c5761301b612677565b5b61302886828701612950565b93505060206130398682870161269d565b925050604061304a8682870161269d565b9150509250925092565b600060408201905061306960008301856126df565b61307660208301846126df565b9392505050565b600081519050919050565b600082825260208201905092915050565b60005b838110156130b757808201518184015260208101905061309c565b60008484015250505050565b60006130ce8261307d565b6130d88185613088565b93506130e8818560208601613099565b6130f181612842565b840191505092915050565b6000606082019050818103600083015261311681866130c3565b905061312560208301856126df565b61313260408301846126df565b949350505050565b600081905092915050565b60006131508261307d565b61315a818561313a565b935061316a818560208601613099565b80840191505092915050565b60006131828284613145565b915081905092915050565b7f4e487b7100000000000000000000000000000000000000000000000000000000600052603260045260246000fd5b7f4e487b7100000000000000000000000000000000000000000000000000000000600052602260045260246000fd5b6000600282049050600182168061320357607f821691505b602082108103613216576132156131bc565b5b50919050565b7f4e487b7100000000000000000000000000000000000000000000000000000000600052601160045260246000fd5b60006132568261267c565b91506132618361267c565b925082820261326f8161267c565b915082820484148315176132865761328561321c565b5b5092915050565b60006132988261267c565b91506132a38361267c565b92508282019050808211156132bb576132ba61321c565b5b92915050565b60006132cc8261267c565b91507fffffffffffffffffffffffffffffffffffffffffffffffffffffffffffffffff82036132fe576132fd61321c565b5b600182019050919050565b7f49424c3a20596f75206d7573742073656e642065786163742076616c75652100600082015250565b600061333f601f83613088565b915061334a82613309565b602082019050919050565b6000602082019050818103600083015261336e81613332565b9050919050565b7f4e487b7100000000000000000000000000000000000000000000000000000000600052601260045260246000fd5b60006133af8261267c565b91506133ba8361267c565b9250826133ca576133c9613375565b5b828204905092915050565b7f49424c3a20596f75206d75737420706179207075626c69636174696f6e20666560008201527f6521000000000000000000000000000000000000000000000000000000000000602082015250565b6000613431602283613088565b915061343c826133d5565b604082019050919050565b6000602082019050818103600083015261346081613424565b9050919050565b60008190508160005260206000209050919050565b60006020601f8301049050919050565b600082821b905092915050565b6000600883026134c97fffffffffffffffffffffffffffffffffffffffffffffffffffffffffffffffff8261348c565b6134d3868361348c565b95508019841693508086168417925050509392505050565b60006135066135016134fc8461267c565b612794565b61267c565b9050919050565b6000819050919050565b613520836134eb565b61353461352c8261350d565b848454613499565b825550505050565b600090565b61354961353c565b613554818484613517565b505050565b5b818110156135785761356d600082613541565b60018101905061355a565b5050565b601f8211156135bd5761358e81613467565b6135978461347c565b810160208510156135a6578190505b6135ba6135b28561347c565b830182613559565b50505b505050565b600082821c905092915050565b60006135e0600019846008026135c2565b1980831691505092915050565b60006135f983836135cf565b9150826002028217905092915050565b6136128261307d565b67ffffffffffffffff81111561362b5761362a612853565b5b61363582546131eb565b61364082828561357c565b600060209050601f8311600181146136735760008415613661578287015190505b61366b85826135ed565b8655506136d3565b601f19841661368186613467565b60005b828110156136a957848901518255600182019150602085019450602081019050613684565b868310156136c657848901516136c2601f8916826135cf565b8355505b6001600288020188555050505b505050505050565b60006136e68261267c565b91506136f18361267c565b92508282039050818111156137095761370861321c565b5b92915050565b7f49424c3a20596f7520646f206e6f742068617665206665657300000000000000600082015250565b6000613745601983613088565b91506137508261370f565b602082019050919050565b6000602082019050818103600083015261377481613738565b9050919050565b7f444258656e3a20616d6f756e74206973207a65726f0000000000000000000000600082015250565b60006137b1601583613088565b91506137bc8261377b565b602082019050919050565b600060208201905081810360008301526137e0816137a4565b9050919050565b7f49424c3a20596f752063616e6e6f74207570646174652074686520707269636560008201527f206265636175736520796f7520617265206e6f7420746865206f776e65720000602082015250565b6000613843603e83613088565b915061384e826137e7565b604082019050919050565b6000602082019050818103600083015261387281613836565b9050919050565b7f49424c3a20796f75206d7573742073656e64207468652066656520696e20636f60008201527f6e74726163742100000000000000000000000000000000000000000000000000602082015250565b60006138d5602783613088565b91506138e082613879565b604082019050919050565b60006020820190508181036000830152613904816138c8565b9050919050565b7f4f776e61626c653a206e6577206f776e657220697320746865207a65726f206160008201527f6464726573730000000000000000000000000000000000000000000000000000602082015250565b6000613967602683613088565b91506139728261390b565b604082019050919050565b600060208201905081810360008301526139968161395a565b9050919050565b7f5265656e7472616e637947756172643a207265656e7472616e742063616c6c00600082015250565b60006139d3601f83613088565b91506139de8261399d565b602082019050919050565b60006020820190508181036000830152613a02816139c6565b9050919050565b600081905092915050565b50565b6000613a24600083613a09565b9150613a2f82613a14565b600082019050919050565b6000613a4582613a17565b9150819050919050565b7f444258656e3a206661696c656420746f2073656e6420616d6f756e7400000000600082015250565b6000613a85601c83613088565b9150613a9082613a4f565b602082019050919050565b60006020820190508181036000830152613ab481613a78565b9050919050565b7f4f776e61626c653a2063616c6c6572206973206e6f7420746865206f776e6572600082015250565b6000613af1602083613088565b9150613afc82613abb565b602082019050919050565b60006020820190508181036000830152613b2081613ae4565b905091905056fea26469706673582212205a7a3bce9c8a2ccff6be77145d1496874cb5731f314988798f685fbc34ab98d164736f6c6343000812003360a06040523480156200001157600080fd5b506040518060400160405280601081526020017f49424c2052657761726420746f6b656e000000000000000000000000000000008152506040518060400160405280600381526020017f49424c000000000000000000000000000000000000000000000000000000000081525081600390816200008f919062000358565b508060049081620000a1919062000358565b5050503373ffffffffffffffffffffffffffffffffffffffff1660808173ffffffffffffffffffffffffffffffffffffffff16815250506200043f565b600081519050919050565b7f4e487b7100000000000000000000000000000000000000000000000000000000600052604160045260246000fd5b7f4e487b7100000000000000000000000000000000000000000000000000000000600052602260045260246000fd5b600060028204905060018216806200016057607f821691505b60208210810362000176576200017562000118565b5b50919050565b60008190508160005260206000209050919050565b60006020601f8301049050919050565b600082821b905092915050565b600060088302620001e07fffffffffffffffffffffffffffffffffffffffffffffffffffffffffffffffff82620001a1565b620001ec8683620001a1565b95508019841693508086168417925050509392505050565b6000819050919050565b6000819050919050565b600062000239620002336200022d8462000204565b6200020e565b62000204565b9050919050565b6000819050919050565b620002558362000218565b6200026d620002648262000240565b848454620001ae565b825550505050565b600090565b6200028462000275565b620002918184846200024a565b505050565b5b81811015620002b957620002ad6000826200027a565b60018101905062000297565b5050565b601f8211156200030857620002d2816200017c565b620002dd8462000191565b81016020851015620002ed578190505b62000305620002fc8562000191565b83018262000296565b50505b505050565b600082821c905092915050565b60006200032d600019846008026200030d565b1980831691505092915050565b60006200034883836200031a565b9150826002028217905092915050565b6200036382620000de565b67ffffffffffffffff8111156200037f576200037e620000e9565b5b6200038b825462000147565b62000398828285620002bd565b600060209050601f831160018114620003d05760008415620003bb578287015190505b620003c785826200033a565b86555062000437565b601f198416620003e0866200017c565b60005b828110156200040a57848901518255600182019150602085019450602081019050620003e3565b868310156200042a578489015162000426601f8916826200031a565b8355505b6001600288020188555050505b505050505050565b6080516115a7620004626000396000818161044e015261050401526115a76000f3fe608060405234801561001057600080fd5b50600436106100cf5760003560e01c806370a082311161008c5780639a49090e116100665780639a49090e1461022a578063a457c2d714610246578063a9059cbb14610276578063dd62ed3e146102a6576100cf565b806370a08231146101be5780638da5cb5b146101ee57806395d89b411461020c576100cf565b806306fdde03146100d4578063095ea7b3146100f257806318160ddd1461012257806323b872dd14610140578063313ce56714610170578063395093511461018e575b600080fd5b6100dc6102d6565b6040516100e99190610d82565b60405180910390f35b61010c60048036038101906101079190610e3d565b610368565b6040516101199190610e98565b60405180910390f35b61012a61038b565b6040516101379190610ec2565b60405180910390f35b61015a60048036038101906101559190610edd565b610395565b6040516101679190610e98565b60405180910390f35b6101786103c4565b6040516101859190610f4c565b60405180910390f35b6101a860048036038101906101a39190610e3d565b6103cd565b6040516101b59190610e98565b60405180910390f35b6101d860048036038101906101d39190610f67565b610404565b6040516101e59190610ec2565b60405180910390f35b6101f661044c565b6040516102039190610fa3565b60405180910390f35b610214610470565b6040516102219190610d82565b60405180910390f35b610244600480360381019061023f9190610e3d565b610502565b005b610260600480360381019061025b9190610e3d565b61059e565b60405161026d9190610e98565b60405180910390f35b610290600480360381019061028b9190610e3d565b610615565b60405161029d9190610e98565b60405180910390f35b6102c060048036038101906102bb9190610fbe565b610638565b6040516102cd9190610ec2565b60405180910390f35b6060600380546102e59061102d565b80601f01602080910402602001604051908101604052809291908181526020018280546103119061102d565b801561035e5780601f106103335761010080835404028352916020019161035e565b820191906000526020600020905b81548152906001019060200180831161034157829003601f168201915b5050505050905090565b6000806103736106bf565b90506103808185856106c7565b600191505092915050565b6000600254905090565b6000806103a06106bf565b90506103ad858285610890565b6103b885858561091c565b60019150509392505050565b60006012905090565b6000806103d86106bf565b90506103f98185856103ea8589610638565b6103f4919061108d565b6106c7565b600191505092915050565b60008060008373ffffffffffffffffffffffffffffffffffffffff1673ffffffffffffffffffffffffffffffffffffffff168152602001908152602001600020549050919050565b7f000000000000000000000000000000000000000000000000000000000000000081565b60606004805461047f9061102d565b80601f01602080910402602001604051908101604052809291908181526020018280546104ab9061102d565b80156104f85780601f106104cd576101008083540402835291602001916104f8565b820191906000526020600020905b8154815290600101906020018083116104db57829003601f168201915b5050505050905090565b7f000000000000000000000000000000000000000000000000000000000000000073ffffffffffffffffffffffffffffffffffffffff163373ffffffffffffffffffffffffffffffffffffffff1614610590576040517f08c379a00000000000000000000000000000000000000000000000000000000081526004016105879061110d565b60405180910390fd5b61059a8282610b92565b5050565b6000806105a96106bf565b905060006105b78286610638565b9050838110156105fc576040517f08c379a00000000000000000000000000000000000000000000000000000000081526004016105f39061119f565b60405180910390fd5b61060982868684036106c7565b60019250505092915050565b6000806106206106bf565b905061062d81858561091c565b600191505092915050565b6000600160008473ffffffffffffffffffffffffffffffffffffffff1673ffffffffffffffffffffffffffffffffffffffff16815260200190815260200160002060008373ffffffffffffffffffffffffffffffffffffffff1673ffffffffffffffffffffffffffffffffffffffff16815260200190815260200160002054905092915050565b600033905090565b600073ffffffffffffffffffffffffffffffffffffffff168373ffffffffffffffffffffffffffffffffffffffff1603610736576040517f08c379a000000000000000000000000000000000000000000000000000000000815260040161072d90611231565b60405180910390fd5b600073ffffffffffffffffffffffffffffffffffffffff168273ffffffffffffffffffffffffffffffffffffffff16036107a5576040517f08c379a000000000000000000000000000000000000000000000000000000000815260040161079c906112c3565b60405180910390fd5b80600160008573ffffffffffffffffffffffffffffffffffffffff1673ffffffffffffffffffffffffffffffffffffffff16815260200190815260200160002060008473ffffffffffffffffffffffffffffffffffffffff1673ffffffffffffffffffffffffffffffffffffffff168152602001908152602001600020819055508173ffffffffffffffffffffffffffffffffffffffff168373ffffffffffffffffffffffffffffffffffffffff167f8c5be1e5ebec7d5bd14f71427d1e84f3dd0314c0f7b2291e5b200ac8c7c3b925836040516108839190610ec2565b60405180910390a3505050565b600061089c8484610638565b90507fffffffffffffffffffffffffffffffffffffffffffffffffffffffffffffffff81146109165781811015610908576040517f08c379a00000000000000000000000000000000000000000000000000000000081526004016108ff9061132f565b60405180910390fd5b61091584848484036106c7565b5b50505050565b600073ffffffffffffffffffffffffffffffffffffffff168373ffffffffffffffffffffffffffffffffffffffff160361098b576040517f08c379a0000000000000000000000000000000000000000000000000000000008152600401610982906113c1565b60405180910390fd5b600073ffffffffffffffffffffffffffffffffffffffff168273ffffffffffffffffffffffffffffffffffffffff16036109fa576040517f08c379a00000000000000000000000000000000000000000000000000000000081526004016109f190611453565b60405180910390fd5b610a05838383610ce8565b60008060008573ffffffffffffffffffffffffffffffffffffffff1673ffffffffffffffffffffffffffffffffffffffff16815260200190815260200160002054905081811015610a8b576040517f08c379a0000000000000000000000000000000000000000000000000000000008152600401610a82906114e5565b60405180910390fd5b8181036000808673ffffffffffffffffffffffffffffffffffffffff1673ffffffffffffffffffffffffffffffffffffffff16815260200190815260200160002081905550816000808573ffffffffffffffffffffffffffffffffffffffff1673ffffffffffffffffffffffffffffffffffffffff168152602001908152602001600020600082825401925050819055508273ffffffffffffffffffffffffffffffffffffffff168473ffffffffffffffffffffffffffffffffffffffff167fddf252ad1be2c89b69c2b068fc378daa952ba7f163c4a11628f55a4df523b3ef84604051610b799190610ec2565b60405180910390a3610b8c848484610ced565b50505050565b600073ffffffffffffffffffffffffffffffffffffffff168273ffffffffffffffffffffffffffffffffffffffff1603610c01576040517f08c379a0000000000000000000000000000000000000000000000000000000008152600401610bf890611551565b60405180910390fd5b610c0d60008383610ce8565b8060026000828254610c1f919061108d565b92505081905550806000808473ffffffffffffffffffffffffffffffffffffffff1673ffffffffffffffffffffffffffffffffffffffff168152602001908152602001600020600082825401925050819055508173ffffffffffffffffffffffffffffffffffffffff16600073ffffffffffffffffffffffffffffffffffffffff167fddf252ad1be2c89b69c2b068fc378daa952ba7f163c4a11628f55a4df523b3ef83604051610cd09190610ec2565b60405180910390a3610ce460008383610ced565b5050565b505050565b505050565b600081519050919050565b600082825260208201905092915050565b60005b83811015610d2c578082015181840152602081019050610d11565b60008484015250505050565b6000601f19601f8301169050919050565b6000610d5482610cf2565b610d5e8185610cfd565b9350610d6e818560208601610d0e565b610d7781610d38565b840191505092915050565b60006020820190508181036000830152610d9c8184610d49565b905092915050565b600080fd5b600073ffffffffffffffffffffffffffffffffffffffff82169050919050565b6000610dd482610da9565b9050919050565b610de481610dc9565b8114610def57600080fd5b50565b600081359050610e0181610ddb565b92915050565b6000819050919050565b610e1a81610e07565b8114610e2557600080fd5b50565b600081359050610e3781610e11565b92915050565b60008060408385031215610e5457610e53610da4565b5b6000610e6285828601610df2565b9250506020610e7385828601610e28565b9150509250929050565b60008115159050919050565b610e9281610e7d565b82525050565b6000602082019050610ead6000830184610e89565b92915050565b610ebc81610e07565b82525050565b6000602082019050610ed76000830184610eb3565b92915050565b600080600060608486031215610ef657610ef5610da4565b5b6000610f0486828701610df2565b9350506020610f1586828701610df2565b9250506040610f2686828701610e28565b9150509250925092565b600060ff82169050919050565b610f4681610f30565b82525050565b6000602082019050610f616000830184610f3d565b92915050565b600060208284031215610f7d57610f7c610da4565b5b6000610f8b84828501610df2565b91505092915050565b610f9d81610dc9565b82525050565b6000602082019050610fb86000830184610f94565b92915050565b60008060408385031215610fd557610fd4610da4565b5b6000610fe385828601610df2565b9250506020610ff485828601610df2565b9150509250929050565b7f4e487b7100000000000000000000000000000000000000000000000000000000600052602260045260246000fd5b6000600282049050600182168061104557607f821691505b60208210810361105857611057610ffe565b5b50919050565b7f4e487b7100000000000000000000000000000000000000000000000000000000600052601160045260246000fd5b600061109882610e07565b91506110a383610e07565b92508282019050808211156110bb576110ba61105e565b5b92915050565b7f49424c3a2063616c6c6572206973206e6f742049424c20636f6e74726163742e600082015250565b60006110f7602083610cfd565b9150611102826110c1565b602082019050919050565b60006020820190508181036000830152611126816110ea565b9050919050565b7f45524332303a2064656372656173656420616c6c6f77616e63652062656c6f7760008201527f207a65726f000000000000000000000000000000000000000000000000000000602082015250565b6000611189602583610cfd565b91506111948261112d565b604082019050919050565b600060208201905081810360008301526111b88161117c565b9050919050565b7f45524332303a20617070726f76652066726f6d20746865207a65726f2061646460008201527f7265737300000000000000000000000000000000000000000000000000000000602082015250565b600061121b602483610cfd565b9150611226826111bf565b604082019050919050565b6000602082019050818103600083015261124a8161120e565b9050919050565b7f45524332303a20617070726f766520746f20746865207a65726f20616464726560008201527f7373000000000000000000000000000000000000000000000000000000000000602082015250565b60006112ad602283610cfd565b91506112b882611251565b604082019050919050565b600060208201905081810360008301526112dc816112a0565b9050919050565b7f45524332303a20696e73756666696369656e7420616c6c6f77616e6365000000600082015250565b6000611319601d83610cfd565b9150611324826112e3565b602082019050919050565b600060208201905081810360008301526113488161130c565b9050919050565b7f45524332303a207472616e736665722066726f6d20746865207a65726f20616460008201527f6472657373000000000000000000000000000000000000000000000000000000602082015250565b60006113ab602583610cfd565b91506113b68261134f565b604082019050919050565b600060208201905081810360008301526113da8161139e565b9050919050565b7f45524332303a207472616e7366657220746f20746865207a65726f206164647260008201527f6573730000000000000000000000000000000000000000000000000000000000602082015250565b600061143d602383610cfd565b9150611448826113e1565b604082019050919050565b6000602082019050818103600083015261146c81611430565b9050919050565b7f45524332303a207472616e7366657220616d6f756e742065786365656473206260008201527f616c616e63650000000000000000000000000000000000000000000000000000602082015250565b60006114cf602683610cfd565b91506114da82611473565b604082019050919050565b600060208201905081810360008301526114fe816114c2565b9050919050565b7f45524332303a206d696e7420746f20746865207a65726f206164647265737300600082015250565b600061153b601f83610cfd565b915061154682611505565b602082019050919050565b6000602082019050818103600083015261156a8161152e565b905091905056fea26469706673582212205a3067c46e09df399be094e80c9fb25d65ba159c1ca86528e25bb038e649aaaa64736f6c63430008120033",
  "linkReferences": {},
  "deployedLinkReferences": {}
}