{
  "_format": "hh-sol-artifact-1",
  "contractName": "IBL",
  "sourceName": "contracts/IBL.sol",
  "abi": [
    {
      "inputs": [
        {
          "internalType": "address",
          "name": "_devAddress",
          "type": "address"
        }
      ],
      "stateMutability": "nonpayable",
      "type": "constructor"
    },
    {
      "anonymous": false,
      "inputs": [
        {
          "indexed": true,
          "internalType": "uint256",
          "name": "cycle",
          "type": "uint256"
        },
        {
          "indexed": true,
          "internalType": "address",
          "name": "account",
          "type": "address"
        },
        {
          "indexed": false,
          "internalType": "uint256",
          "name": "fees",
          "type": "uint256"
        }
      ],
      "name": "FeesClaimed",
      "type": "event"
    },
    {
      "anonymous": false,
      "inputs": [
        {
          "indexed": true,
          "internalType": "address",
          "name": "previousOwner",
          "type": "address"
        },
        {
          "indexed": true,
          "internalType": "address",
          "name": "newOwner",
          "type": "address"
        }
      ],
      "name": "OwnershipTransferred",
      "type": "event"
    },
    {
      "inputs": [],
      "name": "IBL_TEAM_FEE",
      "outputs": [
        {
          "internalType": "uint256",
          "name": "",
          "type": "uint256"
        }
      ],
      "stateMutability": "view",
      "type": "function"
    },
    {
      "inputs": [],
      "name": "POOL_FEE",
      "outputs": [
        {
          "internalType": "uint256",
          "name": "",
          "type": "uint256"
        }
      ],
      "stateMutability": "view",
      "type": "function"
    },
    {
      "inputs": [],
      "name": "SCALING_FACTOR",
      "outputs": [
        {
          "internalType": "uint256",
          "name": "",
          "type": "uint256"
        }
      ],
      "stateMutability": "view",
      "type": "function"
    },
    {
      "inputs": [
        {
          "internalType": "address",
          "name": "",
          "type": "address"
        }
      ],
      "name": "accAccruedFees",
      "outputs": [
        {
          "internalType": "uint256",
          "name": "",
          "type": "uint256"
        }
      ],
      "stateMutability": "view",
      "type": "function"
    },
    {
      "inputs": [
        {
          "internalType": "address",
          "name": "",
          "type": "address"
        }
      ],
      "name": "accCycleBatchesBurned",
      "outputs": [
        {
          "internalType": "uint256",
          "name": "",
          "type": "uint256"
        }
      ],
      "stateMutability": "view",
      "type": "function"
    },
    {
      "inputs": [
        {
          "internalType": "address",
          "name": "",
          "type": "address"
        }
      ],
      "name": "accFirstStake",
      "outputs": [
        {
          "internalType": "uint256",
          "name": "",
          "type": "uint256"
        }
      ],
      "stateMutability": "view",
      "type": "function"
    },
    {
      "inputs": [
        {
          "internalType": "address",
          "name": "",
          "type": "address"
        }
      ],
      "name": "accRewards",
      "outputs": [
        {
          "internalType": "uint256",
          "name": "",
          "type": "uint256"
        }
      ],
      "stateMutability": "view",
      "type": "function"
    },
    {
      "inputs": [
        {
          "internalType": "address",
          "name": "",
          "type": "address"
        }
      ],
      "name": "accSecondStake",
      "outputs": [
        {
          "internalType": "uint256",
          "name": "",
          "type": "uint256"
        }
      ],
      "stateMutability": "view",
      "type": "function"
    },
    {
      "inputs": [
        {
          "internalType": "address",
          "name": "",
          "type": "address"
        },
        {
          "internalType": "uint256",
          "name": "",
          "type": "uint256"
        }
      ],
      "name": "accStakeCycle",
      "outputs": [
        {
          "internalType": "uint256",
          "name": "",
          "type": "uint256"
        }
      ],
      "stateMutability": "view",
      "type": "function"
    },
    {
      "inputs": [
        {
          "internalType": "address",
          "name": "",
          "type": "address"
        }
      ],
      "name": "accWithdrawableStake",
      "outputs": [
        {
          "internalType": "uint256",
          "name": "",
          "type": "uint256"
        }
      ],
      "stateMutability": "view",
      "type": "function"
    },
    {
      "inputs": [],
      "name": "accruedFees",
      "outputs": [
        {
          "internalType": "uint256",
          "name": "",
          "type": "uint256"
        }
      ],
      "stateMutability": "view",
      "type": "function"
    },
    {
      "inputs": [
        {
          "components": [
            {
              "internalType": "string",
              "name": "id",
              "type": "string"
            },
            {
              "internalType": "uint256",
              "name": "runPrice",
              "type": "uint256"
            },
            {
              "internalType": "uint256",
              "name": "downloadPrice",
              "type": "uint256"
            },
            {
              "internalType": "address[]",
              "name": "owners",
              "type": "address[]"
            },
            {
              "internalType": "uint256[]",
              "name": "procentages",
              "type": "uint256[]"
            }
          ],
          "internalType": "struct IBL.Component",
          "name": "component",
          "type": "tuple"
        }
      ],
      "name": "addComponent",
      "outputs": [],
      "stateMutability": "payable",
      "type": "function"
    },
    {
      "inputs": [
        {
          "internalType": "uint256",
          "name": "",
          "type": "uint256"
        }
      ],
      "name": "alreadyUpdateCycleData",
      "outputs": [
        {
          "internalType": "bool",
          "name": "",
          "type": "bool"
        }
      ],
      "stateMutability": "view",
      "type": "function"
    },
    {
      "inputs": [
        {
          "internalType": "address",
          "name": "",
          "type": "address"
        }
      ],
      "name": "builderReward",
      "outputs": [
        {
          "internalType": "uint256",
          "name": "",
          "type": "uint256"
        }
      ],
      "stateMutability": "view",
      "type": "function"
    },
    {
      "inputs": [],
      "name": "claimComponentOwnerFees",
      "outputs": [],
      "stateMutability": "nonpayable",
      "type": "function"
    },
    {
      "inputs": [],
      "name": "claimFees",
      "outputs": [],
      "stateMutability": "nonpayable",
      "type": "function"
    },
    {
      "inputs": [],
      "name": "claimRewards",
      "outputs": [],
      "stateMutability": "nonpayable",
      "type": "function"
    },
    {
      "inputs": [
        {
          "internalType": "string",
          "name": "",
          "type": "string"
        }
      ],
      "name": "componentData",
      "outputs": [
        {
          "internalType": "string",
          "name": "id",
          "type": "string"
        },
        {
          "internalType": "uint256",
          "name": "runPrice",
          "type": "uint256"
        },
        {
          "internalType": "uint256",
          "name": "downloadPrice",
          "type": "uint256"
        }
      ],
      "stateMutability": "view",
      "type": "function"
    },
    {
      "inputs": [],
      "name": "currentCycle",
      "outputs": [
        {
          "internalType": "uint256",
          "name": "",
          "type": "uint256"
        }
      ],
      "stateMutability": "view",
      "type": "function"
    },
    {
      "inputs": [],
      "name": "currentStartedCycle",
      "outputs": [
        {
          "internalType": "uint256",
          "name": "",
          "type": "uint256"
        }
      ],
      "stateMutability": "view",
      "type": "function"
    },
    {
      "inputs": [
        {
          "internalType": "uint256",
          "name": "",
          "type": "uint256"
        }
      ],
      "name": "cycleAccruedFees",
      "outputs": [
        {
          "internalType": "uint256",
          "name": "",
          "type": "uint256"
        }
      ],
      "stateMutability": "view",
      "type": "function"
    },
    {
      "inputs": [
        {
          "internalType": "uint256",
          "name": "",
          "type": "uint256"
        }
      ],
      "name": "cycleFeesPerStakeSummed",
      "outputs": [
        {
          "internalType": "uint256",
          "name": "",
          "type": "uint256"
        }
      ],
      "stateMutability": "view",
      "type": "function"
    },
    {
      "inputs": [
        {
          "internalType": "uint256",
          "name": "",
          "type": "uint256"
        }
      ],
      "name": "cycleTotalBatchesBurned",
      "outputs": [
        {
          "internalType": "uint256",
          "name": "",
          "type": "uint256"
        }
      ],
      "stateMutability": "view",
      "type": "function"
    },
    {
      "inputs": [],
      "name": "devAddress",
      "outputs": [
        {
          "internalType": "address",
          "name": "",
          "type": "address"
        }
      ],
      "stateMutability": "view",
      "type": "function"
    },
    {
      "inputs": [
        {
          "internalType": "string[]",
          "name": "componentsIds",
          "type": "string[]"
        }
      ],
      "name": "downlodApplication",
      "outputs": [],
      "stateMutability": "payable",
      "type": "function"
    },
    {
      "inputs": [],
      "name": "getCurrentCycle",
      "outputs": [
        {
          "internalType": "uint256",
          "name": "",
          "type": "uint256"
        }
      ],
      "stateMutability": "view",
      "type": "function"
    },
    {
      "inputs": [
        {
          "internalType": "string",
          "name": "id",
          "type": "string"
        }
      ],
      "name": "getFees",
      "outputs": [
        {
          "internalType": "uint256",
          "name": "",
          "type": "uint256"
        },
        {
          "internalType": "uint256",
          "name": "",
          "type": "uint256"
        }
      ],
      "stateMutability": "view",
      "type": "function"
    },
    {
      "inputs": [
        {
          "internalType": "string",
          "name": "id",
          "type": "string"
        }
      ],
      "name": "getOwnersForComponent",
      "outputs": [
        {
          "internalType": "address[]",
          "name": "",
          "type": "address[]"
        }
      ],
      "stateMutability": "view",
      "type": "function"
    },
    {
      "inputs": [
        {
          "internalType": "string",
          "name": "id",
          "type": "string"
        }
      ],
      "name": "getProcentagesForComponent",
      "outputs": [
        {
          "internalType": "uint256[]",
          "name": "",
          "type": "uint256[]"
        }
      ],
      "stateMutability": "view",
      "type": "function"
    },
    {
      "inputs": [],
      "name": "i_initialTimestamp",
      "outputs": [
        {
          "internalType": "uint256",
          "name": "",
          "type": "uint256"
        }
      ],
      "stateMutability": "view",
      "type": "function"
    },
    {
      "inputs": [],
      "name": "i_periodDuration",
      "outputs": [
        {
          "internalType": "uint256",
          "name": "",
          "type": "uint256"
        }
      ],
      "stateMutability": "view",
      "type": "function"
    },
    {
      "inputs": [],
      "name": "ibl",
      "outputs": [
        {
          "internalType": "contract IBLERC20",
          "name": "",
          "type": "address"
        }
      ],
      "stateMutability": "view",
      "type": "function"
    },
    {
      "inputs": [
        {
          "internalType": "address",
          "name": "",
          "type": "address"
        }
      ],
      "name": "lastActiveCycle",
      "outputs": [
        {
          "internalType": "uint256",
          "name": "",
          "type": "uint256"
        }
      ],
      "stateMutability": "view",
      "type": "function"
    },
    {
      "inputs": [],
      "name": "lastCycleReward",
      "outputs": [
        {
          "internalType": "uint256",
          "name": "",
          "type": "uint256"
        }
      ],
      "stateMutability": "view",
      "type": "function"
    },
    {
      "inputs": [
        {
          "internalType": "address",
          "name": "",
          "type": "address"
        }
      ],
      "name": "lastFeeUpdateCycle",
      "outputs": [
        {
          "internalType": "uint256",
          "name": "",
          "type": "uint256"
        }
      ],
      "stateMutability": "view",
      "type": "function"
    },
    {
      "inputs": [
        {
          "internalType": "string",
          "name": "",
          "type": "string"
        }
      ],
      "name": "lastHighestDownloadPrice",
      "outputs": [
        {
          "internalType": "uint256",
          "name": "",
          "type": "uint256"
        }
      ],
      "stateMutability": "view",
      "type": "function"
    },
    {
      "inputs": [],
      "name": "lastStartedCycle",
      "outputs": [
        {
          "internalType": "uint256",
          "name": "",
          "type": "uint256"
        }
      ],
      "stateMutability": "view",
      "type": "function"
    },
    {
      "inputs": [],
      "name": "owner",
      "outputs": [
        {
          "internalType": "address",
          "name": "",
          "type": "address"
        }
      ],
      "stateMutability": "view",
      "type": "function"
    },
    {
      "inputs": [
        {
          "internalType": "address",
          "name": "",
          "type": "address"
        }
      ],
      "name": "ownerNativeFeeAcc",
      "outputs": [
        {
          "internalType": "uint256",
          "name": "",
          "type": "uint256"
        }
      ],
      "stateMutability": "view",
      "type": "function"
    },
    {
      "inputs": [],
      "name": "pendingStake",
      "outputs": [
        {
          "internalType": "uint256",
          "name": "",
          "type": "uint256"
        }
      ],
      "stateMutability": "view",
      "type": "function"
    },
    {
      "inputs": [],
      "name": "pendingStakeWithdrawal",
      "outputs": [
        {
          "internalType": "uint256",
          "name": "",
          "type": "uint256"
        }
      ],
      "stateMutability": "view",
      "type": "function"
    },
    {
      "inputs": [],
      "name": "previousStartedCycle",
      "outputs": [
        {
          "internalType": "uint256",
          "name": "",
          "type": "uint256"
        }
      ],
      "stateMutability": "view",
      "type": "function"
    },
    {
      "inputs": [],
      "name": "renounceOwnership",
      "outputs": [],
      "stateMutability": "nonpayable",
      "type": "function"
    },
    {
      "inputs": [
        {
          "internalType": "uint256",
          "name": "",
          "type": "uint256"
        }
      ],
      "name": "rewardPerCycle",
      "outputs": [
        {
          "internalType": "uint256",
          "name": "",
          "type": "uint256"
        }
      ],
      "stateMutability": "view",
      "type": "function"
    },
    {
      "inputs": [
        {
          "internalType": "string[]",
          "name": "componentsIds",
          "type": "string[]"
        }
      ],
      "name": "runApplication",
      "outputs": [],
      "stateMutability": "payable",
      "type": "function"
    },
    {
      "inputs": [
        {
          "internalType": "address",
          "name": "_devAddress",
          "type": "address"
        }
      ],
      "name": "setDevAddress",
      "outputs": [],
      "stateMutability": "nonpayable",
      "type": "function"
    },
    {
      "inputs": [
        {
          "internalType": "string",
          "name": "id",
          "type": "string"
        },
        {
          "internalType": "uint256",
          "name": "newRunPrice",
          "type": "uint256"
        },
        {
          "internalType": "uint256",
          "name": "newDownloadPrice",
          "type": "uint256"
        }
      ],
      "name": "setNewPrice",
      "outputs": [],
      "stateMutability": "payable",
      "type": "function"
    },
    {
      "inputs": [
        {
          "internalType": "uint256",
          "name": "amount",
          "type": "uint256"
        }
      ],
      "name": "stake",
      "outputs": [],
      "stateMutability": "nonpayable",
      "type": "function"
    },
    {
      "inputs": [
        {
          "internalType": "uint256",
          "name": "",
          "type": "uint256"
        }
      ],
      "name": "summedCycleStakes",
      "outputs": [
        {
          "internalType": "uint256",
          "name": "",
          "type": "uint256"
        }
      ],
      "stateMutability": "view",
      "type": "function"
    },
    {
      "inputs": [],
      "name": "totalNumberOfBatchesBurned",
      "outputs": [
        {
          "internalType": "uint256",
          "name": "",
          "type": "uint256"
        }
      ],
      "stateMutability": "view",
      "type": "function"
    },
    {
      "inputs": [
        {
          "internalType": "address",
          "name": "newOwner",
          "type": "address"
        }
      ],
      "name": "transferOwnership",
      "outputs": [],
      "stateMutability": "nonpayable",
      "type": "function"
    },
    {
      "inputs": [
        {
          "internalType": "uint256",
          "name": "amount",
          "type": "uint256"
        }
      ],
      "name": "unstake",
      "outputs": [],
      "stateMutability": "nonpayable",
      "type": "function"
    }
  ],
  "bytecode": "0x60c06040526101f4600b5561251c600c553480156200001d57600080fd5b506040516200782c3803806200782c833981810160405281019062000043919062000275565b62000063620000576200013160201b60201c565b6200013960201b60201c565b600180819055506040516200007890620001fd565b604051809103906000f08015801562000095573d6000803e3d6000fd5b50600260006101000a81548173ffffffffffffffffffffffffffffffffffffffff021916908373ffffffffffffffffffffffffffffffffffffffff16021790555080600d60006101000a81548173ffffffffffffffffffffffffffffffffffffffff021916908373ffffffffffffffffffffffffffffffffffffffff16021790555042608081815250506201518060a0818152505050620002a7565b600033905090565b60008060009054906101000a900473ffffffffffffffffffffffffffffffffffffffff169050816000806101000a81548173ffffffffffffffffffffffffffffffffffffffff021916908373ffffffffffffffffffffffffffffffffffffffff1602179055508173ffffffffffffffffffffffffffffffffffffffff168173ffffffffffffffffffffffffffffffffffffffff167f8be0079c531659141344cd1fd0a4f28419497f9722a3daafe3b4186f6b6457e060405160405180910390a35050565b611a098062005e2383390190565b600080fd5b600073ffffffffffffffffffffffffffffffffffffffff82169050919050565b60006200023d8262000210565b9050919050565b6200024f8162000230565b81146200025b57600080fd5b50565b6000815190506200026f8162000244565b92915050565b6000602082840312156200028e576200028d6200020b565b5b60006200029e848285016200025e565b91505092915050565b60805160a051615b48620002db60003960008181610f890152611e610152600081816119c80152611e820152615b486000f3fe6080604052600436106102ff5760003560e01c8063adc0f68611610190578063d8043d8f116100dc578063eb90b2bc11610095578063f1b371e21161006f578063f1b371e214610beb578063f2fde38b14610c16578063fa845ca914610c3f578063fded701214610c7c576102ff565b8063eb90b2bc14610b45578063ed725e8314610b83578063ef4cadc514610bc0576102ff565b8063d8043d8f14610a51578063db80a28c14610a6d578063dd1b9c4a14610aaa578063e203d03014610ad5578063e60c90c414610aec578063e858e05c14610b29576102ff565b8063bebc9dfc11610149578063c4235ae911610123578063c4235ae9146109a9578063d0d41fe1146109e6578063d294f09314610a0f578063d4432e4e14610a26576102ff565b8063bebc9dfc14610904578063bee7708e14610941578063c40af1ee1461097e576102ff565b8063adc0f686146107ba578063af2f850e146107f7578063b6f2a9ce14610834578063bab2f55214610871578063bc7132901461089c578063be26ed7f146108d9576102ff565b80635f5080b41161024f5780638bd9556311610208578063a694fc3a116101e2578063a694fc3a146106ec578063a707140b14610715578063a95f1dac14610752578063aabbb1bd1461077d576102ff565b80638bd95563146106595780638da5cb5b14610684578063a2727db3146106af576102ff565b80635f5080b414610589578063682c2058146105b457806368f05769146105df5780636adb0eb61461060a578063715018a61461062657806374ef83671461063d576102ff565b80632e17de78116102bc5780633ad10ef6116102965780633ad10ef6146104b9578063436091c1146104e45780635347a47d1461050f578063541c78861461054c576102ff565b80632e17de781461044e5780632f7cdab014610477578063372500ab146104a2576102ff565b80630ece21541461030457806312cb22ac1461034157806312d474391461037e578063168b0a5c146103a957806317d9c47a146103d45780631ed6380f14610411575b600080fd5b34801561031057600080fd5b5061032b6004803603810190610326919061434d565b610cbb565b6040516103389190614389565b60405180910390f35b34801561034d57600080fd5b5061036860048036038101906103639190614402565b610cd3565b6040516103759190614389565b60405180910390f35b34801561038a57600080fd5b50610393610ceb565b6040516103a09190614389565b60405180910390f35b3480156103b557600080fd5b506103be610cf1565b6040516103cb919061448e565b60405180910390f35b3480156103e057600080fd5b506103fb60048036038101906103f6919061434d565b610d17565b6040516104089190614389565b60405180910390f35b34801561041d57600080fd5b5061043860048036038101906104339190614402565b610d2f565b6040516104459190614389565b60405180910390f35b34801561045a57600080fd5b506104756004803603810190610470919061434d565b610d47565b005b34801561048357600080fd5b5061048c610f87565b6040516104999190614389565b60405180910390f35b3480156104ae57600080fd5b506104b7610fab565b005b3480156104c557600080fd5b506104ce6111f1565b6040516104db91906144b8565b60405180910390f35b3480156104f057600080fd5b506104f9611217565b6040516105069190614389565b60405180910390f35b34801561051b57600080fd5b5061053660048036038101906105319190614619565b61121d565b6040516105439190614389565b60405180910390f35b34801561055857600080fd5b50610573600480360381019061056e9190614619565b61124b565b6040516105809190614720565b60405180910390f35b34801561059557600080fd5b5061059e6112fa565b6040516105ab9190614389565b60405180910390f35b3480156105c057600080fd5b506105c9611300565b6040516105d69190614389565b60405180910390f35b3480156105eb57600080fd5b506105f4611306565b6040516106019190614389565b60405180910390f35b610624600480360381019061061f9190614828565b61130c565b005b34801561063257600080fd5b5061063b611825565b005b61065760048036038101906106529190614ae1565b611839565b005b34801561066557600080fd5b5061066e6119c6565b60405161067b9190614389565b60405180910390f35b34801561069057600080fd5b506106996119ea565b6040516106a691906144b8565b60405180910390f35b3480156106bb57600080fd5b506106d660048036038101906106d19190614402565b611a13565b6040516106e39190614389565b60405180910390f35b3480156106f857600080fd5b50610713600480360381019061070e919061434d565b611a2b565b005b34801561072157600080fd5b5061073c60048036038101906107379190614402565b611d4b565b6040516107499190614389565b60405180910390f35b34801561075e57600080fd5b50610767611d63565b6040516107749190614389565b60405180910390f35b34801561078957600080fd5b506107a4600480360381019061079f9190614b2a565b611d69565b6040516107b19190614389565b60405180910390f35b3480156107c657600080fd5b506107e160048036038101906107dc919061434d565b611d8e565b6040516107ee9190614389565b60405180910390f35b34801561080357600080fd5b5061081e6004803603810190610819919061434d565b611da6565b60405161082b9190614b85565b60405180910390f35b34801561084057600080fd5b5061085b60048036038101906108569190614619565b611dc6565b6040516108689190614c5e565b60405180910390f35b34801561087d57600080fd5b50610886611e3f565b6040516108939190614389565b60405180910390f35b3480156108a857600080fd5b506108c360048036038101906108be9190614402565b611e45565b6040516108d09190614389565b60405180910390f35b3480156108e557600080fd5b506108ee611e5d565b6040516108fb9190614389565b60405180910390f35b34801561091057600080fd5b5061092b6004803603810190610926919061434d565b611ebb565b6040516109389190614389565b60405180910390f35b34801561094d57600080fd5b5061096860048036038101906109639190614402565b611ed3565b6040516109759190614389565b60405180910390f35b34801561098a57600080fd5b50610993611eeb565b6040516109a09190614389565b60405180910390f35b3480156109b557600080fd5b506109d060048036038101906109cb919061434d565b611ef1565b6040516109dd9190614389565b60405180910390f35b3480156109f257600080fd5b50610a0d6004803603810190610a089190614402565b611f09565b005b348015610a1b57600080fd5b50610a24611f65565b005b348015610a3257600080fd5b50610a3b612067565b604051610a489190614389565b60405180910390f35b610a6b6004803603810190610a669190614828565b61206d565b005b348015610a7957600080fd5b50610a946004803603810190610a8f9190614402565b612586565b604051610aa19190614389565b60405180910390f35b348015610ab657600080fd5b50610abf61259e565b604051610acc9190614389565b60405180910390f35b348015610ae157600080fd5b50610aea6125a4565b005b348015610af857600080fd5b50610b136004803603810190610b0e9190614402565b6126a6565b604051610b209190614389565b60405180910390f35b610b436004803603810190610b3e9190614c80565b6126bd565b005b348015610b5157600080fd5b50610b6c6004803603810190610b679190614619565b612b07565b604051610b7a929190614cef565b60405180910390f35b348015610b8f57600080fd5b50610baa6004803603810190610ba59190614402565b612b57565b604051610bb79190614389565b60405180910390f35b348015610bcc57600080fd5b50610bd5612b6f565b604051610be29190614389565b60405180910390f35b348015610bf757600080fd5b50610c00612b84565b604051610c0d9190614389565b60405180910390f35b348015610c2257600080fd5b50610c3d6004803603810190610c389190614402565b612b8a565b005b348015610c4b57600080fd5b50610c666004803603810190610c619190614402565b612c0d565b604051610c739190614389565b60405180910390f35b348015610c8857600080fd5b50610ca36004803603810190610c9e9190614619565b612c25565b604051610cb293929190614d97565b60405180910390f35b601d6020528060005260406000206000915090505481565b60166020528060005260406000206000915090505481565b600b5481565b600260009054906101000a900473ffffffffffffffffffffffffffffffffffffffff1681565b60176020528060005260406000206000915090505481565b601f6020528060005260406000206000915090505481565b610d4f612ced565b610d57612d3c565b610d5f612d5d565b610d6833612e86565b60008111610dab576040517f08c379a0000000000000000000000000000000000000000000000000000000008152600401610da290614e21565b60405180910390fd5b601f60003373ffffffffffffffffffffffffffffffffffffffff1673ffffffffffffffffffffffffffffffffffffffff16815260200190815260200160002054811115610e2d576040517f08c379a0000000000000000000000000000000000000000000000000000000008152600401610e2490614eb3565b60405180910390fd5b60135460115403610e56578060146000828254610e4a9190614f02565b92505081905550610e83565b80601b6000600f5481526020019081526020016000206000828254610e7b9190614f36565b925050819055505b80601f60003373ffffffffffffffffffffffffffffffffffffffff1673ffffffffffffffffffffffffffffffffffffffff1681526020019081526020016000206000828254610ed29190614f36565b9250508190555080601960003373ffffffffffffffffffffffffffffffffffffffff1673ffffffffffffffffffffffffffffffffffffffff1681526020019081526020016000206000828254610f289190614f36565b92505081905550610f7c3382600260009054906101000a900473ffffffffffffffffffffffffffffffffffffffff1673ffffffffffffffffffffffffffffffffffffffff16613b0e9092919063ffffffff16565b610f84613b94565b50565b7f000000000000000000000000000000000000000000000000000000000000000081565b610fb3612ced565b610fbb612d3c565b610fc3612d5d565b610fcc33612e86565b6000601f60003373ffffffffffffffffffffffffffffffffffffffff1673ffffffffffffffffffffffffffffffffffffffff16815260200190815260200160002054601960003373ffffffffffffffffffffffffffffffffffffffff1673ffffffffffffffffffffffffffffffffffffffff168152602001908152602001600020546110589190614f36565b90506000811161109d576040517f08c379a000000000000000000000000000000000000000000000000000000000815260040161109490614fb6565b60405180910390fd5b80601960003373ffffffffffffffffffffffffffffffffffffffff1673ffffffffffffffffffffffffffffffffffffffff16815260200190815260200160002060008282546110ec9190614f36565b925050819055506013546011540361111c5780601460008282546111109190614f02565b92505081905550611157565b80601b6000600f5481526020019081526020016000205461113d9190614f36565b601b6000600f548152602001908152602001600020819055505b600260009054906101000a900473ffffffffffffffffffffffffffffffffffffffff1673ffffffffffffffffffffffffffffffffffffffff16639a49090e33836040518363ffffffff1660e01b81526004016111b4929190614fd6565b600060405180830381600087803b1580156111ce57600080fd5b505af11580156111e2573d6000803e3d6000fd5b50505050506111ef613b94565b565b600d60009054906101000a900473ffffffffffffffffffffffffffffffffffffffff1681565b60115481565b6007818051602081018201805184825260208301602085012081835280955050505050506000915090505481565b606060038260405161125d919061503b565b90815260200160405180910390206003018054806020026020016040519081016040528092919081815260200182805480156112ee57602002820191906000526020600020905b8160009054906101000a900473ffffffffffffffffffffffffffffffffffffffff1673ffffffffffffffffffffffffffffffffffffffff16815260200190600101908083116112a4575b50505050509050919050565b60125481565b600a5481565b60145481565b611314612ced565b61131c612d3c565b611324612d5d565b61132c613b9d565b61133533612e86565b600080825190506113446141e0565b606080600080600090505b8581101561162a57600388828151811061136c5761136b615052565b5b6020026020010151604051611381919061503b565b90815260200160405180910390206040518060a00160405290816000820180546113aa906150b0565b80601f01602080910402602001604051908101604052809291908181526020018280546113d6906150b0565b80156114235780601f106113f857610100808354040283529160200191611423565b820191906000526020600020905b81548152906001019060200180831161140657829003601f168201915b505050505081526020016001820154815260200160028201548152602001600382018054806020026020016040519081016040528092919081815260200182805480156114c557602002820191906000526020600020905b8160009054906101000a900473ffffffffffffffffffffffffffffffffffffffff1673ffffffffffffffffffffffffffffffffffffffff168152602001906001019080831161147b575b505050505081526020016004820180548060200260200160405190810160405280929190818152602001828054801561151d57602002820191906000526020600020905b815481526020019060010190808311611509575b505050505081525050945084606001519350846080015192508351915060005b8281101561160457670de0b6b3a764000084828151811061156157611560615052565b5b6020026020010151876020015161157891906150e1565b6115829190615152565b6005600087848151811061159957611598615052565b5b602002602001015173ffffffffffffffffffffffffffffffffffffffff1673ffffffffffffffffffffffffffffffffffffffff16815260200190815260200160002060008282546115ea9190614f02565b9250508190555080806115fc90615183565b91505061153d565b508460200151876116159190614f02565b9650808061162290615183565b91505061134f565b5060028661163891906150e1565b3414611679576040517f08c379a000000000000000000000000000000000000000000000000000000000815260040161167090615217565b60405180910390fd5b6116bf600d60009054906101000a900473ffffffffffffffffffffffffffffffffffffffff16612710600b54896116b091906150e1565b6116ba9190615152565b613cc8565b612710600c54876116d091906150e1565b6116da9190615152565b601d6000600f54815260200190815260200160002060008282546116fe9190614f02565b92505081905550683635c9adc5dea00000601a6000600f54815260200190815260200160002060008282546117339190614f02565b92505081905550683635c9adc5dea00000601960003373ffffffffffffffffffffffffffffffffffffffff1673ffffffffffffffffffffffffffffffffffffffff16815260200190815260200160002060008282546117929190614f02565b92505081905550600f54601860003373ffffffffffffffffffffffffffffffffffffffff1673ffffffffffffffffffffffffffffffffffffffff16815260200190815260200160002081905550683635c9adc5dea00000601b6000600f548152602001908152602001600020600082825461180d9190614f02565b92505081905550505050505050611822613b94565b50565b61182d613d79565b6118376000613df7565b565b611841612ced565b611849612d3c565b611851612d5d565b61185a33612e86565b806040015134146118a0576040517f08c379a0000000000000000000000000000000000000000000000000000000008152600401611897906152a9565b60405180910390fd5b6040518060a00160405280826000015181526020018260200151815260200182604001518152602001826060015181526020018260800151815250600382600001516040516118ef919061503b565b90815260200160405180910390206000820151816000019081611912919061546b565b506020820151816001015560408201518160020155606082015181600301908051906020019061194392919061420f565b506080820151816004019080519060200190611960929190614299565b5090505080604001516007826000015160405161197d919061503b565b9081526020016040518091039020819055506119bb600d60009054906101000a900473ffffffffffffffffffffffffffffffffffffffff1634613cc8565b6119c3613b94565b50565b7f000000000000000000000000000000000000000000000000000000000000000081565b60008060009054906101000a900473ffffffffffffffffffffffffffffffffffffffff16905090565b60046020528060005260406000206000915090505481565b611a33612ced565b611a3b612d3c565b611a43612d5d565b611a4c33612e86565b60008111611a8f576040517f08c379a0000000000000000000000000000000000000000000000000000000008152600401611a8690614e21565b60405180910390fd5b80600e6000828254611aa19190614f02565b9250508190555060006001600f54611ab99190614f02565b905060135460115403611ad8576001601154611ad59190614f02565b90505b602060003373ffffffffffffffffffffffffffffffffffffffff1673ffffffffffffffffffffffffffffffffffffffff168152602001908152602001600020548114158015611b665750602160003373ffffffffffffffffffffffffffffffffffffffff1673ffffffffffffffffffffffffffffffffffffffff168152602001908152602001600020548114155b15611c89576000602060003373ffffffffffffffffffffffffffffffffffffffff1673ffffffffffffffffffffffffffffffffffffffff1681526020019081526020016000205403611bfb5780602060003373ffffffffffffffffffffffffffffffffffffffff1673ffffffffffffffffffffffffffffffffffffffff16815260200190815260200160002081905550611c88565b6000602160003373ffffffffffffffffffffffffffffffffffffffff1673ffffffffffffffffffffffffffffffffffffffff1681526020019081526020016000205403611c875780602160003373ffffffffffffffffffffffffffffffffffffffff1673ffffffffffffffffffffffffffffffffffffffff168152602001908152602001600020819055505b5b5b81601e60003373ffffffffffffffffffffffffffffffffffffffff1673ffffffffffffffffffffffffffffffffffffffff16815260200190815260200160002060008381526020019081526020016000206000828254611ce99190614f02565b92505081905550611d3f333084600260009054906101000a900473ffffffffffffffffffffffffffffffffffffffff1673ffffffffffffffffffffffffffffffffffffffff16613ebb909392919063ffffffff16565b50611d48613b94565b50565b601c6020528060005260406000206000915090505481565b60105481565b601e602052816000526040600020602052806000526040600020600091509150505481565b601a6020528060005260406000206000915090505481565b60066020528060005260406000206000915054906101000a900460ff1681565b6060600382604051611dd8919061503b565b9081526020016040518091039020600401805480602002602001604051908101604052809291908181526020018280548015611e3357602002820191906000526020600020905b815481526020019060010190808311611e1f575b50505050509050919050565b600f5481565b60096020528060005260406000206000915090505481565b60007f00000000000000000000000000000000000000000000000000000000000000007f000000000000000000000000000000000000000000000000000000000000000042611eac9190614f36565b611eb69190615152565b905090565b60086020528060005260406000206000915090505481565b60056020528060005260406000206000915090505481565b60155481565b601b6020528060005260406000206000915090505481565b611f11613d79565b611f19612ced565b80600d60006101000a81548173ffffffffffffffffffffffffffffffffffffffff021916908373ffffffffffffffffffffffffffffffffffffffff160217905550611f62613b94565b50565b611f6d612ced565b611f75612d3c565b611f7d612d5d565b611f8633612e86565b6000600960003373ffffffffffffffffffffffffffffffffffffffff1673ffffffffffffffffffffffffffffffffffffffff1681526020019081526020016000205490506000811161200d576040517f08c379a000000000000000000000000000000000000000000000000000000000815260040161200490614e21565b60405180910390fd5b6000600960003373ffffffffffffffffffffffffffffffffffffffff1673ffffffffffffffffffffffffffffffffffffffff1681526020019081526020016000208190555061205c3382613cc8565b50612065613b94565b565b600e5481565b612075612ced565b61207d612d3c565b612085612d5d565b61208d613b9d565b61209633612e86565b600080825190506120a56141e0565b606080600080600090505b8581101561238b5760038882815181106120cd576120cc615052565b5b60200260200101516040516120e2919061503b565b90815260200160405180910390206040518060a001604052908160008201805461210b906150b0565b80601f0160208091040260200160405190810160405280929190818152602001828054612137906150b0565b80156121845780601f1061215957610100808354040283529160200191612184565b820191906000526020600020905b81548152906001019060200180831161216757829003601f168201915b5050505050815260200160018201548152602001600282015481526020016003820180548060200260200160405190810160405280929190818152602001828054801561222657602002820191906000526020600020905b8160009054906101000a900473ffffffffffffffffffffffffffffffffffffffff1673ffffffffffffffffffffffffffffffffffffffff16815260200190600101908083116121dc575b505050505081526020016004820180548060200260200160405190810160405280929190818152602001828054801561227e57602002820191906000526020600020905b81548152602001906001019080831161226a575b505050505081525050945084606001519350846080015192508351915060005b8281101561236557670de0b6b3a76400008482815181106122c2576122c1615052565b5b602002602001015187604001516122d991906150e1565b6122e39190615152565b600560008784815181106122fa576122f9615052565b5b602002602001015173ffffffffffffffffffffffffffffffffffffffff1673ffffffffffffffffffffffffffffffffffffffff168152602001908152602001600020600082825461234b9190614f02565b92505081905550808061235d90615183565b91505061229e565b508460400151876123769190614f02565b9650808061238390615183565b9150506120b0565b5060028661239991906150e1565b34146123da576040517f08c379a00000000000000000000000000000000000000000000000000000000081526004016123d190615217565b60405180910390fd5b612420600d60009054906101000a900473ffffffffffffffffffffffffffffffffffffffff16612710600b548961241191906150e1565b61241b9190615152565b613cc8565b612710600c548761243191906150e1565b61243b9190615152565b601d6000600f548152602001908152602001600020600082825461245f9190614f02565b92505081905550683635c9adc5dea00000601a6000600f54815260200190815260200160002060008282546124949190614f02565b92505081905550683635c9adc5dea00000601960003373ffffffffffffffffffffffffffffffffffffffff1673ffffffffffffffffffffffffffffffffffffffff16815260200190815260200160002060008282546124f39190614f02565b92505081905550600f54601860003373ffffffffffffffffffffffffffffffffffffffff1673ffffffffffffffffffffffffffffffffffffffff16815260200190815260200160002081905550683635c9adc5dea00000601b6000600f548152602001908152602001600020600082825461256e9190614f02565b92505081905550505050505050612583613b94565b50565b60216020528060005260406000206000915090505481565b600c5481565b6125ac612ced565b6125b4612d3c565b6125bc612d5d565b6125c533612e86565b6000600560003373ffffffffffffffffffffffffffffffffffffffff1673ffffffffffffffffffffffffffffffffffffffff1681526020019081526020016000205490506000811161264c576040517f08c379a000000000000000000000000000000000000000000000000000000000815260040161264390614e21565b60405180910390fd5b6000600560003373ffffffffffffffffffffffffffffffffffffffff1673ffffffffffffffffffffffffffffffffffffffff1681526020019081526020016000208190555061269b3382613cc8565b506126a4613b94565b565b602080528060005260406000206000915090505481565b6126c5612ced565b6126cd612d3c565b6126d5612d5d565b6126de33612e86565b60006003846040516126f0919061503b565b90815260200160405180910390206040518060a0016040529081600082018054612719906150b0565b80601f0160208091040260200160405190810160405280929190818152602001828054612745906150b0565b80156127925780601f1061276757610100808354040283529160200191612792565b820191906000526020600020905b81548152906001019060200180831161277557829003601f168201915b5050505050815260200160018201548152602001600282015481526020016003820180548060200260200160405190810160405280929190818152602001828054801561283457602002820191906000526020600020905b8160009054906101000a900473ffffffffffffffffffffffffffffffffffffffff1673ffffffffffffffffffffffffffffffffffffffff16815260200190600101908083116127ea575b505050505081526020016004820180548060200260200160405190810160405280929190818152602001828054801561288c57602002820191906000526020600020905b815481526020019060010190808311612878575b5050505050815250509050600081606001519050600081519050600080600090505b8281101561291f573373ffffffffffffffffffffffffffffffffffffffff168482815181106128e0576128df615052565b5b602002602001015173ffffffffffffffffffffffffffffffffffffffff160361290c576001915061291f565b808061291790615183565b9150506128ae565b5080612960576040517f08c379a0000000000000000000000000000000000000000000000000000000008152600401612957906155af565b60405180910390fd5b84600788604051612971919061503b565b9081526020016040518091039020541015612a4257600787604051612996919061503b565b908152602001604051809103902054856129b09190614f36565b3410156129f2576040517f08c379a00000000000000000000000000000000000000000000000000000000081526004016129e990615641565b60405180910390fd5b84600788604051612a03919061503b565b90815260200160405180910390208190555034601d6000600f5481526020019081526020016000206000828254612a3a9190614f02565b925050819055505b6040518060a00160405280888152602001878152602001868152602001856060015181526020018560800151815250600388604051612a81919061503b565b90815260200160405180910390206000820151816000019081612aa4919061546b565b5060208201518160010155604082015181600201556060820151816003019080519060200190612ad592919061420f565b506080820151816004019080519060200190612af2929190614299565b5090505050505050612b02613b94565b505050565b600080600383604051612b1a919061503b565b908152602001604051809103902060010154600384604051612b3c919061503b565b90815260200160405180910390206002015491509150915091565b60196020528060005260406000206000915090505481565b701d6329f1c35ca4bfabb9f561000000000081565b60135481565b612b92613d79565b600073ffffffffffffffffffffffffffffffffffffffff168173ffffffffffffffffffffffffffffffffffffffff1603612c01576040517f08c379a0000000000000000000000000000000000000000000000000000000008152600401612bf8906156d3565b60405180910390fd5b612c0a81613df7565b50565b60186020528060005260406000206000915090505481565b600381805160208101820180518482526020830160208501208183528095505050505050600091509050806000018054612c5e906150b0565b80601f0160208091040260200160405190810160405280929190818152602001828054612c8a906150b0565b8015612cd75780601f10612cac57610100808354040283529160200191612cd7565b820191906000526020600020905b815481529060010190602001808311612cba57829003601f168201915b5050505050908060010154908060020154905083565b600260015403612d32576040517f08c379a0000000000000000000000000000000000000000000000000000000008152600401612d299061573f565b60405180910390fd5b6002600181905550565b6000612d46611e5d565b9050600f54811115612d5a5780600f819055505b50565b601354600f5414612d87576001601154612d779190614f02565b6012819055506013546011819055505b601154600f54118015612dbb57506000600860006001601154612daa9190614f02565b815260200190815260200160002054145b15612e8457600080601b600060115481526020019081526020016000205414612e3757601b6000601154815260200190815260200160002054701d6329f1c35ca4bfabb9f5610000000000601d6000601154815260200190815260200160002054612e2691906150e1565b612e309190615152565b9050612e3c565b600090505b8060086000601254815260200190815260200160002054612e5d9190614f02565b600860006001601154612e709190614f02565b815260200190815260200160002081905550505b565b601154600f54118015612ee657506001601154612ea39190614f02565b601c60008373ffffffffffffffffffffffffffffffffffffffff1673ffffffffffffffffffffffffffffffffffffffff1681526020019081526020016000205414155b156130b057701d6329f1c35ca4bfabb9f561000000000060086000601c60008573ffffffffffffffffffffffffffffffffffffffff1673ffffffffffffffffffffffffffffffffffffffff16815260200190815260200160002054815260200190815260200160002054600860006001601154612f639190614f02565b815260200190815260200160002054612f7c9190614f36565b601960008473ffffffffffffffffffffffffffffffffffffffff1673ffffffffffffffffffffffffffffffffffffffff16815260200190815260200160002054612fc691906150e1565b612fd09190615152565b600960008373ffffffffffffffffffffffffffffffffffffffff1673ffffffffffffffffffffffffffffffffffffffff1681526020019081526020016000205461301a9190614f02565b600960008373ffffffffffffffffffffffffffffffffffffffff1673ffffffffffffffffffffffffffffffffffffffff16815260200190815260200160002081905550600160115461306c9190614f02565b601c60008373ffffffffffffffffffffffffffffffffffffffff1673ffffffffffffffffffffffffffffffffffffffff168152602001908152602001600020819055505b6000602060008373ffffffffffffffffffffffffffffffffffffffff1673ffffffffffffffffffffffffffffffffffffffff16815260200190815260200160002054141580156131405750602060008273ffffffffffffffffffffffffffffffffffffffff1673ffffffffffffffffffffffffffffffffffffffff16815260200190815260200160002054600f54115b15613b0b576000601e60008373ffffffffffffffffffffffffffffffffffffffff1673ffffffffffffffffffffffffffffffffffffffff1681526020019081526020016000206000602060008573ffffffffffffffffffffffffffffffffffffffff1673ffffffffffffffffffffffffffffffffffffffff16815260200190815260200160002054815260200190815260200160002054905080601960008473ffffffffffffffffffffffffffffffffffffffff1673ffffffffffffffffffffffffffffffffffffffff16815260200190815260200160002060008282546132289190614f02565b9250508190555080601f60008473ffffffffffffffffffffffffffffffffffffffff1673ffffffffffffffffffffffffffffffffffffffff168152602001908152602001600020600082825461327e9190614f02565b92505081905550602060008373ffffffffffffffffffffffffffffffffffffffff1673ffffffffffffffffffffffffffffffffffffffff1681526020019081526020016000205460016011546132d49190614f02565b111561349d57701d6329f1c35ca4bfabb9f561000000000060086000602060008673ffffffffffffffffffffffffffffffffffffffff1673ffffffffffffffffffffffffffffffffffffffff168152602001908152602001600020548152602001908152602001600020546008600060016011546133529190614f02565b81526020019081526020016000205461336b9190614f36565b601e60008573ffffffffffffffffffffffffffffffffffffffff1673ffffffffffffffffffffffffffffffffffffffff1681526020019081526020016000206000602060008773ffffffffffffffffffffffffffffffffffffffff1673ffffffffffffffffffffffffffffffffffffffff1681526020019081526020016000205481526020019081526020016000205461340591906150e1565b61340f9190615152565b600960008473ffffffffffffffffffffffffffffffffffffffff1673ffffffffffffffffffffffffffffffffffffffff168152602001908152602001600020546134599190614f02565b600960008473ffffffffffffffffffffffffffffffffffffffff1673ffffffffffffffffffffffffffffffffffffffff168152602001908152602001600020819055505b6000601e60008473ffffffffffffffffffffffffffffffffffffffff1673ffffffffffffffffffffffffffffffffffffffff1681526020019081526020016000206000602060008673ffffffffffffffffffffffffffffffffffffffff1673ffffffffffffffffffffffffffffffffffffffff168152602001908152602001600020548152602001908152602001600020819055506000602060008473ffffffffffffffffffffffffffffffffffffffff1673ffffffffffffffffffffffffffffffffffffffff168152602001908152602001600020819055506000602160008473ffffffffffffffffffffffffffffffffffffffff1673ffffffffffffffffffffffffffffffffffffffff1681526020019081526020016000205414613b0957602160008373ffffffffffffffffffffffffffffffffffffffff1673ffffffffffffffffffffffffffffffffffffffff16815260200190815260200160002054600f541115613a3f576000601e60008473ffffffffffffffffffffffffffffffffffffffff1673ffffffffffffffffffffffffffffffffffffffff1681526020019081526020016000206000602160008673ffffffffffffffffffffffffffffffffffffffff1673ffffffffffffffffffffffffffffffffffffffff16815260200190815260200160002054815260200190815260200160002054905080601960008573ffffffffffffffffffffffffffffffffffffffff1673ffffffffffffffffffffffffffffffffffffffff16815260200190815260200160002060008282546136ea9190614f02565b9250508190555080601f60008573ffffffffffffffffffffffffffffffffffffffff1673ffffffffffffffffffffffffffffffffffffffff16815260200190815260200160002060008282546137409190614f02565b92505081905550602160008473ffffffffffffffffffffffffffffffffffffffff1673ffffffffffffffffffffffffffffffffffffffff1681526020019081526020016000205460016011546137969190614f02565b111561395f57701d6329f1c35ca4bfabb9f561000000000060086000602160008773ffffffffffffffffffffffffffffffffffffffff1673ffffffffffffffffffffffffffffffffffffffff168152602001908152602001600020548152602001908152602001600020546008600060016011546138149190614f02565b81526020019081526020016000205461382d9190614f36565b601e60008673ffffffffffffffffffffffffffffffffffffffff1673ffffffffffffffffffffffffffffffffffffffff1681526020019081526020016000206000602160008873ffffffffffffffffffffffffffffffffffffffff1673ffffffffffffffffffffffffffffffffffffffff168152602001908152602001600020548152602001908152602001600020546138c791906150e1565b6138d19190615152565b600960008573ffffffffffffffffffffffffffffffffffffffff1673ffffffffffffffffffffffffffffffffffffffff1681526020019081526020016000205461391b9190614f02565b600960008573ffffffffffffffffffffffffffffffffffffffff1673ffffffffffffffffffffffffffffffffffffffff168152602001908152602001600020819055505b6000601e60008573ffffffffffffffffffffffffffffffffffffffff1673ffffffffffffffffffffffffffffffffffffffff1681526020019081526020016000206000602160008773ffffffffffffffffffffffffffffffffffffffff1673ffffffffffffffffffffffffffffffffffffffff168152602001908152602001600020548152602001908152602001600020819055506000602160008573ffffffffffffffffffffffffffffffffffffffff1673ffffffffffffffffffffffffffffffffffffffff1681526020019081526020016000208190555050613b08565b602160008373ffffffffffffffffffffffffffffffffffffffff1673ffffffffffffffffffffffffffffffffffffffff16815260200190815260200160002054602060008473ffffffffffffffffffffffffffffffffffffffff1673ffffffffffffffffffffffffffffffffffffffff168152602001908152602001600020819055506000602160008473ffffffffffffffffffffffffffffffffffffffff1673ffffffffffffffffffffffffffffffffffffffff168152602001908152602001600020819055505b5b505b50565b613b8f8363a9059cbb60e01b8484604051602401613b2d929190614fd6565b604051602081830303815290604052907bffffffffffffffffffffffffffffffffffffffffffffffffffffffff19166020820180517bffffffffffffffffffffffffffffffffffffffffffffffffffffffff8381831617835250505050613f44565b505050565b60018081905550565b6000151560066000600f54815260200190815260200160002060009054906101000a900460ff16151503613cc657600160066000600f54815260200190815260200160002060006101000a81548160ff021916908315150217905550600f54601381905550601b6000601154815260200190815260200160002054601b600060135481526020019081526020016000206000828254613c3c9190614f02565b925050819055506000600e5414613c8457600e54601b600060135481526020019081526020016000206000828254613c749190614f02565b925050819055506000600e819055505b600060145414613cc557601454601b600060135481526020019081526020016000206000828254613cb59190614f36565b9250508190555060006014819055505b5b565b60008273ffffffffffffffffffffffffffffffffffffffff1682604051613cee90615790565b60006040518083038185875af1925050503d8060008114613d2b576040519150601f19603f3d011682016040523d82523d6000602084013e613d30565b606091505b5050905080613d74576040517f08c379a0000000000000000000000000000000000000000000000000000000008152600401613d6b906157f1565b60405180910390fd5b505050565b613d8161400b565b73ffffffffffffffffffffffffffffffffffffffff16613d9f6119ea565b73ffffffffffffffffffffffffffffffffffffffff1614613df5576040517f08c379a0000000000000000000000000000000000000000000000000000000008152600401613dec9061585d565b60405180910390fd5b565b60008060009054906101000a900473ffffffffffffffffffffffffffffffffffffffff169050816000806101000a81548173ffffffffffffffffffffffffffffffffffffffff021916908373ffffffffffffffffffffffffffffffffffffffff1602179055508173ffffffffffffffffffffffffffffffffffffffff168173ffffffffffffffffffffffffffffffffffffffff167f8be0079c531659141344cd1fd0a4f28419497f9722a3daafe3b4186f6b6457e060405160405180910390a35050565b613f3e846323b872dd60e01b858585604051602401613edc9392919061587d565b604051602081830303815290604052907bffffffffffffffffffffffffffffffffffffffffffffffffffffffff19166020820180517bffffffffffffffffffffffffffffffffffffffffffffffffffffffff8381831617835250505050613f44565b50505050565b6000613fa6826040518060400160405280602081526020017f5361666545524332303a206c6f772d6c6576656c2063616c6c206661696c65648152508573ffffffffffffffffffffffffffffffffffffffff166140139092919063ffffffff16565b90506000815111156140065780806020019051810190613fc691906158e0565b614005576040517f08c379a0000000000000000000000000000000000000000000000000000000008152600401613ffc9061597f565b60405180910390fd5b5b505050565b600033905090565b6060614022848460008561402b565b90509392505050565b606082471015614070576040517f08c379a000000000000000000000000000000000000000000000000000000000815260040161406790615a11565b60405180910390fd5b6000808673ffffffffffffffffffffffffffffffffffffffff1685876040516140999190615a6d565b60006040518083038185875af1925050503d80600081146140d6576040519150601f19603f3d011682016040523d82523d6000602084013e6140db565b606091505b50915091506140ec878383876140f8565b92505050949350505050565b6060831561415a576000835103614152576141128561416d565b614151576040517f08c379a000000000000000000000000000000000000000000000000000000000815260040161414890615ad0565b60405180910390fd5b5b829050614165565b6141648383614190565b5b949350505050565b6000808273ffffffffffffffffffffffffffffffffffffffff163b119050919050565b6000825111156141a35781518083602001fd5b806040517f08c379a00000000000000000000000000000000000000000000000000000000081526004016141d79190615af0565b60405180910390fd5b6040518060a0016040528060608152602001600081526020016000815260200160608152602001606081525090565b828054828255906000526020600020908101928215614288579160200282015b828111156142875782518260006101000a81548173ffffffffffffffffffffffffffffffffffffffff021916908373ffffffffffffffffffffffffffffffffffffffff1602179055509160200191906001019061422f565b5b50905061429591906142e6565b5090565b8280548282559060005260206000209081019282156142d5579160200282015b828111156142d45782518255916020019190600101906142b9565b5b5090506142e291906142e6565b5090565b5b808211156142ff5760008160009055506001016142e7565b5090565b6000604051905090565b600080fd5b600080fd5b6000819050919050565b61432a81614317565b811461433557600080fd5b50565b60008135905061434781614321565b92915050565b6000602082840312156143635761436261430d565b5b600061437184828501614338565b91505092915050565b61438381614317565b82525050565b600060208201905061439e600083018461437a565b92915050565b600073ffffffffffffffffffffffffffffffffffffffff82169050919050565b60006143cf826143a4565b9050919050565b6143df816143c4565b81146143ea57600080fd5b50565b6000813590506143fc816143d6565b92915050565b6000602082840312156144185761441761430d565b5b6000614426848285016143ed565b91505092915050565b6000819050919050565b600061445461444f61444a846143a4565b61442f565b6143a4565b9050919050565b600061446682614439565b9050919050565b60006144788261445b565b9050919050565b6144888161446d565b82525050565b60006020820190506144a3600083018461447f565b92915050565b6144b2816143c4565b82525050565b60006020820190506144cd60008301846144a9565b92915050565b600080fd5b600080fd5b6000601f19601f8301169050919050565b7f4e487b7100000000000000000000000000000000000000000000000000000000600052604160045260246000fd5b614526826144dd565b810181811067ffffffffffffffff82111715614545576145446144ee565b5b80604052505050565b6000614558614303565b9050614564828261451d565b919050565b600067ffffffffffffffff821115614584576145836144ee565b5b61458d826144dd565b9050602081019050919050565b82818337600083830152505050565b60006145bc6145b784614569565b61454e565b9050828152602081018484840111156145d8576145d76144d8565b5b6145e384828561459a565b509392505050565b600082601f830112614600576145ff6144d3565b5b81356146108482602086016145a9565b91505092915050565b60006020828403121561462f5761462e61430d565b5b600082013567ffffffffffffffff81111561464d5761464c614312565b5b614659848285016145eb565b91505092915050565b600081519050919050565b600082825260208201905092915050565b6000819050602082019050919050565b614697816143c4565b82525050565b60006146a9838361468e565b60208301905092915050565b6000602082019050919050565b60006146cd82614662565b6146d7818561466d565b93506146e28361467e565b8060005b838110156147135781516146fa888261469d565b9750614705836146b5565b9250506001810190506146e6565b5085935050505092915050565b6000602082019050818103600083015261473a81846146c2565b905092915050565b600067ffffffffffffffff82111561475d5761475c6144ee565b5b602082029050602081019050919050565b600080fd5b600061478661478184614742565b61454e565b905080838252602082019050602084028301858111156147a9576147a861476e565b5b835b818110156147f057803567ffffffffffffffff8111156147ce576147cd6144d3565b5b8086016147db89826145eb565b855260208501945050506020810190506147ab565b5050509392505050565b600082601f83011261480f5761480e6144d3565b5b813561481f848260208601614773565b91505092915050565b60006020828403121561483e5761483d61430d565b5b600082013567ffffffffffffffff81111561485c5761485b614312565b5b614868848285016147fa565b91505092915050565b600080fd5b600080fd5b600067ffffffffffffffff821115614896576148956144ee565b5b602082029050602081019050919050565b60006148ba6148b58461487b565b61454e565b905080838252602082019050602084028301858111156148dd576148dc61476e565b5b835b8181101561490657806148f288826143ed565b8452602084019350506020810190506148df565b5050509392505050565b600082601f830112614925576149246144d3565b5b81356149358482602086016148a7565b91505092915050565b600067ffffffffffffffff821115614959576149586144ee565b5b602082029050602081019050919050565b600061497d6149788461493e565b61454e565b905080838252602082019050602084028301858111156149a05761499f61476e565b5b835b818110156149c957806149b58882614338565b8452602084019350506020810190506149a2565b5050509392505050565b600082601f8301126149e8576149e76144d3565b5b81356149f884826020860161496a565b91505092915050565b600060a08284031215614a1757614a16614871565b5b614a2160a061454e565b9050600082013567ffffffffffffffff811115614a4157614a40614876565b5b614a4d848285016145eb565b6000830152506020614a6184828501614338565b6020830152506040614a7584828501614338565b604083015250606082013567ffffffffffffffff811115614a9957614a98614876565b5b614aa584828501614910565b606083015250608082013567ffffffffffffffff811115614ac957614ac8614876565b5b614ad5848285016149d3565b60808301525092915050565b600060208284031215614af757614af661430d565b5b600082013567ffffffffffffffff811115614b1557614b14614312565b5b614b2184828501614a01565b91505092915050565b60008060408385031215614b4157614b4061430d565b5b6000614b4f858286016143ed565b9250506020614b6085828601614338565b9150509250929050565b60008115159050919050565b614b7f81614b6a565b82525050565b6000602082019050614b9a6000830184614b76565b92915050565b600081519050919050565b600082825260208201905092915050565b6000819050602082019050919050565b614bd581614317565b82525050565b6000614be78383614bcc565b60208301905092915050565b6000602082019050919050565b6000614c0b82614ba0565b614c158185614bab565b9350614c2083614bbc565b8060005b83811015614c51578151614c388882614bdb565b9750614c4383614bf3565b925050600181019050614c24565b5085935050505092915050565b60006020820190508181036000830152614c788184614c00565b905092915050565b600080600060608486031215614c9957614c9861430d565b5b600084013567ffffffffffffffff811115614cb757614cb6614312565b5b614cc3868287016145eb565b9350506020614cd486828701614338565b9250506040614ce586828701614338565b9150509250925092565b6000604082019050614d04600083018561437a565b614d11602083018461437a565b9392505050565b600081519050919050565b600082825260208201905092915050565b60005b83811015614d52578082015181840152602081019050614d37565b60008484015250505050565b6000614d6982614d18565b614d738185614d23565b9350614d83818560208601614d34565b614d8c816144dd565b840191505092915050565b60006060820190508181036000830152614db18186614d5e565b9050614dc0602083018561437a565b614dcd604083018461437a565b949350505050565b7f49424c3a20616d6f756e74206973207a65726f00000000000000000000000000600082015250565b6000614e0b601383614d23565b9150614e1682614dd5565b602082019050919050565b60006020820190508181036000830152614e3a81614dfe565b9050919050565b7f49424c3a20616d6f756e742067726561746572207468616e207769746864726160008201527f7761626c65207374616b65000000000000000000000000000000000000000000602082015250565b6000614e9d602b83614d23565b9150614ea882614e41565b604082019050919050565b60006020820190508181036000830152614ecc81614e90565b9050919050565b7f4e487b7100000000000000000000000000000000000000000000000000000000600052601160045260246000fd5b6000614f0d82614317565b9150614f1883614317565b9250828201905080821115614f3057614f2f614ed3565b5b92915050565b6000614f4182614317565b9150614f4c83614317565b9250828203905081811115614f6457614f63614ed3565b5b92915050565b7f49424c3a206163636f756e7420686173206e6f20726577617264730000000000600082015250565b6000614fa0601b83614d23565b9150614fab82614f6a565b602082019050919050565b60006020820190508181036000830152614fcf81614f93565b9050919050565b6000604082019050614feb60008301856144a9565b614ff8602083018461437a565b9392505050565b600081905092915050565b600061501582614d18565b61501f8185614fff565b935061502f818560208601614d34565b80840191505092915050565b6000615047828461500a565b915081905092915050565b7f4e487b7100000000000000000000000000000000000000000000000000000000600052603260045260246000fd5b7f4e487b7100000000000000000000000000000000000000000000000000000000600052602260045260246000fd5b600060028204905060018216806150c857607f821691505b6020821081036150db576150da615081565b5b50919050565b60006150ec82614317565b91506150f783614317565b925082820261510581614317565b9150828204841483151761511c5761511b614ed3565b5b5092915050565b7f4e487b7100000000000000000000000000000000000000000000000000000000600052601260045260246000fd5b600061515d82614317565b915061516883614317565b92508261517857615177615123565b5b828204905092915050565b600061518e82614317565b91507fffffffffffffffffffffffffffffffffffffffffffffffffffffffffffffffff82036151c0576151bf614ed3565b5b600182019050919050565b7f49424c3a20596f75206d7573742073656e642065786163742076616c75652100600082015250565b6000615201601f83614d23565b915061520c826151cb565b602082019050919050565b60006020820190508181036000830152615230816151f4565b9050919050565b7f49424c3a20596f75206d75737420706179207075626c69636174696f6e20666560008201527f6521000000000000000000000000000000000000000000000000000000000000602082015250565b6000615293602283614d23565b915061529e82615237565b604082019050919050565b600060208201905081810360008301526152c281615286565b9050919050565b60008190508160005260206000209050919050565b60006020601f8301049050919050565b600082821b905092915050565b60006008830261532b7fffffffffffffffffffffffffffffffffffffffffffffffffffffffffffffffff826152ee565b61533586836152ee565b95508019841693508086168417925050509392505050565b600061536861536361535e84614317565b61442f565b614317565b9050919050565b6000819050919050565b6153828361534d565b61539661538e8261536f565b8484546152fb565b825550505050565b600090565b6153ab61539e565b6153b6818484615379565b505050565b5b818110156153da576153cf6000826153a3565b6001810190506153bc565b5050565b601f82111561541f576153f0816152c9565b6153f9846152de565b81016020851015615408578190505b61541c615414856152de565b8301826153bb565b50505b505050565b600082821c905092915050565b600061544260001984600802615424565b1980831691505092915050565b600061545b8383615431565b9150826002028217905092915050565b61547482614d18565b67ffffffffffffffff81111561548d5761548c6144ee565b5b61549782546150b0565b6154a28282856153de565b600060209050601f8311600181146154d557600084156154c3578287015190505b6154cd858261544f565b865550615535565b601f1984166154e3866152c9565b60005b8281101561550b578489015182556001820191506020850194506020810190506154e6565b868310156155285784890151615524601f891682615431565b8355505b6001600288020188555050505b505050505050565b7f49424c3a20596f752063616e6e6f74207570646174652074686520707269636560008201527f206265636175736520796f7520617265206e6f7420746865206f776e65720000602082015250565b6000615599603e83614d23565b91506155a48261553d565b604082019050919050565b600060208201905081810360008301526155c88161558c565b9050919050565b7f49424c3a20796f75206d7573742073656e64207468652066656520696e20636f60008201527f6e74726163742100000000000000000000000000000000000000000000000000602082015250565b600061562b602783614d23565b9150615636826155cf565b604082019050919050565b6000602082019050818103600083015261565a8161561e565b9050919050565b7f4f776e61626c653a206e6577206f776e657220697320746865207a65726f206160008201527f6464726573730000000000000000000000000000000000000000000000000000602082015250565b60006156bd602683614d23565b91506156c882615661565b604082019050919050565b600060208201905081810360008301526156ec816156b0565b9050919050565b7f5265656e7472616e637947756172643a207265656e7472616e742063616c6c00600082015250565b6000615729601f83614d23565b9150615734826156f3565b602082019050919050565b600060208201905081810360008301526157588161571c565b9050919050565b600081905092915050565b50565b600061577a60008361575f565b91506157858261576a565b600082019050919050565b600061579b8261576d565b9150819050919050565b7f444258656e3a206661696c656420746f2073656e6420616d6f756e7400000000600082015250565b60006157db601c83614d23565b91506157e6826157a5565b602082019050919050565b6000602082019050818103600083015261580a816157ce565b9050919050565b7f4f776e61626c653a2063616c6c6572206973206e6f7420746865206f776e6572600082015250565b6000615847602083614d23565b915061585282615811565b602082019050919050565b600060208201905081810360008301526158768161583a565b9050919050565b600060608201905061589260008301866144a9565b61589f60208301856144a9565b6158ac604083018461437a565b949350505050565b6158bd81614b6a565b81146158c857600080fd5b50565b6000815190506158da816158b4565b92915050565b6000602082840312156158f6576158f561430d565b5b6000615904848285016158cb565b91505092915050565b7f5361666545524332303a204552433230206f7065726174696f6e20646964206e60008201527f6f74207375636365656400000000000000000000000000000000000000000000602082015250565b6000615969602a83614d23565b91506159748261590d565b604082019050919050565b600060208201905081810360008301526159988161595c565b9050919050565b7f416464726573733a20696e73756666696369656e742062616c616e636520666f60008201527f722063616c6c0000000000000000000000000000000000000000000000000000602082015250565b60006159fb602683614d23565b9150615a068261599f565b604082019050919050565b60006020820190508181036000830152615a2a816159ee565b9050919050565b600081519050919050565b6000615a4782615a31565b615a51818561575f565b9350615a61818560208601614d34565b80840191505092915050565b6000615a798284615a3c565b915081905092915050565b7f416464726573733a2063616c6c20746f206e6f6e2d636f6e7472616374000000600082015250565b6000615aba601d83614d23565b9150615ac582615a84565b602082019050919050565b60006020820190508181036000830152615ae981615aad565b9050919050565b60006020820190508181036000830152615b0a8184614d5e565b90509291505056fea264697066735822122010694fa0aa79dbc7de506b63581a9f8241ca8d4d4fee2f847caa93a24f62f09564736f6c6343000811003360a06040523480156200001157600080fd5b506040518060400160405280601081526020017f49424c2052657761726420746f6b656e000000000000000000000000000000008152506040518060400160405280600381526020017f49424c000000000000000000000000000000000000000000000000000000000081525081600390816200008f919062000358565b508060049081620000a1919062000358565b5050503373ffffffffffffffffffffffffffffffffffffffff1660808173ffffffffffffffffffffffffffffffffffffffff16815250506200043f565b600081519050919050565b7f4e487b7100000000000000000000000000000000000000000000000000000000600052604160045260246000fd5b7f4e487b7100000000000000000000000000000000000000000000000000000000600052602260045260246000fd5b600060028204905060018216806200016057607f821691505b60208210810362000176576200017562000118565b5b50919050565b60008190508160005260206000209050919050565b60006020601f8301049050919050565b600082821b905092915050565b600060088302620001e07fffffffffffffffffffffffffffffffffffffffffffffffffffffffffffffffff82620001a1565b620001ec8683620001a1565b95508019841693508086168417925050509392505050565b6000819050919050565b6000819050919050565b600062000239620002336200022d8462000204565b6200020e565b62000204565b9050919050565b6000819050919050565b620002558362000218565b6200026d620002648262000240565b848454620001ae565b825550505050565b600090565b6200028462000275565b620002918184846200024a565b505050565b5b81811015620002b957620002ad6000826200027a565b60018101905062000297565b5050565b601f8211156200030857620002d2816200017c565b620002dd8462000191565b81016020851015620002ed578190505b62000305620002fc8562000191565b83018262000296565b50505b505050565b600082821c905092915050565b60006200032d600019846008026200030d565b1980831691505092915050565b60006200034883836200031a565b9150826002028217905092915050565b6200036382620000de565b67ffffffffffffffff8111156200037f576200037e620000e9565b5b6200038b825462000147565b62000398828285620002bd565b600060209050601f831160018114620003d05760008415620003bb578287015190505b620003c785826200033a565b86555062000437565b601f198416620003e0866200017c565b60005b828110156200040a57848901518255600182019150602085019450602081019050620003e3565b868310156200042a578489015162000426601f8916826200031a565b8355505b6001600288020188555050505b505050505050565b6080516115a7620004626000396000818161044e015261050401526115a76000f3fe608060405234801561001057600080fd5b50600436106100cf5760003560e01c806370a082311161008c5780639a49090e116100665780639a49090e1461022a578063a457c2d714610246578063a9059cbb14610276578063dd62ed3e146102a6576100cf565b806370a08231146101be5780638da5cb5b146101ee57806395d89b411461020c576100cf565b806306fdde03146100d4578063095ea7b3146100f257806318160ddd1461012257806323b872dd14610140578063313ce56714610170578063395093511461018e575b600080fd5b6100dc6102d6565b6040516100e99190610d82565b60405180910390f35b61010c60048036038101906101079190610e3d565b610368565b6040516101199190610e98565b60405180910390f35b61012a61038b565b6040516101379190610ec2565b60405180910390f35b61015a60048036038101906101559190610edd565b610395565b6040516101679190610e98565b60405180910390f35b6101786103c4565b6040516101859190610f4c565b60405180910390f35b6101a860048036038101906101a39190610e3d565b6103cd565b6040516101b59190610e98565b60405180910390f35b6101d860048036038101906101d39190610f67565b610404565b6040516101e59190610ec2565b60405180910390f35b6101f661044c565b6040516102039190610fa3565b60405180910390f35b610214610470565b6040516102219190610d82565b60405180910390f35b610244600480360381019061023f9190610e3d565b610502565b005b610260600480360381019061025b9190610e3d565b61059e565b60405161026d9190610e98565b60405180910390f35b610290600480360381019061028b9190610e3d565b610615565b60405161029d9190610e98565b60405180910390f35b6102c060048036038101906102bb9190610fbe565b610638565b6040516102cd9190610ec2565b60405180910390f35b6060600380546102e59061102d565b80601f01602080910402602001604051908101604052809291908181526020018280546103119061102d565b801561035e5780601f106103335761010080835404028352916020019161035e565b820191906000526020600020905b81548152906001019060200180831161034157829003601f168201915b5050505050905090565b6000806103736106bf565b90506103808185856106c7565b600191505092915050565b6000600254905090565b6000806103a06106bf565b90506103ad858285610890565b6103b885858561091c565b60019150509392505050565b60006012905090565b6000806103d86106bf565b90506103f98185856103ea8589610638565b6103f4919061108d565b6106c7565b600191505092915050565b60008060008373ffffffffffffffffffffffffffffffffffffffff1673ffffffffffffffffffffffffffffffffffffffff168152602001908152602001600020549050919050565b7f000000000000000000000000000000000000000000000000000000000000000081565b60606004805461047f9061102d565b80601f01602080910402602001604051908101604052809291908181526020018280546104ab9061102d565b80156104f85780601f106104cd576101008083540402835291602001916104f8565b820191906000526020600020905b8154815290600101906020018083116104db57829003601f168201915b5050505050905090565b7f000000000000000000000000000000000000000000000000000000000000000073ffffffffffffffffffffffffffffffffffffffff163373ffffffffffffffffffffffffffffffffffffffff1614610590576040517f08c379a00000000000000000000000000000000000000000000000000000000081526004016105879061110d565b60405180910390fd5b61059a8282610b92565b5050565b6000806105a96106bf565b905060006105b78286610638565b9050838110156105fc576040517f08c379a00000000000000000000000000000000000000000000000000000000081526004016105f39061119f565b60405180910390fd5b61060982868684036106c7565b60019250505092915050565b6000806106206106bf565b905061062d81858561091c565b600191505092915050565b6000600160008473ffffffffffffffffffffffffffffffffffffffff1673ffffffffffffffffffffffffffffffffffffffff16815260200190815260200160002060008373ffffffffffffffffffffffffffffffffffffffff1673ffffffffffffffffffffffffffffffffffffffff16815260200190815260200160002054905092915050565b600033905090565b600073ffffffffffffffffffffffffffffffffffffffff168373ffffffffffffffffffffffffffffffffffffffff1603610736576040517f08c379a000000000000000000000000000000000000000000000000000000000815260040161072d90611231565b60405180910390fd5b600073ffffffffffffffffffffffffffffffffffffffff168273ffffffffffffffffffffffffffffffffffffffff16036107a5576040517f08c379a000000000000000000000000000000000000000000000000000000000815260040161079c906112c3565b60405180910390fd5b80600160008573ffffffffffffffffffffffffffffffffffffffff1673ffffffffffffffffffffffffffffffffffffffff16815260200190815260200160002060008473ffffffffffffffffffffffffffffffffffffffff1673ffffffffffffffffffffffffffffffffffffffff168152602001908152602001600020819055508173ffffffffffffffffffffffffffffffffffffffff168373ffffffffffffffffffffffffffffffffffffffff167f8c5be1e5ebec7d5bd14f71427d1e84f3dd0314c0f7b2291e5b200ac8c7c3b925836040516108839190610ec2565b60405180910390a3505050565b600061089c8484610638565b90507fffffffffffffffffffffffffffffffffffffffffffffffffffffffffffffffff81146109165781811015610908576040517f08c379a00000000000000000000000000000000000000000000000000000000081526004016108ff9061132f565b60405180910390fd5b61091584848484036106c7565b5b50505050565b600073ffffffffffffffffffffffffffffffffffffffff168373ffffffffffffffffffffffffffffffffffffffff160361098b576040517f08c379a0000000000000000000000000000000000000000000000000000000008152600401610982906113c1565b60405180910390fd5b600073ffffffffffffffffffffffffffffffffffffffff168273ffffffffffffffffffffffffffffffffffffffff16036109fa576040517f08c379a00000000000000000000000000000000000000000000000000000000081526004016109f190611453565b60405180910390fd5b610a05838383610ce8565b60008060008573ffffffffffffffffffffffffffffffffffffffff1673ffffffffffffffffffffffffffffffffffffffff16815260200190815260200160002054905081811015610a8b576040517f08c379a0000000000000000000000000000000000000000000000000000000008152600401610a82906114e5565b60405180910390fd5b8181036000808673ffffffffffffffffffffffffffffffffffffffff1673ffffffffffffffffffffffffffffffffffffffff16815260200190815260200160002081905550816000808573ffffffffffffffffffffffffffffffffffffffff1673ffffffffffffffffffffffffffffffffffffffff168152602001908152602001600020600082825401925050819055508273ffffffffffffffffffffffffffffffffffffffff168473ffffffffffffffffffffffffffffffffffffffff167fddf252ad1be2c89b69c2b068fc378daa952ba7f163c4a11628f55a4df523b3ef84604051610b799190610ec2565b60405180910390a3610b8c848484610ced565b50505050565b600073ffffffffffffffffffffffffffffffffffffffff168273ffffffffffffffffffffffffffffffffffffffff1603610c01576040517f08c379a0000000000000000000000000000000000000000000000000000000008152600401610bf890611551565b60405180910390fd5b610c0d60008383610ce8565b8060026000828254610c1f919061108d565b92505081905550806000808473ffffffffffffffffffffffffffffffffffffffff1673ffffffffffffffffffffffffffffffffffffffff168152602001908152602001600020600082825401925050819055508173ffffffffffffffffffffffffffffffffffffffff16600073ffffffffffffffffffffffffffffffffffffffff167fddf252ad1be2c89b69c2b068fc378daa952ba7f163c4a11628f55a4df523b3ef83604051610cd09190610ec2565b60405180910390a3610ce460008383610ced565b5050565b505050565b505050565b600081519050919050565b600082825260208201905092915050565b60005b83811015610d2c578082015181840152602081019050610d11565b60008484015250505050565b6000601f19601f8301169050919050565b6000610d5482610cf2565b610d5e8185610cfd565b9350610d6e818560208601610d0e565b610d7781610d38565b840191505092915050565b60006020820190508181036000830152610d9c8184610d49565b905092915050565b600080fd5b600073ffffffffffffffffffffffffffffffffffffffff82169050919050565b6000610dd482610da9565b9050919050565b610de481610dc9565b8114610def57600080fd5b50565b600081359050610e0181610ddb565b92915050565b6000819050919050565b610e1a81610e07565b8114610e2557600080fd5b50565b600081359050610e3781610e11565b92915050565b60008060408385031215610e5457610e53610da4565b5b6000610e6285828601610df2565b9250506020610e7385828601610e28565b9150509250929050565b60008115159050919050565b610e9281610e7d565b82525050565b6000602082019050610ead6000830184610e89565b92915050565b610ebc81610e07565b82525050565b6000602082019050610ed76000830184610eb3565b92915050565b600080600060608486031215610ef657610ef5610da4565b5b6000610f0486828701610df2565b9350506020610f1586828701610df2565b9250506040610f2686828701610e28565b9150509250925092565b600060ff82169050919050565b610f4681610f30565b82525050565b6000602082019050610f616000830184610f3d565b92915050565b600060208284031215610f7d57610f7c610da4565b5b6000610f8b84828501610df2565b91505092915050565b610f9d81610dc9565b82525050565b6000602082019050610fb86000830184610f94565b92915050565b60008060408385031215610fd557610fd4610da4565b5b6000610fe385828601610df2565b9250506020610ff485828601610df2565b9150509250929050565b7f4e487b7100000000000000000000000000000000000000000000000000000000600052602260045260246000fd5b6000600282049050600182168061104557607f821691505b60208210810361105857611057610ffe565b5b50919050565b7f4e487b7100000000000000000000000000000000000000000000000000000000600052601160045260246000fd5b600061109882610e07565b91506110a383610e07565b92508282019050808211156110bb576110ba61105e565b5b92915050565b7f49424c3a2063616c6c6572206973206e6f742049424c20636f6e74726163742e600082015250565b60006110f7602083610cfd565b9150611102826110c1565b602082019050919050565b60006020820190508181036000830152611126816110ea565b9050919050565b7f45524332303a2064656372656173656420616c6c6f77616e63652062656c6f7760008201527f207a65726f000000000000000000000000000000000000000000000000000000602082015250565b6000611189602583610cfd565b91506111948261112d565b604082019050919050565b600060208201905081810360008301526111b88161117c565b9050919050565b7f45524332303a20617070726f76652066726f6d20746865207a65726f2061646460008201527f7265737300000000000000000000000000000000000000000000000000000000602082015250565b600061121b602483610cfd565b9150611226826111bf565b604082019050919050565b6000602082019050818103600083015261124a8161120e565b9050919050565b7f45524332303a20617070726f766520746f20746865207a65726f20616464726560008201527f7373000000000000000000000000000000000000000000000000000000000000602082015250565b60006112ad602283610cfd565b91506112b882611251565b604082019050919050565b600060208201905081810360008301526112dc816112a0565b9050919050565b7f45524332303a20696e73756666696369656e7420616c6c6f77616e6365000000600082015250565b6000611319601d83610cfd565b9150611324826112e3565b602082019050919050565b600060208201905081810360008301526113488161130c565b9050919050565b7f45524332303a207472616e736665722066726f6d20746865207a65726f20616460008201527f6472657373000000000000000000000000000000000000000000000000000000602082015250565b60006113ab602583610cfd565b91506113b68261134f565b604082019050919050565b600060208201905081810360008301526113da8161139e565b9050919050565b7f45524332303a207472616e7366657220746f20746865207a65726f206164647260008201527f6573730000000000000000000000000000000000000000000000000000000000602082015250565b600061143d602383610cfd565b9150611448826113e1565b604082019050919050565b6000602082019050818103600083015261146c81611430565b9050919050565b7f45524332303a207472616e7366657220616d6f756e742065786365656473206260008201527f616c616e63650000000000000000000000000000000000000000000000000000602082015250565b60006114cf602683610cfd565b91506114da82611473565b604082019050919050565b600060208201905081810360008301526114fe816114c2565b9050919050565b7f45524332303a206d696e7420746f20746865207a65726f206164647265737300600082015250565b600061153b601f83610cfd565b915061154682611505565b602082019050919050565b6000602082019050818103600083015261156a8161152e565b905091905056fea26469706673582212201e94c56cc2caba728fc301f445919d0ed98ab83315ad6c1b5fb96de7949eee1464736f6c63430008110033",
  "linkReferences": {},
  "deployedLinkReferences": {}
}